{
  "contractName": "CyberpunkApeExecutives",
  "abi": [
    {
      "inputs": [
        {
          "internalType": "uint16",
          "name": "maxSupply",
          "type": "uint16"
        },
        {
          "internalType": "uint16",
          "name": "maxPresale",
          "type": "uint16"
        },
        {
          "internalType": "uint16",
          "name": "publicTransactionMax",
          "type": "uint16"
        },
        {
          "internalType": "uint256",
          "name": "price",
          "type": "uint256"
        },
        {
          "internalType": "address",
          "name": "signer",
          "type": "address"
        },
        {
          "internalType": "uint256",
          "name": "presaleMintStart",
          "type": "uint256"
        },
        {
          "internalType": "uint256",
          "name": "presaleMintEnd",
          "type": "uint256"
        },
        {
          "internalType": "uint256",
          "name": "publicMintStart",
          "type": "uint256"
        }
      ],
      "stateMutability": "nonpayable",
      "type": "constructor"
    },
    {
      "anonymous": false,
      "inputs": [
        {
          "indexed": true,
          "internalType": "address",
          "name": "owner",
          "type": "address"
        },
        {
          "indexed": true,
          "internalType": "address",
          "name": "approved",
          "type": "address"
        },
        {
          "indexed": true,
          "internalType": "uint256",
          "name": "tokenId",
          "type": "uint256"
        }
      ],
      "name": "Approval",
      "type": "event"
    },
    {
      "anonymous": false,
      "inputs": [
        {
          "indexed": true,
          "internalType": "address",
          "name": "owner",
          "type": "address"
        },
        {
          "indexed": true,
          "internalType": "address",
          "name": "operator",
          "type": "address"
        },
        {
          "indexed": false,
          "internalType": "bool",
          "name": "approved",
          "type": "bool"
        }
      ],
      "name": "ApprovalForAll",
      "type": "event"
    },
    {
      "anonymous": false,
      "inputs": [
        {
          "indexed": true,
          "internalType": "address",
          "name": "previousOwner",
          "type": "address"
        },
        {
          "indexed": true,
          "internalType": "address",
          "name": "newOwner",
          "type": "address"
        }
      ],
      "name": "OwnershipTransferred",
      "type": "event"
    },
    {
      "anonymous": false,
      "inputs": [
        {
          "indexed": false,
          "internalType": "address",
          "name": "sender",
          "type": "address"
        },
        {
          "indexed": false,
          "internalType": "uint256",
          "name": "amount",
          "type": "uint256"
        }
      ],
      "name": "Paid",
      "type": "event"
    },
    {
      "anonymous": false,
      "inputs": [
        {
          "indexed": true,
          "internalType": "address",
          "name": "from",
          "type": "address"
        },
        {
          "indexed": true,
          "internalType": "address",
          "name": "to",
          "type": "address"
        },
        {
          "indexed": true,
          "internalType": "uint256",
          "name": "tokenId",
          "type": "uint256"
        }
      ],
      "name": "Transfer",
      "type": "event"
    },
    {
      "anonymous": false,
      "inputs": [
        {
          "indexed": false,
          "internalType": "address",
          "name": "recipient",
          "type": "address"
        },
        {
          "indexed": false,
          "internalType": "uint256",
          "name": "amount",
          "type": "uint256"
        }
      ],
      "name": "Withdraw",
      "type": "event"
    },
    {
      "inputs": [
        {
          "internalType": "address",
          "name": "to",
          "type": "address"
        },
        {
          "internalType": "uint256",
          "name": "tokenId",
          "type": "uint256"
        }
      ],
      "name": "approve",
      "outputs": [],
      "stateMutability": "nonpayable",
      "type": "function"
    },
    {
      "inputs": [
        {
          "internalType": "address",
          "name": "owner",
          "type": "address"
        }
      ],
      "name": "balanceOf",
      "outputs": [
        {
          "internalType": "uint256",
          "name": "",
          "type": "uint256"
        }
      ],
      "stateMutability": "view",
      "type": "function"
    },
    {
      "inputs": [
        {
          "internalType": "uint256",
          "name": "tokenId",
          "type": "uint256"
        }
      ],
      "name": "getApproved",
      "outputs": [
        {
          "internalType": "address",
          "name": "",
          "type": "address"
        }
      ],
      "stateMutability": "view",
      "type": "function"
    },
    {
      "inputs": [
        {
          "internalType": "address",
          "name": "owner",
          "type": "address"
        },
        {
          "internalType": "address",
          "name": "operator",
          "type": "address"
        }
      ],
      "name": "isApprovedForAll",
      "outputs": [
        {
          "internalType": "bool",
          "name": "",
          "type": "bool"
        }
      ],
      "stateMutability": "view",
      "type": "function"
    },
    {
      "inputs": [
        {
          "internalType": "address",
          "name": "",
          "type": "address"
        }
      ],
      "name": "lastMintNonce",
      "outputs": [
        {
          "internalType": "uint16",
          "name": "",
          "type": "uint16"
        }
      ],
      "stateMutability": "view",
      "type": "function"
    },
    {
      "inputs": [],
      "name": "mintPrice",
      "outputs": [
        {
          "internalType": "uint256",
          "name": "",
          "type": "uint256"
        }
      ],
      "stateMutability": "view",
      "type": "function"
    },
    {
      "inputs": [],
      "name": "minted",
      "outputs": [
        {
          "internalType": "uint16",
          "name": "",
          "type": "uint16"
        }
      ],
      "stateMutability": "view",
      "type": "function"
    },
    {
      "inputs": [],
      "name": "name",
      "outputs": [
        {
          "internalType": "string",
          "name": "",
          "type": "string"
        }
      ],
      "stateMutability": "view",
      "type": "function"
    },
    {
      "inputs": [],
      "name": "owner",
      "outputs": [
        {
          "internalType": "address",
          "name": "",
          "type": "address"
        }
      ],
      "stateMutability": "view",
      "type": "function"
    },
    {
      "inputs": [
        {
          "internalType": "uint256",
          "name": "tokenId",
          "type": "uint256"
        }
      ],
      "name": "ownerOf",
      "outputs": [
        {
          "internalType": "address",
          "name": "",
          "type": "address"
        }
      ],
      "stateMutability": "view",
      "type": "function"
    },
    {
      "inputs": [],
      "name": "presaleMint",
      "outputs": [
        {
          "internalType": "uint256",
          "name": "startDate",
          "type": "uint256"
        },
        {
          "internalType": "uint256",
          "name": "endDate",
          "type": "uint256"
        },
        {
          "internalType": "uint16",
          "name": "totalMinted",
          "type": "uint16"
        },
        {
          "internalType": "uint16",
          "name": "maxMinted",
          "type": "uint16"
        }
      ],
      "stateMutability": "view",
      "type": "function"
    },
    {
      "inputs": [],
      "name": "publicMint",
      "outputs": [
        {
          "internalType": "uint256",
          "name": "startDate",
          "type": "uint256"
        },
        {
          "internalType": "uint16",
          "name": "maxPerTransaction",
          "type": "uint16"
        }
      ],
      "stateMutability": "view",
      "type": "function"
    },
    {
      "inputs": [],
      "name": "renounceOwnership",
      "outputs": [],
      "stateMutability": "nonpayable",
      "type": "function"
    },
    {
      "inputs": [
        {
          "internalType": "address",
          "name": "from",
          "type": "address"
        },
        {
          "internalType": "address",
          "name": "to",
          "type": "address"
        },
        {
          "internalType": "uint256",
          "name": "tokenId",
          "type": "uint256"
        }
      ],
      "name": "safeTransferFrom",
      "outputs": [],
      "stateMutability": "nonpayable",
      "type": "function"
    },
    {
      "inputs": [
        {
          "internalType": "address",
          "name": "from",
          "type": "address"
        },
        {
          "internalType": "address",
          "name": "to",
          "type": "address"
        },
        {
          "internalType": "uint256",
          "name": "tokenId",
          "type": "uint256"
        },
        {
          "internalType": "bytes",
          "name": "_data",
          "type": "bytes"
        }
      ],
      "name": "safeTransferFrom",
      "outputs": [],
      "stateMutability": "nonpayable",
      "type": "function"
    },
    {
      "inputs": [
        {
          "internalType": "address",
          "name": "operator",
          "type": "address"
        },
        {
          "internalType": "bool",
          "name": "approved",
          "type": "bool"
        }
      ],
      "name": "setApprovalForAll",
      "outputs": [],
      "stateMutability": "nonpayable",
      "type": "function"
    },
    {
      "inputs": [
        {
          "internalType": "bytes4",
          "name": "interfaceId",
          "type": "bytes4"
        }
      ],
      "name": "supportsInterface",
      "outputs": [
        {
          "internalType": "bool",
          "name": "",
          "type": "bool"
        }
      ],
      "stateMutability": "view",
      "type": "function"
    },
    {
      "inputs": [],
      "name": "symbol",
      "outputs": [
        {
          "internalType": "string",
          "name": "",
          "type": "string"
        }
      ],
      "stateMutability": "view",
      "type": "function"
    },
    {
      "inputs": [
        {
          "internalType": "uint256",
          "name": "tokenId",
          "type": "uint256"
        }
      ],
      "name": "tokenURI",
      "outputs": [
        {
          "internalType": "string",
          "name": "",
          "type": "string"
        }
      ],
      "stateMutability": "view",
      "type": "function"
    },
    {
      "inputs": [],
      "name": "totalSupply",
      "outputs": [
        {
          "internalType": "uint16",
          "name": "",
          "type": "uint16"
        }
      ],
      "stateMutability": "view",
      "type": "function"
    },
    {
      "inputs": [
        {
          "internalType": "address",
          "name": "from",
          "type": "address"
        },
        {
          "internalType": "address",
          "name": "to",
          "type": "address"
        },
        {
          "internalType": "uint256",
          "name": "tokenId",
          "type": "uint256"
        }
      ],
      "name": "transferFrom",
      "outputs": [],
      "stateMutability": "nonpayable",
      "type": "function"
    },
    {
      "inputs": [
        {
          "internalType": "address",
          "name": "newOwner",
          "type": "address"
        }
      ],
      "name": "transferOwnership",
      "outputs": [],
      "stateMutability": "nonpayable",
      "type": "function"
    },
    {
      "stateMutability": "payable",
      "type": "receive"
    },
    {
      "inputs": [
        {
          "internalType": "string",
          "name": "uri",
          "type": "string"
        }
      ],
      "name": "setBaseURI",
      "outputs": [],
      "stateMutability": "nonpayable",
      "type": "function"
    },
    {
      "inputs": [
        {
          "internalType": "address",
          "name": "signer",
          "type": "address"
        }
      ],
      "name": "setSigner",
      "outputs": [],
      "stateMutability": "nonpayable",
      "type": "function"
    },
    {
      "inputs": [
        {
          "internalType": "uint256",
          "name": "tokenId",
          "type": "uint256"
        }
      ],
      "name": "burn",
      "outputs": [],
      "stateMutability": "nonpayable",
      "type": "function"
    },
    {
      "inputs": [
        {
          "internalType": "address",
          "name": "user",
          "type": "address"
        }
      ],
      "name": "getPresaleMints",
      "outputs": [
        {
          "internalType": "uint16",
          "name": "",
          "type": "uint16"
        }
      ],
      "stateMutability": "view",
      "type": "function"
    },
    {
      "inputs": [
        {
          "internalType": "uint256",
          "name": "startDate",
          "type": "uint256"
        },
        {
          "internalType": "uint256",
          "name": "endDate",
          "type": "uint256"
        },
        {
          "internalType": "uint16",
          "name": "maxMinted",
          "type": "uint16"
        }
      ],
      "name": "updatePresaleMint",
      "outputs": [],
      "stateMutability": "nonpayable",
      "type": "function"
    },
    {
      "inputs": [
        {
          "internalType": "uint16",
          "name": "maxPerTransaction",
          "type": "uint16"
        },
        {
          "internalType": "uint256",
          "name": "startDate",
          "type": "uint256"
        }
      ],
      "name": "updatePublicMint",
      "outputs": [],
      "stateMutability": "nonpayable",
      "type": "function"
    },
    {
      "inputs": [
        {
          "internalType": "uint256",
          "name": "price",
          "type": "uint256"
        }
      ],
      "name": "setMintPrice",
      "outputs": [],
      "stateMutability": "nonpayable",
      "type": "function"
    },
    {
      "inputs": [
        {
          "internalType": "address",
          "name": "minter",
          "type": "address"
        },
        {
          "internalType": "uint16",
          "name": "quantity",
          "type": "uint16"
        },
        {
          "internalType": "uint16",
          "name": "nonce",
          "type": "uint16"
        }
      ],
      "name": "getPremintHash",
      "outputs": [
        {
          "internalType": "bytes32",
          "name": "",
          "type": "bytes32"
        }
      ],
      "stateMutability": "pure",
      "type": "function"
    },
    {
      "inputs": [
        {
          "internalType": "uint16",
          "name": "quantity",
          "type": "uint16"
        },
        {
          "internalType": "uint16",
          "name": "nonce",
          "type": "uint16"
        },
        {
          "internalType": "bytes",
          "name": "signature",
          "type": "bytes"
        }
      ],
      "name": "premint",
      "outputs": [],
      "stateMutability": "payable",
      "type": "function"
    },
    {
      "inputs": [
        {
          "internalType": "uint16",
          "name": "quantity",
          "type": "uint16"
        }
      ],
      "name": "mint",
      "outputs": [],
      "stateMutability": "payable",
      "type": "function"
    },
    {
      "inputs": [
        {
          "internalType": "address",
          "name": "user",
          "type": "address"
        },
        {
          "internalType": "uint16",
          "name": "quantity",
          "type": "uint16"
        }
      ],
      "name": "mintTo",
      "outputs": [],
      "stateMutability": "payable",
      "type": "function"
    },
    {
      "inputs": [
        {
          "internalType": "uint256",
          "name": "amount",
          "type": "uint256"
        }
      ],
      "name": "withdraw",
      "outputs": [],
      "stateMutability": "nonpayable",
      "type": "function"
    }
  ],
  "bytecode": "0x60806040523480156200001157600080fd5b50604051620055903803806200559083398181016040528101906200003791906200047c565b6040518060400160405280601681526020017f437962657270756e6b41706545786563757469766573000000000000000000008152506040518060400160405280600381526020017f43414500000000000000000000000000000000000000000000000000000000008152508160009080519060200190620000bb929190620002e8565b508060019080519060200190620000d4929190620002e8565b505050620000f7620000eb6200021a60201b60201c565b6200022260201b60201c565b600160078190555060008861ffff161162000149576040517f08c379a00000000000000000000000000000000000000000000000000000000081526004016200014090620005a6565b60405180910390fd5b83600960046101000a81548173ffffffffffffffffffffffffffffffffffffffff021916908373ffffffffffffffffffffffffffffffffffffffff16021790555087600960006101000a81548161ffff021916908361ffff16021790555084600b8190555082600c6000018190555081600c6001018190555086600c60020160026101000a81548161ffff021916908361ffff1602179055508060106000018190555085601060010160006101000a81548161ffff021916908361ffff16021790555050505050505050506200062d565b600033905090565b6000600660009054906101000a900473ffffffffffffffffffffffffffffffffffffffff16905081600660006101000a81548173ffffffffffffffffffffffffffffffffffffffff021916908373ffffffffffffffffffffffffffffffffffffffff1602179055508173ffffffffffffffffffffffffffffffffffffffff168173ffffffffffffffffffffffffffffffffffffffff167f8be0079c531659141344cd1fd0a4f28419497f9722a3daafe3b4186f6b6457e060405160405180910390a35050565b828054620002f690620005f7565b90600052602060002090601f0160209004810192826200031a576000855562000366565b82601f106200033557805160ff191683800117855562000366565b8280016001018555821562000366579182015b828111156200036557825182559160200191906001019062000348565b5b50905062000375919062000379565b5090565b5b80821115620003945760008160009055506001016200037a565b5090565b600080fd5b600061ffff82169050919050565b620003b6816200039d565b8114620003c257600080fd5b50565b600081519050620003d681620003ab565b92915050565b6000819050919050565b620003f181620003dc565b8114620003fd57600080fd5b50565b6000815190506200041181620003e6565b92915050565b600073ffffffffffffffffffffffffffffffffffffffff82169050919050565b6000620004448262000417565b9050919050565b620004568162000437565b81146200046257600080fd5b50565b60008151905062000476816200044b565b92915050565b600080600080600080600080610100898b031215620004a0576200049f62000398565b5b6000620004b08b828c01620003c5565b9850506020620004c38b828c01620003c5565b9750506040620004d68b828c01620003c5565b9650506060620004e98b828c0162000400565b9550506080620004fc8b828c0162000465565b94505060a06200050f8b828c0162000400565b93505060c0620005228b828c0162000400565b92505060e0620005358b828c0162000400565b9150509295985092959890939650565b600082825260208201905092915050565b7f5a65726f20737570706c79000000000000000000000000000000000000000000600082015250565b60006200058e600b8362000545565b91506200059b8262000556565b602082019050919050565b60006020820190508181036000830152620005c1816200057f565b9050919050565b7f4e487b7100000000000000000000000000000000000000000000000000000000600052602260045260246000fd5b600060028204905060018216806200061057607f821691505b60208210811415620006275762000626620005c8565b5b50919050565b614f53806200063d6000396000f3fe6080604052600436106101fd5760003560e01c80636352211e1161010d57806395d89b41116100a0578063c87b56dd1161006f578063c87b56dd1461073a578063e2cedd4914610777578063e985e9c5146107b4578063f2fde38b146107f1578063f4a0a5281461081a5761023d565b806395d89b4114610680578063a22cb465146106ab578063b88d4fde146106d4578063baa551ee146106fd5761023d565b806370a08231116100dc57806370a08231146105e5578063715018a6146106225780638da5cb5b146106395780639207b05a146106645761023d565b80636352211e146105175780636817c76c1461055457806368bef3441461057f5780636c19e783146105bc5761023d565b806325102b641161019057806342842e0e1161015f57806342842e0e1461044357806342966c681461046c5780634f02c4201461049557806355f804b3146104c057806359533d6c146104e95761023d565b806325102b64146103a957806326092b83146103d25780632e1a7d4d146103fe5780633f84ac0e146104275761023d565b80630bd0e3a3116101cc5780630bd0e3a31461031057806318160ddd1461033957806323b872dd1461036457806323cf0a221461038d5761023d565b806301ffc9a71461024257806306fdde031461027f578063081812fc146102aa578063095ea7b3146102e75761023d565b3661023d577f737c69225d647e5994eab1a6c301bf6d9232beb2759ae1e27a8966b4732bc489333460405161023392919061308c565b60405180910390a1005b600080fd5b34801561024e57600080fd5b5061026960048036038101906102649190613121565b610843565b6040516102769190613169565b60405180910390f35b34801561028b57600080fd5b50610294610925565b6040516102a1919061321d565b60405180910390f35b3480156102b657600080fd5b506102d160048036038101906102cc919061326b565b6109b7565b6040516102de9190613298565b60405180910390f35b3480156102f357600080fd5b5061030e600480360381019061030991906132df565b610a3c565b005b34801561031c57600080fd5b5061033760048036038101906103329190613359565b610b54565b005b34801561034557600080fd5b5061034e610c09565b60405161035b91906133bb565b60405180910390f35b34801561037057600080fd5b5061038b600480360381019061038691906133d6565b610c1d565b005b6103a760048036038101906103a29190613429565b610c7d565b005b3480156103b557600080fd5b506103d060048036038101906103cb9190613456565b610c8a565b005b3480156103de57600080fd5b506103e7610d34565b6040516103f5929190613496565b60405180910390f35b34801561040a57600080fd5b506104256004803603810190610420919061326b565b610d54565b005b610441600480360381019061043c91906134bf565b610efc565b005b34801561044f57600080fd5b5061046a600480360381019061046591906133d6565b61125d565b005b34801561047857600080fd5b50610493600480360381019061048e919061326b565b61127d565b005b3480156104a157600080fd5b506104aa6112ff565b6040516104b791906133bb565b60405180910390f35b3480156104cc57600080fd5b506104e760048036038101906104e29190613564565b611313565b005b3480156104f557600080fd5b506104fe6113a5565b60405161050e94939291906135b1565b60405180910390f35b34801561052357600080fd5b5061053e6004803603810190610539919061326b565b6113df565b60405161054b9190613298565b60405180910390f35b34801561056057600080fd5b50610569611491565b60405161057691906135f6565b60405180910390f35b34801561058b57600080fd5b506105a660048036038101906105a19190613611565b611497565b6040516105b3919061367d565b60405180910390f35b3480156105c857600080fd5b506105e360048036038101906105de9190613698565b61152d565b005b3480156105f157600080fd5b5061060c60048036038101906106079190613698565b6115ed565b60405161061991906135f6565b60405180910390f35b34801561062e57600080fd5b506106376116a5565b005b34801561064557600080fd5b5061064e61172d565b60405161065b9190613298565b60405180910390f35b61067e6004803603810190610679919061371b565b611757565b005b34801561068c57600080fd5b50610695611cf9565b6040516106a2919061321d565b60405180910390f35b3480156106b757600080fd5b506106d260048036038101906106cd91906137bb565b611d8b565b005b3480156106e057600080fd5b506106fb60048036038101906106f6919061392b565b611f0c565b005b34801561070957600080fd5b50610724600480360381019061071f9190613698565b611f6e565b60405161073191906133bb565b60405180910390f35b34801561074657600080fd5b50610761600480360381019061075c919061326b565b611fc8565b60405161076e919061321d565b60405180910390f35b34801561078357600080fd5b5061079e60048036038101906107999190613698565b61206f565b6040516107ab91906133bb565b60405180910390f35b3480156107c057600080fd5b506107db60048036038101906107d691906139ae565b612090565b6040516107e89190613169565b60405180910390f35b3480156107fd57600080fd5b5061081860048036038101906108139190613698565b612124565b005b34801561082657600080fd5b50610841600480360381019061083c919061326b565b61221c565b005b60007f80ac58cd000000000000000000000000000000000000000000000000000000007bffffffffffffffffffffffffffffffffffffffffffffffffffffffff1916827bffffffffffffffffffffffffffffffffffffffffffffffffffffffff1916148061090e57507f5b5e139f000000000000000000000000000000000000000000000000000000007bffffffffffffffffffffffffffffffffffffffffffffffffffffffff1916827bffffffffffffffffffffffffffffffffffffffffffffffffffffffff1916145b8061091e575061091d826122a2565b5b9050919050565b60606000805461093490613a1d565b80601f016020809104026020016040519081016040528092919081815260200182805461096090613a1d565b80156109ad5780601f10610982576101008083540402835291602001916109ad565b820191906000526020600020905b81548152906001019060200180831161099057829003601f168201915b5050505050905090565b60006109c28261230c565b610a01576040517f08c379a00000000000000000000000000000000000000000000000000000000081526004016109f890613ac1565b60405180910390fd5b6004600083815260200190815260200160002060009054906101000a900473ffffffffffffffffffffffffffffffffffffffff169050919050565b6000610a47826113df565b90508073ffffffffffffffffffffffffffffffffffffffff168373ffffffffffffffffffffffffffffffffffffffff161415610ab8576040517f08c379a0000000000000000000000000000000000000000000000000000000008152600401610aaf90613b53565b60405180910390fd5b8073ffffffffffffffffffffffffffffffffffffffff16610ad7612378565b73ffffffffffffffffffffffffffffffffffffffff161480610b065750610b0581610b00612378565b612090565b5b610b45576040517f08c379a0000000000000000000000000000000000000000000000000000000008152600401610b3c90613be5565b60405180910390fd5b610b4f8383612380565b505050565b610b5c612378565b73ffffffffffffffffffffffffffffffffffffffff16610b7a61172d565b73ffffffffffffffffffffffffffffffffffffffff1614610bd0576040517f08c379a0000000000000000000000000000000000000000000000000000000008152600401610bc790613c51565b60405180910390fd5b82600c6000018190555081600c6001018190555080600c60020160026101000a81548161ffff021916908361ffff160217905550505050565b600960009054906101000a900461ffff1681565b610c2e610c28612378565b82612439565b610c6d576040517f08c379a0000000000000000000000000000000000000000000000000000000008152600401610c6490613ce3565b60405180910390fd5b610c78838383612517565b505050565b610c873382610efc565b50565b610c92612378565b73ffffffffffffffffffffffffffffffffffffffff16610cb061172d565b73ffffffffffffffffffffffffffffffffffffffff1614610d06576040517f08c379a0000000000000000000000000000000000000000000000000000000008152600401610cfd90613c51565b60405180910390fd5b81601060010160006101000a81548161ffff021916908361ffff160217905550806010600001819055505050565b60108060000154908060010160009054906101000a900461ffff16905082565b610d5c612378565b73ffffffffffffffffffffffffffffffffffffffff16610d7a61172d565b73ffffffffffffffffffffffffffffffffffffffff1614610dd0576040517f08c379a0000000000000000000000000000000000000000000000000000000008152600401610dc790613c51565b60405180910390fd5b80471015610e13576040517f08c379a0000000000000000000000000000000000000000000000000000000008152600401610e0a90613d4f565b60405180910390fd5b60003373ffffffffffffffffffffffffffffffffffffffff1682604051610e3990613da0565b60006040518083038185875af1925050503d8060008114610e76576040519150601f19603f3d011682016040523d82523d6000602084013e610e7b565b606091505b5050905080610ebf576040517f08c379a0000000000000000000000000000000000000000000000000000000008152600401610eb690613e01565b60405180910390fd5b7f884edad9ce6fa2440d8a54cc123490eb96d2768479d49ff9c7366125a94243643383604051610ef092919061308c565b60405180910390a15050565b60026007541415610f42576040517f08c379a0000000000000000000000000000000000000000000000000000000008152600401610f3990613e6d565b60405180910390fd5b60026007819055506000600960029054906101000a900461ffff16600960009054906101000a900461ffff16610f789190613ebc565b61ffff16905060008111610fc1576040517f08c379a0000000000000000000000000000000000000000000000000000000008152600401610fb890613f3c565b60405180910390fd5b60018261ffff161015611009576040517f08c379a000000000000000000000000000000000000000000000000000000000815260040161100090613fa8565b60405180910390fd5b808261ffff161115611050576040517f08c379a000000000000000000000000000000000000000000000000000000000815260040161104790614014565b60405180910390fd5b3373ffffffffffffffffffffffffffffffffffffffff1661106f61172d565b73ffffffffffffffffffffffffffffffffffffffff1614156110d357600034146110ce576040517f08c379a00000000000000000000000000000000000000000000000000000000081526004016110c590614080565b60405180910390fd5b6111d1565b601060000154421061119557601060010160009054906101000a900461ffff1661ffff168261ffff16111561113d576040517f08c379a0000000000000000000000000000000000000000000000000000000008152600401611134906140ec565b60405180910390fd5b34600b548361ffff16611150919061410c565b14611190576040517f08c379a0000000000000000000000000000000000000000000000000000000008152600401611187906141b2565b60405180910390fd5b6111d0565b6040517f08c379a00000000000000000000000000000000000000000000000000000000081526004016111c79061421e565b60405180910390fd5b5b60005b8261ffff168161ffff16101561124f576001600960028282829054906101000a900461ffff16611204919061423e565b92506101000a81548161ffff021916908361ffff16021790555061123c84600960029054906101000a900461ffff1661ffff16612773565b808061124790614276565b9150506111d4565b505060016007819055505050565b61127883838360405180602001604052806000815250611f0c565b505050565b3373ffffffffffffffffffffffffffffffffffffffff1661129d826113df565b73ffffffffffffffffffffffffffffffffffffffff16146112f3576040517f08c379a00000000000000000000000000000000000000000000000000000000081526004016112ea906142ed565b60405180910390fd5b6112fc81612791565b50565b600960029054906101000a900461ffff1681565b61131b612378565b73ffffffffffffffffffffffffffffffffffffffff1661133961172d565b73ffffffffffffffffffffffffffffffffffffffff161461138f576040517f08c379a000000000000000000000000000000000000000000000000000000000815260040161138690613c51565b60405180910390fd5b8181600891906113a0929190612f8f565b505050565b600c8060000154908060010154908060020160009054906101000a900461ffff16908060020160029054906101000a900461ffff16905084565b6000806002600084815260200190815260200160002060009054906101000a900473ffffffffffffffffffffffffffffffffffffffff169050600073ffffffffffffffffffffffffffffffffffffffff168173ffffffffffffffffffffffffffffffffffffffff161415611488576040517f08c379a000000000000000000000000000000000000000000000000000000000815260040161147f9061437f565b60405180910390fd5b80915050919050565b600b5481565b600073__VerifySignature_______________________63d2b0737b8585856040518463ffffffff1660e01b81526004016114d4939291906143e9565b60206040518083038186803b1580156114ec57600080fd5b505af4158015611500573d6000803e3d6000fd5b505050506040513d601f19601f82011682018060405250810190611524919061444c565b90509392505050565b611535612378565b73ffffffffffffffffffffffffffffffffffffffff1661155361172d565b73ffffffffffffffffffffffffffffffffffffffff16146115a9576040517f08c379a00000000000000000000000000000000000000000000000000000000081526004016115a090613c51565b60405180910390fd5b80600960046101000a81548173ffffffffffffffffffffffffffffffffffffffff021916908373ffffffffffffffffffffffffffffffffffffffff16021790555050565b60008073ffffffffffffffffffffffffffffffffffffffff168273ffffffffffffffffffffffffffffffffffffffff16141561165e576040517f08c379a0000000000000000000000000000000000000000000000000000000008152600401611655906144eb565b60405180910390fd5b600360008373ffffffffffffffffffffffffffffffffffffffff1673ffffffffffffffffffffffffffffffffffffffff168152602001908152602001600020549050919050565b6116ad612378565b73ffffffffffffffffffffffffffffffffffffffff166116cb61172d565b73ffffffffffffffffffffffffffffffffffffffff1614611721576040517f08c379a000000000000000000000000000000000000000000000000000000000815260040161171890613c51565b60405180910390fd5b61172b60006128a2565b565b6000600660009054906101000a900473ffffffffffffffffffffffffffffffffffffffff16905090565b6002600754141561179d576040517f08c379a000000000000000000000000000000000000000000000000000000000815260040161179490613e6d565b60405180910390fd5b60026007819055506000600960029054906101000a900461ffff16600960009054906101000a900461ffff166117d39190613ebc565b61ffff1690506000811161181c576040517f08c379a000000000000000000000000000000000000000000000000000000000815260040161181390613f3c565b60405180910390fd5b60018561ffff161015611864576040517f08c379a000000000000000000000000000000000000000000000000000000000815260040161185b90613fa8565b60405180910390fd5b808561ffff1611156118ab576040517f08c379a00000000000000000000000000000000000000000000000000000000081526004016118a290614014565b60405180910390fd5b8361ffff16600a60003373ffffffffffffffffffffffffffffffffffffffff1673ffffffffffffffffffffffffffffffffffffffff16815260200190815260200160002060009054906101000a900461ffff1661ffff1610611942576040517f08c379a000000000000000000000000000000000000000000000000000000000815260040161193990614557565b60405180910390fd5b42600c600001541115801561195c575042600c6001015410155b61199b576040517f08c379a00000000000000000000000000000000000000000000000000000000081526004016119929061421e565b60405180910390fd5b73__VerifySignature_______________________63cffc18eb600960049054906101000a900473ffffffffffffffffffffffffffffffffffffffff1633888888886040518763ffffffff1660e01b81526004016119fe969594939291906145b5565b60206040518083038186803b158015611a1657600080fd5b505af4158015611a2a573d6000803e3d6000fd5b505050506040513d601f19601f82011682018060405250810190611a4e9190614626565b611a8d576040517f08c379a0000000000000000000000000000000000000000000000000000000008152600401611a849061469f565b60405180910390fd5b348561ffff16600b54611aa0919061410c565b14611ae0576040517f08c379a0000000000000000000000000000000000000000000000000000000008152600401611ad79061470b565b60405180910390fd5b600c60020160029054906101000a900461ffff1661ffff1685600c60020160009054906101000a900461ffff16611b17919061423e565b61ffff161115611b5c576040517f08c379a0000000000000000000000000000000000000000000000000000000008152600401611b5390614777565b60405180910390fd5b84600c60030160003373ffffffffffffffffffffffffffffffffffffffff1673ffffffffffffffffffffffffffffffffffffffff16815260200190815260200160002060008282829054906101000a900461ffff16611bbb919061423e565b92506101000a81548161ffff021916908361ffff16021790555084600c60020160008282829054906101000a900461ffff16611bf7919061423e565b92506101000a81548161ffff021916908361ffff16021790555083600a60003373ffffffffffffffffffffffffffffffffffffffff1673ffffffffffffffffffffffffffffffffffffffff16815260200190815260200160002060006101000a81548161ffff021916908361ffff16021790555060005b8561ffff168161ffff161015611ce9576001600960028282829054906101000a900461ffff16611c9e919061423e565b92506101000a81548161ffff021916908361ffff160217905550611cd633600960029054906101000a900461ffff1661ffff16612773565b8080611ce190614276565b915050611c6e565b5050600160078190555050505050565b606060018054611d0890613a1d565b80601f0160208091040260200160405190810160405280929190818152602001828054611d3490613a1d565b8015611d815780601f10611d5657610100808354040283529160200191611d81565b820191906000526020600020905b815481529060010190602001808311611d6457829003601f168201915b5050505050905090565b611d93612378565b73ffffffffffffffffffffffffffffffffffffffff168273ffffffffffffffffffffffffffffffffffffffff161415611e01576040517f08c379a0000000000000000000000000000000000000000000000000000000008152600401611df8906147e3565b60405180910390fd5b8060056000611e0e612378565b73ffffffffffffffffffffffffffffffffffffffff1673ffffffffffffffffffffffffffffffffffffffff16815260200190815260200160002060008473ffffffffffffffffffffffffffffffffffffffff1673ffffffffffffffffffffffffffffffffffffffff16815260200190815260200160002060006101000a81548160ff0219169083151502179055508173ffffffffffffffffffffffffffffffffffffffff16611ebb612378565b73ffffffffffffffffffffffffffffffffffffffff167f17307eab39ab6107e8899845ad3d59bd9653f200f220920489ca2b5937696c3183604051611f009190613169565b60405180910390a35050565b611f1d611f17612378565b83612439565b611f5c576040517f08c379a0000000000000000000000000000000000000000000000000000000008152600401611f5390613ce3565b60405180910390fd5b611f6884848484612968565b50505050565b6000600c60030160008373ffffffffffffffffffffffffffffffffffffffff1673ffffffffffffffffffffffffffffffffffffffff16815260200190815260200160002060009054906101000a900461ffff169050919050565b6060611fd38261230c565b612012576040517f08c379a000000000000000000000000000000000000000000000000000000000815260040161200990614875565b60405180910390fd5b600061201c6129c4565b9050600081511161203c5760405180602001604052806000815250612067565b8061204684612a56565b6040516020016120579291906148d1565b6040516020818303038152906040525b915050919050565b600a6020528060005260406000206000915054906101000a900461ffff1681565b6000600560008473ffffffffffffffffffffffffffffffffffffffff1673ffffffffffffffffffffffffffffffffffffffff16815260200190815260200160002060008373ffffffffffffffffffffffffffffffffffffffff1673ffffffffffffffffffffffffffffffffffffffff16815260200190815260200160002060009054906101000a900460ff16905092915050565b61212c612378565b73ffffffffffffffffffffffffffffffffffffffff1661214a61172d565b73ffffffffffffffffffffffffffffffffffffffff16146121a0576040517f08c379a000000000000000000000000000000000000000000000000000000000815260040161219790613c51565b60405180910390fd5b600073ffffffffffffffffffffffffffffffffffffffff168173ffffffffffffffffffffffffffffffffffffffff161415612210576040517f08c379a000000000000000000000000000000000000000000000000000000000815260040161220790614967565b60405180910390fd5b612219816128a2565b50565b612224612378565b73ffffffffffffffffffffffffffffffffffffffff1661224261172d565b73ffffffffffffffffffffffffffffffffffffffff1614612298576040517f08c379a000000000000000000000000000000000000000000000000000000000815260040161228f90613c51565b60405180910390fd5b80600b8190555050565b60007f01ffc9a7000000000000000000000000000000000000000000000000000000007bffffffffffffffffffffffffffffffffffffffffffffffffffffffff1916827bffffffffffffffffffffffffffffffffffffffffffffffffffffffff1916149050919050565b60008073ffffffffffffffffffffffffffffffffffffffff166002600084815260200190815260200160002060009054906101000a900473ffffffffffffffffffffffffffffffffffffffff1673ffffffffffffffffffffffffffffffffffffffff1614159050919050565b600033905090565b816004600083815260200190815260200160002060006101000a81548173ffffffffffffffffffffffffffffffffffffffff021916908373ffffffffffffffffffffffffffffffffffffffff160217905550808273ffffffffffffffffffffffffffffffffffffffff166123f3836113df565b73ffffffffffffffffffffffffffffffffffffffff167f8c5be1e5ebec7d5bd14f71427d1e84f3dd0314c0f7b2291e5b200ac8c7c3b92560405160405180910390a45050565b60006124448261230c565b612483576040517f08c379a000000000000000000000000000000000000000000000000000000000815260040161247a906149f9565b60405180910390fd5b600061248e836113df565b90508073ffffffffffffffffffffffffffffffffffffffff168473ffffffffffffffffffffffffffffffffffffffff1614806124fd57508373ffffffffffffffffffffffffffffffffffffffff166124e5846109b7565b73ffffffffffffffffffffffffffffffffffffffff16145b8061250e575061250d8185612090565b5b91505092915050565b8273ffffffffffffffffffffffffffffffffffffffff16612537826113df565b73ffffffffffffffffffffffffffffffffffffffff161461258d576040517f08c379a000000000000000000000000000000000000000000000000000000000815260040161258490614a8b565b60405180910390fd5b600073ffffffffffffffffffffffffffffffffffffffff168273ffffffffffffffffffffffffffffffffffffffff1614156125fd576040517f08c379a00000000000000000000000000000000000000000000000000000000081526004016125f490614b1d565b60405180910390fd5b612608838383612bb7565b612613600082612380565b6001600360008573ffffffffffffffffffffffffffffffffffffffff1673ffffffffffffffffffffffffffffffffffffffff16815260200190815260200160002060008282546126639190614b3d565b925050819055506001600360008473ffffffffffffffffffffffffffffffffffffffff1673ffffffffffffffffffffffffffffffffffffffff16815260200190815260200160002060008282546126ba9190614b71565b92505081905550816002600083815260200190815260200160002060006101000a81548173ffffffffffffffffffffffffffffffffffffffff021916908373ffffffffffffffffffffffffffffffffffffffff160217905550808273ffffffffffffffffffffffffffffffffffffffff168473ffffffffffffffffffffffffffffffffffffffff167fddf252ad1be2c89b69c2b068fc378daa952ba7f163c4a11628f55a4df523b3ef60405160405180910390a4505050565b61278d828260405180602001604052806000815250612bbc565b5050565b600061279c826113df565b90506127aa81600084612bb7565b6127b5600083612380565b6001600360008373ffffffffffffffffffffffffffffffffffffffff1673ffffffffffffffffffffffffffffffffffffffff16815260200190815260200160002060008282546128059190614b3d565b925050819055506002600083815260200190815260200160002060006101000a81549073ffffffffffffffffffffffffffffffffffffffff021916905581600073ffffffffffffffffffffffffffffffffffffffff168273ffffffffffffffffffffffffffffffffffffffff167fddf252ad1be2c89b69c2b068fc378daa952ba7f163c4a11628f55a4df523b3ef60405160405180910390a45050565b6000600660009054906101000a900473ffffffffffffffffffffffffffffffffffffffff16905081600660006101000a81548173ffffffffffffffffffffffffffffffffffffffff021916908373ffffffffffffffffffffffffffffffffffffffff1602179055508173ffffffffffffffffffffffffffffffffffffffff168173ffffffffffffffffffffffffffffffffffffffff167f8be0079c531659141344cd1fd0a4f28419497f9722a3daafe3b4186f6b6457e060405160405180910390a35050565b612973848484612517565b61297f84848484612c17565b6129be576040517f08c379a00000000000000000000000000000000000000000000000000000000081526004016129b590614c39565b60405180910390fd5b50505050565b6060600880546129d390613a1d565b80601f01602080910402602001604051908101604052809291908181526020018280546129ff90613a1d565b8015612a4c5780601f10612a2157610100808354040283529160200191612a4c565b820191906000526020600020905b815481529060010190602001808311612a2f57829003601f168201915b5050505050905090565b60606000821415612a9e576040518060400160405280600181526020017f30000000000000000000000000000000000000000000000000000000000000008152509050612bb2565b600082905060005b60008214612ad0578080612ab990614c59565b915050600a82612ac99190614cd1565b9150612aa6565b60008167ffffffffffffffff811115612aec57612aeb613800565b5b6040519080825280601f01601f191660200182016040528015612b1e5781602001600182028036833780820191505090505b5090505b60008514612bab57600182612b379190614b3d565b9150600a85612b469190614d02565b6030612b529190614b71565b60f81b818381518110612b6857612b67614d33565b5b60200101907effffffffffffffffffffffffffffffffffffffffffffffffffffffffffffff1916908160001a905350600a85612ba49190614cd1565b9450612b22565b8093505050505b919050565b505050565b612bc68383612dae565b612bd36000848484612c17565b612c12576040517f08c379a0000000000000000000000000000000000000000000000000000000008152600401612c0990614c39565b60405180910390fd5b505050565b6000612c388473ffffffffffffffffffffffffffffffffffffffff16612f7c565b15612da1578373ffffffffffffffffffffffffffffffffffffffff1663150b7a02612c61612378565b8786866040518563ffffffff1660e01b8152600401612c839493929190614db7565b602060405180830381600087803b158015612c9d57600080fd5b505af1925050508015612cce57506040513d601f19601f82011682018060405250810190612ccb9190614e18565b60015b612d51573d8060008114612cfe576040519150601f19603f3d011682016040523d82523d6000602084013e612d03565b606091505b50600081511415612d49576040517f08c379a0000000000000000000000000000000000000000000000000000000008152600401612d4090614c39565b60405180910390fd5b805181602001fd5b63150b7a0260e01b7bffffffffffffffffffffffffffffffffffffffffffffffffffffffff1916817bffffffffffffffffffffffffffffffffffffffffffffffffffffffff191614915050612da6565b600190505b949350505050565b600073ffffffffffffffffffffffffffffffffffffffff168273ffffffffffffffffffffffffffffffffffffffff161415612e1e576040517f08c379a0000000000000000000000000000000000000000000000000000000008152600401612e1590614e91565b60405180910390fd5b612e278161230c565b15612e67576040517f08c379a0000000000000000000000000000000000000000000000000000000008152600401612e5e90614efd565b60405180910390fd5b612e7360008383612bb7565b6001600360008473ffffffffffffffffffffffffffffffffffffffff1673ffffffffffffffffffffffffffffffffffffffff1681526020019081526020016000206000828254612ec39190614b71565b92505081905550816002600083815260200190815260200160002060006101000a81548173ffffffffffffffffffffffffffffffffffffffff021916908373ffffffffffffffffffffffffffffffffffffffff160217905550808273ffffffffffffffffffffffffffffffffffffffff16600073ffffffffffffffffffffffffffffffffffffffff167fddf252ad1be2c89b69c2b068fc378daa952ba7f163c4a11628f55a4df523b3ef60405160405180910390a45050565b600080823b905060008111915050919050565b828054612f9b90613a1d565b90600052602060002090601f016020900481019282612fbd5760008555613004565b82601f10612fd657803560ff1916838001178555613004565b82800160010185558215613004579182015b82811115613003578235825591602001919060010190612fe8565b5b5090506130119190613015565b5090565b5b8082111561302e576000816000905550600101613016565b5090565b600073ffffffffffffffffffffffffffffffffffffffff82169050919050565b600061305d82613032565b9050919050565b61306d81613052565b82525050565b6000819050919050565b61308681613073565b82525050565b60006040820190506130a16000830185613064565b6130ae602083018461307d565b9392505050565b6000604051905090565b600080fd5b600080fd5b60007fffffffff0000000000000000000000000000000000000000000000000000000082169050919050565b6130fe816130c9565b811461310957600080fd5b50565b60008135905061311b816130f5565b92915050565b600060208284031215613137576131366130bf565b5b60006131458482850161310c565b91505092915050565b60008115159050919050565b6131638161314e565b82525050565b600060208201905061317e600083018461315a565b92915050565b600081519050919050565b600082825260208201905092915050565b60005b838110156131be5780820151818401526020810190506131a3565b838111156131cd576000848401525b50505050565b6000601f19601f8301169050919050565b60006131ef82613184565b6131f9818561318f565b93506132098185602086016131a0565b613212816131d3565b840191505092915050565b6000602082019050818103600083015261323781846131e4565b905092915050565b61324881613073565b811461325357600080fd5b50565b6000813590506132658161323f565b92915050565b600060208284031215613281576132806130bf565b5b600061328f84828501613256565b91505092915050565b60006020820190506132ad6000830184613064565b92915050565b6132bc81613052565b81146132c757600080fd5b50565b6000813590506132d9816132b3565b92915050565b600080604083850312156132f6576132f56130bf565b5b6000613304858286016132ca565b925050602061331585828601613256565b9150509250929050565b600061ffff82169050919050565b6133368161331f565b811461334157600080fd5b50565b6000813590506133538161332d565b92915050565b600080600060608486031215613372576133716130bf565b5b600061338086828701613256565b935050602061339186828701613256565b92505060406133a286828701613344565b9150509250925092565b6133b58161331f565b82525050565b60006020820190506133d060008301846133ac565b92915050565b6000806000606084860312156133ef576133ee6130bf565b5b60006133fd868287016132ca565b935050602061340e868287016132ca565b925050604061341f86828701613256565b9150509250925092565b60006020828403121561343f5761343e6130bf565b5b600061344d84828501613344565b91505092915050565b6000806040838503121561346d5761346c6130bf565b5b600061347b85828601613344565b925050602061348c85828601613256565b9150509250929050565b60006040820190506134ab600083018561307d565b6134b860208301846133ac565b9392505050565b600080604083850312156134d6576134d56130bf565b5b60006134e4858286016132ca565b92505060206134f585828601613344565b9150509250929050565b600080fd5b600080fd5b600080fd5b60008083601f840112613524576135236134ff565b5b8235905067ffffffffffffffff81111561354157613540613504565b5b60208301915083600182028301111561355d5761355c613509565b5b9250929050565b6000806020838503121561357b5761357a6130bf565b5b600083013567ffffffffffffffff811115613599576135986130c4565b5b6135a58582860161350e565b92509250509250929050565b60006080820190506135c6600083018761307d565b6135d3602083018661307d565b6135e060408301856133ac565b6135ed60608301846133ac565b95945050505050565b600060208201905061360b600083018461307d565b92915050565b60008060006060848603121561362a576136296130bf565b5b6000613638868287016132ca565b935050602061364986828701613344565b925050604061365a86828701613344565b9150509250925092565b6000819050919050565b61367781613664565b82525050565b6000602082019050613692600083018461366e565b92915050565b6000602082840312156136ae576136ad6130bf565b5b60006136bc848285016132ca565b91505092915050565b60008083601f8401126136db576136da6134ff565b5b8235905067ffffffffffffffff8111156136f8576136f7613504565b5b60208301915083600182028301111561371457613713613509565b5b9250929050565b60008060008060608587031215613735576137346130bf565b5b600061374387828801613344565b945050602061375487828801613344565b935050604085013567ffffffffffffffff811115613775576137746130c4565b5b613781878288016136c5565b925092505092959194509250565b6137988161314e565b81146137a357600080fd5b50565b6000813590506137b58161378f565b92915050565b600080604083850312156137d2576137d16130bf565b5b60006137e0858286016132ca565b92505060206137f1858286016137a6565b9150509250929050565b600080fd5b7f4e487b7100000000000000000000000000000000000000000000000000000000600052604160045260246000fd5b613838826131d3565b810181811067ffffffffffffffff8211171561385757613856613800565b5b80604052505050565b600061386a6130b5565b9050613876828261382f565b919050565b600067ffffffffffffffff82111561389657613895613800565b5b61389f826131d3565b9050602081019050919050565b82818337600083830152505050565b60006138ce6138c98461387b565b613860565b9050828152602081018484840111156138ea576138e96137fb565b5b6138f58482856138ac565b509392505050565b600082601f830112613912576139116134ff565b5b81356139228482602086016138bb565b91505092915050565b60008060008060808587031215613945576139446130bf565b5b6000613953878288016132ca565b9450506020613964878288016132ca565b935050604061397587828801613256565b925050606085013567ffffffffffffffff811115613996576139956130c4565b5b6139a2878288016138fd565b91505092959194509250565b600080604083850312156139c5576139c46130bf565b5b60006139d3858286016132ca565b92505060206139e4858286016132ca565b9150509250929050565b7f4e487b7100000000000000000000000000000000000000000000000000000000600052602260045260246000fd5b60006002820490506001821680613a3557607f821691505b60208210811415613a4957613a486139ee565b5b50919050565b7f4552433732313a20617070726f76656420717565727920666f72206e6f6e657860008201527f697374656e7420746f6b656e0000000000000000000000000000000000000000602082015250565b6000613aab602c8361318f565b9150613ab682613a4f565b604082019050919050565b60006020820190508181036000830152613ada81613a9e565b9050919050565b7f4552433732313a20617070726f76616c20746f2063757272656e74206f776e6560008201527f7200000000000000000000000000000000000000000000000000000000000000602082015250565b6000613b3d60218361318f565b9150613b4882613ae1565b604082019050919050565b60006020820190508181036000830152613b6c81613b30565b9050919050565b7f4552433732313a20617070726f76652063616c6c6572206973206e6f74206f7760008201527f6e6572206e6f7220617070726f76656420666f7220616c6c0000000000000000602082015250565b6000613bcf60388361318f565b9150613bda82613b73565b604082019050919050565b60006020820190508181036000830152613bfe81613bc2565b9050919050565b7f4f776e61626c653a2063616c6c6572206973206e6f7420746865206f776e6572600082015250565b6000613c3b60208361318f565b9150613c4682613c05565b602082019050919050565b60006020820190508181036000830152613c6a81613c2e565b9050919050565b7f4552433732313a207472616e736665722063616c6c6572206973206e6f74206f60008201527f776e6572206e6f7220617070726f766564000000000000000000000000000000602082015250565b6000613ccd60318361318f565b9150613cd882613c71565b604082019050919050565b60006020820190508181036000830152613cfc81613cc0565b9050919050565b7f496e76616c696420616d74000000000000000000000000000000000000000000600082015250565b6000613d39600b8361318f565b9150613d4482613d03565b602082019050919050565b60006020820190508181036000830152613d6881613d2c565b9050919050565b600081905092915050565b50565b6000613d8a600083613d6f565b9150613d9582613d7a565b600082019050919050565b6000613dab82613d7d565b9150819050919050565b7f5472616e73206661696c65640000000000000000000000000000000000000000600082015250565b6000613deb600c8361318f565b9150613df682613db5565b602082019050919050565b60006020820190508181036000830152613e1a81613dde565b9050919050565b7f5265656e7472616e637947756172643a207265656e7472616e742063616c6c00600082015250565b6000613e57601f8361318f565b9150613e6282613e21565b602082019050919050565b60006020820190508181036000830152613e8681613e4a565b9050919050565b7f4e487b7100000000000000000000000000000000000000000000000000000000600052601160045260246000fd5b6000613ec78261331f565b9150613ed28361331f565b925082821015613ee557613ee4613e8d565b5b828203905092915050565b7f4d696e74206f7665720000000000000000000000000000000000000000000000600082015250565b6000613f2660098361318f565b9150613f3182613ef0565b602082019050919050565b60006020820190508181036000830152613f5581613f19565b9050919050565b7f5a65726f206d696e740000000000000000000000000000000000000000000000600082015250565b6000613f9260098361318f565b9150613f9d82613f5c565b602082019050919050565b60006020820190508181036000830152613fc181613f85565b9050919050565b7f4e6f7420656e6f75676800000000000000000000000000000000000000000000600082015250565b6000613ffe600a8361318f565b915061400982613fc8565b602082019050919050565b6000602082019050818103600083015261402d81613ff1565b9050919050565b7f4f776e6572207061696400000000000000000000000000000000000000000000600082015250565b600061406a600a8361318f565b915061407582614034565b602082019050919050565b600060208201905081810360008301526140998161405d565b9050919050565b7f45786365656473206d6178000000000000000000000000000000000000000000600082015250565b60006140d6600b8361318f565b91506140e1826140a0565b602082019050919050565b60006020820190508181036000830152614105816140c9565b9050919050565b600061411782613073565b915061412283613073565b9250817fffffffffffffffffffffffffffffffffffffffffffffffffffffffffffffffff048311821515161561415b5761415a613e8d565b5b828202905092915050565b7f496e76616c69642076616c756500000000000000000000000000000000000000600082015250565b600061419c600d8361318f565b91506141a782614166565b602082019050919050565b600060208201905081810360008301526141cb8161418f565b9050919050565b7f4e6f206d696e7400000000000000000000000000000000000000000000000000600082015250565b600061420860078361318f565b9150614213826141d2565b602082019050919050565b60006020820190508181036000830152614237816141fb565b9050919050565b60006142498261331f565b91506142548361331f565b92508261ffff0382111561426b5761426a613e8d565b5b828201905092915050565b60006142818261331f565b915061ffff82141561429657614295613e8d565b5b600182019050919050565b7f596f7520646f206e6f74206f776e207468697320746f6b656e00000000000000600082015250565b60006142d760198361318f565b91506142e2826142a1565b602082019050919050565b60006020820190508181036000830152614306816142ca565b9050919050565b7f4552433732313a206f776e657220717565727920666f72206e6f6e657869737460008201527f656e7420746f6b656e0000000000000000000000000000000000000000000000602082015250565b600061436960298361318f565b91506143748261430d565b604082019050919050565b600060208201905081810360008301526143988161435c565b9050919050565b6143a881613052565b82525050565b6000819050919050565b60006143d36143ce6143c98461331f565b6143ae565b613073565b9050919050565b6143e3816143b8565b82525050565b60006060820190506143fe600083018661439f565b61440b60208301856143da565b61441860408301846143da565b949350505050565b61442981613664565b811461443457600080fd5b50565b60008151905061444681614420565b92915050565b600060208284031215614462576144616130bf565b5b600061447084828501614437565b91505092915050565b7f4552433732313a2062616c616e636520717565727920666f7220746865207a6560008201527f726f206164647265737300000000000000000000000000000000000000000000602082015250565b60006144d5602a8361318f565b91506144e082614479565b604082019050919050565b60006020820190508181036000830152614504816144c8565b9050919050565b7f4e6f6e6365207573656400000000000000000000000000000000000000000000600082015250565b6000614541600a8361318f565b915061454c8261450b565b602082019050919050565b6000602082019050818103600083015261457081614534565b9050919050565b600082825260208201905092915050565b60006145948385614577565b93506145a18385846138ac565b6145aa836131d3565b840190509392505050565b600060a0820190506145ca600083018961439f565b6145d7602083018861439f565b6145e460408301876143da565b6145f160608301866143da565b8181036080830152614604818486614588565b9050979650505050505050565b6000815190506146208161378f565b92915050565b60006020828403121561463c5761463b6130bf565b5b600061464a84828501614611565b91505092915050565b7f496e76616c696420736967000000000000000000000000000000000000000000600082015250565b6000614689600b8361318f565b915061469482614653565b602082019050919050565b600060208201905081810360008301526146b88161467c565b9050919050565b7f4261642076616c75650000000000000000000000000000000000000000000000600082015250565b60006146f560098361318f565b9150614700826146bf565b602082019050919050565b60006020820190508181036000830152614724816146e8565b9050919050565b7f4c696d6974206578636565646564000000000000000000000000000000000000600082015250565b6000614761600e8361318f565b915061476c8261472b565b602082019050919050565b6000602082019050818103600083015261479081614754565b9050919050565b7f4552433732313a20617070726f766520746f2063616c6c657200000000000000600082015250565b60006147cd60198361318f565b91506147d882614797565b602082019050919050565b600060208201905081810360008301526147fc816147c0565b9050919050565b7f4552433732314d657461646174613a2055524920717565727920666f72206e6f60008201527f6e6578697374656e7420746f6b656e0000000000000000000000000000000000602082015250565b600061485f602f8361318f565b915061486a82614803565b604082019050919050565b6000602082019050818103600083015261488e81614852565b9050919050565b600081905092915050565b60006148ab82613184565b6148b58185614895565b93506148c58185602086016131a0565b80840191505092915050565b60006148dd82856148a0565b91506148e982846148a0565b91508190509392505050565b7f4f776e61626c653a206e6577206f776e657220697320746865207a65726f206160008201527f6464726573730000000000000000000000000000000000000000000000000000602082015250565b600061495160268361318f565b915061495c826148f5565b604082019050919050565b6000602082019050818103600083015261498081614944565b9050919050565b7f4552433732313a206f70657261746f7220717565727920666f72206e6f6e657860008201527f697374656e7420746f6b656e0000000000000000000000000000000000000000602082015250565b60006149e3602c8361318f565b91506149ee82614987565b604082019050919050565b60006020820190508181036000830152614a12816149d6565b9050919050565b7f4552433732313a207472616e73666572206f6620746f6b656e2074686174206960008201527f73206e6f74206f776e0000000000000000000000000000000000000000000000602082015250565b6000614a7560298361318f565b9150614a8082614a19565b604082019050919050565b60006020820190508181036000830152614aa481614a68565b9050919050565b7f4552433732313a207472616e7366657220746f20746865207a65726f2061646460008201527f7265737300000000000000000000000000000000000000000000000000000000602082015250565b6000614b0760248361318f565b9150614b1282614aab565b604082019050919050565b60006020820190508181036000830152614b3681614afa565b9050919050565b6000614b4882613073565b9150614b5383613073565b925082821015614b6657614b65613e8d565b5b828203905092915050565b6000614b7c82613073565b9150614b8783613073565b9250827fffffffffffffffffffffffffffffffffffffffffffffffffffffffffffffffff03821115614bbc57614bbb613e8d565b5b828201905092915050565b7f4552433732313a207472616e7366657220746f206e6f6e20455243373231526560008201527f63656976657220696d706c656d656e7465720000000000000000000000000000602082015250565b6000614c2360328361318f565b9150614c2e82614bc7565b604082019050919050565b60006020820190508181036000830152614c5281614c16565b9050919050565b6000614c6482613073565b91507fffffffffffffffffffffffffffffffffffffffffffffffffffffffffffffffff821415614c9757614c96613e8d565b5b600182019050919050565b7f4e487b7100000000000000000000000000000000000000000000000000000000600052601260045260246000fd5b6000614cdc82613073565b9150614ce783613073565b925082614cf757614cf6614ca2565b5b828204905092915050565b6000614d0d82613073565b9150614d1883613073565b925082614d2857614d27614ca2565b5b828206905092915050565b7f4e487b7100000000000000000000000000000000000000000000000000000000600052603260045260246000fd5b600081519050919050565b600082825260208201905092915050565b6000614d8982614d62565b614d938185614d6d565b9350614da38185602086016131a0565b614dac816131d3565b840191505092915050565b6000608082019050614dcc6000830187613064565b614dd96020830186613064565b614de6604083018561307d565b8181036060830152614df88184614d7e565b905095945050505050565b600081519050614e12816130f5565b92915050565b600060208284031215614e2e57614e2d6130bf565b5b6000614e3c84828501614e03565b91505092915050565b7f4552433732313a206d696e7420746f20746865207a65726f2061646472657373600082015250565b6000614e7b60208361318f565b9150614e8682614e45565b602082019050919050565b60006020820190508181036000830152614eaa81614e6e565b9050919050565b7f4552433732313a20746f6b656e20616c7265616479206d696e74656400000000600082015250565b6000614ee7601c8361318f565b9150614ef282614eb1565b602082019050919050565b60006020820190508181036000830152614f1681614eda565b905091905056fea2646970667358221220838d3be1cd7dc613ff44e7f75d8650d4e83950b1bcb48babc63f7937f0abbf3264736f6c63430008090033",
  "immutableReferences": {},
  "source": "// SPDX-License-Identifier: MIT\r\n\r\npragma solidity ^0.8.0;\r\n\r\nimport \"@openzeppelin/contracts/token/ERC721/ERC721.sol\";\r\nimport \"@openzeppelin/contracts/access/Ownable.sol\";\r\nimport \"@openzeppelin/contracts/security/ReentrancyGuard.sol\";\r\nimport \"./Signer.sol\";\r\n\r\ncontract CyberpunkApeExecutives is ERC721, Ownable, ReentrancyGuard {\r\n    constructor(\r\n        uint16 maxSupply,\r\n        uint16 maxPresale,\r\n        uint16 publicTransactionMax,\r\n        uint256 price,\r\n        address signer,\r\n        uint256 presaleMintStart,\r\n        uint256 presaleMintEnd,\r\n        uint256 publicMintStart\r\n    ) ERC721(\"CyberpunkApeExecutives\", \"CAE\") {\r\n        require(maxSupply > 0, \"Zero supply\");\r\n\r\n        mintSigner = signer;\r\n        totalSupply = maxSupply;\r\n        mintPrice = price;\r\n\r\n        // CONFIGURE PRESALE Mint\r\n        presaleMint.startDate = presaleMintStart;\r\n        presaleMint.endDate = presaleMintEnd;\r\n        presaleMint.maxMinted = maxPresale;\r\n\r\n        // CONFIGURE PUBLIC MINT\r\n        publicMint.startDate = publicMintStart;\r\n        publicMint.maxPerTransaction = publicTransactionMax;\r\n    }\r\n\r\n    event Paid(address sender, uint256 amount);\r\n    event Withdraw(address recipient, uint256 amount);\r\n\r\n    struct WhitelistedMint {\r\n        /**\r\n         * The start date in unix seconds\r\n         */\r\n        uint256 startDate;\r\n        /**\r\n         * The end date in unix seconds\r\n         */\r\n        uint256 endDate;\r\n        /**\r\n         * The total number of tokens minted in this whitelist\r\n         */\r\n        uint16 totalMinted;\r\n        /**\r\n         * The maximum number of tokens minted in this whitelist\r\n         */\r\n        uint16 maxMinted;\r\n        /**\r\n         * The minters in this whitelisted mint\r\n         * mapped to the number minted\r\n         */\r\n        mapping(address => uint16) minted;\r\n    }\r\n\r\n    struct PublicMint {\r\n        /**\r\n         * The start date in unix seconds\r\n         */\r\n        uint256 startDate;\r\n        /**\r\n         * The maximum per transaction\r\n         */\r\n        uint16 maxPerTransaction;\r\n    }\r\n\r\n    string baseURI;\r\n\r\n    uint16 public totalSupply;\r\n    uint16 public minted;\r\n\r\n    address private mintSigner;\r\n    mapping(address => uint16) public lastMintNonce;\r\n    uint256 public mintPrice;\r\n\r\n    /**\r\n     * An exclusive mint for members granted\r\n     * presale\r\n     */\r\n    WhitelistedMint public presaleMint;\r\n\r\n    /**\r\n     * The public mint for everybody.\r\n     */\r\n    PublicMint public publicMint;\r\n\r\n    /**\r\n     * @dev Base URI for computing {tokenURI}. If set, the resulting URI for each\r\n     * token will be the concatenation of the `baseURI` and the `tokenId`.\r\n     */\r\n    function _baseURI() internal view virtual override returns (string memory) {\r\n        return baseURI;\r\n    }\r\n\r\n    /**\r\n     * Sets the base URI for all tokens\r\n     *\r\n     * @dev be sure to terminate with a slash\r\n     * @param uri - the target base uri (ex: 'https://google.com/')\r\n     */\r\n    function setBaseURI(string calldata uri) public onlyOwner {\r\n        baseURI = uri;\r\n    }\r\n\r\n    /**\r\n     * Sets the signer for presale transactions\r\n     *\r\n     * @param signer - the new signer's address\r\n     */\r\n    function setSigner(address signer) public onlyOwner {\r\n        mintSigner = signer;\r\n    }\r\n\r\n    /**\r\n     * Burns the provided token id if you own it.\r\n     * Reduces the supply by 1.\r\n     *\r\n     * @param tokenId - the ID of the token to be burned.\r\n     */\r\n    function burn(uint256 tokenId) public {\r\n        require(ownerOf(tokenId) == msg.sender, \"You do not own this token\");\r\n\r\n        _burn(tokenId);\r\n    }\r\n\r\n    // ------------------------------------------------ MINT STUFFS ------------------------------------------------\r\n\r\n    function getPresaleMints(address user) external view returns (uint16) {\r\n        return presaleMint.minted[user];\r\n    }\r\n\r\n    /**\r\n     * Updates the presale mint's characteristics\r\n     *\r\n     * @param startDate - the start date for that mint in UNIX seconds\r\n     * @param endDate - the end date for that mint in UNIX seconds\r\n     */\r\n    function updatePresaleMint(\r\n        uint256 startDate,\r\n        uint256 endDate,\r\n        uint16 maxMinted\r\n    ) public onlyOwner {\r\n        presaleMint.startDate = startDate;\r\n        presaleMint.endDate = endDate;\r\n        presaleMint.maxMinted = maxMinted;\r\n    }\r\n\r\n    /**\r\n     * Updates the public mint's characteristics\r\n     *\r\n     * @param maxPerTransaction - the maximum amount allowed in a wallet to mint in the public mint\r\n     * @param startDate - the start date for that mint in UNIX seconds\r\n     */\r\n    function updatePublicMint(uint16 maxPerTransaction, uint256 startDate)\r\n        public\r\n        onlyOwner\r\n    {\r\n        publicMint.maxPerTransaction = maxPerTransaction;\r\n        publicMint.startDate = startDate;\r\n    }\r\n\r\n    /**\r\n     * Sets the mint price for whitelist and public mints.\r\n     * @param price - the cost for the mints in WEI\r\n     * @dev only for the contract owner\r\n     */\r\n    function setMintPrice(uint256 price) external onlyOwner {\r\n        mintPrice = price;\r\n    }\r\n\r\n    function getPremintHash(\r\n        address minter,\r\n        uint16 quantity,\r\n        uint16 nonce\r\n    ) public pure returns (bytes32) {\r\n        return VerifySignature.getMessageHash(minter, quantity, nonce);\r\n    }\r\n\r\n    /**\r\n     * Mints in the premint stage by using a signed transaction from a centralized whitelist.\r\n     * The message signer is expected to only sign messages when they fall within the whitelist\r\n     * specifications.\r\n     *\r\n     * @param quantity - the number to mint\r\n     * @param nonce - a random nonce which indicates that a signed transaction hasn't already been used.\r\n     * @param signature - the signature given by the centralized whitelist authority, signed by\r\n     *                    the account specified as mintSigner.\r\n     */\r\n    function premint(\r\n        uint16 quantity,\r\n        uint16 nonce,\r\n        bytes calldata signature\r\n    ) public payable nonReentrant {\r\n        uint256 remaining = totalSupply - minted;\r\n\r\n        require(remaining > 0, \"Mint over\");\r\n        require(quantity >= 1, \"Zero mint\");\r\n        require(quantity <= remaining, \"Not enough\");\r\n        require(lastMintNonce[msg.sender] < nonce, \"Nonce used\");\r\n\r\n        require(\r\n            presaleMint.startDate <= block.timestamp &&\r\n                presaleMint.endDate >= block.timestamp,\r\n            \"No mint\"\r\n        );\r\n        require(\r\n            VerifySignature.verify(\r\n                mintSigner,\r\n                msg.sender,\r\n                quantity,\r\n                nonce,\r\n                signature\r\n            ),\r\n            \"Invalid sig\"\r\n        );\r\n        require(mintPrice * quantity == msg.value, \"Bad value\");\r\n        require(\r\n            presaleMint.totalMinted + quantity <= presaleMint.maxMinted,\r\n            \"Limit exceeded\"\r\n        );\r\n\r\n        presaleMint.minted[msg.sender] += quantity;\r\n        presaleMint.totalMinted += quantity;\r\n        lastMintNonce[msg.sender] = nonce; // update nonce\r\n\r\n        // DISTRIBUTE THE TOKENS\r\n        uint16 i;\r\n        for (i; i < quantity; i++) {\r\n            minted += 1;\r\n            _safeMint(msg.sender, minted);\r\n        }\r\n    }\r\n\r\n    /**\r\n     * Mints the given quantity of tokens provided it is possible to.\r\n     *\r\n     * @notice This function allows minting in the public sale\r\n     *         or at any time for the owner of the contract.\r\n     *\r\n     * @param quantity - the number of tokens to mint\r\n     */\r\n    function mint(uint16 quantity) public payable {\r\n        mintTo(msg.sender, quantity);\r\n    }\r\n\r\n    /**\r\n     * Mints the given quantity of tokens provided it is possible to.\r\n     *\r\n     * @notice This function allows minting in the public sale\r\n     *         or at any time for the owner of the contract.\r\n     *\r\n     * @param quantity - the number of tokens to mint\r\n     * @param user - the recipient of the mint\r\n     */\r\n    function mintTo(address user, uint16 quantity) public payable nonReentrant {\r\n        uint256 remaining = totalSupply - minted;\r\n\r\n        require(remaining > 0, \"Mint over\");\r\n        require(quantity >= 1, \"Zero mint\");\r\n        require(quantity <= remaining, \"Not enough\");\r\n\r\n        if (owner() == msg.sender) {\r\n            // OWNER MINTING FOR FREE\r\n            require(msg.value == 0, \"Owner paid\");\r\n        } else if (block.timestamp >= publicMint.startDate) {\r\n            // PUBLIC MINT\r\n            require(quantity <= publicMint.maxPerTransaction, \"Exceeds max\");\r\n            require(quantity * mintPrice == msg.value, \"Invalid value\");\r\n        } else {\r\n            // NOT ELIGIBLE FOR PUBLIC MINT\r\n            revert(\"No mint\");\r\n        }\r\n\r\n        // DISTRIBUTE THE TOKENS\r\n        uint16 i;\r\n        for (i; i < quantity; i++) {\r\n            minted += 1;\r\n            _safeMint(user, minted);\r\n        }\r\n    }\r\n\r\n    /**\r\n     * Withdraws balance from the contract to the owner (sender).\r\n     * @param amount - the amount to withdraw, much be <= contract balance.\r\n     */\r\n    function withdraw(uint256 amount) external onlyOwner {\r\n        require(address(this).balance >= amount, \"Invalid amt\");\r\n\r\n        (bool success, ) = msg.sender.call{value: amount}(\"\");\r\n        require(success, \"Trans failed\");\r\n        emit Withdraw(msg.sender, amount);\r\n    }\r\n\r\n    /**\r\n     * The receive function, does nothing\r\n     */\r\n    receive() external payable {\r\n        emit Paid(msg.sender, msg.value);\r\n    }\r\n}\r\n",
  "sourcePath": "C:\\Users\\Cory\\source\\repos\\CyberpunkApeExecutives\\contracts\\Ape\\contracts\\CyberpunkApeExecutives.sol",
  "compiler": {
    "name": "solc",
    "version": "0.8.9+commit.e5eed63a.Emscripten.clang"
  },
  "schemaVersion": "3.4.3",
  "updatedAt": "2022-01-09T04:19:45.316Z",
  "devdoc": {
    "kind": "dev",
    "methods": {
      "approve(address,uint256)": {
        "details": "See {IERC721-approve}."
      },
      "balanceOf(address)": {
        "details": "See {IERC721-balanceOf}."
      },
      "burn(uint256)": {
        "params": {
          "tokenId": "- the ID of the token to be burned."
        }
      },
      "getApproved(uint256)": {
        "details": "See {IERC721-getApproved}."
      },
      "isApprovedForAll(address,address)": {
        "details": "See {IERC721-isApprovedForAll}."
      },
      "mint(uint16)": {
        "params": {
          "quantity": "- the number of tokens to mint"
        }
      },
      "mintTo(address,uint16)": {
        "params": {
          "quantity": "- the number of tokens to mint",
          "user": "- the recipient of the mint"
        }
      },
      "name()": {
        "details": "See {IERC721Metadata-name}."
      },
      "owner()": {
        "details": "Returns the address of the current owner."
      },
      "ownerOf(uint256)": {
        "details": "See {IERC721-ownerOf}."
      },
      "premint(uint16,uint16,bytes)": {
        "params": {
          "nonce": "- a random nonce which indicates that a signed transaction hasn't already been used.",
          "quantity": "- the number to mint",
          "signature": "- the signature given by the centralized whitelist authority, signed by                    the account specified as mintSigner."
        }
      },
      "renounceOwnership()": {
        "details": "Leaves the contract without owner. It will not be possible to call `onlyOwner` functions anymore. Can only be called by the current owner. NOTE: Renouncing ownership will leave the contract without an owner, thereby removing any functionality that is only available to the owner."
      },
      "safeTransferFrom(address,address,uint256)": {
        "details": "See {IERC721-safeTransferFrom}."
      },
      "safeTransferFrom(address,address,uint256,bytes)": {
        "details": "See {IERC721-safeTransferFrom}."
      },
      "setApprovalForAll(address,bool)": {
        "details": "See {IERC721-setApprovalForAll}."
      },
      "setBaseURI(string)": {
        "details": "be sure to terminate with a slash",
        "params": {
          "uri": "- the target base uri (ex: 'https://google.com/')"
        }
      },
      "setMintPrice(uint256)": {
        "details": "only for the contract owner",
        "params": {
          "price": "- the cost for the mints in WEI"
        }
      },
      "setSigner(address)": {
        "params": {
          "signer": "- the new signer's address"
        }
      },
      "supportsInterface(bytes4)": {
        "details": "See {IERC165-supportsInterface}."
      },
      "symbol()": {
        "details": "See {IERC721Metadata-symbol}."
      },
      "tokenURI(uint256)": {
        "details": "See {IERC721Metadata-tokenURI}."
      },
      "transferFrom(address,address,uint256)": {
        "details": "See {IERC721-transferFrom}."
      },
      "transferOwnership(address)": {
        "details": "Transfers ownership of the contract to a new account (`newOwner`). Can only be called by the current owner."
      },
      "updatePresaleMint(uint256,uint256,uint16)": {
        "params": {
          "endDate": "- the end date for that mint in UNIX seconds",
          "startDate": "- the start date for that mint in UNIX seconds"
        }
      },
      "updatePublicMint(uint16,uint256)": {
        "params": {
          "maxPerTransaction": "- the maximum amount allowed in a wallet to mint in the public mint",
          "startDate": "- the start date for that mint in UNIX seconds"
        }
      },
      "withdraw(uint256)": {
        "params": {
          "amount": "- the amount to withdraw, much be <= contract balance."
        }
      }
    },
    "version": 1
  },
  "userdoc": {
    "kind": "user",
    "methods": {
      "burn(uint256)": {
        "notice": "Burns the provided token id if you own it. Reduces the supply by 1."
      },
      "mint(uint16)": {
        "notice": "Mints the given quantity of tokens provided it is possible to.This function allows minting in the public sale         or at any time for the owner of the contract."
      },
      "mintTo(address,uint16)": {
        "notice": "Mints the given quantity of tokens provided it is possible to.This function allows minting in the public sale         or at any time for the owner of the contract."
      },
      "premint(uint16,uint16,bytes)": {
        "notice": "Mints in the premint stage by using a signed transaction from a centralized whitelist. The message signer is expected to only sign messages when they fall within the whitelist specifications."
      },
      "presaleMint()": {
        "notice": "An exclusive mint for members granted presale"
      },
      "publicMint()": {
        "notice": "The public mint for everybody."
      },
      "setBaseURI(string)": {
        "notice": "Sets the base URI for all tokens"
      },
      "setMintPrice(uint256)": {
        "notice": "Sets the mint price for whitelist and public mints."
      },
      "setSigner(address)": {
        "notice": "Sets the signer for presale transactions"
      },
      "updatePresaleMint(uint256,uint256,uint16)": {
        "notice": "Updates the presale mint's characteristics"
      },
      "updatePublicMint(uint16,uint256)": {
        "notice": "Updates the public mint's characteristics"
      },
      "withdraw(uint256)": {
        "notice": "Withdraws balance from the contract to the owner (sender)."
      }
    },
    "version": 1
  }
}