{
  "contractName": "CyberpunkApeExecutives",
  "abi": [
    {
      "inputs": [
        {
          "internalType": "uint16",
          "name": "maxSupply",
          "type": "uint16"
        },
        {
          "internalType": "uint16",
          "name": "maxFree",
          "type": "uint16"
        },
        {
          "internalType": "uint16",
          "name": "maxPresale",
          "type": "uint16"
        },
        {
          "internalType": "uint16",
          "name": "publicTransactionMax",
          "type": "uint16"
        },
        {
          "internalType": "uint256",
          "name": "mintPrice",
          "type": "uint256"
        },
        {
          "internalType": "address",
          "name": "signer",
          "type": "address"
        },
        {
          "internalType": "uint256",
          "name": "freeMintStart",
          "type": "uint256"
        },
        {
          "internalType": "uint256",
          "name": "freeMintEnd",
          "type": "uint256"
        },
        {
          "internalType": "uint256",
          "name": "presaleMintStart",
          "type": "uint256"
        },
        {
          "internalType": "uint256",
          "name": "presaleMintEnd",
          "type": "uint256"
        },
        {
          "internalType": "uint256",
          "name": "publicMintStart",
          "type": "uint256"
        }
      ],
      "stateMutability": "nonpayable",
      "type": "constructor"
    },
    {
      "anonymous": false,
      "inputs": [
        {
          "indexed": true,
          "internalType": "address",
          "name": "owner",
          "type": "address"
        },
        {
          "indexed": true,
          "internalType": "address",
          "name": "approved",
          "type": "address"
        },
        {
          "indexed": true,
          "internalType": "uint256",
          "name": "tokenId",
          "type": "uint256"
        }
      ],
      "name": "Approval",
      "type": "event"
    },
    {
      "anonymous": false,
      "inputs": [
        {
          "indexed": true,
          "internalType": "address",
          "name": "owner",
          "type": "address"
        },
        {
          "indexed": true,
          "internalType": "address",
          "name": "operator",
          "type": "address"
        },
        {
          "indexed": false,
          "internalType": "bool",
          "name": "approved",
          "type": "bool"
        }
      ],
      "name": "ApprovalForAll",
      "type": "event"
    },
    {
      "anonymous": false,
      "inputs": [
        {
          "indexed": true,
          "internalType": "address",
          "name": "previousOwner",
          "type": "address"
        },
        {
          "indexed": true,
          "internalType": "address",
          "name": "newOwner",
          "type": "address"
        }
      ],
      "name": "OwnershipTransferred",
      "type": "event"
    },
    {
      "anonymous": false,
      "inputs": [
        {
          "indexed": false,
          "internalType": "address",
          "name": "sender",
          "type": "address"
        },
        {
          "indexed": false,
          "internalType": "uint256",
          "name": "amount",
          "type": "uint256"
        }
      ],
      "name": "Paid",
      "type": "event"
    },
    {
      "anonymous": false,
      "inputs": [
        {
          "indexed": true,
          "internalType": "address",
          "name": "from",
          "type": "address"
        },
        {
          "indexed": true,
          "internalType": "address",
          "name": "to",
          "type": "address"
        },
        {
          "indexed": true,
          "internalType": "uint256",
          "name": "tokenId",
          "type": "uint256"
        }
      ],
      "name": "Transfer",
      "type": "event"
    },
    {
      "anonymous": false,
      "inputs": [
        {
          "indexed": false,
          "internalType": "address",
          "name": "recipient",
          "type": "address"
        },
        {
          "indexed": false,
          "internalType": "uint256",
          "name": "amount",
          "type": "uint256"
        }
      ],
      "name": "Withdraw",
      "type": "event"
    },
    {
      "inputs": [
        {
          "internalType": "address",
          "name": "to",
          "type": "address"
        },
        {
          "internalType": "uint256",
          "name": "tokenId",
          "type": "uint256"
        }
      ],
      "name": "approve",
      "outputs": [],
      "stateMutability": "nonpayable",
      "type": "function"
    },
    {
      "inputs": [
        {
          "internalType": "address",
          "name": "owner",
          "type": "address"
        }
      ],
      "name": "balanceOf",
      "outputs": [
        {
          "internalType": "uint256",
          "name": "",
          "type": "uint256"
        }
      ],
      "stateMutability": "view",
      "type": "function"
    },
    {
      "inputs": [],
      "name": "freeMint",
      "outputs": [
        {
          "internalType": "uint256",
          "name": "mintPrice",
          "type": "uint256"
        },
        {
          "internalType": "uint256",
          "name": "startDate",
          "type": "uint256"
        },
        {
          "internalType": "uint256",
          "name": "endDate",
          "type": "uint256"
        },
        {
          "internalType": "uint16",
          "name": "totalMinted",
          "type": "uint16"
        },
        {
          "internalType": "uint16",
          "name": "maxMinted",
          "type": "uint16"
        }
      ],
      "stateMutability": "view",
      "type": "function"
    },
    {
      "inputs": [
        {
          "internalType": "uint256",
          "name": "tokenId",
          "type": "uint256"
        }
      ],
      "name": "getApproved",
      "outputs": [
        {
          "internalType": "address",
          "name": "",
          "type": "address"
        }
      ],
      "stateMutability": "view",
      "type": "function"
    },
    {
      "inputs": [
        {
          "internalType": "address",
          "name": "owner",
          "type": "address"
        },
        {
          "internalType": "address",
          "name": "operator",
          "type": "address"
        }
      ],
      "name": "isApprovedForAll",
      "outputs": [
        {
          "internalType": "bool",
          "name": "",
          "type": "bool"
        }
      ],
      "stateMutability": "view",
      "type": "function"
    },
    {
      "inputs": [
        {
          "internalType": "address",
          "name": "",
          "type": "address"
        }
      ],
      "name": "lastMintNonce",
      "outputs": [
        {
          "internalType": "uint16",
          "name": "",
          "type": "uint16"
        }
      ],
      "stateMutability": "view",
      "type": "function"
    },
    {
      "inputs": [],
      "name": "minted",
      "outputs": [
        {
          "internalType": "uint16",
          "name": "",
          "type": "uint16"
        }
      ],
      "stateMutability": "view",
      "type": "function"
    },
    {
      "inputs": [],
      "name": "name",
      "outputs": [
        {
          "internalType": "string",
          "name": "",
          "type": "string"
        }
      ],
      "stateMutability": "view",
      "type": "function"
    },
    {
      "inputs": [],
      "name": "owner",
      "outputs": [
        {
          "internalType": "address",
          "name": "",
          "type": "address"
        }
      ],
      "stateMutability": "view",
      "type": "function"
    },
    {
      "inputs": [
        {
          "internalType": "uint256",
          "name": "tokenId",
          "type": "uint256"
        }
      ],
      "name": "ownerOf",
      "outputs": [
        {
          "internalType": "address",
          "name": "",
          "type": "address"
        }
      ],
      "stateMutability": "view",
      "type": "function"
    },
    {
      "inputs": [],
      "name": "presaleMint",
      "outputs": [
        {
          "internalType": "uint256",
          "name": "mintPrice",
          "type": "uint256"
        },
        {
          "internalType": "uint256",
          "name": "startDate",
          "type": "uint256"
        },
        {
          "internalType": "uint256",
          "name": "endDate",
          "type": "uint256"
        },
        {
          "internalType": "uint16",
          "name": "totalMinted",
          "type": "uint16"
        },
        {
          "internalType": "uint16",
          "name": "maxMinted",
          "type": "uint16"
        }
      ],
      "stateMutability": "view",
      "type": "function"
    },
    {
      "inputs": [],
      "name": "publicMint",
      "outputs": [
        {
          "internalType": "uint256",
          "name": "mintPrice",
          "type": "uint256"
        },
        {
          "internalType": "uint256",
          "name": "startDate",
          "type": "uint256"
        },
        {
          "internalType": "uint16",
          "name": "maxPerTransaction",
          "type": "uint16"
        }
      ],
      "stateMutability": "view",
      "type": "function"
    },
    {
      "inputs": [],
      "name": "renounceOwnership",
      "outputs": [],
      "stateMutability": "nonpayable",
      "type": "function"
    },
    {
      "inputs": [
        {
          "internalType": "address",
          "name": "from",
          "type": "address"
        },
        {
          "internalType": "address",
          "name": "to",
          "type": "address"
        },
        {
          "internalType": "uint256",
          "name": "tokenId",
          "type": "uint256"
        }
      ],
      "name": "safeTransferFrom",
      "outputs": [],
      "stateMutability": "nonpayable",
      "type": "function"
    },
    {
      "inputs": [
        {
          "internalType": "address",
          "name": "from",
          "type": "address"
        },
        {
          "internalType": "address",
          "name": "to",
          "type": "address"
        },
        {
          "internalType": "uint256",
          "name": "tokenId",
          "type": "uint256"
        },
        {
          "internalType": "bytes",
          "name": "_data",
          "type": "bytes"
        }
      ],
      "name": "safeTransferFrom",
      "outputs": [],
      "stateMutability": "nonpayable",
      "type": "function"
    },
    {
      "inputs": [
        {
          "internalType": "address",
          "name": "operator",
          "type": "address"
        },
        {
          "internalType": "bool",
          "name": "approved",
          "type": "bool"
        }
      ],
      "name": "setApprovalForAll",
      "outputs": [],
      "stateMutability": "nonpayable",
      "type": "function"
    },
    {
      "inputs": [
        {
          "internalType": "bytes4",
          "name": "interfaceId",
          "type": "bytes4"
        }
      ],
      "name": "supportsInterface",
      "outputs": [
        {
          "internalType": "bool",
          "name": "",
          "type": "bool"
        }
      ],
      "stateMutability": "view",
      "type": "function"
    },
    {
      "inputs": [],
      "name": "symbol",
      "outputs": [
        {
          "internalType": "string",
          "name": "",
          "type": "string"
        }
      ],
      "stateMutability": "view",
      "type": "function"
    },
    {
      "inputs": [
        {
          "internalType": "uint256",
          "name": "tokenId",
          "type": "uint256"
        }
      ],
      "name": "tokenURI",
      "outputs": [
        {
          "internalType": "string",
          "name": "",
          "type": "string"
        }
      ],
      "stateMutability": "view",
      "type": "function"
    },
    {
      "inputs": [],
      "name": "totalSupply",
      "outputs": [
        {
          "internalType": "uint16",
          "name": "",
          "type": "uint16"
        }
      ],
      "stateMutability": "view",
      "type": "function"
    },
    {
      "inputs": [
        {
          "internalType": "address",
          "name": "from",
          "type": "address"
        },
        {
          "internalType": "address",
          "name": "to",
          "type": "address"
        },
        {
          "internalType": "uint256",
          "name": "tokenId",
          "type": "uint256"
        }
      ],
      "name": "transferFrom",
      "outputs": [],
      "stateMutability": "nonpayable",
      "type": "function"
    },
    {
      "inputs": [
        {
          "internalType": "address",
          "name": "newOwner",
          "type": "address"
        }
      ],
      "name": "transferOwnership",
      "outputs": [],
      "stateMutability": "nonpayable",
      "type": "function"
    },
    {
      "stateMutability": "payable",
      "type": "receive"
    },
    {
      "inputs": [
        {
          "internalType": "string",
          "name": "uri",
          "type": "string"
        }
      ],
      "name": "setBaseURI",
      "outputs": [],
      "stateMutability": "nonpayable",
      "type": "function"
    },
    {
      "inputs": [
        {
          "internalType": "uint256",
          "name": "tokenId",
          "type": "uint256"
        }
      ],
      "name": "burn",
      "outputs": [],
      "stateMutability": "nonpayable",
      "type": "function"
    },
    {
      "inputs": [
        {
          "internalType": "address",
          "name": "user",
          "type": "address"
        }
      ],
      "name": "getWhitelistMints",
      "outputs": [
        {
          "internalType": "uint16",
          "name": "free",
          "type": "uint16"
        },
        {
          "internalType": "uint16",
          "name": "presale",
          "type": "uint16"
        }
      ],
      "stateMutability": "view",
      "type": "function"
    },
    {
      "inputs": [
        {
          "internalType": "uint256",
          "name": "mintPrice",
          "type": "uint256"
        },
        {
          "internalType": "uint256",
          "name": "startDate",
          "type": "uint256"
        },
        {
          "internalType": "uint256",
          "name": "endDate",
          "type": "uint256"
        },
        {
          "internalType": "uint16",
          "name": "maxMinted",
          "type": "uint16"
        }
      ],
      "name": "updatePresaleMint",
      "outputs": [],
      "stateMutability": "nonpayable",
      "type": "function"
    },
    {
      "inputs": [
        {
          "internalType": "uint256",
          "name": "startDate",
          "type": "uint256"
        },
        {
          "internalType": "uint256",
          "name": "endDate",
          "type": "uint256"
        },
        {
          "internalType": "uint16",
          "name": "maxMinted",
          "type": "uint16"
        }
      ],
      "name": "updateFreeMint",
      "outputs": [],
      "stateMutability": "nonpayable",
      "type": "function"
    },
    {
      "inputs": [
        {
          "internalType": "uint256",
          "name": "mintPrice",
          "type": "uint256"
        },
        {
          "internalType": "uint16",
          "name": "maxPerTransaction",
          "type": "uint16"
        },
        {
          "internalType": "uint256",
          "name": "startDate",
          "type": "uint256"
        }
      ],
      "name": "updatePublicMint",
      "outputs": [],
      "stateMutability": "nonpayable",
      "type": "function"
    },
    {
      "inputs": [
        {
          "internalType": "address",
          "name": "minter",
          "type": "address"
        },
        {
          "internalType": "uint16",
          "name": "quantity",
          "type": "uint16"
        },
        {
          "internalType": "uint8",
          "name": "mintId",
          "type": "uint8"
        },
        {
          "internalType": "uint16",
          "name": "nonce",
          "type": "uint16"
        }
      ],
      "name": "getPremintHash",
      "outputs": [
        {
          "internalType": "bytes32",
          "name": "",
          "type": "bytes32"
        }
      ],
      "stateMutability": "pure",
      "type": "function"
    },
    {
      "inputs": [
        {
          "internalType": "uint16",
          "name": "quantity",
          "type": "uint16"
        },
        {
          "internalType": "uint8",
          "name": "mintId",
          "type": "uint8"
        },
        {
          "internalType": "uint16",
          "name": "nonce",
          "type": "uint16"
        },
        {
          "internalType": "bytes",
          "name": "signature",
          "type": "bytes"
        }
      ],
      "name": "premint",
      "outputs": [],
      "stateMutability": "payable",
      "type": "function"
    },
    {
      "inputs": [
        {
          "internalType": "uint16",
          "name": "quantity",
          "type": "uint16"
        }
      ],
      "name": "mint",
      "outputs": [],
      "stateMutability": "payable",
      "type": "function"
    },
    {
      "inputs": [
        {
          "internalType": "uint256",
          "name": "amount",
          "type": "uint256"
        }
      ],
      "name": "withdraw",
      "outputs": [],
      "stateMutability": "nonpayable",
      "type": "function"
    }
  ],
  "bytecode": "0x60806040523480156200001157600080fd5b50604051620057e0380380620057e08339818101604052810190620000379190620004c0565b6040518060400160405280601681526020017f437962657270756e6b41706545786563757469766573000000000000000000008152506040518060400160405280600381526020017f43414500000000000000000000000000000000000000000000000000000000008152508160009080519060200190620000bb9291906200032c565b508060019080519060200190620000d49291906200032c565b505050620000f7620000eb6200025e60201b60201c565b6200026660201b60201c565b600160078190555060008b61ffff161162000149576040517f08c379a000000000000000000000000000000000000000000000000000000000815260040162000140906200062e565b60405180910390fd5b85600960046101000a81548173ffffffffffffffffffffffffffffffffffffffff021916908373ffffffffffffffffffffffffffffffffffffffff1602179055508a600960006101000a81548161ffff021916908361ffff16021790555084600b6001018190555083600b6002018190555089600b60030160026101000a81548161ffff021916908361ffff16021790555086601060000181905550826010600101819055508160106002018190555088601060030160026101000a81548161ffff021916908361ffff160217905550866015600001819055508060156001018190555087601560020160006101000a81548161ffff021916908361ffff1602179055505050505050505050505050620006b5565b600033905090565b6000600660009054906101000a900473ffffffffffffffffffffffffffffffffffffffff16905081600660006101000a81548173ffffffffffffffffffffffffffffffffffffffff021916908373ffffffffffffffffffffffffffffffffffffffff1602179055508173ffffffffffffffffffffffffffffffffffffffff168173ffffffffffffffffffffffffffffffffffffffff167f8be0079c531659141344cd1fd0a4f28419497f9722a3daafe3b4186f6b6457e060405160405180910390a35050565b8280546200033a906200067f565b90600052602060002090601f0160209004810192826200035e5760008555620003aa565b82601f106200037957805160ff1916838001178555620003aa565b82800160010185558215620003aa579182015b82811115620003a95782518255916020019190600101906200038c565b5b509050620003b99190620003bd565b5090565b5b80821115620003d8576000816000905550600101620003be565b5090565b600080fd5b600061ffff82169050919050565b620003fa81620003e1565b81146200040657600080fd5b50565b6000815190506200041a81620003ef565b92915050565b6000819050919050565b620004358162000420565b81146200044157600080fd5b50565b60008151905062000455816200042a565b92915050565b600073ffffffffffffffffffffffffffffffffffffffff82169050919050565b600062000488826200045b565b9050919050565b6200049a816200047b565b8114620004a657600080fd5b50565b600081519050620004ba816200048f565b92915050565b60008060008060008060008060008060006101608c8e031215620004e957620004e8620003dc565b5b6000620004f98e828f0162000409565b9b505060206200050c8e828f0162000409565b9a505060406200051f8e828f0162000409565b9950506060620005328e828f0162000409565b9850506080620005458e828f0162000444565b97505060a0620005588e828f01620004a9565b96505060c06200056b8e828f0162000444565b95505060e06200057e8e828f0162000444565b945050610100620005928e828f0162000444565b935050610120620005a68e828f0162000444565b925050610140620005ba8e828f0162000444565b9150509295989b509295989b9093969950565b600082825260208201905092915050565b7f5a65726f20737570706c79000000000000000000000000000000000000000000600082015250565b600062000616600b83620005cd565b91506200062382620005de565b602082019050919050565b60006020820190508181036000830152620006498162000607565b9050919050565b7f4e487b7100000000000000000000000000000000000000000000000000000000600052602260045260246000fd5b600060028204905060018216806200069857607f821691505b60208210811415620006af57620006ae62000650565b5b50919050565b61511b80620006c56000396000f3fe6080604052600436106101e75760003560e01c806359533d6c1161010257806395d89b4111610095578063c87b56dd11610064578063c87b56dd1461070f578063e2cedd491461074c578063e985e9c514610789578063f2fde38b146107c657610227565b806395d89b4114610676578063a22cb465146106a1578063b88d4fde146106ca578063bdb13208146106f357610227565b806370a08231116100d157806370a08231146105ce578063715018a61461060b5780637f80a264146106225780638da5cb5b1461064b57610227565b806359533d6c146104f55780635b70ea9f146105245780636352211e1461055357806370954de61461059057610227565b806326092b831161017a57806342966c681161014957806342966c681461044f5780634ce9cfaa146104785780634f02c420146104a157806355f804b3146104cc57610227565b806326092b83146103935780632e1a7d4d146103c057806341ca8a67146103e957806342842e0e1461042657610227565b8063123db7ac116101b6578063123db7ac146102fa57806318160ddd1461032357806323b872dd1461034e57806323cf0a221461037757610227565b806301ffc9a71461022c57806306fdde0314610269578063081812fc14610294578063095ea7b3146102d157610227565b36610227577f737c69225d647e5994eab1a6c301bf6d9232beb2759ae1e27a8966b4732bc489333460405161021d9291906130bb565b60405180910390a1005b600080fd5b34801561023857600080fd5b50610253600480360381019061024e9190613150565b6107ef565b6040516102609190613198565b60405180910390f35b34801561027557600080fd5b5061027e6108d1565b60405161028b919061324c565b60405180910390f35b3480156102a057600080fd5b506102bb60048036038101906102b6919061329a565b610963565b6040516102c891906132c7565b60405180910390f35b3480156102dd57600080fd5b506102f860048036038101906102f3919061330e565b6109e8565b005b34801561030657600080fd5b50610321600480360381019061031c9190613388565b610b00565b005b34801561032f57600080fd5b50610338610bc0565b60405161034591906133fe565b60405180910390f35b34801561035a57600080fd5b5061037560048036038101906103709190613419565b610bd4565b005b610391600480360381019061038c919061346c565b610c34565b005b34801561039f57600080fd5b506103a8610f97565b6040516103b793929190613499565b60405180910390f35b3480156103cc57600080fd5b506103e760048036038101906103e2919061329a565b610fbd565b005b3480156103f557600080fd5b50610410600480360381019061040b9190613509565b611165565b60405161041d9190613589565b60405180910390f35b34801561043257600080fd5b5061044d60048036038101906104489190613419565b6111fe565b005b34801561045b57600080fd5b506104766004803603810190610471919061329a565b61121e565b005b34801561048457600080fd5b5061049f600480360381019061049a91906135a4565b6112a0565b005b3480156104ad57600080fd5b506104b6611355565b6040516104c391906133fe565b60405180910390f35b3480156104d857600080fd5b506104f360048036038101906104ee919061365c565b611369565b005b34801561050157600080fd5b5061050a6113fb565b60405161051b9594939291906136a9565b60405180910390f35b34801561053057600080fd5b5061053961143b565b60405161054a9594939291906136a9565b60405180910390f35b34801561055f57600080fd5b5061057a6004803603810190610575919061329a565b61147b565b60405161058791906132c7565b60405180910390f35b34801561059c57600080fd5b506105b760048036038101906105b291906136fc565b61152d565b6040516105c5929190613729565b60405180910390f35b3480156105da57600080fd5b506105f560048036038101906105f091906136fc565b6115db565b6040516106029190613752565b60405180910390f35b34801561061757600080fd5b50610620611693565b005b34801561062e57600080fd5b506106496004803603810190610644919061376d565b61171b565b005b34801561065757600080fd5b506106606117d0565b60405161066d91906132c7565b60405180910390f35b34801561068257600080fd5b5061068b6117fa565b604051610698919061324c565b60405180910390f35b3480156106ad57600080fd5b506106c860048036038101906106c391906137ec565b61188c565b005b3480156106d657600080fd5b506106f160048036038101906106ec919061395c565b611a0d565b005b61070d60048036038101906107089190613a35565b611a6f565b005b34801561071b57600080fd5b506107366004803603810190610731919061329a565b61207d565b604051610743919061324c565b60405180910390f35b34801561075857600080fd5b50610773600480360381019061076e91906136fc565b612124565b60405161078091906133fe565b60405180910390f35b34801561079557600080fd5b506107b060048036038101906107ab9190613abd565b612145565b6040516107bd9190613198565b60405180910390f35b3480156107d257600080fd5b506107ed60048036038101906107e891906136fc565b6121d9565b005b60007f80ac58cd000000000000000000000000000000000000000000000000000000007bffffffffffffffffffffffffffffffffffffffffffffffffffffffff1916827bffffffffffffffffffffffffffffffffffffffffffffffffffffffff191614806108ba57507f5b5e139f000000000000000000000000000000000000000000000000000000007bffffffffffffffffffffffffffffffffffffffffffffffffffffffff1916827bffffffffffffffffffffffffffffffffffffffffffffffffffffffff1916145b806108ca57506108c9826122d1565b5b9050919050565b6060600080546108e090613b2c565b80601f016020809104026020016040519081016040528092919081815260200182805461090c90613b2c565b80156109595780601f1061092e57610100808354040283529160200191610959565b820191906000526020600020905b81548152906001019060200180831161093c57829003601f168201915b5050505050905090565b600061096e8261233b565b6109ad576040517f08c379a00000000000000000000000000000000000000000000000000000000081526004016109a490613bd0565b60405180910390fd5b6004600083815260200190815260200160002060009054906101000a900473ffffffffffffffffffffffffffffffffffffffff169050919050565b60006109f38261147b565b90508073ffffffffffffffffffffffffffffffffffffffff168373ffffffffffffffffffffffffffffffffffffffff161415610a64576040517f08c379a0000000000000000000000000000000000000000000000000000000008152600401610a5b90613c62565b60405180910390fd5b8073ffffffffffffffffffffffffffffffffffffffff16610a836123a7565b73ffffffffffffffffffffffffffffffffffffffff161480610ab25750610ab181610aac6123a7565b612145565b5b610af1576040517f08c379a0000000000000000000000000000000000000000000000000000000008152600401610ae890613cf4565b60405180910390fd5b610afb83836123af565b505050565b610b086123a7565b73ffffffffffffffffffffffffffffffffffffffff16610b266117d0565b73ffffffffffffffffffffffffffffffffffffffff1614610b7c576040517f08c379a0000000000000000000000000000000000000000000000000000000008152600401610b7390613d60565b60405180910390fd5b83601060000181905550826010600101819055508160106002018190555080601060030160026101000a81548161ffff021916908361ffff16021790555050505050565b600960009054906101000a900461ffff1681565b610be5610bdf6123a7565b82612468565b610c24576040517f08c379a0000000000000000000000000000000000000000000000000000000008152600401610c1b90613df2565b60405180910390fd5b610c2f838383612546565b505050565b60026007541415610c7a576040517f08c379a0000000000000000000000000000000000000000000000000000000008152600401610c7190613e5e565b60405180910390fd5b60026007819055506000600960029054906101000a900461ffff16600960009054906101000a900461ffff16610cb09190613ead565b61ffff16905060008111610cf9576040517f08c379a0000000000000000000000000000000000000000000000000000000008152600401610cf090613f2d565b60405180910390fd5b60018261ffff161015610d41576040517f08c379a0000000000000000000000000000000000000000000000000000000008152600401610d3890613f99565b60405180910390fd5b808261ffff161115610d88576040517f08c379a0000000000000000000000000000000000000000000000000000000008152600401610d7f90614005565b60405180910390fd5b3373ffffffffffffffffffffffffffffffffffffffff16610da76117d0565b73ffffffffffffffffffffffffffffffffffffffff161415610e0b5760003414610e06576040517f08c379a0000000000000000000000000000000000000000000000000000000008152600401610dfd90614071565b60405180910390fd5b610f0c565b6015600101544210610ed057601560020160009054906101000a900461ffff1661ffff168261ffff161115610e75576040517f08c379a0000000000000000000000000000000000000000000000000000000008152600401610e6c906140dd565b60405180910390fd5b346015600001548361ffff16610e8b91906140fd565b14610ecb576040517f08c379a0000000000000000000000000000000000000000000000000000000008152600401610ec2906141a3565b60405180910390fd5b610f0b565b6040517f08c379a0000000000000000000000000000000000000000000000000000000008152600401610f029061420f565b60405180910390fd5b5b60005b8261ffff168161ffff161015610f8a576001600960028282829054906101000a900461ffff16610f3f919061422f565b92506101000a81548161ffff021916908361ffff160217905550610f7733600960029054906101000a900461ffff1661ffff166127a2565b8080610f8290614267565b915050610f0f565b5050600160078190555050565b60158060000154908060010154908060020160009054906101000a900461ffff16905083565b610fc56123a7565b73ffffffffffffffffffffffffffffffffffffffff16610fe36117d0565b73ffffffffffffffffffffffffffffffffffffffff1614611039576040517f08c379a000000000000000000000000000000000000000000000000000000000815260040161103090613d60565b60405180910390fd5b8047111561107c576040517f08c379a0000000000000000000000000000000000000000000000000000000008152600401611073906142de565b60405180910390fd5b60003373ffffffffffffffffffffffffffffffffffffffff16826040516110a29061432f565b60006040518083038185875af1925050503d80600081146110df576040519150601f19603f3d011682016040523d82523d6000602084013e6110e4565b606091505b5050905080611128576040517f08c379a000000000000000000000000000000000000000000000000000000000815260040161111f90614390565b60405180910390fd5b7f884edad9ce6fa2440d8a54cc123490eb96d2768479d49ff9c7366125a942436433836040516111599291906130bb565b60405180910390a15050565b600073__VerifySignature_______________________63f440be04868686866040518563ffffffff1660e01b81526004016111a4949392919061442b565b60206040518083038186803b1580156111bc57600080fd5b505af41580156111d0573d6000803e3d6000fd5b505050506040513d601f19601f820116820180604052508101906111f4919061449c565b9050949350505050565b61121983838360405180602001604052806000815250611a0d565b505050565b3373ffffffffffffffffffffffffffffffffffffffff1661123e8261147b565b73ffffffffffffffffffffffffffffffffffffffff1614611294576040517f08c379a000000000000000000000000000000000000000000000000000000000815260040161128b90614515565b60405180910390fd5b61129d816127c0565b50565b6112a86123a7565b73ffffffffffffffffffffffffffffffffffffffff166112c66117d0565b73ffffffffffffffffffffffffffffffffffffffff161461131c576040517f08c379a000000000000000000000000000000000000000000000000000000000815260040161131390613d60565b60405180910390fd5b82600b6001018190555081600b6002018190555080600b60030160026101000a81548161ffff021916908361ffff160217905550505050565b600960029054906101000a900461ffff1681565b6113716123a7565b73ffffffffffffffffffffffffffffffffffffffff1661138f6117d0565b73ffffffffffffffffffffffffffffffffffffffff16146113e5576040517f08c379a00000000000000000000000000000000000000000000000000000000081526004016113dc90613d60565b60405180910390fd5b8181600891906113f6929190612fbe565b505050565b60108060000154908060010154908060020154908060030160009054906101000a900461ffff16908060030160029054906101000a900461ffff16905085565b600b8060000154908060010154908060020154908060030160009054906101000a900461ffff16908060030160029054906101000a900461ffff16905085565b6000806002600084815260200190815260200160002060009054906101000a900473ffffffffffffffffffffffffffffffffffffffff169050600073ffffffffffffffffffffffffffffffffffffffff168173ffffffffffffffffffffffffffffffffffffffff161415611524576040517f08c379a000000000000000000000000000000000000000000000000000000000815260040161151b906145a7565b60405180910390fd5b80915050919050565b600080600b60040160008473ffffffffffffffffffffffffffffffffffffffff1673ffffffffffffffffffffffffffffffffffffffff16815260200190815260200160002060009054906101000a900461ffff169150601060040160008473ffffffffffffffffffffffffffffffffffffffff1673ffffffffffffffffffffffffffffffffffffffff16815260200190815260200160002060009054906101000a900461ffff169050915091565b60008073ffffffffffffffffffffffffffffffffffffffff168273ffffffffffffffffffffffffffffffffffffffff16141561164c576040517f08c379a000000000000000000000000000000000000000000000000000000000815260040161164390614639565b60405180910390fd5b600360008373ffffffffffffffffffffffffffffffffffffffff1673ffffffffffffffffffffffffffffffffffffffff168152602001908152602001600020549050919050565b61169b6123a7565b73ffffffffffffffffffffffffffffffffffffffff166116b96117d0565b73ffffffffffffffffffffffffffffffffffffffff161461170f576040517f08c379a000000000000000000000000000000000000000000000000000000000815260040161170690613d60565b60405180910390fd5b61171960006128d1565b565b6117236123a7565b73ffffffffffffffffffffffffffffffffffffffff166117416117d0565b73ffffffffffffffffffffffffffffffffffffffff1614611797576040517f08c379a000000000000000000000000000000000000000000000000000000000815260040161178e90613d60565b60405180910390fd5b8260156000018190555081601560020160006101000a81548161ffff021916908361ffff16021790555080601560010181905550505050565b6000600660009054906101000a900473ffffffffffffffffffffffffffffffffffffffff16905090565b60606001805461180990613b2c565b80601f016020809104026020016040519081016040528092919081815260200182805461183590613b2c565b80156118825780601f1061185757610100808354040283529160200191611882565b820191906000526020600020905b81548152906001019060200180831161186557829003601f168201915b5050505050905090565b6118946123a7565b73ffffffffffffffffffffffffffffffffffffffff168273ffffffffffffffffffffffffffffffffffffffff161415611902576040517f08c379a00000000000000000000000000000000000000000000000000000000081526004016118f9906146a5565b60405180910390fd5b806005600061190f6123a7565b73ffffffffffffffffffffffffffffffffffffffff1673ffffffffffffffffffffffffffffffffffffffff16815260200190815260200160002060008473ffffffffffffffffffffffffffffffffffffffff1673ffffffffffffffffffffffffffffffffffffffff16815260200190815260200160002060006101000a81548160ff0219169083151502179055508173ffffffffffffffffffffffffffffffffffffffff166119bc6123a7565b73ffffffffffffffffffffffffffffffffffffffff167f17307eab39ab6107e8899845ad3d59bd9653f200f220920489ca2b5937696c3183604051611a019190613198565b60405180910390a35050565b611a1e611a186123a7565b83612468565b611a5d576040517f08c379a0000000000000000000000000000000000000000000000000000000008152600401611a5490613df2565b60405180910390fd5b611a6984848484612997565b50505050565b60026007541415611ab5576040517f08c379a0000000000000000000000000000000000000000000000000000000008152600401611aac90613e5e565b60405180910390fd5b60026007819055506000600960029054906101000a900461ffff16600960009054906101000a900461ffff16611aeb9190613ead565b61ffff16905060008111611b34576040517f08c379a0000000000000000000000000000000000000000000000000000000008152600401611b2b90613f2d565b60405180910390fd5b60018661ffff161015611b7c576040517f08c379a0000000000000000000000000000000000000000000000000000000008152600401611b7390613f99565b60405180910390fd5b808661ffff161115611bc3576040517f08c379a0000000000000000000000000000000000000000000000000000000008152600401611bba90614005565b60405180910390fd5b60008560ff161480611bd8575060018560ff16145b611c17576040517f08c379a0000000000000000000000000000000000000000000000000000000008152600401611c0e90614711565b60405180910390fd5b8361ffff16600a60003373ffffffffffffffffffffffffffffffffffffffff1673ffffffffffffffffffffffffffffffffffffffff16815260200190815260200160002060009054906101000a900461ffff1661ffff1610611cae576040517f08c379a0000000000000000000000000000000000000000000000000000000008152600401611ca59061477d565b60405180910390fd5b6000808660ff1614611cc1576010611cc4565b600b5b905042816001015411158015611cde575042816002015410155b611d1d576040517f08c379a0000000000000000000000000000000000000000000000000000000008152600401611d149061420f565b60405180910390fd5b73__VerifySignature_______________________631ae895fa600960049054906101000a900473ffffffffffffffffffffffffffffffffffffffff16338a8a8a8a8a6040518863ffffffff1660e01b8152600401611d8297969594939291906147db565b60206040518083038186803b158015611d9a57600080fd5b505af4158015611dae573d6000803e3d6000fd5b505050506040513d601f19601f82011682018060405250810190611dd2919061485a565b611e11576040517f08c379a0000000000000000000000000000000000000000000000000000000008152600401611e08906148d3565b60405180910390fd5b348761ffff168260000154611e2691906140fd565b14611e66576040517f08c379a0000000000000000000000000000000000000000000000000000000008152600401611e5d9061493f565b60405180910390fd5b8060030160029054906101000a900461ffff1661ffff16878260030160009054906101000a900461ffff16611e9b919061422f565b61ffff161115611ee0576040517f08c379a0000000000000000000000000000000000000000000000000000000008152600401611ed7906149ab565b60405180910390fd5b868160040160003373ffffffffffffffffffffffffffffffffffffffff1673ffffffffffffffffffffffffffffffffffffffff16815260200190815260200160002060008282829054906101000a900461ffff16611f3e919061422f565b92506101000a81548161ffff021916908361ffff160217905550868160030160008282829054906101000a900461ffff16611f79919061422f565b92506101000a81548161ffff021916908361ffff16021790555084600a60003373ffffffffffffffffffffffffffffffffffffffff1673ffffffffffffffffffffffffffffffffffffffff16815260200190815260200160002060006101000a81548161ffff021916908361ffff16021790555060005b8761ffff168161ffff16101561206b576001600960028282829054906101000a900461ffff16612020919061422f565b92506101000a81548161ffff021916908361ffff16021790555061205833600960029054906101000a900461ffff1661ffff166127a2565b808061206390614267565b915050611ff0565b50505060016007819055505050505050565b60606120888261233b565b6120c7576040517f08c379a00000000000000000000000000000000000000000000000000000000081526004016120be90614a3d565b60405180910390fd5b60006120d16129f3565b905060008151116120f1576040518060200160405280600081525061211c565b806120fb84612a85565b60405160200161210c929190614a99565b6040516020818303038152906040525b915050919050565b600a6020528060005260406000206000915054906101000a900461ffff1681565b6000600560008473ffffffffffffffffffffffffffffffffffffffff1673ffffffffffffffffffffffffffffffffffffffff16815260200190815260200160002060008373ffffffffffffffffffffffffffffffffffffffff1673ffffffffffffffffffffffffffffffffffffffff16815260200190815260200160002060009054906101000a900460ff16905092915050565b6121e16123a7565b73ffffffffffffffffffffffffffffffffffffffff166121ff6117d0565b73ffffffffffffffffffffffffffffffffffffffff1614612255576040517f08c379a000000000000000000000000000000000000000000000000000000000815260040161224c90613d60565b60405180910390fd5b600073ffffffffffffffffffffffffffffffffffffffff168173ffffffffffffffffffffffffffffffffffffffff1614156122c5576040517f08c379a00000000000000000000000000000000000000000000000000000000081526004016122bc90614b2f565b60405180910390fd5b6122ce816128d1565b50565b60007f01ffc9a7000000000000000000000000000000000000000000000000000000007bffffffffffffffffffffffffffffffffffffffffffffffffffffffff1916827bffffffffffffffffffffffffffffffffffffffffffffffffffffffff1916149050919050565b60008073ffffffffffffffffffffffffffffffffffffffff166002600084815260200190815260200160002060009054906101000a900473ffffffffffffffffffffffffffffffffffffffff1673ffffffffffffffffffffffffffffffffffffffff1614159050919050565b600033905090565b816004600083815260200190815260200160002060006101000a81548173ffffffffffffffffffffffffffffffffffffffff021916908373ffffffffffffffffffffffffffffffffffffffff160217905550808273ffffffffffffffffffffffffffffffffffffffff166124228361147b565b73ffffffffffffffffffffffffffffffffffffffff167f8c5be1e5ebec7d5bd14f71427d1e84f3dd0314c0f7b2291e5b200ac8c7c3b92560405160405180910390a45050565b60006124738261233b565b6124b2576040517f08c379a00000000000000000000000000000000000000000000000000000000081526004016124a990614bc1565b60405180910390fd5b60006124bd8361147b565b90508073ffffffffffffffffffffffffffffffffffffffff168473ffffffffffffffffffffffffffffffffffffffff16148061252c57508373ffffffffffffffffffffffffffffffffffffffff1661251484610963565b73ffffffffffffffffffffffffffffffffffffffff16145b8061253d575061253c8185612145565b5b91505092915050565b8273ffffffffffffffffffffffffffffffffffffffff166125668261147b565b73ffffffffffffffffffffffffffffffffffffffff16146125bc576040517f08c379a00000000000000000000000000000000000000000000000000000000081526004016125b390614c53565b60405180910390fd5b600073ffffffffffffffffffffffffffffffffffffffff168273ffffffffffffffffffffffffffffffffffffffff16141561262c576040517f08c379a000000000000000000000000000000000000000000000000000000000815260040161262390614ce5565b60405180910390fd5b612637838383612be6565b6126426000826123af565b6001600360008573ffffffffffffffffffffffffffffffffffffffff1673ffffffffffffffffffffffffffffffffffffffff16815260200190815260200160002060008282546126929190614d05565b925050819055506001600360008473ffffffffffffffffffffffffffffffffffffffff1673ffffffffffffffffffffffffffffffffffffffff16815260200190815260200160002060008282546126e99190614d39565b92505081905550816002600083815260200190815260200160002060006101000a81548173ffffffffffffffffffffffffffffffffffffffff021916908373ffffffffffffffffffffffffffffffffffffffff160217905550808273ffffffffffffffffffffffffffffffffffffffff168473ffffffffffffffffffffffffffffffffffffffff167fddf252ad1be2c89b69c2b068fc378daa952ba7f163c4a11628f55a4df523b3ef60405160405180910390a4505050565b6127bc828260405180602001604052806000815250612beb565b5050565b60006127cb8261147b565b90506127d981600084612be6565b6127e46000836123af565b6001600360008373ffffffffffffffffffffffffffffffffffffffff1673ffffffffffffffffffffffffffffffffffffffff16815260200190815260200160002060008282546128349190614d05565b925050819055506002600083815260200190815260200160002060006101000a81549073ffffffffffffffffffffffffffffffffffffffff021916905581600073ffffffffffffffffffffffffffffffffffffffff168273ffffffffffffffffffffffffffffffffffffffff167fddf252ad1be2c89b69c2b068fc378daa952ba7f163c4a11628f55a4df523b3ef60405160405180910390a45050565b6000600660009054906101000a900473ffffffffffffffffffffffffffffffffffffffff16905081600660006101000a81548173ffffffffffffffffffffffffffffffffffffffff021916908373ffffffffffffffffffffffffffffffffffffffff1602179055508173ffffffffffffffffffffffffffffffffffffffff168173ffffffffffffffffffffffffffffffffffffffff167f8be0079c531659141344cd1fd0a4f28419497f9722a3daafe3b4186f6b6457e060405160405180910390a35050565b6129a2848484612546565b6129ae84848484612c46565b6129ed576040517f08c379a00000000000000000000000000000000000000000000000000000000081526004016129e490614e01565b60405180910390fd5b50505050565b606060088054612a0290613b2c565b80601f0160208091040260200160405190810160405280929190818152602001828054612a2e90613b2c565b8015612a7b5780601f10612a5057610100808354040283529160200191612a7b565b820191906000526020600020905b815481529060010190602001808311612a5e57829003601f168201915b5050505050905090565b60606000821415612acd576040518060400160405280600181526020017f30000000000000000000000000000000000000000000000000000000000000008152509050612be1565b600082905060005b60008214612aff578080612ae890614e21565b915050600a82612af89190614e99565b9150612ad5565b60008167ffffffffffffffff811115612b1b57612b1a613831565b5b6040519080825280601f01601f191660200182016040528015612b4d5781602001600182028036833780820191505090505b5090505b60008514612bda57600182612b669190614d05565b9150600a85612b759190614eca565b6030612b819190614d39565b60f81b818381518110612b9757612b96614efb565b5b60200101907effffffffffffffffffffffffffffffffffffffffffffffffffffffffffffff1916908160001a905350600a85612bd39190614e99565b9450612b51565b8093505050505b919050565b505050565b612bf58383612ddd565b612c026000848484612c46565b612c41576040517f08c379a0000000000000000000000000000000000000000000000000000000008152600401612c3890614e01565b60405180910390fd5b505050565b6000612c678473ffffffffffffffffffffffffffffffffffffffff16612fab565b15612dd0578373ffffffffffffffffffffffffffffffffffffffff1663150b7a02612c906123a7565b8786866040518563ffffffff1660e01b8152600401612cb29493929190614f7f565b602060405180830381600087803b158015612ccc57600080fd5b505af1925050508015612cfd57506040513d601f19601f82011682018060405250810190612cfa9190614fe0565b60015b612d80573d8060008114612d2d576040519150601f19603f3d011682016040523d82523d6000602084013e612d32565b606091505b50600081511415612d78576040517f08c379a0000000000000000000000000000000000000000000000000000000008152600401612d6f90614e01565b60405180910390fd5b805181602001fd5b63150b7a0260e01b7bffffffffffffffffffffffffffffffffffffffffffffffffffffffff1916817bffffffffffffffffffffffffffffffffffffffffffffffffffffffff191614915050612dd5565b600190505b949350505050565b600073ffffffffffffffffffffffffffffffffffffffff168273ffffffffffffffffffffffffffffffffffffffff161415612e4d576040517f08c379a0000000000000000000000000000000000000000000000000000000008152600401612e4490615059565b60405180910390fd5b612e568161233b565b15612e96576040517f08c379a0000000000000000000000000000000000000000000000000000000008152600401612e8d906150c5565b60405180910390fd5b612ea260008383612be6565b6001600360008473ffffffffffffffffffffffffffffffffffffffff1673ffffffffffffffffffffffffffffffffffffffff1681526020019081526020016000206000828254612ef29190614d39565b92505081905550816002600083815260200190815260200160002060006101000a81548173ffffffffffffffffffffffffffffffffffffffff021916908373ffffffffffffffffffffffffffffffffffffffff160217905550808273ffffffffffffffffffffffffffffffffffffffff16600073ffffffffffffffffffffffffffffffffffffffff167fddf252ad1be2c89b69c2b068fc378daa952ba7f163c4a11628f55a4df523b3ef60405160405180910390a45050565b600080823b905060008111915050919050565b828054612fca90613b2c565b90600052602060002090601f016020900481019282612fec5760008555613033565b82601f1061300557803560ff1916838001178555613033565b82800160010185558215613033579182015b82811115613032578235825591602001919060010190613017565b5b5090506130409190613044565b5090565b5b8082111561305d576000816000905550600101613045565b5090565b600073ffffffffffffffffffffffffffffffffffffffff82169050919050565b600061308c82613061565b9050919050565b61309c81613081565b82525050565b6000819050919050565b6130b5816130a2565b82525050565b60006040820190506130d06000830185613093565b6130dd60208301846130ac565b9392505050565b6000604051905090565b600080fd5b600080fd5b60007fffffffff0000000000000000000000000000000000000000000000000000000082169050919050565b61312d816130f8565b811461313857600080fd5b50565b60008135905061314a81613124565b92915050565b600060208284031215613166576131656130ee565b5b60006131748482850161313b565b91505092915050565b60008115159050919050565b6131928161317d565b82525050565b60006020820190506131ad6000830184613189565b92915050565b600081519050919050565b600082825260208201905092915050565b60005b838110156131ed5780820151818401526020810190506131d2565b838111156131fc576000848401525b50505050565b6000601f19601f8301169050919050565b600061321e826131b3565b61322881856131be565b93506132388185602086016131cf565b61324181613202565b840191505092915050565b600060208201905081810360008301526132668184613213565b905092915050565b613277816130a2565b811461328257600080fd5b50565b6000813590506132948161326e565b92915050565b6000602082840312156132b0576132af6130ee565b5b60006132be84828501613285565b91505092915050565b60006020820190506132dc6000830184613093565b92915050565b6132eb81613081565b81146132f657600080fd5b50565b600081359050613308816132e2565b92915050565b60008060408385031215613325576133246130ee565b5b6000613333858286016132f9565b925050602061334485828601613285565b9150509250929050565b600061ffff82169050919050565b6133658161334e565b811461337057600080fd5b50565b6000813590506133828161335c565b92915050565b600080600080608085870312156133a2576133a16130ee565b5b60006133b087828801613285565b94505060206133c187828801613285565b93505060406133d287828801613285565b92505060606133e387828801613373565b91505092959194509250565b6133f88161334e565b82525050565b600060208201905061341360008301846133ef565b92915050565b600080600060608486031215613432576134316130ee565b5b6000613440868287016132f9565b9350506020613451868287016132f9565b925050604061346286828701613285565b9150509250925092565b600060208284031215613482576134816130ee565b5b600061349084828501613373565b91505092915050565b60006060820190506134ae60008301866130ac565b6134bb60208301856130ac565b6134c860408301846133ef565b949350505050565b600060ff82169050919050565b6134e6816134d0565b81146134f157600080fd5b50565b600081359050613503816134dd565b92915050565b60008060008060808587031215613523576135226130ee565b5b6000613531878288016132f9565b945050602061354287828801613373565b9350506040613553878288016134f4565b925050606061356487828801613373565b91505092959194509250565b6000819050919050565b61358381613570565b82525050565b600060208201905061359e600083018461357a565b92915050565b6000806000606084860312156135bd576135bc6130ee565b5b60006135cb86828701613285565b93505060206135dc86828701613285565b92505060406135ed86828701613373565b9150509250925092565b600080fd5b600080fd5b600080fd5b60008083601f84011261361c5761361b6135f7565b5b8235905067ffffffffffffffff811115613639576136386135fc565b5b60208301915083600182028301111561365557613654613601565b5b9250929050565b60008060208385031215613673576136726130ee565b5b600083013567ffffffffffffffff811115613691576136906130f3565b5b61369d85828601613606565b92509250509250929050565b600060a0820190506136be60008301886130ac565b6136cb60208301876130ac565b6136d860408301866130ac565b6136e560608301856133ef565b6136f260808301846133ef565b9695505050505050565b600060208284031215613712576137116130ee565b5b6000613720848285016132f9565b91505092915050565b600060408201905061373e60008301856133ef565b61374b60208301846133ef565b9392505050565b600060208201905061376760008301846130ac565b92915050565b600080600060608486031215613786576137856130ee565b5b600061379486828701613285565b93505060206137a586828701613373565b92505060406137b686828701613285565b9150509250925092565b6137c98161317d565b81146137d457600080fd5b50565b6000813590506137e6816137c0565b92915050565b60008060408385031215613803576138026130ee565b5b6000613811858286016132f9565b9250506020613822858286016137d7565b9150509250929050565b600080fd5b7f4e487b7100000000000000000000000000000000000000000000000000000000600052604160045260246000fd5b61386982613202565b810181811067ffffffffffffffff8211171561388857613887613831565b5b80604052505050565b600061389b6130e4565b90506138a78282613860565b919050565b600067ffffffffffffffff8211156138c7576138c6613831565b5b6138d082613202565b9050602081019050919050565b82818337600083830152505050565b60006138ff6138fa846138ac565b613891565b90508281526020810184848401111561391b5761391a61382c565b5b6139268482856138dd565b509392505050565b600082601f830112613943576139426135f7565b5b81356139538482602086016138ec565b91505092915050565b60008060008060808587031215613976576139756130ee565b5b6000613984878288016132f9565b9450506020613995878288016132f9565b93505060406139a687828801613285565b925050606085013567ffffffffffffffff8111156139c7576139c66130f3565b5b6139d38782880161392e565b91505092959194509250565b60008083601f8401126139f5576139f46135f7565b5b8235905067ffffffffffffffff811115613a1257613a116135fc565b5b602083019150836001820283011115613a2e57613a2d613601565b5b9250929050565b600080600080600060808688031215613a5157613a506130ee565b5b6000613a5f88828901613373565b9550506020613a70888289016134f4565b9450506040613a8188828901613373565b935050606086013567ffffffffffffffff811115613aa257613aa16130f3565b5b613aae888289016139df565b92509250509295509295909350565b60008060408385031215613ad457613ad36130ee565b5b6000613ae2858286016132f9565b9250506020613af3858286016132f9565b9150509250929050565b7f4e487b7100000000000000000000000000000000000000000000000000000000600052602260045260246000fd5b60006002820490506001821680613b4457607f821691505b60208210811415613b5857613b57613afd565b5b50919050565b7f4552433732313a20617070726f76656420717565727920666f72206e6f6e657860008201527f697374656e7420746f6b656e0000000000000000000000000000000000000000602082015250565b6000613bba602c836131be565b9150613bc582613b5e565b604082019050919050565b60006020820190508181036000830152613be981613bad565b9050919050565b7f4552433732313a20617070726f76616c20746f2063757272656e74206f776e6560008201527f7200000000000000000000000000000000000000000000000000000000000000602082015250565b6000613c4c6021836131be565b9150613c5782613bf0565b604082019050919050565b60006020820190508181036000830152613c7b81613c3f565b9050919050565b7f4552433732313a20617070726f76652063616c6c6572206973206e6f74206f7760008201527f6e6572206e6f7220617070726f76656420666f7220616c6c0000000000000000602082015250565b6000613cde6038836131be565b9150613ce982613c82565b604082019050919050565b60006020820190508181036000830152613d0d81613cd1565b9050919050565b7f4f776e61626c653a2063616c6c6572206973206e6f7420746865206f776e6572600082015250565b6000613d4a6020836131be565b9150613d5582613d14565b602082019050919050565b60006020820190508181036000830152613d7981613d3d565b9050919050565b7f4552433732313a207472616e736665722063616c6c6572206973206e6f74206f60008201527f776e6572206e6f7220617070726f766564000000000000000000000000000000602082015250565b6000613ddc6031836131be565b9150613de782613d80565b604082019050919050565b60006020820190508181036000830152613e0b81613dcf565b9050919050565b7f5265656e7472616e637947756172643a207265656e7472616e742063616c6c00600082015250565b6000613e48601f836131be565b9150613e5382613e12565b602082019050919050565b60006020820190508181036000830152613e7781613e3b565b9050919050565b7f4e487b7100000000000000000000000000000000000000000000000000000000600052601160045260246000fd5b6000613eb88261334e565b9150613ec38361334e565b925082821015613ed657613ed5613e7e565b5b828203905092915050565b7f4d696e74206f7665720000000000000000000000000000000000000000000000600082015250565b6000613f176009836131be565b9150613f2282613ee1565b602082019050919050565b60006020820190508181036000830152613f4681613f0a565b9050919050565b7f5a65726f206d696e740000000000000000000000000000000000000000000000600082015250565b6000613f836009836131be565b9150613f8e82613f4d565b602082019050919050565b60006020820190508181036000830152613fb281613f76565b9050919050565b7f4e6f7420656e6f75676800000000000000000000000000000000000000000000600082015250565b6000613fef600a836131be565b9150613ffa82613fb9565b602082019050919050565b6000602082019050818103600083015261401e81613fe2565b9050919050565b7f4f776e6572207061696400000000000000000000000000000000000000000000600082015250565b600061405b600a836131be565b915061406682614025565b602082019050919050565b6000602082019050818103600083015261408a8161404e565b9050919050565b7f45786365656473206d6178000000000000000000000000000000000000000000600082015250565b60006140c7600b836131be565b91506140d282614091565b602082019050919050565b600060208201905081810360008301526140f6816140ba565b9050919050565b6000614108826130a2565b9150614113836130a2565b9250817fffffffffffffffffffffffffffffffffffffffffffffffffffffffffffffffff048311821515161561414c5761414b613e7e565b5b828202905092915050565b7f496e76616c69642076616c756500000000000000000000000000000000000000600082015250565b600061418d600d836131be565b915061419882614157565b602082019050919050565b600060208201905081810360008301526141bc81614180565b9050919050565b7f4e6f206d696e7400000000000000000000000000000000000000000000000000600082015250565b60006141f96007836131be565b9150614204826141c3565b602082019050919050565b60006020820190508181036000830152614228816141ec565b9050919050565b600061423a8261334e565b91506142458361334e565b92508261ffff0382111561425c5761425b613e7e565b5b828201905092915050565b60006142728261334e565b915061ffff82141561428757614286613e7e565b5b600182019050919050565b7f496e76616c696420616d74000000000000000000000000000000000000000000600082015250565b60006142c8600b836131be565b91506142d382614292565b602082019050919050565b600060208201905081810360008301526142f7816142bb565b9050919050565b600081905092915050565b50565b60006143196000836142fe565b915061432482614309565b600082019050919050565b600061433a8261430c565b9150819050919050565b7f5472616e73206661696c65640000000000000000000000000000000000000000600082015250565b600061437a600c836131be565b915061438582614344565b602082019050919050565b600060208201905081810360008301526143a98161436d565b9050919050565b6143b981613081565b82525050565b6000819050919050565b60006143e46143df6143da8461334e565b6143bf565b6130a2565b9050919050565b6143f4816143c9565b82525050565b600061441561441061440b846134d0565b6143bf565b6130a2565b9050919050565b614425816143fa565b82525050565b600060808201905061444060008301876143b0565b61444d60208301866143eb565b61445a604083018561441c565b61446760608301846143eb565b95945050505050565b61447981613570565b811461448457600080fd5b50565b60008151905061449681614470565b92915050565b6000602082840312156144b2576144b16130ee565b5b60006144c084828501614487565b91505092915050565b7f596f7520646f206e6f74206f776e207468697320746f6b656e00000000000000600082015250565b60006144ff6019836131be565b915061450a826144c9565b602082019050919050565b6000602082019050818103600083015261452e816144f2565b9050919050565b7f4552433732313a206f776e657220717565727920666f72206e6f6e657869737460008201527f656e7420746f6b656e0000000000000000000000000000000000000000000000602082015250565b60006145916029836131be565b915061459c82614535565b604082019050919050565b600060208201905081810360008301526145c081614584565b9050919050565b7f4552433732313a2062616c616e636520717565727920666f7220746865207a6560008201527f726f206164647265737300000000000000000000000000000000000000000000602082015250565b6000614623602a836131be565b915061462e826145c7565b604082019050919050565b6000602082019050818103600083015261465281614616565b9050919050565b7f4552433732313a20617070726f766520746f2063616c6c657200000000000000600082015250565b600061468f6019836131be565b915061469a82614659565b602082019050919050565b600060208201905081810360008301526146be81614682565b9050919050565b7f496e76616c6964206d696e740000000000000000000000000000000000000000600082015250565b60006146fb600c836131be565b9150614706826146c5565b602082019050919050565b6000602082019050818103600083015261472a816146ee565b9050919050565b7f4e6f6e6365207573656400000000000000000000000000000000000000000000600082015250565b6000614767600a836131be565b915061477282614731565b602082019050919050565b600060208201905081810360008301526147968161475a565b9050919050565b600082825260208201905092915050565b60006147ba838561479d565b93506147c78385846138dd565b6147d083613202565b840190509392505050565b600060c0820190506147f0600083018a6143b0565b6147fd60208301896143b0565b61480a60408301886143eb565b614817606083018761441c565b61482460808301866143eb565b81810360a08301526148378184866147ae565b905098975050505050505050565b600081519050614854816137c0565b92915050565b6000602082840312156148705761486f6130ee565b5b600061487e84828501614845565b91505092915050565b7f496e76616c696420736967000000000000000000000000000000000000000000600082015250565b60006148bd600b836131be565b91506148c882614887565b602082019050919050565b600060208201905081810360008301526148ec816148b0565b9050919050565b7f4261642076616c75650000000000000000000000000000000000000000000000600082015250565b60006149296009836131be565b9150614934826148f3565b602082019050919050565b600060208201905081810360008301526149588161491c565b9050919050565b7f4c696d6974206578636565646564000000000000000000000000000000000000600082015250565b6000614995600e836131be565b91506149a08261495f565b602082019050919050565b600060208201905081810360008301526149c481614988565b9050919050565b7f4552433732314d657461646174613a2055524920717565727920666f72206e6f60008201527f6e6578697374656e7420746f6b656e0000000000000000000000000000000000602082015250565b6000614a27602f836131be565b9150614a32826149cb565b604082019050919050565b60006020820190508181036000830152614a5681614a1a565b9050919050565b600081905092915050565b6000614a73826131b3565b614a7d8185614a5d565b9350614a8d8185602086016131cf565b80840191505092915050565b6000614aa58285614a68565b9150614ab18284614a68565b91508190509392505050565b7f4f776e61626c653a206e6577206f776e657220697320746865207a65726f206160008201527f6464726573730000000000000000000000000000000000000000000000000000602082015250565b6000614b196026836131be565b9150614b2482614abd565b604082019050919050565b60006020820190508181036000830152614b4881614b0c565b9050919050565b7f4552433732313a206f70657261746f7220717565727920666f72206e6f6e657860008201527f697374656e7420746f6b656e0000000000000000000000000000000000000000602082015250565b6000614bab602c836131be565b9150614bb682614b4f565b604082019050919050565b60006020820190508181036000830152614bda81614b9e565b9050919050565b7f4552433732313a207472616e73666572206f6620746f6b656e2074686174206960008201527f73206e6f74206f776e0000000000000000000000000000000000000000000000602082015250565b6000614c3d6029836131be565b9150614c4882614be1565b604082019050919050565b60006020820190508181036000830152614c6c81614c30565b9050919050565b7f4552433732313a207472616e7366657220746f20746865207a65726f2061646460008201527f7265737300000000000000000000000000000000000000000000000000000000602082015250565b6000614ccf6024836131be565b9150614cda82614c73565b604082019050919050565b60006020820190508181036000830152614cfe81614cc2565b9050919050565b6000614d10826130a2565b9150614d1b836130a2565b925082821015614d2e57614d2d613e7e565b5b828203905092915050565b6000614d44826130a2565b9150614d4f836130a2565b9250827fffffffffffffffffffffffffffffffffffffffffffffffffffffffffffffffff03821115614d8457614d83613e7e565b5b828201905092915050565b7f4552433732313a207472616e7366657220746f206e6f6e20455243373231526560008201527f63656976657220696d706c656d656e7465720000000000000000000000000000602082015250565b6000614deb6032836131be565b9150614df682614d8f565b604082019050919050565b60006020820190508181036000830152614e1a81614dde565b9050919050565b6000614e2c826130a2565b91507fffffffffffffffffffffffffffffffffffffffffffffffffffffffffffffffff821415614e5f57614e5e613e7e565b5b600182019050919050565b7f4e487b7100000000000000000000000000000000000000000000000000000000600052601260045260246000fd5b6000614ea4826130a2565b9150614eaf836130a2565b925082614ebf57614ebe614e6a565b5b828204905092915050565b6000614ed5826130a2565b9150614ee0836130a2565b925082614ef057614eef614e6a565b5b828206905092915050565b7f4e487b7100000000000000000000000000000000000000000000000000000000600052603260045260246000fd5b600081519050919050565b600082825260208201905092915050565b6000614f5182614f2a565b614f5b8185614f35565b9350614f6b8185602086016131cf565b614f7481613202565b840191505092915050565b6000608082019050614f946000830187613093565b614fa16020830186613093565b614fae60408301856130ac565b8181036060830152614fc08184614f46565b905095945050505050565b600081519050614fda81613124565b92915050565b600060208284031215614ff657614ff56130ee565b5b600061500484828501614fcb565b91505092915050565b7f4552433732313a206d696e7420746f20746865207a65726f2061646472657373600082015250565b60006150436020836131be565b915061504e8261500d565b602082019050919050565b6000602082019050818103600083015261507281615036565b9050919050565b7f4552433732313a20746f6b656e20616c7265616479206d696e74656400000000600082015250565b60006150af601c836131be565b91506150ba82615079565b602082019050919050565b600060208201905081810360008301526150de816150a2565b905091905056fea26469706673582212202ed85921002fdefd2cabd83fed6deddec3010758fbd9d39358c9c962dcf268b564736f6c63430008090033",
  "immutableReferences": {},
  "source": "// SPDX-License-Identifier: MIT\r\n\r\npragma solidity ^0.8.0;\r\n\r\nimport \"@openzeppelin/contracts/token/ERC721/ERC721.sol\";\r\nimport \"@openzeppelin/contracts/access/Ownable.sol\";\r\nimport \"@openzeppelin/contracts/security/ReentrancyGuard.sol\";\r\nimport \"./Signer.sol\";\r\n\r\ncontract CyberpunkApeExecutives is ERC721, Ownable, ReentrancyGuard {\r\n    constructor(\r\n        uint16 maxSupply,\r\n        uint16 maxFree,\r\n        uint16 maxPresale,\r\n        uint16 publicTransactionMax,\r\n        uint256 mintPrice,\r\n        address signer,\r\n        uint256 freeMintStart,\r\n        uint256 freeMintEnd,\r\n        uint256 presaleMintStart,\r\n        uint256 presaleMintEnd,\r\n        uint256 publicMintStart\r\n    ) ERC721(\"CyberpunkApeExecutives\", \"CAE\") {\r\n        require(maxSupply > 0, \"Zero supply\");\r\n\r\n        mintSigner = signer;\r\n        totalSupply = maxSupply;\r\n\r\n        // CONFIGURE FREE MINT\r\n        freeMint.startDate = freeMintStart;\r\n        freeMint.endDate = freeMintEnd;\r\n        freeMint.maxMinted = maxFree;\r\n\r\n        // CONFIGURE PRESALE Mint\r\n        presaleMint.mintPrice = mintPrice;\r\n        presaleMint.startDate = presaleMintStart;\r\n        presaleMint.endDate = presaleMintEnd;\r\n        presaleMint.maxMinted = maxPresale;\r\n\r\n        // CONFIGURE PUBLIC MINT\r\n        publicMint.mintPrice = mintPrice;\r\n        publicMint.startDate = publicMintStart;\r\n        publicMint.maxPerTransaction = publicTransactionMax;\r\n    }\r\n\r\n    event Paid(address sender, uint256 amount);\r\n    event Withdraw(address recipient, uint256 amount);\r\n\r\n    struct WhitelistedMint {\r\n        /**\r\n         * The price to mint in that whitelist\r\n         */\r\n        uint256 mintPrice;\r\n        /**\r\n         * The start date in unix seconds\r\n         */\r\n        uint256 startDate;\r\n        /**\r\n         * The end date in unix seconds\r\n         */\r\n        uint256 endDate;\r\n        /**\r\n         * The total number of tokens minted in this whitelist\r\n         */\r\n        uint16 totalMinted;\r\n        /**\r\n         * The maximum number of tokens minted in this whitelist\r\n         */\r\n        uint16 maxMinted;\r\n        /**\r\n         * The minters in this whitelisted mint\r\n         * mapped to the number minted\r\n         */\r\n        mapping(address => uint16) minted;\r\n    }\r\n\r\n    struct PublicMint {\r\n        uint256 mintPrice;\r\n        /**\r\n         * The start date in unix seconds\r\n         */\r\n        uint256 startDate;\r\n        /**\r\n         * The maximum per transaction\r\n         */\r\n        uint16 maxPerTransaction;\r\n    }\r\n\r\n    string baseURI;\r\n\r\n    uint16 public totalSupply;\r\n    uint16 public minted;\r\n\r\n    address private mintSigner;\r\n    mapping(address => uint16) public lastMintNonce;\r\n\r\n    /**\r\n     * The free mint\r\n     */\r\n    WhitelistedMint public freeMint;\r\n\r\n    /**\r\n     * An exclusive mint for members granted\r\n     * presale from influencers\r\n     */\r\n    WhitelistedMint public presaleMint;\r\n\r\n    /**\r\n     * The public mint for everybody.\r\n     */\r\n    PublicMint public publicMint;\r\n\r\n    /**\r\n     * @dev Base URI for computing {tokenURI}. If set, the resulting URI for each\r\n     * token will be the concatenation of the `baseURI` and the `tokenId`.\r\n     */\r\n    function _baseURI() internal view virtual override returns (string memory) {\r\n        return baseURI;\r\n    }\r\n\r\n    /**\r\n     * Sets the base URI for all tokens\r\n     *\r\n     * @dev be sure to terminate with a slash\r\n     * @param uri - the target base uri (ex: 'https://google.com/')\r\n     */\r\n    function setBaseURI(string calldata uri) public onlyOwner {\r\n        baseURI = uri;\r\n    }\r\n\r\n    /**\r\n     * Burns the provided token id if you own it.\r\n     * Reduces the supply by 1.\r\n     *\r\n     * @param tokenId - the ID of the token to be burned.\r\n     */\r\n    function burn(uint256 tokenId) public {\r\n        require(ownerOf(tokenId) == msg.sender, \"You do not own this token\");\r\n\r\n        _burn(tokenId);\r\n    }\r\n\r\n    // ------------------------------------------------ MINT STUFFS ------------------------------------------------\r\n\r\n    function getWhitelistMints(address user)\r\n        external\r\n        view\r\n        returns (uint16 free, uint16 presale)\r\n    {\r\n        free = freeMint.minted[user];\r\n        presale = presaleMint.minted[user];\r\n\r\n        return (free, presale);\r\n    }\r\n\r\n    /**\r\n     * Updates the presale mint's characteristics\r\n     *\r\n     * @param mintPrice - the cost for that mint in WEI\r\n     * @param startDate - the start date for that mint in UNIX seconds\r\n     * @param endDate - the end date for that mint in UNIX seconds\r\n     */\r\n    function updatePresaleMint(\r\n        uint256 mintPrice,\r\n        uint256 startDate,\r\n        uint256 endDate,\r\n        uint16 maxMinted\r\n    ) public onlyOwner {\r\n        presaleMint.mintPrice = mintPrice;\r\n        presaleMint.startDate = startDate;\r\n        presaleMint.endDate = endDate;\r\n        presaleMint.maxMinted = maxMinted;\r\n    }\r\n\r\n    /**\r\n     * Updates the free mint's characteristics\r\n     *\r\n     * @param startDate - the start date for that mint in UNIX seconds\r\n     * @param endDate - the end date for that mint in UNIX seconds\r\n     */\r\n    function updateFreeMint(\r\n        uint256 startDate,\r\n        uint256 endDate,\r\n        uint16 maxMinted\r\n    ) public onlyOwner {\r\n        freeMint.startDate = startDate;\r\n        freeMint.endDate = endDate;\r\n        freeMint.maxMinted = maxMinted;\r\n    }\r\n\r\n    /**\r\n     * Updates the public mint's characteristics\r\n     *\r\n     * @param mintPrice - the cost for that mint in WEI\r\n     * @param maxPerTransaction - the maximum amount allowed in a wallet to mint in the public mint\r\n     * @param startDate - the start date for that mint in UNIX seconds\r\n     */\r\n    function updatePublicMint(\r\n        uint256 mintPrice,\r\n        uint16 maxPerTransaction,\r\n        uint256 startDate\r\n    ) public onlyOwner {\r\n        publicMint.mintPrice = mintPrice;\r\n        publicMint.maxPerTransaction = maxPerTransaction;\r\n        publicMint.startDate = startDate;\r\n    }\r\n\r\n    function getPremintHash(\r\n        address minter,\r\n        uint16 quantity,\r\n        uint8 mintId,\r\n        uint16 nonce\r\n    ) public pure returns (bytes32) {\r\n        return VerifySignature.getMessageHash(minter, quantity, mintId, nonce);\r\n    }\r\n\r\n    /**\r\n     * Mints in the premint stage by using a signed transaction from a centralized whitelist.\r\n     * The message signer is expected to only sign messages when they fall within the whitelist\r\n     * specifications.\r\n     *\r\n     * @param quantity - the number to mint\r\n     * @param mintId - 0 for free mint, 1 for presale mint\r\n     * @param nonce - a random nonce which indicates that a signed transaction hasn't already been used.\r\n     * @param signature - the signature given by the centralized whitelist authority, signed by\r\n     *                    the account specified as mintSigner.\r\n     */\r\n    function premint(\r\n        uint16 quantity,\r\n        uint8 mintId,\r\n        uint16 nonce,\r\n        bytes calldata signature\r\n    ) public payable nonReentrant {\r\n        uint256 remaining = totalSupply - minted;\r\n\r\n        require(remaining > 0, \"Mint over\");\r\n        require(quantity >= 1, \"Zero mint\");\r\n        require(quantity <= remaining, \"Not enough\");\r\n\r\n        require(mintId == 0 || mintId == 1, \"Invalid mint\");\r\n        require(lastMintNonce[msg.sender] < nonce, \"Nonce used\");\r\n\r\n        WhitelistedMint storage targetMint = mintId == 0\r\n            ? freeMint\r\n            : presaleMint;\r\n\r\n        require(\r\n            targetMint.startDate <= block.timestamp &&\r\n                targetMint.endDate >= block.timestamp,\r\n            \"No mint\"\r\n        );\r\n        require(\r\n            VerifySignature.verify(\r\n                mintSigner,\r\n                msg.sender,\r\n                quantity,\r\n                mintId,\r\n                nonce,\r\n                signature\r\n            ),\r\n            \"Invalid sig\"\r\n        );\r\n        require(targetMint.mintPrice * quantity == msg.value, \"Bad value\");\r\n        require(\r\n            targetMint.totalMinted + quantity <= targetMint.maxMinted,\r\n            \"Limit exceeded\"\r\n        );\r\n\r\n        targetMint.minted[msg.sender] += quantity;\r\n        targetMint.totalMinted += quantity;\r\n        lastMintNonce[msg.sender] = nonce; // update nonce\r\n\r\n        // DISTRIBUTE THE TOKENS\r\n        uint16 i;\r\n        for (i; i < quantity; i++) {\r\n            minted += 1;\r\n            _safeMint(msg.sender, minted);\r\n        }\r\n    }\r\n\r\n    /**\r\n     * Mints the given quantity of tokens provided it is possible to.\r\n     *\r\n     * @notice This function allows minting in the public sale\r\n     *         or at any time for the owner of the contract.\r\n     *\r\n     * @param quantity - the number of tokens to mint\r\n     */\r\n    function mint(uint16 quantity) public payable nonReentrant {\r\n        uint256 remaining = totalSupply - minted;\r\n\r\n        require(remaining > 0, \"Mint over\");\r\n        require(quantity >= 1, \"Zero mint\");\r\n        require(quantity <= remaining, \"Not enough\");\r\n\r\n        if (owner() == msg.sender) {\r\n            // OWNER MINTING FOR FREE\r\n            require(msg.value == 0, \"Owner paid\");\r\n        } else if (block.timestamp >= publicMint.startDate) {\r\n            // PUBLIC MINT\r\n            require(quantity <= publicMint.maxPerTransaction, \"Exceeds max\");\r\n            require(\r\n                quantity * publicMint.mintPrice == msg.value,\r\n                \"Invalid value\"\r\n            );\r\n        } else {\r\n            // NOT ELIGIBLE FOR PUBLIC MINT\r\n            revert(\"No mint\");\r\n        }\r\n\r\n        // DISTRIBUTE THE TOKENS\r\n        uint16 i;\r\n        for (i; i < quantity; i++) {\r\n            minted += 1;\r\n            _safeMint(msg.sender, minted);\r\n        }\r\n    }\r\n\r\n    /**\r\n     * Withdraws balance from the contract to the owner (sender).\r\n     * @param amount - the amount to withdraw, much be <= contract balance.\r\n     */\r\n    function withdraw(uint256 amount) external onlyOwner {\r\n        require(address(this).balance <= amount, \"Invalid amt\");\r\n\r\n        (bool success, ) = msg.sender.call{value: amount}(\"\");\r\n        require(success, \"Trans failed\");\r\n        emit Withdraw(msg.sender, amount);\r\n    }\r\n\r\n    /**\r\n     * The receive function, does nothing\r\n     */\r\n    receive() external payable {\r\n        emit Paid(msg.sender, msg.value);\r\n    }\r\n}\r\n",
  "sourcePath": "C:\\Users\\Cory\\source\\repos\\CyberpunkApeExecutives\\contracts\\Ape\\contracts\\CyberpunkApeExecutives.sol",
  "compiler": {
    "name": "solc",
    "version": "0.8.9+commit.e5eed63a.Emscripten.clang"
  },
  "schemaVersion": "3.4.3",
  "updatedAt": "2021-12-20T05:50:42.762Z",
  "devdoc": {
    "kind": "dev",
    "methods": {
      "approve(address,uint256)": {
        "details": "See {IERC721-approve}."
      },
      "balanceOf(address)": {
        "details": "See {IERC721-balanceOf}."
      },
      "burn(uint256)": {
        "params": {
          "tokenId": "- the ID of the token to be burned."
        }
      },
      "getApproved(uint256)": {
        "details": "See {IERC721-getApproved}."
      },
      "isApprovedForAll(address,address)": {
        "details": "See {IERC721-isApprovedForAll}."
      },
      "mint(uint16)": {
        "params": {
          "quantity": "- the number of tokens to mint"
        }
      },
      "name()": {
        "details": "See {IERC721Metadata-name}."
      },
      "owner()": {
        "details": "Returns the address of the current owner."
      },
      "ownerOf(uint256)": {
        "details": "See {IERC721-ownerOf}."
      },
      "premint(uint16,uint8,uint16,bytes)": {
        "params": {
          "mintId": "- 0 for free mint, 1 for presale mint",
          "nonce": "- a random nonce which indicates that a signed transaction hasn't already been used.",
          "quantity": "- the number to mint",
          "signature": "- the signature given by the centralized whitelist authority, signed by                    the account specified as mintSigner."
        }
      },
      "renounceOwnership()": {
        "details": "Leaves the contract without owner. It will not be possible to call `onlyOwner` functions anymore. Can only be called by the current owner. NOTE: Renouncing ownership will leave the contract without an owner, thereby removing any functionality that is only available to the owner."
      },
      "safeTransferFrom(address,address,uint256)": {
        "details": "See {IERC721-safeTransferFrom}."
      },
      "safeTransferFrom(address,address,uint256,bytes)": {
        "details": "See {IERC721-safeTransferFrom}."
      },
      "setApprovalForAll(address,bool)": {
        "details": "See {IERC721-setApprovalForAll}."
      },
      "setBaseURI(string)": {
        "details": "be sure to terminate with a slash",
        "params": {
          "uri": "- the target base uri (ex: 'https://google.com/')"
        }
      },
      "supportsInterface(bytes4)": {
        "details": "See {IERC165-supportsInterface}."
      },
      "symbol()": {
        "details": "See {IERC721Metadata-symbol}."
      },
      "tokenURI(uint256)": {
        "details": "See {IERC721Metadata-tokenURI}."
      },
      "transferFrom(address,address,uint256)": {
        "details": "See {IERC721-transferFrom}."
      },
      "transferOwnership(address)": {
        "details": "Transfers ownership of the contract to a new account (`newOwner`). Can only be called by the current owner."
      },
      "updateFreeMint(uint256,uint256,uint16)": {
        "params": {
          "endDate": "- the end date for that mint in UNIX seconds",
          "startDate": "- the start date for that mint in UNIX seconds"
        }
      },
      "updatePresaleMint(uint256,uint256,uint256,uint16)": {
        "params": {
          "endDate": "- the end date for that mint in UNIX seconds",
          "mintPrice": "- the cost for that mint in WEI",
          "startDate": "- the start date for that mint in UNIX seconds"
        }
      },
      "updatePublicMint(uint256,uint16,uint256)": {
        "params": {
          "maxPerTransaction": "- the maximum amount allowed in a wallet to mint in the public mint",
          "mintPrice": "- the cost for that mint in WEI",
          "startDate": "- the start date for that mint in UNIX seconds"
        }
      },
      "withdraw(uint256)": {
        "params": {
          "amount": "- the amount to withdraw, much be <= contract balance."
        }
      }
    },
    "version": 1
  },
  "userdoc": {
    "kind": "user",
    "methods": {
      "burn(uint256)": {
        "notice": "Burns the provided token id if you own it. Reduces the supply by 1."
      },
      "freeMint()": {
        "notice": "The free mint"
      },
      "mint(uint16)": {
        "notice": "Mints the given quantity of tokens provided it is possible to.This function allows minting in the public sale         or at any time for the owner of the contract."
      },
      "premint(uint16,uint8,uint16,bytes)": {
        "notice": "Mints in the premint stage by using a signed transaction from a centralized whitelist. The message signer is expected to only sign messages when they fall within the whitelist specifications."
      },
      "presaleMint()": {
        "notice": "An exclusive mint for members granted presale from influencers"
      },
      "publicMint()": {
        "notice": "The public mint for everybody."
      },
      "setBaseURI(string)": {
        "notice": "Sets the base URI for all tokens"
      },
      "updateFreeMint(uint256,uint256,uint16)": {
        "notice": "Updates the free mint's characteristics"
      },
      "updatePresaleMint(uint256,uint256,uint256,uint16)": {
        "notice": "Updates the presale mint's characteristics"
      },
      "updatePublicMint(uint256,uint16,uint256)": {
        "notice": "Updates the public mint's characteristics"
      },
      "withdraw(uint256)": {
        "notice": "Withdraws balance from the contract to the owner (sender)."
      }
    },
    "version": 1
  }
}