{
  "contractName": "CyberpunkApeExecutives",
  "abi": [
    {
      "inputs": [
        {
          "internalType": "uint16",
          "name": "maxSupply",
          "type": "uint16"
        },
        {
          "internalType": "uint16",
          "name": "maxPresale",
          "type": "uint16"
        },
        {
          "internalType": "uint16",
          "name": "publicTransactionMax",
          "type": "uint16"
        },
        {
          "internalType": "uint256",
          "name": "mintPrice",
          "type": "uint256"
        },
        {
          "internalType": "address",
          "name": "signer",
          "type": "address"
        },
        {
          "internalType": "uint256",
          "name": "presaleMintStart",
          "type": "uint256"
        },
        {
          "internalType": "uint256",
          "name": "presaleMintEnd",
          "type": "uint256"
        },
        {
          "internalType": "uint256",
          "name": "publicMintStart",
          "type": "uint256"
        }
      ],
      "stateMutability": "nonpayable",
      "type": "constructor"
    },
    {
      "anonymous": false,
      "inputs": [
        {
          "indexed": true,
          "internalType": "address",
          "name": "owner",
          "type": "address"
        },
        {
          "indexed": true,
          "internalType": "address",
          "name": "approved",
          "type": "address"
        },
        {
          "indexed": true,
          "internalType": "uint256",
          "name": "tokenId",
          "type": "uint256"
        }
      ],
      "name": "Approval",
      "type": "event"
    },
    {
      "anonymous": false,
      "inputs": [
        {
          "indexed": true,
          "internalType": "address",
          "name": "owner",
          "type": "address"
        },
        {
          "indexed": true,
          "internalType": "address",
          "name": "operator",
          "type": "address"
        },
        {
          "indexed": false,
          "internalType": "bool",
          "name": "approved",
          "type": "bool"
        }
      ],
      "name": "ApprovalForAll",
      "type": "event"
    },
    {
      "anonymous": false,
      "inputs": [
        {
          "indexed": true,
          "internalType": "address",
          "name": "previousOwner",
          "type": "address"
        },
        {
          "indexed": true,
          "internalType": "address",
          "name": "newOwner",
          "type": "address"
        }
      ],
      "name": "OwnershipTransferred",
      "type": "event"
    },
    {
      "anonymous": false,
      "inputs": [
        {
          "indexed": false,
          "internalType": "address",
          "name": "sender",
          "type": "address"
        },
        {
          "indexed": false,
          "internalType": "uint256",
          "name": "amount",
          "type": "uint256"
        }
      ],
      "name": "Paid",
      "type": "event"
    },
    {
      "anonymous": false,
      "inputs": [
        {
          "indexed": true,
          "internalType": "address",
          "name": "from",
          "type": "address"
        },
        {
          "indexed": true,
          "internalType": "address",
          "name": "to",
          "type": "address"
        },
        {
          "indexed": true,
          "internalType": "uint256",
          "name": "tokenId",
          "type": "uint256"
        }
      ],
      "name": "Transfer",
      "type": "event"
    },
    {
      "anonymous": false,
      "inputs": [
        {
          "indexed": false,
          "internalType": "address",
          "name": "recipient",
          "type": "address"
        },
        {
          "indexed": false,
          "internalType": "uint256",
          "name": "amount",
          "type": "uint256"
        }
      ],
      "name": "Withdraw",
      "type": "event"
    },
    {
      "inputs": [
        {
          "internalType": "address",
          "name": "to",
          "type": "address"
        },
        {
          "internalType": "uint256",
          "name": "tokenId",
          "type": "uint256"
        }
      ],
      "name": "approve",
      "outputs": [],
      "stateMutability": "nonpayable",
      "type": "function"
    },
    {
      "inputs": [
        {
          "internalType": "address",
          "name": "owner",
          "type": "address"
        }
      ],
      "name": "balanceOf",
      "outputs": [
        {
          "internalType": "uint256",
          "name": "",
          "type": "uint256"
        }
      ],
      "stateMutability": "view",
      "type": "function"
    },
    {
      "inputs": [
        {
          "internalType": "uint256",
          "name": "tokenId",
          "type": "uint256"
        }
      ],
      "name": "getApproved",
      "outputs": [
        {
          "internalType": "address",
          "name": "",
          "type": "address"
        }
      ],
      "stateMutability": "view",
      "type": "function"
    },
    {
      "inputs": [
        {
          "internalType": "address",
          "name": "owner",
          "type": "address"
        },
        {
          "internalType": "address",
          "name": "operator",
          "type": "address"
        }
      ],
      "name": "isApprovedForAll",
      "outputs": [
        {
          "internalType": "bool",
          "name": "",
          "type": "bool"
        }
      ],
      "stateMutability": "view",
      "type": "function"
    },
    {
      "inputs": [
        {
          "internalType": "address",
          "name": "",
          "type": "address"
        }
      ],
      "name": "lastMintNonce",
      "outputs": [
        {
          "internalType": "uint16",
          "name": "",
          "type": "uint16"
        }
      ],
      "stateMutability": "view",
      "type": "function"
    },
    {
      "inputs": [],
      "name": "minted",
      "outputs": [
        {
          "internalType": "uint16",
          "name": "",
          "type": "uint16"
        }
      ],
      "stateMutability": "view",
      "type": "function"
    },
    {
      "inputs": [],
      "name": "name",
      "outputs": [
        {
          "internalType": "string",
          "name": "",
          "type": "string"
        }
      ],
      "stateMutability": "view",
      "type": "function"
    },
    {
      "inputs": [],
      "name": "owner",
      "outputs": [
        {
          "internalType": "address",
          "name": "",
          "type": "address"
        }
      ],
      "stateMutability": "view",
      "type": "function"
    },
    {
      "inputs": [
        {
          "internalType": "uint256",
          "name": "tokenId",
          "type": "uint256"
        }
      ],
      "name": "ownerOf",
      "outputs": [
        {
          "internalType": "address",
          "name": "",
          "type": "address"
        }
      ],
      "stateMutability": "view",
      "type": "function"
    },
    {
      "inputs": [],
      "name": "presaleMint",
      "outputs": [
        {
          "internalType": "uint256",
          "name": "mintPrice",
          "type": "uint256"
        },
        {
          "internalType": "uint256",
          "name": "startDate",
          "type": "uint256"
        },
        {
          "internalType": "uint256",
          "name": "endDate",
          "type": "uint256"
        },
        {
          "internalType": "uint16",
          "name": "totalMinted",
          "type": "uint16"
        },
        {
          "internalType": "uint16",
          "name": "maxMinted",
          "type": "uint16"
        }
      ],
      "stateMutability": "view",
      "type": "function"
    },
    {
      "inputs": [],
      "name": "publicMint",
      "outputs": [
        {
          "internalType": "uint256",
          "name": "mintPrice",
          "type": "uint256"
        },
        {
          "internalType": "uint256",
          "name": "startDate",
          "type": "uint256"
        },
        {
          "internalType": "uint16",
          "name": "maxPerTransaction",
          "type": "uint16"
        }
      ],
      "stateMutability": "view",
      "type": "function"
    },
    {
      "inputs": [],
      "name": "renounceOwnership",
      "outputs": [],
      "stateMutability": "nonpayable",
      "type": "function"
    },
    {
      "inputs": [
        {
          "internalType": "address",
          "name": "from",
          "type": "address"
        },
        {
          "internalType": "address",
          "name": "to",
          "type": "address"
        },
        {
          "internalType": "uint256",
          "name": "tokenId",
          "type": "uint256"
        }
      ],
      "name": "safeTransferFrom",
      "outputs": [],
      "stateMutability": "nonpayable",
      "type": "function"
    },
    {
      "inputs": [
        {
          "internalType": "address",
          "name": "from",
          "type": "address"
        },
        {
          "internalType": "address",
          "name": "to",
          "type": "address"
        },
        {
          "internalType": "uint256",
          "name": "tokenId",
          "type": "uint256"
        },
        {
          "internalType": "bytes",
          "name": "_data",
          "type": "bytes"
        }
      ],
      "name": "safeTransferFrom",
      "outputs": [],
      "stateMutability": "nonpayable",
      "type": "function"
    },
    {
      "inputs": [
        {
          "internalType": "address",
          "name": "operator",
          "type": "address"
        },
        {
          "internalType": "bool",
          "name": "approved",
          "type": "bool"
        }
      ],
      "name": "setApprovalForAll",
      "outputs": [],
      "stateMutability": "nonpayable",
      "type": "function"
    },
    {
      "inputs": [
        {
          "internalType": "bytes4",
          "name": "interfaceId",
          "type": "bytes4"
        }
      ],
      "name": "supportsInterface",
      "outputs": [
        {
          "internalType": "bool",
          "name": "",
          "type": "bool"
        }
      ],
      "stateMutability": "view",
      "type": "function"
    },
    {
      "inputs": [],
      "name": "symbol",
      "outputs": [
        {
          "internalType": "string",
          "name": "",
          "type": "string"
        }
      ],
      "stateMutability": "view",
      "type": "function"
    },
    {
      "inputs": [
        {
          "internalType": "uint256",
          "name": "tokenId",
          "type": "uint256"
        }
      ],
      "name": "tokenURI",
      "outputs": [
        {
          "internalType": "string",
          "name": "",
          "type": "string"
        }
      ],
      "stateMutability": "view",
      "type": "function"
    },
    {
      "inputs": [],
      "name": "totalSupply",
      "outputs": [
        {
          "internalType": "uint16",
          "name": "",
          "type": "uint16"
        }
      ],
      "stateMutability": "view",
      "type": "function"
    },
    {
      "inputs": [
        {
          "internalType": "address",
          "name": "from",
          "type": "address"
        },
        {
          "internalType": "address",
          "name": "to",
          "type": "address"
        },
        {
          "internalType": "uint256",
          "name": "tokenId",
          "type": "uint256"
        }
      ],
      "name": "transferFrom",
      "outputs": [],
      "stateMutability": "nonpayable",
      "type": "function"
    },
    {
      "inputs": [
        {
          "internalType": "address",
          "name": "newOwner",
          "type": "address"
        }
      ],
      "name": "transferOwnership",
      "outputs": [],
      "stateMutability": "nonpayable",
      "type": "function"
    },
    {
      "stateMutability": "payable",
      "type": "receive"
    },
    {
      "inputs": [
        {
          "internalType": "string",
          "name": "uri",
          "type": "string"
        }
      ],
      "name": "setBaseURI",
      "outputs": [],
      "stateMutability": "nonpayable",
      "type": "function"
    },
    {
      "inputs": [
        {
          "internalType": "uint256",
          "name": "tokenId",
          "type": "uint256"
        }
      ],
      "name": "burn",
      "outputs": [],
      "stateMutability": "nonpayable",
      "type": "function"
    },
    {
      "inputs": [
        {
          "internalType": "address",
          "name": "user",
          "type": "address"
        }
      ],
      "name": "getPresaleMints",
      "outputs": [
        {
          "internalType": "uint16",
          "name": "",
          "type": "uint16"
        }
      ],
      "stateMutability": "view",
      "type": "function"
    },
    {
      "inputs": [
        {
          "internalType": "uint256",
          "name": "mintPrice",
          "type": "uint256"
        },
        {
          "internalType": "uint256",
          "name": "startDate",
          "type": "uint256"
        },
        {
          "internalType": "uint256",
          "name": "endDate",
          "type": "uint256"
        },
        {
          "internalType": "uint16",
          "name": "maxMinted",
          "type": "uint16"
        }
      ],
      "name": "updatePresaleMint",
      "outputs": [],
      "stateMutability": "nonpayable",
      "type": "function"
    },
    {
      "inputs": [
        {
          "internalType": "uint256",
          "name": "mintPrice",
          "type": "uint256"
        },
        {
          "internalType": "uint16",
          "name": "maxPerTransaction",
          "type": "uint16"
        },
        {
          "internalType": "uint256",
          "name": "startDate",
          "type": "uint256"
        }
      ],
      "name": "updatePublicMint",
      "outputs": [],
      "stateMutability": "nonpayable",
      "type": "function"
    },
    {
      "inputs": [
        {
          "internalType": "address",
          "name": "minter",
          "type": "address"
        },
        {
          "internalType": "uint16",
          "name": "quantity",
          "type": "uint16"
        },
        {
          "internalType": "uint16",
          "name": "nonce",
          "type": "uint16"
        }
      ],
      "name": "getPremintHash",
      "outputs": [
        {
          "internalType": "bytes32",
          "name": "",
          "type": "bytes32"
        }
      ],
      "stateMutability": "pure",
      "type": "function"
    },
    {
      "inputs": [
        {
          "internalType": "uint16",
          "name": "quantity",
          "type": "uint16"
        },
        {
          "internalType": "uint16",
          "name": "nonce",
          "type": "uint16"
        },
        {
          "internalType": "bytes",
          "name": "signature",
          "type": "bytes"
        }
      ],
      "name": "premint",
      "outputs": [],
      "stateMutability": "payable",
      "type": "function"
    },
    {
      "inputs": [
        {
          "internalType": "uint16",
          "name": "quantity",
          "type": "uint16"
        }
      ],
      "name": "mint",
      "outputs": [],
      "stateMutability": "payable",
      "type": "function"
    },
    {
      "inputs": [
        {
          "internalType": "uint256",
          "name": "amount",
          "type": "uint256"
        }
      ],
      "name": "withdraw",
      "outputs": [],
      "stateMutability": "nonpayable",
      "type": "function"
    }
  ],
  "bytecode": "0x60806040523480156200001157600080fd5b50604051620053ab380380620053ab833981810160405281019062000037919062000489565b6040518060400160405280601681526020017f437962657270756e6b41706545786563757469766573000000000000000000008152506040518060400160405280600381526020017f43414500000000000000000000000000000000000000000000000000000000008152508160009080519060200190620000bb929190620002f5565b508060019080519060200190620000d4929190620002f5565b505050620000f7620000eb6200022760201b60201c565b6200022f60201b60201c565b600160078190555060008861ffff161162000149576040517f08c379a00000000000000000000000000000000000000000000000000000000081526004016200014090620005b3565b60405180910390fd5b83600960046101000a81548173ffffffffffffffffffffffffffffffffffffffff021916908373ffffffffffffffffffffffffffffffffffffffff16021790555087600960006101000a81548161ffff021916908361ffff16021790555084600b6000018190555082600b6001018190555081600b6002018190555086600b60030160026101000a81548161ffff021916908361ffff160217905550846010600001819055508060106001018190555085601060020160006101000a81548161ffff021916908361ffff16021790555050505050505050506200063a565b600033905090565b6000600660009054906101000a900473ffffffffffffffffffffffffffffffffffffffff16905081600660006101000a81548173ffffffffffffffffffffffffffffffffffffffff021916908373ffffffffffffffffffffffffffffffffffffffff1602179055508173ffffffffffffffffffffffffffffffffffffffff168173ffffffffffffffffffffffffffffffffffffffff167f8be0079c531659141344cd1fd0a4f28419497f9722a3daafe3b4186f6b6457e060405160405180910390a35050565b828054620003039062000604565b90600052602060002090601f01602090048101928262000327576000855562000373565b82601f106200034257805160ff191683800117855562000373565b8280016001018555821562000373579182015b828111156200037257825182559160200191906001019062000355565b5b50905062000382919062000386565b5090565b5b80821115620003a157600081600090555060010162000387565b5090565b600080fd5b600061ffff82169050919050565b620003c381620003aa565b8114620003cf57600080fd5b50565b600081519050620003e381620003b8565b92915050565b6000819050919050565b620003fe81620003e9565b81146200040a57600080fd5b50565b6000815190506200041e81620003f3565b92915050565b600073ffffffffffffffffffffffffffffffffffffffff82169050919050565b6000620004518262000424565b9050919050565b620004638162000444565b81146200046f57600080fd5b50565b600081519050620004838162000458565b92915050565b600080600080600080600080610100898b031215620004ad57620004ac620003a5565b5b6000620004bd8b828c01620003d2565b9850506020620004d08b828c01620003d2565b9750506040620004e38b828c01620003d2565b9650506060620004f68b828c016200040d565b9550506080620005098b828c0162000472565b94505060a06200051c8b828c016200040d565b93505060c06200052f8b828c016200040d565b92505060e0620005428b828c016200040d565b9150509295985092959890939650565b600082825260208201905092915050565b7f5a65726f20737570706c79000000000000000000000000000000000000000000600082015250565b60006200059b600b8362000552565b9150620005a88262000563565b602082019050919050565b60006020820190508181036000830152620005ce816200058c565b9050919050565b7f4e487b7100000000000000000000000000000000000000000000000000000000600052602260045260246000fd5b600060028204905060018216806200061d57607f821691505b60208210811415620006345762000633620005d5565b5b50919050565b614d61806200064a6000396000f3fe6080604052600436106101d15760003560e01c80636352211e116100f757806395d89b4111610095578063c87b56dd11610064578063c87b56dd146106a0578063e2cedd49146106dd578063e985e9c51461071a578063f2fde38b1461075757610211565b806395d89b41146105e6578063a22cb46514610611578063b88d4fde1461063a578063baa551ee1461066357610211565b8063715018a6116100d1578063715018a61461055f5780637f80a264146105765780638da5cb5b1461059f5780639207b05a146105ca57610211565b80636352211e146104a857806368bef344146104e557806370a082311461052257610211565b806323cf0a221161016f57806342966c681161013e57806342966c68146103fc5780634f02c4201461042557806355f804b31461045057806359533d6c1461047957610211565b806323cf0a221461036157806326092b831461037d5780632e1a7d4d146103aa57806342842e0e146103d357610211565b8063095ea7b3116101ab578063095ea7b3146102bb578063123db7ac146102e457806318160ddd1461030d57806323b872dd1461033857610211565b806301ffc9a71461021657806306fdde0314610253578063081812fc1461027e57610211565b36610211577f737c69225d647e5994eab1a6c301bf6d9232beb2759ae1e27a8966b4732bc4893334604051610207929190612e97565b60405180910390a1005b600080fd5b34801561022257600080fd5b5061023d60048036038101906102389190612f2c565b610780565b60405161024a9190612f74565b60405180910390f35b34801561025f57600080fd5b50610268610862565b6040516102759190613028565b60405180910390f35b34801561028a57600080fd5b506102a560048036038101906102a09190613076565b6108f4565b6040516102b291906130a3565b60405180910390f35b3480156102c757600080fd5b506102e260048036038101906102dd91906130ea565b610979565b005b3480156102f057600080fd5b5061030b60048036038101906103069190613164565b610a91565b005b34801561031957600080fd5b50610322610b51565b60405161032f91906131da565b60405180910390f35b34801561034457600080fd5b5061035f600480360381019061035a91906131f5565b610b65565b005b61037b60048036038101906103769190613248565b610bc5565b005b34801561038957600080fd5b50610392610f28565b6040516103a193929190613275565b60405180910390f35b3480156103b657600080fd5b506103d160048036038101906103cc9190613076565b610f4e565b005b3480156103df57600080fd5b506103fa60048036038101906103f591906131f5565b6110f6565b005b34801561040857600080fd5b50610423600480360381019061041e9190613076565b611116565b005b34801561043157600080fd5b5061043a611198565b60405161044791906131da565b60405180910390f35b34801561045c57600080fd5b5061047760048036038101906104729190613311565b6111ac565b005b34801561048557600080fd5b5061048e61123e565b60405161049f95949392919061335e565b60405180910390f35b3480156104b457600080fd5b506104cf60048036038101906104ca9190613076565b61127e565b6040516104dc91906130a3565b60405180910390f35b3480156104f157600080fd5b5061050c600480360381019061050791906133b1565b611330565b604051610519919061341d565b60405180910390f35b34801561052e57600080fd5b5061054960048036038101906105449190613438565b6113c6565b6040516105569190613465565b60405180910390f35b34801561056b57600080fd5b5061057461147e565b005b34801561058257600080fd5b5061059d60048036038101906105989190613480565b611506565b005b3480156105ab57600080fd5b506105b46115bb565b6040516105c191906130a3565b60405180910390f35b6105e460048036038101906105df9190613529565b6115e5565b005b3480156105f257600080fd5b506105fb611b8a565b6040516106089190613028565b60405180910390f35b34801561061d57600080fd5b50610638600480360381019061063391906135c9565b611c1c565b005b34801561064657600080fd5b50610661600480360381019061065c9190613739565b611d9d565b005b34801561066f57600080fd5b5061068a60048036038101906106859190613438565b611dff565b60405161069791906131da565b60405180910390f35b3480156106ac57600080fd5b506106c760048036038101906106c29190613076565b611e59565b6040516106d49190613028565b60405180910390f35b3480156106e957600080fd5b5061070460048036038101906106ff9190613438565b611f00565b60405161071191906131da565b60405180910390f35b34801561072657600080fd5b50610741600480360381019061073c91906137bc565b611f21565b60405161074e9190612f74565b60405180910390f35b34801561076357600080fd5b5061077e60048036038101906107799190613438565b611fb5565b005b60007f80ac58cd000000000000000000000000000000000000000000000000000000007bffffffffffffffffffffffffffffffffffffffffffffffffffffffff1916827bffffffffffffffffffffffffffffffffffffffffffffffffffffffff1916148061084b57507f5b5e139f000000000000000000000000000000000000000000000000000000007bffffffffffffffffffffffffffffffffffffffffffffffffffffffff1916827bffffffffffffffffffffffffffffffffffffffffffffffffffffffff1916145b8061085b575061085a826120ad565b5b9050919050565b6060600080546108719061382b565b80601f016020809104026020016040519081016040528092919081815260200182805461089d9061382b565b80156108ea5780601f106108bf576101008083540402835291602001916108ea565b820191906000526020600020905b8154815290600101906020018083116108cd57829003601f168201915b5050505050905090565b60006108ff82612117565b61093e576040517f08c379a0000000000000000000000000000000000000000000000000000000008152600401610935906138cf565b60405180910390fd5b6004600083815260200190815260200160002060009054906101000a900473ffffffffffffffffffffffffffffffffffffffff169050919050565b60006109848261127e565b90508073ffffffffffffffffffffffffffffffffffffffff168373ffffffffffffffffffffffffffffffffffffffff1614156109f5576040517f08c379a00000000000000000000000000000000000000000000000000000000081526004016109ec90613961565b60405180910390fd5b8073ffffffffffffffffffffffffffffffffffffffff16610a14612183565b73ffffffffffffffffffffffffffffffffffffffff161480610a435750610a4281610a3d612183565b611f21565b5b610a82576040517f08c379a0000000000000000000000000000000000000000000000000000000008152600401610a79906139f3565b60405180910390fd5b610a8c838361218b565b505050565b610a99612183565b73ffffffffffffffffffffffffffffffffffffffff16610ab76115bb565b73ffffffffffffffffffffffffffffffffffffffff1614610b0d576040517f08c379a0000000000000000000000000000000000000000000000000000000008152600401610b0490613a5f565b60405180910390fd5b83600b6000018190555082600b6001018190555081600b6002018190555080600b60030160026101000a81548161ffff021916908361ffff16021790555050505050565b600960009054906101000a900461ffff1681565b610b76610b70612183565b82612244565b610bb5576040517f08c379a0000000000000000000000000000000000000000000000000000000008152600401610bac90613af1565b60405180910390fd5b610bc0838383612322565b505050565b60026007541415610c0b576040517f08c379a0000000000000000000000000000000000000000000000000000000008152600401610c0290613b5d565b60405180910390fd5b60026007819055506000600960029054906101000a900461ffff16600960009054906101000a900461ffff16610c419190613bac565b61ffff16905060008111610c8a576040517f08c379a0000000000000000000000000000000000000000000000000000000008152600401610c8190613c2c565b60405180910390fd5b60018261ffff161015610cd2576040517f08c379a0000000000000000000000000000000000000000000000000000000008152600401610cc990613c98565b60405180910390fd5b808261ffff161115610d19576040517f08c379a0000000000000000000000000000000000000000000000000000000008152600401610d1090613d04565b60405180910390fd5b3373ffffffffffffffffffffffffffffffffffffffff16610d386115bb565b73ffffffffffffffffffffffffffffffffffffffff161415610d9c5760003414610d97576040517f08c379a0000000000000000000000000000000000000000000000000000000008152600401610d8e90613d70565b60405180910390fd5b610e9d565b6010600101544210610e6157601060020160009054906101000a900461ffff1661ffff168261ffff161115610e06576040517f08c379a0000000000000000000000000000000000000000000000000000000008152600401610dfd90613ddc565b60405180910390fd5b346010600001548361ffff16610e1c9190613dfc565b14610e5c576040517f08c379a0000000000000000000000000000000000000000000000000000000008152600401610e5390613ea2565b60405180910390fd5b610e9c565b6040517f08c379a0000000000000000000000000000000000000000000000000000000008152600401610e9390613f0e565b60405180910390fd5b5b60005b8261ffff168161ffff161015610f1b576001600960028282829054906101000a900461ffff16610ed09190613f2e565b92506101000a81548161ffff021916908361ffff160217905550610f0833600960029054906101000a900461ffff1661ffff1661257e565b8080610f1390613f66565b915050610ea0565b5050600160078190555050565b60108060000154908060010154908060020160009054906101000a900461ffff16905083565b610f56612183565b73ffffffffffffffffffffffffffffffffffffffff16610f746115bb565b73ffffffffffffffffffffffffffffffffffffffff1614610fca576040517f08c379a0000000000000000000000000000000000000000000000000000000008152600401610fc190613a5f565b60405180910390fd5b8047111561100d576040517f08c379a000000000000000000000000000000000000000000000000000000000815260040161100490613fdd565b60405180910390fd5b60003373ffffffffffffffffffffffffffffffffffffffff16826040516110339061402e565b60006040518083038185875af1925050503d8060008114611070576040519150601f19603f3d011682016040523d82523d6000602084013e611075565b606091505b50509050806110b9576040517f08c379a00000000000000000000000000000000000000000000000000000000081526004016110b09061408f565b60405180910390fd5b7f884edad9ce6fa2440d8a54cc123490eb96d2768479d49ff9c7366125a942436433836040516110ea929190612e97565b60405180910390a15050565b61111183838360405180602001604052806000815250611d9d565b505050565b3373ffffffffffffffffffffffffffffffffffffffff166111368261127e565b73ffffffffffffffffffffffffffffffffffffffff161461118c576040517f08c379a0000000000000000000000000000000000000000000000000000000008152600401611183906140fb565b60405180910390fd5b6111958161259c565b50565b600960029054906101000a900461ffff1681565b6111b4612183565b73ffffffffffffffffffffffffffffffffffffffff166111d26115bb565b73ffffffffffffffffffffffffffffffffffffffff1614611228576040517f08c379a000000000000000000000000000000000000000000000000000000000815260040161121f90613a5f565b60405180910390fd5b818160089190611239929190612d9a565b505050565b600b8060000154908060010154908060020154908060030160009054906101000a900461ffff16908060030160029054906101000a900461ffff16905085565b6000806002600084815260200190815260200160002060009054906101000a900473ffffffffffffffffffffffffffffffffffffffff169050600073ffffffffffffffffffffffffffffffffffffffff168173ffffffffffffffffffffffffffffffffffffffff161415611327576040517f08c379a000000000000000000000000000000000000000000000000000000000815260040161131e9061418d565b60405180910390fd5b80915050919050565b600073__VerifySignature_______________________63d2b0737b8585856040518463ffffffff1660e01b815260040161136d939291906141f7565b60206040518083038186803b15801561138557600080fd5b505af4158015611399573d6000803e3d6000fd5b505050506040513d601f19601f820116820180604052508101906113bd919061425a565b90509392505050565b60008073ffffffffffffffffffffffffffffffffffffffff168273ffffffffffffffffffffffffffffffffffffffff161415611437576040517f08c379a000000000000000000000000000000000000000000000000000000000815260040161142e906142f9565b60405180910390fd5b600360008373ffffffffffffffffffffffffffffffffffffffff1673ffffffffffffffffffffffffffffffffffffffff168152602001908152602001600020549050919050565b611486612183565b73ffffffffffffffffffffffffffffffffffffffff166114a46115bb565b73ffffffffffffffffffffffffffffffffffffffff16146114fa576040517f08c379a00000000000000000000000000000000000000000000000000000000081526004016114f190613a5f565b60405180910390fd5b61150460006126ad565b565b61150e612183565b73ffffffffffffffffffffffffffffffffffffffff1661152c6115bb565b73ffffffffffffffffffffffffffffffffffffffff1614611582576040517f08c379a000000000000000000000000000000000000000000000000000000000815260040161157990613a5f565b60405180910390fd5b8260106000018190555081601060020160006101000a81548161ffff021916908361ffff16021790555080601060010181905550505050565b6000600660009054906101000a900473ffffffffffffffffffffffffffffffffffffffff16905090565b6002600754141561162b576040517f08c379a000000000000000000000000000000000000000000000000000000000815260040161162290613b5d565b60405180910390fd5b60026007819055506000600960029054906101000a900461ffff16600960009054906101000a900461ffff166116619190613bac565b61ffff169050600081116116aa576040517f08c379a00000000000000000000000000000000000000000000000000000000081526004016116a190613c2c565b60405180910390fd5b60018561ffff1610156116f2576040517f08c379a00000000000000000000000000000000000000000000000000000000081526004016116e990613c98565b60405180910390fd5b808561ffff161115611739576040517f08c379a000000000000000000000000000000000000000000000000000000000815260040161173090613d04565b60405180910390fd5b8361ffff16600a60003373ffffffffffffffffffffffffffffffffffffffff1673ffffffffffffffffffffffffffffffffffffffff16815260200190815260200160002060009054906101000a900461ffff1661ffff16106117d0576040517f08c379a00000000000000000000000000000000000000000000000000000000081526004016117c790614365565b60405180910390fd5b42600b60010154111580156117ea575042600b6002015410155b611829576040517f08c379a000000000000000000000000000000000000000000000000000000000815260040161182090613f0e565b60405180910390fd5b73__VerifySignature_______________________63cffc18eb600960049054906101000a900473ffffffffffffffffffffffffffffffffffffffff1633888888886040518763ffffffff1660e01b815260040161188c969594939291906143c3565b60206040518083038186803b1580156118a457600080fd5b505af41580156118b8573d6000803e3d6000fd5b505050506040513d601f19601f820116820180604052508101906118dc9190614434565b61191b576040517f08c379a0000000000000000000000000000000000000000000000000000000008152600401611912906144ad565b60405180910390fd5b348561ffff16600b600001546119319190613dfc565b14611971576040517f08c379a000000000000000000000000000000000000000000000000000000000815260040161196890614519565b60405180910390fd5b600b60030160029054906101000a900461ffff1661ffff1685600b60030160009054906101000a900461ffff166119a89190613f2e565b61ffff1611156119ed576040517f08c379a00000000000000000000000000000000000000000000000000000000081526004016119e490614585565b60405180910390fd5b84600b60040160003373ffffffffffffffffffffffffffffffffffffffff1673ffffffffffffffffffffffffffffffffffffffff16815260200190815260200160002060008282829054906101000a900461ffff16611a4c9190613f2e565b92506101000a81548161ffff021916908361ffff16021790555084600b60030160008282829054906101000a900461ffff16611a889190613f2e565b92506101000a81548161ffff021916908361ffff16021790555083600a60003373ffffffffffffffffffffffffffffffffffffffff1673ffffffffffffffffffffffffffffffffffffffff16815260200190815260200160002060006101000a81548161ffff021916908361ffff16021790555060005b8561ffff168161ffff161015611b7a576001600960028282829054906101000a900461ffff16611b2f9190613f2e565b92506101000a81548161ffff021916908361ffff160217905550611b6733600960029054906101000a900461ffff1661ffff1661257e565b8080611b7290613f66565b915050611aff565b5050600160078190555050505050565b606060018054611b999061382b565b80601f0160208091040260200160405190810160405280929190818152602001828054611bc59061382b565b8015611c125780601f10611be757610100808354040283529160200191611c12565b820191906000526020600020905b815481529060010190602001808311611bf557829003601f168201915b5050505050905090565b611c24612183565b73ffffffffffffffffffffffffffffffffffffffff168273ffffffffffffffffffffffffffffffffffffffff161415611c92576040517f08c379a0000000000000000000000000000000000000000000000000000000008152600401611c89906145f1565b60405180910390fd5b8060056000611c9f612183565b73ffffffffffffffffffffffffffffffffffffffff1673ffffffffffffffffffffffffffffffffffffffff16815260200190815260200160002060008473ffffffffffffffffffffffffffffffffffffffff1673ffffffffffffffffffffffffffffffffffffffff16815260200190815260200160002060006101000a81548160ff0219169083151502179055508173ffffffffffffffffffffffffffffffffffffffff16611d4c612183565b73ffffffffffffffffffffffffffffffffffffffff167f17307eab39ab6107e8899845ad3d59bd9653f200f220920489ca2b5937696c3183604051611d919190612f74565b60405180910390a35050565b611dae611da8612183565b83612244565b611ded576040517f08c379a0000000000000000000000000000000000000000000000000000000008152600401611de490613af1565b60405180910390fd5b611df984848484612773565b50505050565b6000600b60040160008373ffffffffffffffffffffffffffffffffffffffff1673ffffffffffffffffffffffffffffffffffffffff16815260200190815260200160002060009054906101000a900461ffff169050919050565b6060611e6482612117565b611ea3576040517f08c379a0000000000000000000000000000000000000000000000000000000008152600401611e9a90614683565b60405180910390fd5b6000611ead6127cf565b90506000815111611ecd5760405180602001604052806000815250611ef8565b80611ed784612861565b604051602001611ee89291906146df565b6040516020818303038152906040525b915050919050565b600a6020528060005260406000206000915054906101000a900461ffff1681565b6000600560008473ffffffffffffffffffffffffffffffffffffffff1673ffffffffffffffffffffffffffffffffffffffff16815260200190815260200160002060008373ffffffffffffffffffffffffffffffffffffffff1673ffffffffffffffffffffffffffffffffffffffff16815260200190815260200160002060009054906101000a900460ff16905092915050565b611fbd612183565b73ffffffffffffffffffffffffffffffffffffffff16611fdb6115bb565b73ffffffffffffffffffffffffffffffffffffffff1614612031576040517f08c379a000000000000000000000000000000000000000000000000000000000815260040161202890613a5f565b60405180910390fd5b600073ffffffffffffffffffffffffffffffffffffffff168173ffffffffffffffffffffffffffffffffffffffff1614156120a1576040517f08c379a000000000000000000000000000000000000000000000000000000000815260040161209890614775565b60405180910390fd5b6120aa816126ad565b50565b60007f01ffc9a7000000000000000000000000000000000000000000000000000000007bffffffffffffffffffffffffffffffffffffffffffffffffffffffff1916827bffffffffffffffffffffffffffffffffffffffffffffffffffffffff1916149050919050565b60008073ffffffffffffffffffffffffffffffffffffffff166002600084815260200190815260200160002060009054906101000a900473ffffffffffffffffffffffffffffffffffffffff1673ffffffffffffffffffffffffffffffffffffffff1614159050919050565b600033905090565b816004600083815260200190815260200160002060006101000a81548173ffffffffffffffffffffffffffffffffffffffff021916908373ffffffffffffffffffffffffffffffffffffffff160217905550808273ffffffffffffffffffffffffffffffffffffffff166121fe8361127e565b73ffffffffffffffffffffffffffffffffffffffff167f8c5be1e5ebec7d5bd14f71427d1e84f3dd0314c0f7b2291e5b200ac8c7c3b92560405160405180910390a45050565b600061224f82612117565b61228e576040517f08c379a000000000000000000000000000000000000000000000000000000000815260040161228590614807565b60405180910390fd5b60006122998361127e565b90508073ffffffffffffffffffffffffffffffffffffffff168473ffffffffffffffffffffffffffffffffffffffff16148061230857508373ffffffffffffffffffffffffffffffffffffffff166122f0846108f4565b73ffffffffffffffffffffffffffffffffffffffff16145b8061231957506123188185611f21565b5b91505092915050565b8273ffffffffffffffffffffffffffffffffffffffff166123428261127e565b73ffffffffffffffffffffffffffffffffffffffff1614612398576040517f08c379a000000000000000000000000000000000000000000000000000000000815260040161238f90614899565b60405180910390fd5b600073ffffffffffffffffffffffffffffffffffffffff168273ffffffffffffffffffffffffffffffffffffffff161415612408576040517f08c379a00000000000000000000000000000000000000000000000000000000081526004016123ff9061492b565b60405180910390fd5b6124138383836129c2565b61241e60008261218b565b6001600360008573ffffffffffffffffffffffffffffffffffffffff1673ffffffffffffffffffffffffffffffffffffffff168152602001908152602001600020600082825461246e919061494b565b925050819055506001600360008473ffffffffffffffffffffffffffffffffffffffff1673ffffffffffffffffffffffffffffffffffffffff16815260200190815260200160002060008282546124c5919061497f565b92505081905550816002600083815260200190815260200160002060006101000a81548173ffffffffffffffffffffffffffffffffffffffff021916908373ffffffffffffffffffffffffffffffffffffffff160217905550808273ffffffffffffffffffffffffffffffffffffffff168473ffffffffffffffffffffffffffffffffffffffff167fddf252ad1be2c89b69c2b068fc378daa952ba7f163c4a11628f55a4df523b3ef60405160405180910390a4505050565b6125988282604051806020016040528060008152506129c7565b5050565b60006125a78261127e565b90506125b5816000846129c2565b6125c060008361218b565b6001600360008373ffffffffffffffffffffffffffffffffffffffff1673ffffffffffffffffffffffffffffffffffffffff1681526020019081526020016000206000828254612610919061494b565b925050819055506002600083815260200190815260200160002060006101000a81549073ffffffffffffffffffffffffffffffffffffffff021916905581600073ffffffffffffffffffffffffffffffffffffffff168273ffffffffffffffffffffffffffffffffffffffff167fddf252ad1be2c89b69c2b068fc378daa952ba7f163c4a11628f55a4df523b3ef60405160405180910390a45050565b6000600660009054906101000a900473ffffffffffffffffffffffffffffffffffffffff16905081600660006101000a81548173ffffffffffffffffffffffffffffffffffffffff021916908373ffffffffffffffffffffffffffffffffffffffff1602179055508173ffffffffffffffffffffffffffffffffffffffff168173ffffffffffffffffffffffffffffffffffffffff167f8be0079c531659141344cd1fd0a4f28419497f9722a3daafe3b4186f6b6457e060405160405180910390a35050565b61277e848484612322565b61278a84848484612a22565b6127c9576040517f08c379a00000000000000000000000000000000000000000000000000000000081526004016127c090614a47565b60405180910390fd5b50505050565b6060600880546127de9061382b565b80601f016020809104026020016040519081016040528092919081815260200182805461280a9061382b565b80156128575780601f1061282c57610100808354040283529160200191612857565b820191906000526020600020905b81548152906001019060200180831161283a57829003601f168201915b5050505050905090565b606060008214156128a9576040518060400160405280600181526020017f300000000000000000000000000000000000000000000000000000000000000081525090506129bd565b600082905060005b600082146128db5780806128c490614a67565b915050600a826128d49190614adf565b91506128b1565b60008167ffffffffffffffff8111156128f7576128f661360e565b5b6040519080825280601f01601f1916602001820160405280156129295781602001600182028036833780820191505090505b5090505b600085146129b657600182612942919061494b565b9150600a856129519190614b10565b603061295d919061497f565b60f81b81838151811061297357612972614b41565b5b60200101907effffffffffffffffffffffffffffffffffffffffffffffffffffffffffffff1916908160001a905350600a856129af9190614adf565b945061292d565b8093505050505b919050565b505050565b6129d18383612bb9565b6129de6000848484612a22565b612a1d576040517f08c379a0000000000000000000000000000000000000000000000000000000008152600401612a1490614a47565b60405180910390fd5b505050565b6000612a438473ffffffffffffffffffffffffffffffffffffffff16612d87565b15612bac578373ffffffffffffffffffffffffffffffffffffffff1663150b7a02612a6c612183565b8786866040518563ffffffff1660e01b8152600401612a8e9493929190614bc5565b602060405180830381600087803b158015612aa857600080fd5b505af1925050508015612ad957506040513d601f19601f82011682018060405250810190612ad69190614c26565b60015b612b5c573d8060008114612b09576040519150601f19603f3d011682016040523d82523d6000602084013e612b0e565b606091505b50600081511415612b54576040517f08c379a0000000000000000000000000000000000000000000000000000000008152600401612b4b90614a47565b60405180910390fd5b805181602001fd5b63150b7a0260e01b7bffffffffffffffffffffffffffffffffffffffffffffffffffffffff1916817bffffffffffffffffffffffffffffffffffffffffffffffffffffffff191614915050612bb1565b600190505b949350505050565b600073ffffffffffffffffffffffffffffffffffffffff168273ffffffffffffffffffffffffffffffffffffffff161415612c29576040517f08c379a0000000000000000000000000000000000000000000000000000000008152600401612c2090614c9f565b60405180910390fd5b612c3281612117565b15612c72576040517f08c379a0000000000000000000000000000000000000000000000000000000008152600401612c6990614d0b565b60405180910390fd5b612c7e600083836129c2565b6001600360008473ffffffffffffffffffffffffffffffffffffffff1673ffffffffffffffffffffffffffffffffffffffff1681526020019081526020016000206000828254612cce919061497f565b92505081905550816002600083815260200190815260200160002060006101000a81548173ffffffffffffffffffffffffffffffffffffffff021916908373ffffffffffffffffffffffffffffffffffffffff160217905550808273ffffffffffffffffffffffffffffffffffffffff16600073ffffffffffffffffffffffffffffffffffffffff167fddf252ad1be2c89b69c2b068fc378daa952ba7f163c4a11628f55a4df523b3ef60405160405180910390a45050565b600080823b905060008111915050919050565b828054612da69061382b565b90600052602060002090601f016020900481019282612dc85760008555612e0f565b82601f10612de157803560ff1916838001178555612e0f565b82800160010185558215612e0f579182015b82811115612e0e578235825591602001919060010190612df3565b5b509050612e1c9190612e20565b5090565b5b80821115612e39576000816000905550600101612e21565b5090565b600073ffffffffffffffffffffffffffffffffffffffff82169050919050565b6000612e6882612e3d565b9050919050565b612e7881612e5d565b82525050565b6000819050919050565b612e9181612e7e565b82525050565b6000604082019050612eac6000830185612e6f565b612eb96020830184612e88565b9392505050565b6000604051905090565b600080fd5b600080fd5b60007fffffffff0000000000000000000000000000000000000000000000000000000082169050919050565b612f0981612ed4565b8114612f1457600080fd5b50565b600081359050612f2681612f00565b92915050565b600060208284031215612f4257612f41612eca565b5b6000612f5084828501612f17565b91505092915050565b60008115159050919050565b612f6e81612f59565b82525050565b6000602082019050612f896000830184612f65565b92915050565b600081519050919050565b600082825260208201905092915050565b60005b83811015612fc9578082015181840152602081019050612fae565b83811115612fd8576000848401525b50505050565b6000601f19601f8301169050919050565b6000612ffa82612f8f565b6130048185612f9a565b9350613014818560208601612fab565b61301d81612fde565b840191505092915050565b600060208201905081810360008301526130428184612fef565b905092915050565b61305381612e7e565b811461305e57600080fd5b50565b6000813590506130708161304a565b92915050565b60006020828403121561308c5761308b612eca565b5b600061309a84828501613061565b91505092915050565b60006020820190506130b86000830184612e6f565b92915050565b6130c781612e5d565b81146130d257600080fd5b50565b6000813590506130e4816130be565b92915050565b6000806040838503121561310157613100612eca565b5b600061310f858286016130d5565b925050602061312085828601613061565b9150509250929050565b600061ffff82169050919050565b6131418161312a565b811461314c57600080fd5b50565b60008135905061315e81613138565b92915050565b6000806000806080858703121561317e5761317d612eca565b5b600061318c87828801613061565b945050602061319d87828801613061565b93505060406131ae87828801613061565b92505060606131bf8782880161314f565b91505092959194509250565b6131d48161312a565b82525050565b60006020820190506131ef60008301846131cb565b92915050565b60008060006060848603121561320e5761320d612eca565b5b600061321c868287016130d5565b935050602061322d868287016130d5565b925050604061323e86828701613061565b9150509250925092565b60006020828403121561325e5761325d612eca565b5b600061326c8482850161314f565b91505092915050565b600060608201905061328a6000830186612e88565b6132976020830185612e88565b6132a460408301846131cb565b949350505050565b600080fd5b600080fd5b600080fd5b60008083601f8401126132d1576132d06132ac565b5b8235905067ffffffffffffffff8111156132ee576132ed6132b1565b5b60208301915083600182028301111561330a576133096132b6565b5b9250929050565b6000806020838503121561332857613327612eca565b5b600083013567ffffffffffffffff81111561334657613345612ecf565b5b613352858286016132bb565b92509250509250929050565b600060a0820190506133736000830188612e88565b6133806020830187612e88565b61338d6040830186612e88565b61339a60608301856131cb565b6133a760808301846131cb565b9695505050505050565b6000806000606084860312156133ca576133c9612eca565b5b60006133d8868287016130d5565b93505060206133e98682870161314f565b92505060406133fa8682870161314f565b9150509250925092565b6000819050919050565b61341781613404565b82525050565b6000602082019050613432600083018461340e565b92915050565b60006020828403121561344e5761344d612eca565b5b600061345c848285016130d5565b91505092915050565b600060208201905061347a6000830184612e88565b92915050565b60008060006060848603121561349957613498612eca565b5b60006134a786828701613061565b93505060206134b88682870161314f565b92505060406134c986828701613061565b9150509250925092565b60008083601f8401126134e9576134e86132ac565b5b8235905067ffffffffffffffff811115613506576135056132b1565b5b602083019150836001820283011115613522576135216132b6565b5b9250929050565b6000806000806060858703121561354357613542612eca565b5b60006135518782880161314f565b94505060206135628782880161314f565b935050604085013567ffffffffffffffff81111561358357613582612ecf565b5b61358f878288016134d3565b925092505092959194509250565b6135a681612f59565b81146135b157600080fd5b50565b6000813590506135c38161359d565b92915050565b600080604083850312156135e0576135df612eca565b5b60006135ee858286016130d5565b92505060206135ff858286016135b4565b9150509250929050565b600080fd5b7f4e487b7100000000000000000000000000000000000000000000000000000000600052604160045260246000fd5b61364682612fde565b810181811067ffffffffffffffff821117156136655761366461360e565b5b80604052505050565b6000613678612ec0565b9050613684828261363d565b919050565b600067ffffffffffffffff8211156136a4576136a361360e565b5b6136ad82612fde565b9050602081019050919050565b82818337600083830152505050565b60006136dc6136d784613689565b61366e565b9050828152602081018484840111156136f8576136f7613609565b5b6137038482856136ba565b509392505050565b600082601f8301126137205761371f6132ac565b5b81356137308482602086016136c9565b91505092915050565b6000806000806080858703121561375357613752612eca565b5b6000613761878288016130d5565b9450506020613772878288016130d5565b935050604061378387828801613061565b925050606085013567ffffffffffffffff8111156137a4576137a3612ecf565b5b6137b08782880161370b565b91505092959194509250565b600080604083850312156137d3576137d2612eca565b5b60006137e1858286016130d5565b92505060206137f2858286016130d5565b9150509250929050565b7f4e487b7100000000000000000000000000000000000000000000000000000000600052602260045260246000fd5b6000600282049050600182168061384357607f821691505b60208210811415613857576138566137fc565b5b50919050565b7f4552433732313a20617070726f76656420717565727920666f72206e6f6e657860008201527f697374656e7420746f6b656e0000000000000000000000000000000000000000602082015250565b60006138b9602c83612f9a565b91506138c48261385d565b604082019050919050565b600060208201905081810360008301526138e8816138ac565b9050919050565b7f4552433732313a20617070726f76616c20746f2063757272656e74206f776e6560008201527f7200000000000000000000000000000000000000000000000000000000000000602082015250565b600061394b602183612f9a565b9150613956826138ef565b604082019050919050565b6000602082019050818103600083015261397a8161393e565b9050919050565b7f4552433732313a20617070726f76652063616c6c6572206973206e6f74206f7760008201527f6e6572206e6f7220617070726f76656420666f7220616c6c0000000000000000602082015250565b60006139dd603883612f9a565b91506139e882613981565b604082019050919050565b60006020820190508181036000830152613a0c816139d0565b9050919050565b7f4f776e61626c653a2063616c6c6572206973206e6f7420746865206f776e6572600082015250565b6000613a49602083612f9a565b9150613a5482613a13565b602082019050919050565b60006020820190508181036000830152613a7881613a3c565b9050919050565b7f4552433732313a207472616e736665722063616c6c6572206973206e6f74206f60008201527f776e6572206e6f7220617070726f766564000000000000000000000000000000602082015250565b6000613adb603183612f9a565b9150613ae682613a7f565b604082019050919050565b60006020820190508181036000830152613b0a81613ace565b9050919050565b7f5265656e7472616e637947756172643a207265656e7472616e742063616c6c00600082015250565b6000613b47601f83612f9a565b9150613b5282613b11565b602082019050919050565b60006020820190508181036000830152613b7681613b3a565b9050919050565b7f4e487b7100000000000000000000000000000000000000000000000000000000600052601160045260246000fd5b6000613bb78261312a565b9150613bc28361312a565b925082821015613bd557613bd4613b7d565b5b828203905092915050565b7f4d696e74206f7665720000000000000000000000000000000000000000000000600082015250565b6000613c16600983612f9a565b9150613c2182613be0565b602082019050919050565b60006020820190508181036000830152613c4581613c09565b9050919050565b7f5a65726f206d696e740000000000000000000000000000000000000000000000600082015250565b6000613c82600983612f9a565b9150613c8d82613c4c565b602082019050919050565b60006020820190508181036000830152613cb181613c75565b9050919050565b7f4e6f7420656e6f75676800000000000000000000000000000000000000000000600082015250565b6000613cee600a83612f9a565b9150613cf982613cb8565b602082019050919050565b60006020820190508181036000830152613d1d81613ce1565b9050919050565b7f4f776e6572207061696400000000000000000000000000000000000000000000600082015250565b6000613d5a600a83612f9a565b9150613d6582613d24565b602082019050919050565b60006020820190508181036000830152613d8981613d4d565b9050919050565b7f45786365656473206d6178000000000000000000000000000000000000000000600082015250565b6000613dc6600b83612f9a565b9150613dd182613d90565b602082019050919050565b60006020820190508181036000830152613df581613db9565b9050919050565b6000613e0782612e7e565b9150613e1283612e7e565b9250817fffffffffffffffffffffffffffffffffffffffffffffffffffffffffffffffff0483118215151615613e4b57613e4a613b7d565b5b828202905092915050565b7f496e76616c69642076616c756500000000000000000000000000000000000000600082015250565b6000613e8c600d83612f9a565b9150613e9782613e56565b602082019050919050565b60006020820190508181036000830152613ebb81613e7f565b9050919050565b7f4e6f206d696e7400000000000000000000000000000000000000000000000000600082015250565b6000613ef8600783612f9a565b9150613f0382613ec2565b602082019050919050565b60006020820190508181036000830152613f2781613eeb565b9050919050565b6000613f398261312a565b9150613f448361312a565b92508261ffff03821115613f5b57613f5a613b7d565b5b828201905092915050565b6000613f718261312a565b915061ffff821415613f8657613f85613b7d565b5b600182019050919050565b7f496e76616c696420616d74000000000000000000000000000000000000000000600082015250565b6000613fc7600b83612f9a565b9150613fd282613f91565b602082019050919050565b60006020820190508181036000830152613ff681613fba565b9050919050565b600081905092915050565b50565b6000614018600083613ffd565b915061402382614008565b600082019050919050565b60006140398261400b565b9150819050919050565b7f5472616e73206661696c65640000000000000000000000000000000000000000600082015250565b6000614079600c83612f9a565b915061408482614043565b602082019050919050565b600060208201905081810360008301526140a88161406c565b9050919050565b7f596f7520646f206e6f74206f776e207468697320746f6b656e00000000000000600082015250565b60006140e5601983612f9a565b91506140f0826140af565b602082019050919050565b60006020820190508181036000830152614114816140d8565b9050919050565b7f4552433732313a206f776e657220717565727920666f72206e6f6e657869737460008201527f656e7420746f6b656e0000000000000000000000000000000000000000000000602082015250565b6000614177602983612f9a565b91506141828261411b565b604082019050919050565b600060208201905081810360008301526141a68161416a565b9050919050565b6141b681612e5d565b82525050565b6000819050919050565b60006141e16141dc6141d78461312a565b6141bc565b612e7e565b9050919050565b6141f1816141c6565b82525050565b600060608201905061420c60008301866141ad565b61421960208301856141e8565b61422660408301846141e8565b949350505050565b61423781613404565b811461424257600080fd5b50565b6000815190506142548161422e565b92915050565b6000602082840312156142705761426f612eca565b5b600061427e84828501614245565b91505092915050565b7f4552433732313a2062616c616e636520717565727920666f7220746865207a6560008201527f726f206164647265737300000000000000000000000000000000000000000000602082015250565b60006142e3602a83612f9a565b91506142ee82614287565b604082019050919050565b60006020820190508181036000830152614312816142d6565b9050919050565b7f4e6f6e6365207573656400000000000000000000000000000000000000000000600082015250565b600061434f600a83612f9a565b915061435a82614319565b602082019050919050565b6000602082019050818103600083015261437e81614342565b9050919050565b600082825260208201905092915050565b60006143a28385614385565b93506143af8385846136ba565b6143b883612fde565b840190509392505050565b600060a0820190506143d860008301896141ad565b6143e560208301886141ad565b6143f260408301876141e8565b6143ff60608301866141e8565b8181036080830152614412818486614396565b9050979650505050505050565b60008151905061442e8161359d565b92915050565b60006020828403121561444a57614449612eca565b5b60006144588482850161441f565b91505092915050565b7f496e76616c696420736967000000000000000000000000000000000000000000600082015250565b6000614497600b83612f9a565b91506144a282614461565b602082019050919050565b600060208201905081810360008301526144c68161448a565b9050919050565b7f4261642076616c75650000000000000000000000000000000000000000000000600082015250565b6000614503600983612f9a565b915061450e826144cd565b602082019050919050565b60006020820190508181036000830152614532816144f6565b9050919050565b7f4c696d6974206578636565646564000000000000000000000000000000000000600082015250565b600061456f600e83612f9a565b915061457a82614539565b602082019050919050565b6000602082019050818103600083015261459e81614562565b9050919050565b7f4552433732313a20617070726f766520746f2063616c6c657200000000000000600082015250565b60006145db601983612f9a565b91506145e6826145a5565b602082019050919050565b6000602082019050818103600083015261460a816145ce565b9050919050565b7f4552433732314d657461646174613a2055524920717565727920666f72206e6f60008201527f6e6578697374656e7420746f6b656e0000000000000000000000000000000000602082015250565b600061466d602f83612f9a565b915061467882614611565b604082019050919050565b6000602082019050818103600083015261469c81614660565b9050919050565b600081905092915050565b60006146b982612f8f565b6146c381856146a3565b93506146d3818560208601612fab565b80840191505092915050565b60006146eb82856146ae565b91506146f782846146ae565b91508190509392505050565b7f4f776e61626c653a206e6577206f776e657220697320746865207a65726f206160008201527f6464726573730000000000000000000000000000000000000000000000000000602082015250565b600061475f602683612f9a565b915061476a82614703565b604082019050919050565b6000602082019050818103600083015261478e81614752565b9050919050565b7f4552433732313a206f70657261746f7220717565727920666f72206e6f6e657860008201527f697374656e7420746f6b656e0000000000000000000000000000000000000000602082015250565b60006147f1602c83612f9a565b91506147fc82614795565b604082019050919050565b60006020820190508181036000830152614820816147e4565b9050919050565b7f4552433732313a207472616e73666572206f6620746f6b656e2074686174206960008201527f73206e6f74206f776e0000000000000000000000000000000000000000000000602082015250565b6000614883602983612f9a565b915061488e82614827565b604082019050919050565b600060208201905081810360008301526148b281614876565b9050919050565b7f4552433732313a207472616e7366657220746f20746865207a65726f2061646460008201527f7265737300000000000000000000000000000000000000000000000000000000602082015250565b6000614915602483612f9a565b9150614920826148b9565b604082019050919050565b6000602082019050818103600083015261494481614908565b9050919050565b600061495682612e7e565b915061496183612e7e565b92508282101561497457614973613b7d565b5b828203905092915050565b600061498a82612e7e565b915061499583612e7e565b9250827fffffffffffffffffffffffffffffffffffffffffffffffffffffffffffffffff038211156149ca576149c9613b7d565b5b828201905092915050565b7f4552433732313a207472616e7366657220746f206e6f6e20455243373231526560008201527f63656976657220696d706c656d656e7465720000000000000000000000000000602082015250565b6000614a31603283612f9a565b9150614a3c826149d5565b604082019050919050565b60006020820190508181036000830152614a6081614a24565b9050919050565b6000614a7282612e7e565b91507fffffffffffffffffffffffffffffffffffffffffffffffffffffffffffffffff821415614aa557614aa4613b7d565b5b600182019050919050565b7f4e487b7100000000000000000000000000000000000000000000000000000000600052601260045260246000fd5b6000614aea82612e7e565b9150614af583612e7e565b925082614b0557614b04614ab0565b5b828204905092915050565b6000614b1b82612e7e565b9150614b2683612e7e565b925082614b3657614b35614ab0565b5b828206905092915050565b7f4e487b7100000000000000000000000000000000000000000000000000000000600052603260045260246000fd5b600081519050919050565b600082825260208201905092915050565b6000614b9782614b70565b614ba18185614b7b565b9350614bb1818560208601612fab565b614bba81612fde565b840191505092915050565b6000608082019050614bda6000830187612e6f565b614be76020830186612e6f565b614bf46040830185612e88565b8181036060830152614c068184614b8c565b905095945050505050565b600081519050614c2081612f00565b92915050565b600060208284031215614c3c57614c3b612eca565b5b6000614c4a84828501614c11565b91505092915050565b7f4552433732313a206d696e7420746f20746865207a65726f2061646472657373600082015250565b6000614c89602083612f9a565b9150614c9482614c53565b602082019050919050565b60006020820190508181036000830152614cb881614c7c565b9050919050565b7f4552433732313a20746f6b656e20616c7265616479206d696e74656400000000600082015250565b6000614cf5601c83612f9a565b9150614d0082614cbf565b602082019050919050565b60006020820190508181036000830152614d2481614ce8565b905091905056fea2646970667358221220403b4c40a83d72446909d11049efa8a6a95680be6be50e5a372a46ade0939c0a64736f6c63430008090033",
  "immutableReferences": {},
  "source": "// SPDX-License-Identifier: MIT\r\n\r\npragma solidity ^0.8.0;\r\n\r\nimport \"@openzeppelin/contracts/token/ERC721/ERC721.sol\";\r\nimport \"@openzeppelin/contracts/access/Ownable.sol\";\r\nimport \"@openzeppelin/contracts/security/ReentrancyGuard.sol\";\r\nimport \"./Signer.sol\";\r\n\r\ncontract CyberpunkApeExecutives is ERC721, Ownable, ReentrancyGuard {\r\n    constructor(\r\n        uint16 maxSupply,\r\n        uint16 maxPresale,\r\n        uint16 publicTransactionMax,\r\n        uint256 mintPrice,\r\n        address signer,\r\n        uint256 presaleMintStart,\r\n        uint256 presaleMintEnd,\r\n        uint256 publicMintStart\r\n    ) ERC721(\"CyberpunkApeExecutives\", \"CAE\") {\r\n        require(maxSupply > 0, \"Zero supply\");\r\n\r\n        mintSigner = signer;\r\n        totalSupply = maxSupply;\r\n\r\n        // CONFIGURE PRESALE Mint\r\n        presaleMint.mintPrice = mintPrice;\r\n        presaleMint.startDate = presaleMintStart;\r\n        presaleMint.endDate = presaleMintEnd;\r\n        presaleMint.maxMinted = maxPresale;\r\n\r\n        // CONFIGURE PUBLIC MINT\r\n        publicMint.mintPrice = mintPrice;\r\n        publicMint.startDate = publicMintStart;\r\n        publicMint.maxPerTransaction = publicTransactionMax;\r\n    }\r\n\r\n    event Paid(address sender, uint256 amount);\r\n    event Withdraw(address recipient, uint256 amount);\r\n\r\n    struct WhitelistedMint {\r\n        /**\r\n         * The price to mint in that whitelist\r\n         */\r\n        uint256 mintPrice;\r\n        /**\r\n         * The start date in unix seconds\r\n         */\r\n        uint256 startDate;\r\n        /**\r\n         * The end date in unix seconds\r\n         */\r\n        uint256 endDate;\r\n        /**\r\n         * The total number of tokens minted in this whitelist\r\n         */\r\n        uint16 totalMinted;\r\n        /**\r\n         * The maximum number of tokens minted in this whitelist\r\n         */\r\n        uint16 maxMinted;\r\n        /**\r\n         * The minters in this whitelisted mint\r\n         * mapped to the number minted\r\n         */\r\n        mapping(address => uint16) minted;\r\n    }\r\n\r\n    struct PublicMint {\r\n        uint256 mintPrice;\r\n        /**\r\n         * The start date in unix seconds\r\n         */\r\n        uint256 startDate;\r\n        /**\r\n         * The maximum per transaction\r\n         */\r\n        uint16 maxPerTransaction;\r\n    }\r\n\r\n    string baseURI;\r\n\r\n    uint16 public totalSupply;\r\n    uint16 public minted;\r\n\r\n    address private mintSigner;\r\n    mapping(address => uint16) public lastMintNonce;\r\n\r\n    /**\r\n     * An exclusive mint for members granted\r\n     * presale\r\n     */\r\n    WhitelistedMint public presaleMint;\r\n\r\n    /**\r\n     * The public mint for everybody.\r\n     */\r\n    PublicMint public publicMint;\r\n\r\n    /**\r\n     * @dev Base URI for computing {tokenURI}. If set, the resulting URI for each\r\n     * token will be the concatenation of the `baseURI` and the `tokenId`.\r\n     */\r\n    function _baseURI() internal view virtual override returns (string memory) {\r\n        return baseURI;\r\n    }\r\n\r\n    /**\r\n     * Sets the base URI for all tokens\r\n     *\r\n     * @dev be sure to terminate with a slash\r\n     * @param uri - the target base uri (ex: 'https://google.com/')\r\n     */\r\n    function setBaseURI(string calldata uri) public onlyOwner {\r\n        baseURI = uri;\r\n    }\r\n\r\n    /**\r\n     * Burns the provided token id if you own it.\r\n     * Reduces the supply by 1.\r\n     *\r\n     * @param tokenId - the ID of the token to be burned.\r\n     */\r\n    function burn(uint256 tokenId) public {\r\n        require(ownerOf(tokenId) == msg.sender, \"You do not own this token\");\r\n\r\n        _burn(tokenId);\r\n    }\r\n\r\n    // ------------------------------------------------ MINT STUFFS ------------------------------------------------\r\n\r\n    function getPresaleMints(address user)\r\n        external\r\n        view\r\n        returns (uint16)\r\n    {\r\n        return presaleMint.minted[user];\r\n    }\r\n\r\n    /**\r\n     * Updates the presale mint's characteristics\r\n     *\r\n     * @param mintPrice - the cost for that mint in WEI\r\n     * @param startDate - the start date for that mint in UNIX seconds\r\n     * @param endDate - the end date for that mint in UNIX seconds\r\n     */\r\n    function updatePresaleMint(\r\n        uint256 mintPrice,\r\n        uint256 startDate,\r\n        uint256 endDate,\r\n        uint16 maxMinted\r\n    ) public onlyOwner {\r\n        presaleMint.mintPrice = mintPrice;\r\n        presaleMint.startDate = startDate;\r\n        presaleMint.endDate = endDate;\r\n        presaleMint.maxMinted = maxMinted;\r\n    }\r\n\r\n    /**\r\n     * Updates the public mint's characteristics\r\n     *\r\n     * @param mintPrice - the cost for that mint in WEI\r\n     * @param maxPerTransaction - the maximum amount allowed in a wallet to mint in the public mint\r\n     * @param startDate - the start date for that mint in UNIX seconds\r\n     */\r\n    function updatePublicMint(\r\n        uint256 mintPrice,\r\n        uint16 maxPerTransaction,\r\n        uint256 startDate\r\n    ) public onlyOwner {\r\n        publicMint.mintPrice = mintPrice;\r\n        publicMint.maxPerTransaction = maxPerTransaction;\r\n        publicMint.startDate = startDate;\r\n    }\r\n\r\n    function getPremintHash(\r\n        address minter,\r\n        uint16 quantity,\r\n        uint16 nonce\r\n    ) public pure returns (bytes32) {\r\n        return VerifySignature.getMessageHash(minter, quantity, nonce);\r\n    }\r\n\r\n    /**\r\n     * Mints in the premint stage by using a signed transaction from a centralized whitelist.\r\n     * The message signer is expected to only sign messages when they fall within the whitelist\r\n     * specifications.\r\n     *\r\n     * @param quantity - the number to mint\r\n     * @param nonce - a random nonce which indicates that a signed transaction hasn't already been used.\r\n     * @param signature - the signature given by the centralized whitelist authority, signed by\r\n     *                    the account specified as mintSigner.\r\n     */\r\n    function premint(\r\n        uint16 quantity,\r\n        uint16 nonce,\r\n        bytes calldata signature\r\n    ) public payable nonReentrant {\r\n        uint256 remaining = totalSupply - minted;\r\n\r\n        require(remaining > 0, \"Mint over\");\r\n        require(quantity >= 1, \"Zero mint\");\r\n        require(quantity <= remaining, \"Not enough\");\r\n        require(lastMintNonce[msg.sender] < nonce, \"Nonce used\");\r\n\r\n        require(\r\n            presaleMint.startDate <= block.timestamp &&\r\n                presaleMint.endDate >= block.timestamp,\r\n            \"No mint\"\r\n        );\r\n        require(\r\n            VerifySignature.verify(\r\n                mintSigner,\r\n                msg.sender,\r\n                quantity,\r\n                nonce,\r\n                signature\r\n            ),\r\n            \"Invalid sig\"\r\n        );\r\n        require(presaleMint.mintPrice * quantity == msg.value, \"Bad value\");\r\n        require(\r\n            presaleMint.totalMinted + quantity <= presaleMint.maxMinted,\r\n            \"Limit exceeded\"\r\n        );\r\n\r\n        presaleMint.minted[msg.sender] += quantity;\r\n        presaleMint.totalMinted += quantity;\r\n        lastMintNonce[msg.sender] = nonce; // update nonce\r\n\r\n        // DISTRIBUTE THE TOKENS\r\n        uint16 i;\r\n        for (i; i < quantity; i++) {\r\n            minted += 1;\r\n            _safeMint(msg.sender, minted);\r\n        }\r\n    }\r\n\r\n    /**\r\n     * Mints the given quantity of tokens provided it is possible to.\r\n     *\r\n     * @notice This function allows minting in the public sale\r\n     *         or at any time for the owner of the contract.\r\n     *\r\n     * @param quantity - the number of tokens to mint\r\n     */\r\n    function mint(uint16 quantity) public payable nonReentrant {\r\n        uint256 remaining = totalSupply - minted;\r\n\r\n        require(remaining > 0, \"Mint over\");\r\n        require(quantity >= 1, \"Zero mint\");\r\n        require(quantity <= remaining, \"Not enough\");\r\n\r\n        if (owner() == msg.sender) {\r\n            // OWNER MINTING FOR FREE\r\n            require(msg.value == 0, \"Owner paid\");\r\n        } else if (block.timestamp >= publicMint.startDate) {\r\n            // PUBLIC MINT\r\n            require(quantity <= publicMint.maxPerTransaction, \"Exceeds max\");\r\n            require(\r\n                quantity * publicMint.mintPrice == msg.value,\r\n                \"Invalid value\"\r\n            );\r\n        } else {\r\n            // NOT ELIGIBLE FOR PUBLIC MINT\r\n            revert(\"No mint\");\r\n        }\r\n\r\n        // DISTRIBUTE THE TOKENS\r\n        uint16 i;\r\n        for (i; i < quantity; i++) {\r\n            minted += 1;\r\n            _safeMint(msg.sender, minted);\r\n        }\r\n    }\r\n\r\n    /**\r\n     * Withdraws balance from the contract to the owner (sender).\r\n     * @param amount - the amount to withdraw, much be <= contract balance.\r\n     */\r\n    function withdraw(uint256 amount) external onlyOwner {\r\n        require(address(this).balance <= amount, \"Invalid amt\");\r\n\r\n        (bool success, ) = msg.sender.call{value: amount}(\"\");\r\n        require(success, \"Trans failed\");\r\n        emit Withdraw(msg.sender, amount);\r\n    }\r\n\r\n    /**\r\n     * The receive function, does nothing\r\n     */\r\n    receive() external payable {\r\n        emit Paid(msg.sender, msg.value);\r\n    }\r\n}\r\n",
  "sourcePath": "C:\\Users\\Cory\\source\\repos\\CyberpunkApeExecutives\\contracts\\Ape\\contracts\\CyberpunkApeExecutives.sol",
  "compiler": {
    "name": "solc",
    "version": "0.8.9+commit.e5eed63a.Emscripten.clang"
  },
  "schemaVersion": "3.4.3",
  "updatedAt": "2021-12-21T03:31:38.822Z",
  "devdoc": {
    "kind": "dev",
    "methods": {
      "approve(address,uint256)": {
        "details": "See {IERC721-approve}."
      },
      "balanceOf(address)": {
        "details": "See {IERC721-balanceOf}."
      },
      "burn(uint256)": {
        "params": {
          "tokenId": "- the ID of the token to be burned."
        }
      },
      "getApproved(uint256)": {
        "details": "See {IERC721-getApproved}."
      },
      "isApprovedForAll(address,address)": {
        "details": "See {IERC721-isApprovedForAll}."
      },
      "mint(uint16)": {
        "params": {
          "quantity": "- the number of tokens to mint"
        }
      },
      "name()": {
        "details": "See {IERC721Metadata-name}."
      },
      "owner()": {
        "details": "Returns the address of the current owner."
      },
      "ownerOf(uint256)": {
        "details": "See {IERC721-ownerOf}."
      },
      "premint(uint16,uint16,bytes)": {
        "params": {
          "nonce": "- a random nonce which indicates that a signed transaction hasn't already been used.",
          "quantity": "- the number to mint",
          "signature": "- the signature given by the centralized whitelist authority, signed by                    the account specified as mintSigner."
        }
      },
      "renounceOwnership()": {
        "details": "Leaves the contract without owner. It will not be possible to call `onlyOwner` functions anymore. Can only be called by the current owner. NOTE: Renouncing ownership will leave the contract without an owner, thereby removing any functionality that is only available to the owner."
      },
      "safeTransferFrom(address,address,uint256)": {
        "details": "See {IERC721-safeTransferFrom}."
      },
      "safeTransferFrom(address,address,uint256,bytes)": {
        "details": "See {IERC721-safeTransferFrom}."
      },
      "setApprovalForAll(address,bool)": {
        "details": "See {IERC721-setApprovalForAll}."
      },
      "setBaseURI(string)": {
        "details": "be sure to terminate with a slash",
        "params": {
          "uri": "- the target base uri (ex: 'https://google.com/')"
        }
      },
      "supportsInterface(bytes4)": {
        "details": "See {IERC165-supportsInterface}."
      },
      "symbol()": {
        "details": "See {IERC721Metadata-symbol}."
      },
      "tokenURI(uint256)": {
        "details": "See {IERC721Metadata-tokenURI}."
      },
      "transferFrom(address,address,uint256)": {
        "details": "See {IERC721-transferFrom}."
      },
      "transferOwnership(address)": {
        "details": "Transfers ownership of the contract to a new account (`newOwner`). Can only be called by the current owner."
      },
      "updatePresaleMint(uint256,uint256,uint256,uint16)": {
        "params": {
          "endDate": "- the end date for that mint in UNIX seconds",
          "mintPrice": "- the cost for that mint in WEI",
          "startDate": "- the start date for that mint in UNIX seconds"
        }
      },
      "updatePublicMint(uint256,uint16,uint256)": {
        "params": {
          "maxPerTransaction": "- the maximum amount allowed in a wallet to mint in the public mint",
          "mintPrice": "- the cost for that mint in WEI",
          "startDate": "- the start date for that mint in UNIX seconds"
        }
      },
      "withdraw(uint256)": {
        "params": {
          "amount": "- the amount to withdraw, much be <= contract balance."
        }
      }
    },
    "version": 1
  },
  "userdoc": {
    "kind": "user",
    "methods": {
      "burn(uint256)": {
        "notice": "Burns the provided token id if you own it. Reduces the supply by 1."
      },
      "mint(uint16)": {
        "notice": "Mints the given quantity of tokens provided it is possible to.This function allows minting in the public sale         or at any time for the owner of the contract."
      },
      "premint(uint16,uint16,bytes)": {
        "notice": "Mints in the premint stage by using a signed transaction from a centralized whitelist. The message signer is expected to only sign messages when they fall within the whitelist specifications."
      },
      "presaleMint()": {
        "notice": "An exclusive mint for members granted presale"
      },
      "publicMint()": {
        "notice": "The public mint for everybody."
      },
      "setBaseURI(string)": {
        "notice": "Sets the base URI for all tokens"
      },
      "updatePresaleMint(uint256,uint256,uint256,uint16)": {
        "notice": "Updates the presale mint's characteristics"
      },
      "updatePublicMint(uint256,uint16,uint256)": {
        "notice": "Updates the public mint's characteristics"
      },
      "withdraw(uint256)": {
        "notice": "Withdraws balance from the contract to the owner (sender)."
      }
    },
    "version": 1
  }
}