{
  "contractName": "Reenterer",
  "abi": [
    {
      "inputs": [
        {
          "internalType": "uint256",
          "name": "price",
          "type": "uint256"
        }
      ],
      "stateMutability": "nonpayable",
      "type": "constructor"
    },
    {
      "inputs": [
        {
          "internalType": "uint16",
          "name": "amount",
          "type": "uint16"
        },
        {
          "internalType": "address",
          "name": "contractAddress",
          "type": "address"
        }
      ],
      "name": "proxyMint",
      "outputs": [],
      "stateMutability": "payable",
      "type": "function"
    },
    {
      "inputs": [
        {
          "internalType": "address",
          "name": "operator",
          "type": "address"
        },
        {
          "internalType": "address",
          "name": "from",
          "type": "address"
        },
        {
          "internalType": "uint256",
          "name": "tokenId",
          "type": "uint256"
        },
        {
          "internalType": "bytes",
          "name": "data",
          "type": "bytes"
        }
      ],
      "name": "onERC721Received",
      "outputs": [
        {
          "internalType": "bytes4",
          "name": "",
          "type": "bytes4"
        }
      ],
      "stateMutability": "nonpayable",
      "type": "function"
    }
  ],
  "bytecode": "0x608060405234801561001057600080fd5b506040516105a43803806105a48339818101604052810190610032919061007a565b80600081905550506100a7565b600080fd5b6000819050919050565b61005781610044565b811461006257600080fd5b50565b6000815190506100748161004e565b92915050565b6000602082840312156100905761008f61003f565b5b600061009e84828501610065565b91505092915050565b6104ee806100b66000396000f3fe6080604052600436106100295760003560e01c8063150b7a021461002e57806381bbcf721461006b575b600080fd5b34801561003a57600080fd5b50610055600480360381019061005091906102d6565b610087565b6040516100629190610399565b60405180910390f35b610085600480360381019061008091906103ee565b610163565b005b60008073ffffffffffffffffffffffffffffffffffffffff168573ffffffffffffffffffffffffffffffffffffffff1614156100c257600080fd5b60008414156100d057600080fd5b60008383905010156100e157600080fd5b8573ffffffffffffffffffffffffffffffffffffffff166323cf0a2260005460016040518363ffffffff1660e01b815260040161011e9190610473565b6000604051808303818588803b15801561013757600080fd5b505af115801561014b573d6000803e3d6000fd5b505050505063150b7a0260e01b905095945050505050565b8073ffffffffffffffffffffffffffffffffffffffff166323cf0a2234846040518363ffffffff1660e01b815260040161019d919061049d565b6000604051808303818588803b1580156101b657600080fd5b505af11580156101ca573d6000803e3d6000fd5b50505050505050565b600080fd5b600080fd5b600073ffffffffffffffffffffffffffffffffffffffff82169050919050565b6000610208826101dd565b9050919050565b610218816101fd565b811461022357600080fd5b50565b6000813590506102358161020f565b92915050565b6000819050919050565b61024e8161023b565b811461025957600080fd5b50565b60008135905061026b81610245565b92915050565b600080fd5b600080fd5b600080fd5b60008083601f84011261029657610295610271565b5b8235905067ffffffffffffffff8111156102b3576102b2610276565b5b6020830191508360018202830111156102cf576102ce61027b565b5b9250929050565b6000806000806000608086880312156102f2576102f16101d3565b5b600061030088828901610226565b955050602061031188828901610226565b94505060406103228882890161025c565b935050606086013567ffffffffffffffff811115610343576103426101d8565b5b61034f88828901610280565b92509250509295509295909350565b60007fffffffff0000000000000000000000000000000000000000000000000000000082169050919050565b6103938161035e565b82525050565b60006020820190506103ae600083018461038a565b92915050565b600061ffff82169050919050565b6103cb816103b4565b81146103d657600080fd5b50565b6000813590506103e8816103c2565b92915050565b60008060408385031215610405576104046101d3565b5b6000610413858286016103d9565b925050602061042485828601610226565b9150509250929050565b6000819050919050565b6000819050919050565b600061045d6104586104538461042e565b610438565b6103b4565b9050919050565b61046d81610442565b82525050565b60006020820190506104886000830184610464565b92915050565b610497816103b4565b82525050565b60006020820190506104b2600083018461048e565b9291505056fea2646970667358221220e715049c1e6ad41cca7fb18f52355b15f7da973056ec234c8db773830ae58bfc64736f6c63430008090033",
  "immutableReferences": {},
  "source": "// SPDX-License-Identifier: MIT\r\n\r\npragma solidity ^0.8.0;\r\n\r\nimport \"@openzeppelin/contracts/token/ERC721/IERC721Receiver.sol\";\r\nimport \"@openzeppelin/contracts/token/ERC721/IERC721.sol\";\r\nimport \"./CyberpunkApeExecutives.sol\";\r\n\r\ncontract Reenterer is IERC721Receiver {\r\n    uint256 mintPrice;\r\n    constructor(uint256 price) {\r\n        mintPrice = price;\r\n    }\r\n\r\n    function proxyMint(uint16 amount, address contractAddress) external payable {\r\n         CyberpunkApeExecutives(payable(contractAddress)).mint{ value: msg.value }(amount);\r\n    }\r\n\r\n    function onERC721Received(\r\n        address operator,\r\n        address from,\r\n        uint256 tokenId,\r\n        bytes calldata data\r\n    ) external override returns (bytes4) {\r\n        require(from != address(0));\r\n        require(tokenId != 0);\r\n        require(data.length >= 0);\r\n\r\n        // try to reenter\r\n        CyberpunkApeExecutives(payable(operator)).mint{ value: mintPrice }(1);\r\n\r\n        return Reenterer.onERC721Received.selector;\r\n    }\r\n}",
  "sourcePath": "C:\\Users\\Cory\\source\\repos\\CyberpunkApeExecutives\\contracts\\Ape\\contracts\\Reenterer.sol",
  "compiler": {
    "name": "solc",
    "version": "0.8.9+commit.e5eed63a.Emscripten.clang"
  },
  "schemaVersion": "3.4.3",
  "updatedAt": "2022-01-09T03:55:57.540Z",
  "devdoc": {
    "kind": "dev",
    "methods": {
      "onERC721Received(address,address,uint256,bytes)": {
        "details": "Whenever an {IERC721} `tokenId` token is transferred to this contract via {IERC721-safeTransferFrom} by `operator` from `from`, this function is called. It must return its Solidity selector to confirm the token transfer. If any other value is returned or the interface is not implemented by the recipient, the transfer will be reverted. The selector can be obtained in Solidity with `IERC721.onERC721Received.selector`."
      }
    },
    "version": 1
  },
  "userdoc": {
    "kind": "user",
    "methods": {},
    "version": 1
  }
}