{
  "contractName": "VerifySignature",
  "abi": [
    {
      "inputs": [
        {
          "internalType": "address",
          "name": "_minter",
          "type": "address"
        },
        {
          "internalType": "uint256",
          "name": "_quantity",
          "type": "uint256"
        },
        {
          "internalType": "uint256",
          "name": "_mintId",
          "type": "uint256"
        },
        {
          "internalType": "uint256",
          "name": "_nonce",
          "type": "uint256"
        }
      ],
      "name": "getMessageHash",
      "outputs": [
        {
          "internalType": "bytes32",
          "name": "",
          "type": "bytes32"
        }
      ],
      "stateMutability": "pure",
      "type": "function"
    },
    {
      "inputs": [
        {
          "internalType": "bytes32",
          "name": "_messageHash",
          "type": "bytes32"
        }
      ],
      "name": "getEthSignedMessageHash",
      "outputs": [
        {
          "internalType": "bytes32",
          "name": "",
          "type": "bytes32"
        }
      ],
      "stateMutability": "pure",
      "type": "function"
    },
    {
      "inputs": [
        {
          "internalType": "address",
          "name": "_signer",
          "type": "address"
        },
        {
          "internalType": "address",
          "name": "_minter",
          "type": "address"
        },
        {
          "internalType": "uint256",
          "name": "_quantity",
          "type": "uint256"
        },
        {
          "internalType": "uint256",
          "name": "_mintId",
          "type": "uint256"
        },
        {
          "internalType": "uint256",
          "name": "_nonce",
          "type": "uint256"
        },
        {
          "internalType": "bytes",
          "name": "signature",
          "type": "bytes"
        }
      ],
      "name": "verify",
      "outputs": [
        {
          "internalType": "bool",
          "name": "",
          "type": "bool"
        }
      ],
      "stateMutability": "pure",
      "type": "function"
    },
    {
      "inputs": [
        {
          "internalType": "bytes32",
          "name": "_ethSignedMessageHash",
          "type": "bytes32"
        },
        {
          "internalType": "bytes",
          "name": "_signature",
          "type": "bytes"
        }
      ],
      "name": "recoverSigner",
      "outputs": [
        {
          "internalType": "address",
          "name": "",
          "type": "address"
        }
      ],
      "stateMutability": "pure",
      "type": "function"
    },
    {
      "inputs": [
        {
          "internalType": "bytes",
          "name": "sig",
          "type": "bytes"
        }
      ],
      "name": "splitSignature",
      "outputs": [
        {
          "internalType": "bytes32",
          "name": "r",
          "type": "bytes32"
        },
        {
          "internalType": "bytes32",
          "name": "s",
          "type": "bytes32"
        },
        {
          "internalType": "uint8",
          "name": "v",
          "type": "uint8"
        }
      ],
      "stateMutability": "pure",
      "type": "function"
    }
  ],
  "bytecode": "0x610a4a610053600b82828239805160001a607314610046577f4e487b7100000000000000000000000000000000000000000000000000000000600052600060045260246000fd5b30600052607381538281f3fe73000000000000000000000000000000000000000030146080604052600436106100615760003560e01c80631ae895fa1461006657806397aba7f914610096578063a7bb5803146100c6578063f440be04146100f8578063fa54080114610128575b600080fd5b610080600480360381019061007b91906104ea565b610158565b60405161008d91906105ae565b60405180910390f35b6100b060048036038101906100ab91906105ff565b6101bc565b6040516100bd919061066a565b60405180910390f35b6100e060048036038101906100db9190610685565b61022b565b6040516100ef939291906106f9565b60405180910390f35b610112600480360381019061010d9190610730565b610293565b60405161011f9190610797565b60405180910390f35b610142600480360381019061013d91906107b2565b6102cc565b60405161014f9190610797565b60405180910390f35b60008061016787878787610293565b90506000610174826102cc565b90508873ffffffffffffffffffffffffffffffffffffffff1661019782866101bc565b73ffffffffffffffffffffffffffffffffffffffff1614925050509695505050505050565b6000806000806101cb8561022b565b925092509250600186828585604051600081526020016040526040516101f494939291906107fd565b6020604051602081039080840390855afa158015610216573d6000803e3d6000fd5b50505060206040510351935050505092915050565b60008060006041845114610274576040517f08c379a000000000000000000000000000000000000000000000000000000000815260040161026b9061089f565b60405180910390fd5b6020840151925060408401519150606084015160001a90509193909250565b6000848484846040516020016102ac9493929190610928565b604051602081830303815290604052805190602001209050949350505050565b6000816040516020016102df91906109ee565b604051602081830303815290604052805190602001209050919050565b6000604051905090565b600080fd5b600080fd5b600073ffffffffffffffffffffffffffffffffffffffff82169050919050565b600061033b82610310565b9050919050565b61034b81610330565b811461035657600080fd5b50565b60008135905061036881610342565b92915050565b6000819050919050565b6103818161036e565b811461038c57600080fd5b50565b60008135905061039e81610378565b92915050565b600080fd5b600080fd5b6000601f19601f8301169050919050565b7f4e487b7100000000000000000000000000000000000000000000000000000000600052604160045260246000fd5b6103f7826103ae565b810181811067ffffffffffffffff82111715610416576104156103bf565b5b80604052505050565b60006104296102fc565b905061043582826103ee565b919050565b600067ffffffffffffffff821115610455576104546103bf565b5b61045e826103ae565b9050602081019050919050565b82818337600083830152505050565b600061048d6104888461043a565b61041f565b9050828152602081018484840111156104a9576104a86103a9565b5b6104b484828561046b565b509392505050565b600082601f8301126104d1576104d06103a4565b5b81356104e184826020860161047a565b91505092915050565b60008060008060008060c0878903121561050757610506610306565b5b600061051589828a01610359565b965050602061052689828a01610359565b955050604061053789828a0161038f565b945050606061054889828a0161038f565b935050608061055989828a0161038f565b92505060a087013567ffffffffffffffff81111561057a5761057961030b565b5b61058689828a016104bc565b9150509295509295509295565b60008115159050919050565b6105a881610593565b82525050565b60006020820190506105c3600083018461059f565b92915050565b6000819050919050565b6105dc816105c9565b81146105e757600080fd5b50565b6000813590506105f9816105d3565b92915050565b6000806040838503121561061657610615610306565b5b6000610624858286016105ea565b925050602083013567ffffffffffffffff8111156106455761064461030b565b5b610651858286016104bc565b9150509250929050565b61066481610330565b82525050565b600060208201905061067f600083018461065b565b92915050565b60006020828403121561069b5761069a610306565b5b600082013567ffffffffffffffff8111156106b9576106b861030b565b5b6106c5848285016104bc565b91505092915050565b6106d7816105c9565b82525050565b600060ff82169050919050565b6106f3816106dd565b82525050565b600060608201905061070e60008301866106ce565b61071b60208301856106ce565b61072860408301846106ea565b949350505050565b6000806000806080858703121561074a57610749610306565b5b600061075887828801610359565b94505060206107698782880161038f565b935050604061077a8782880161038f565b925050606061078b8782880161038f565b91505092959194509250565b60006020820190506107ac60008301846106ce565b92915050565b6000602082840312156107c8576107c7610306565b5b60006107d6848285016105ea565b91505092915050565b6107e8816105c9565b82525050565b6107f7816106dd565b82525050565b600060808201905061081260008301876107df565b61081f60208301866107ee565b61082c60408301856107df565b61083960608301846107df565b95945050505050565b600082825260208201905092915050565b7f696e76616c6964207369676e6174757265206c656e6774680000000000000000600082015250565b6000610889601883610842565b915061089482610853565b602082019050919050565b600060208201905081810360008301526108b88161087c565b9050919050565b60008160601b9050919050565b60006108d7826108bf565b9050919050565b60006108e9826108cc565b9050919050565b6109016108fc82610330565b6108de565b82525050565b6000819050919050565b61092261091d8261036e565b610907565b82525050565b600061093482876108f0565b6014820191506109448286610911565b6020820191506109548285610911565b6020820191506109648284610911565b60208201915081905095945050505050565b600081905092915050565b7f19457468657265756d205369676e6564204d6573736167653a0a333200000000600082015250565b60006109b7601c83610976565b91506109c282610981565b601c82019050919050565b6000819050919050565b6109e86109e3826105c9565b6109cd565b82525050565b60006109f9826109aa565b9150610a0582846109d7565b6020820191508190509291505056fea2646970667358221220e964347a0c16bf51b6ff84607031be870c21a05d6282288cd04637bd74c1029364736f6c63430008090033",
  "immutableReferences": {},
  "source": "// SPDX-License-Identifier: MIT\r\npragma solidity ^0.8.3;\r\n\r\n/* Signature Verification\r\n\r\nHow to Sign and Verify\r\n# Signing\r\n1. Create message to sign\r\n2. Hash the message\r\n3. Sign the hash (off chain, keep your private key secret)\r\n\r\n# Verify\r\n1. Recreate hash from the original message\r\n2. Recover signer from signature and hash\r\n3. Compare recovered signer to claimed signer\r\n*/\r\n\r\nlibrary VerifySignature {\r\n    /* 1. Unlock MetaMask account\r\n    ethereum.enable()\r\n    */\r\n\r\n    /* 2. Get message hash to sign\r\n    getMessageHash(\r\n        0x14723A09ACff6D2A60DcdF7aA4AFf308FDDC160C,\r\n        123,\r\n        \"coffee and donuts\",\r\n        1\r\n    )\r\n\r\n    hash = \"0xcf36ac4f97dc10d91fc2cbb20d718e94a8cbfe0f82eaedc6a4aa38946fb797cd\"\r\n    */\r\n    function getMessageHash(\r\n        address _minter,\r\n        uint _quantity,\r\n        uint _mintId,\r\n        uint _nonce\r\n    ) public pure returns (bytes32) {\r\n        return keccak256(abi.encodePacked(_minter, _quantity, _mintId, _nonce));\r\n    }\r\n\r\n    /* 3. Sign message hash\r\n    # using browser\r\n    account = \"copy paste account of signer here\"\r\n    ethereum.request({ method: \"personal_sign\", params: [account, hash]}).then(console.log)\r\n\r\n    # using web3\r\n    web3.personal.sign(hash, web3.eth.defaultAccount, console.log)\r\n\r\n    Signature will be different for different accounts\r\n    0x993dab3dd91f5c6dc28e17439be475478f5635c92a56e17e82349d3fb2f166196f466c0b4e0c146f285204f0dcb13e5ae67bc33f4b888ec32dfe0a063e8f3f781b\r\n    */\r\n    function getEthSignedMessageHash(bytes32 _messageHash)\r\n        public\r\n        pure\r\n        returns (bytes32)\r\n    {\r\n        /*\r\n        Signature is produced by signing a keccak256 hash with the following format:\r\n        \"\\x19Ethereum Signed Message\\n\" + len(msg) + msg\r\n        */\r\n        return\r\n            keccak256(\r\n                abi.encodePacked(\"\\x19Ethereum Signed Message:\\n32\", _messageHash)\r\n            );\r\n    }\r\n\r\n    /* 4. Verify signature\r\n    signer = 0xB273216C05A8c0D4F0a4Dd0d7Bae1D2EfFE636dd\r\n    to = 0x14723A09ACff6D2A60DcdF7aA4AFf308FDDC160C\r\n    amount = 123\r\n    message = \"coffee and donuts\"\r\n    nonce = 1\r\n    signature =\r\n        0x993dab3dd91f5c6dc28e17439be475478f5635c92a56e17e82349d3fb2f166196f466c0b4e0c146f285204f0dcb13e5ae67bc33f4b888ec32dfe0a063e8f3f781b\r\n    */\r\n    function verify(\r\n        address _signer,\r\n        address _minter,\r\n        uint _quantity,\r\n        uint _mintId,\r\n        uint _nonce,\r\n        bytes memory signature\r\n    ) public pure returns (bool) {\r\n        bytes32 messageHash = getMessageHash(_minter, _quantity, _mintId, _nonce);\r\n        bytes32 ethSignedMessageHash = getEthSignedMessageHash(messageHash);\r\n\r\n        return recoverSigner(ethSignedMessageHash, signature) == _signer;\r\n    }\r\n\r\n    function recoverSigner(bytes32 _ethSignedMessageHash, bytes memory _signature)\r\n        public\r\n        pure\r\n        returns (address)\r\n    {\r\n        (bytes32 r, bytes32 s, uint8 v) = splitSignature(_signature);\r\n\r\n        return ecrecover(_ethSignedMessageHash, v, r, s);\r\n    }\r\n\r\n    function splitSignature(bytes memory sig)\r\n        public\r\n        pure\r\n        returns (\r\n            bytes32 r,\r\n            bytes32 s,\r\n            uint8 v\r\n        )\r\n    {\r\n        require(sig.length == 65, \"invalid signature length\");\r\n\r\n        assembly {\r\n            /*\r\n            First 32 bytes stores the length of the signature\r\n\r\n            add(sig, 32) = pointer of sig + 32\r\n            effectively, skips first 32 bytes of signature\r\n\r\n            mload(p) loads next 32 bytes starting at the memory address p into memory\r\n            */\r\n\r\n            // first 32 bytes, after the length prefix\r\n            r := mload(add(sig, 32))\r\n            // second 32 bytes\r\n            s := mload(add(sig, 64))\r\n            // final byte (first byte of the next 32 bytes)\r\n            v := byte(0, mload(add(sig, 96)))\r\n        }\r\n\r\n        // implicitly return (r, s, v)\r\n    }\r\n}",
  "sourcePath": "C:\\Users\\Cory\\source\\repos\\CyberpunkApeExecutives\\contracts\\Ape\\contracts\\Signer.sol",
  "compiler": {
    "name": "solc",
    "version": "0.8.9+commit.e5eed63a.Emscripten.clang"
  },
  "schemaVersion": "3.4.3",
  "updatedAt": "2021-12-20T05:50:42.783Z",
  "devdoc": {
    "kind": "dev",
    "methods": {},
    "version": 1
  },
  "userdoc": {
    "kind": "user",
    "methods": {},
    "version": 1
  }
}