{
  "contractName": "VerifySignature",
  "abi": [
    {
      "inputs": [
        {
          "internalType": "address",
          "name": "_minter",
          "type": "address"
        },
        {
          "internalType": "uint256",
          "name": "_quantity",
          "type": "uint256"
        },
        {
          "internalType": "uint256",
          "name": "_nonce",
          "type": "uint256"
        }
      ],
      "name": "getMessageHash",
      "outputs": [
        {
          "internalType": "bytes32",
          "name": "",
          "type": "bytes32"
        }
      ],
      "stateMutability": "pure",
      "type": "function"
    },
    {
      "inputs": [
        {
          "internalType": "bytes32",
          "name": "_messageHash",
          "type": "bytes32"
        }
      ],
      "name": "getEthSignedMessageHash",
      "outputs": [
        {
          "internalType": "bytes32",
          "name": "",
          "type": "bytes32"
        }
      ],
      "stateMutability": "pure",
      "type": "function"
    },
    {
      "inputs": [
        {
          "internalType": "address",
          "name": "_signer",
          "type": "address"
        },
        {
          "internalType": "address",
          "name": "_minter",
          "type": "address"
        },
        {
          "internalType": "uint256",
          "name": "_quantity",
          "type": "uint256"
        },
        {
          "internalType": "uint256",
          "name": "_nonce",
          "type": "uint256"
        },
        {
          "internalType": "bytes",
          "name": "signature",
          "type": "bytes"
        }
      ],
      "name": "verify",
      "outputs": [
        {
          "internalType": "bool",
          "name": "",
          "type": "bool"
        }
      ],
      "stateMutability": "pure",
      "type": "function"
    },
    {
      "inputs": [
        {
          "internalType": "bytes32",
          "name": "_ethSignedMessageHash",
          "type": "bytes32"
        },
        {
          "internalType": "bytes",
          "name": "_signature",
          "type": "bytes"
        }
      ],
      "name": "recoverSigner",
      "outputs": [
        {
          "internalType": "address",
          "name": "",
          "type": "address"
        }
      ],
      "stateMutability": "pure",
      "type": "function"
    },
    {
      "inputs": [
        {
          "internalType": "bytes",
          "name": "sig",
          "type": "bytes"
        }
      ],
      "name": "splitSignature",
      "outputs": [
        {
          "internalType": "bytes32",
          "name": "r",
          "type": "bytes32"
        },
        {
          "internalType": "bytes32",
          "name": "s",
          "type": "bytes32"
        },
        {
          "internalType": "uint8",
          "name": "v",
          "type": "uint8"
        }
      ],
      "stateMutability": "pure",
      "type": "function"
    }
  ],
  "bytecode": "0x610a0e610053600b82828239805160001a607314610046577f4e487b7100000000000000000000000000000000000000000000000000000000600052600060045260246000fd5b30600052607381538281f3fe73000000000000000000000000000000000000000030146080604052600436106100615760003560e01c806397aba7f914610066578063a7bb580314610096578063cffc18eb146100c8578063d2b0737b146100f8578063fa54080114610128575b600080fd5b610080600480360381019061007b9190610487565b610158565b60405161008d9190610524565b60405180910390f35b6100b060048036038101906100ab919061053f565b6101c7565b6040516100bf939291906105b3565b60405180910390f35b6100e260048036038101906100dd919061064c565b61022f565b6040516100ef91906106fe565b60405180910390f35b610112600480360381019061010d9190610719565b610291565b60405161011f919061076c565b60405180910390f35b610142600480360381019061013d9190610787565b6102c7565b60405161014f919061076c565b60405180910390f35b600080600080610167856101c7565b9250925092506001868285856040516000815260200160405260405161019094939291906107d2565b6020604051602081039080840390855afa1580156101b2573d6000803e3d6000fd5b50505060206040510351935050505092915050565b60008060006041845114610210576040517f08c379a000000000000000000000000000000000000000000000000000000000815260040161020790610874565b60405180910390fd5b6020840151925060408401519150606084015160001a90509193909250565b60008061023d868686610291565b9050600061024a826102c7565b90508773ffffffffffffffffffffffffffffffffffffffff1661026d8286610158565b73ffffffffffffffffffffffffffffffffffffffff16149250505095945050505050565b60008383836040516020016102a8939291906108fd565b6040516020818303038152906040528051906020012090509392505050565b6000816040516020016102da91906109b2565b604051602081830303815290604052805190602001209050919050565b6000604051905090565b600080fd5b600080fd5b6000819050919050565b61031e8161030b565b811461032957600080fd5b50565b60008135905061033b81610315565b92915050565b600080fd5b600080fd5b6000601f19601f8301169050919050565b7f4e487b7100000000000000000000000000000000000000000000000000000000600052604160045260246000fd5b6103948261034b565b810181811067ffffffffffffffff821117156103b3576103b261035c565b5b80604052505050565b60006103c66102f7565b90506103d2828261038b565b919050565b600067ffffffffffffffff8211156103f2576103f161035c565b5b6103fb8261034b565b9050602081019050919050565b82818337600083830152505050565b600061042a610425846103d7565b6103bc565b90508281526020810184848401111561044657610445610346565b5b610451848285610408565b509392505050565b600082601f83011261046e5761046d610341565b5b813561047e848260208601610417565b91505092915050565b6000806040838503121561049e5761049d610301565b5b60006104ac8582860161032c565b925050602083013567ffffffffffffffff8111156104cd576104cc610306565b5b6104d985828601610459565b9150509250929050565b600073ffffffffffffffffffffffffffffffffffffffff82169050919050565b600061050e826104e3565b9050919050565b61051e81610503565b82525050565b60006020820190506105396000830184610515565b92915050565b60006020828403121561055557610554610301565b5b600082013567ffffffffffffffff81111561057357610572610306565b5b61057f84828501610459565b91505092915050565b6105918161030b565b82525050565b600060ff82169050919050565b6105ad81610597565b82525050565b60006060820190506105c86000830186610588565b6105d56020830185610588565b6105e260408301846105a4565b949350505050565b6105f381610503565b81146105fe57600080fd5b50565b600081359050610610816105ea565b92915050565b6000819050919050565b61062981610616565b811461063457600080fd5b50565b60008135905061064681610620565b92915050565b600080600080600060a0868803121561066857610667610301565b5b600061067688828901610601565b955050602061068788828901610601565b945050604061069888828901610637565b93505060606106a988828901610637565b925050608086013567ffffffffffffffff8111156106ca576106c9610306565b5b6106d688828901610459565b9150509295509295909350565b60008115159050919050565b6106f8816106e3565b82525050565b600060208201905061071360008301846106ef565b92915050565b60008060006060848603121561073257610731610301565b5b600061074086828701610601565b935050602061075186828701610637565b925050604061076286828701610637565b9150509250925092565b60006020820190506107816000830184610588565b92915050565b60006020828403121561079d5761079c610301565b5b60006107ab8482850161032c565b91505092915050565b6107bd8161030b565b82525050565b6107cc81610597565b82525050565b60006080820190506107e760008301876107b4565b6107f460208301866107c3565b61080160408301856107b4565b61080e60608301846107b4565b95945050505050565b600082825260208201905092915050565b7f696e76616c6964207369676e6174757265206c656e6774680000000000000000600082015250565b600061085e601883610817565b915061086982610828565b602082019050919050565b6000602082019050818103600083015261088d81610851565b9050919050565b60008160601b9050919050565b60006108ac82610894565b9050919050565b60006108be826108a1565b9050919050565b6108d66108d182610503565b6108b3565b82525050565b6000819050919050565b6108f76108f282610616565b6108dc565b82525050565b600061090982866108c5565b60148201915061091982856108e6565b60208201915061092982846108e6565b602082019150819050949350505050565b600081905092915050565b7f19457468657265756d205369676e6564204d6573736167653a0a333200000000600082015250565b600061097b601c8361093a565b915061098682610945565b601c82019050919050565b6000819050919050565b6109ac6109a78261030b565b610991565b82525050565b60006109bd8261096e565b91506109c9828461099b565b6020820191508190509291505056fea26469706673582212204909ed5c846b470df31110dbd082d28ffa9924ee9567bcc404ea9768bf61064c64736f6c63430008090033",
  "immutableReferences": {},
  "source": "// SPDX-License-Identifier: MIT\r\npragma solidity ^0.8.3;\r\n\r\n/* Signature Verification\r\n\r\nHow to Sign and Verify\r\n# Signing\r\n1. Create message to sign\r\n2. Hash the message\r\n3. Sign the hash (off chain, keep your private key secret)\r\n\r\n# Verify\r\n1. Recreate hash from the original message\r\n2. Recover signer from signature and hash\r\n3. Compare recovered signer to claimed signer\r\n*/\r\n\r\nlibrary VerifySignature {\r\n    /* 1. Unlock MetaMask account\r\n    ethereum.enable()\r\n    */\r\n\r\n    /* 2. Get message hash to sign\r\n    getMessageHash(\r\n        0x14723A09ACff6D2A60DcdF7aA4AFf308FDDC160C,\r\n        123,\r\n        \"coffee and donuts\",\r\n        1\r\n    )\r\n\r\n    hash = \"0xcf36ac4f97dc10d91fc2cbb20d718e94a8cbfe0f82eaedc6a4aa38946fb797cd\"\r\n    */\r\n    function getMessageHash(\r\n        address _minter,\r\n        uint _quantity,\r\n        uint _nonce\r\n    ) public pure returns (bytes32) {\r\n        return keccak256(abi.encodePacked(_minter, _quantity, _nonce));\r\n    }\r\n\r\n    /* 3. Sign message hash\r\n    # using browser\r\n    account = \"copy paste account of signer here\"\r\n    ethereum.request({ method: \"personal_sign\", params: [account, hash]}).then(console.log)\r\n\r\n    # using web3\r\n    web3.personal.sign(hash, web3.eth.defaultAccount, console.log)\r\n\r\n    Signature will be different for different accounts\r\n    0x993dab3dd91f5c6dc28e17439be475478f5635c92a56e17e82349d3fb2f166196f466c0b4e0c146f285204f0dcb13e5ae67bc33f4b888ec32dfe0a063e8f3f781b\r\n    */\r\n    function getEthSignedMessageHash(bytes32 _messageHash)\r\n        public\r\n        pure\r\n        returns (bytes32)\r\n    {\r\n        /*\r\n        Signature is produced by signing a keccak256 hash with the following format:\r\n        \"\\x19Ethereum Signed Message\\n\" + len(msg) + msg\r\n        */\r\n        return\r\n            keccak256(\r\n                abi.encodePacked(\"\\x19Ethereum Signed Message:\\n32\", _messageHash)\r\n            );\r\n    }\r\n\r\n    /* 4. Verify signature\r\n    signer = 0xB273216C05A8c0D4F0a4Dd0d7Bae1D2EfFE636dd\r\n    to = 0x14723A09ACff6D2A60DcdF7aA4AFf308FDDC160C\r\n    amount = 123\r\n    message = \"coffee and donuts\"\r\n    nonce = 1\r\n    signature =\r\n        0x993dab3dd91f5c6dc28e17439be475478f5635c92a56e17e82349d3fb2f166196f466c0b4e0c146f285204f0dcb13e5ae67bc33f4b888ec32dfe0a063e8f3f781b\r\n    */\r\n    function verify(\r\n        address _signer,\r\n        address _minter,\r\n        uint _quantity,\r\n        uint _nonce,\r\n        bytes memory signature\r\n    ) public pure returns (bool) {\r\n        bytes32 messageHash = getMessageHash(_minter, _quantity, _nonce);\r\n        bytes32 ethSignedMessageHash = getEthSignedMessageHash(messageHash);\r\n\r\n        return recoverSigner(ethSignedMessageHash, signature) == _signer;\r\n    }\r\n\r\n    function recoverSigner(bytes32 _ethSignedMessageHash, bytes memory _signature)\r\n        public\r\n        pure\r\n        returns (address)\r\n    {\r\n        (bytes32 r, bytes32 s, uint8 v) = splitSignature(_signature);\r\n\r\n        return ecrecover(_ethSignedMessageHash, v, r, s);\r\n    }\r\n\r\n    function splitSignature(bytes memory sig)\r\n        public\r\n        pure\r\n        returns (\r\n            bytes32 r,\r\n            bytes32 s,\r\n            uint8 v\r\n        )\r\n    {\r\n        require(sig.length == 65, \"invalid signature length\");\r\n\r\n        assembly {\r\n            /*\r\n            First 32 bytes stores the length of the signature\r\n\r\n            add(sig, 32) = pointer of sig + 32\r\n            effectively, skips first 32 bytes of signature\r\n\r\n            mload(p) loads next 32 bytes starting at the memory address p into memory\r\n            */\r\n\r\n            // first 32 bytes, after the length prefix\r\n            r := mload(add(sig, 32))\r\n            // second 32 bytes\r\n            s := mload(add(sig, 64))\r\n            // final byte (first byte of the next 32 bytes)\r\n            v := byte(0, mload(add(sig, 96)))\r\n        }\r\n\r\n        // implicitly return (r, s, v)\r\n    }\r\n}",
  "sourcePath": "C:\\Users\\Cory\\source\\repos\\CyberpunkApeExecutives\\contracts\\Ape\\contracts\\Signer.sol",
  "compiler": {
    "name": "solc",
    "version": "0.8.9+commit.e5eed63a.Emscripten.clang"
  },
  "schemaVersion": "3.4.3",
  "updatedAt": "2022-01-09T03:55:57.545Z",
  "devdoc": {
    "kind": "dev",
    "methods": {},
    "version": 1
  },
  "userdoc": {
    "kind": "user",
    "methods": {},
    "version": 1
  }
}