{
  "contractName": "IMDStaking",
  "abi": [
    {
      "inputs": [
        {
          "internalType": "address",
          "name": "_token",
          "type": "address"
        },
        {
          "internalType": "uint256",
          "name": "_minYield",
          "type": "uint256"
        },
        {
          "internalType": "uint256",
          "name": "_maxYield",
          "type": "uint256"
        },
        {
          "internalType": "uint256",
          "name": "_step",
          "type": "uint256"
        },
        {
          "internalType": "uint256",
          "name": "_yieldPeriod",
          "type": "uint256"
        }
      ],
      "stateMutability": "nonpayable",
      "type": "constructor"
    },
    {
      "anonymous": false,
      "inputs": [
        {
          "indexed": true,
          "internalType": "address",
          "name": "previousOwner",
          "type": "address"
        },
        {
          "indexed": true,
          "internalType": "address",
          "name": "newOwner",
          "type": "address"
        }
      ],
      "name": "OwnershipTransferred",
      "type": "event"
    },
    {
      "anonymous": false,
      "inputs": [
        {
          "indexed": true,
          "internalType": "address",
          "name": "user",
          "type": "address"
        },
        {
          "indexed": false,
          "internalType": "uint256",
          "name": "amount",
          "type": "uint256"
        },
        {
          "indexed": false,
          "internalType": "uint256",
          "name": "total",
          "type": "uint256"
        },
        {
          "indexed": false,
          "internalType": "bytes",
          "name": "data",
          "type": "bytes"
        }
      ],
      "name": "Staked",
      "type": "event"
    },
    {
      "anonymous": false,
      "inputs": [
        {
          "indexed": true,
          "internalType": "address",
          "name": "user",
          "type": "address"
        },
        {
          "indexed": false,
          "internalType": "uint256",
          "name": "amount",
          "type": "uint256"
        },
        {
          "indexed": false,
          "internalType": "uint256",
          "name": "total",
          "type": "uint256"
        },
        {
          "indexed": false,
          "internalType": "bytes",
          "name": "data",
          "type": "bytes"
        }
      ],
      "name": "Unstaked",
      "type": "event"
    },
    {
      "inputs": [],
      "name": "owner",
      "outputs": [
        {
          "internalType": "address",
          "name": "",
          "type": "address"
        }
      ],
      "stateMutability": "view",
      "type": "function"
    },
    {
      "inputs": [],
      "name": "renounceOwnership",
      "outputs": [],
      "stateMutability": "nonpayable",
      "type": "function"
    },
    {
      "inputs": [],
      "name": "rewardToken",
      "outputs": [
        {
          "internalType": "contract ICollegeCredit",
          "name": "",
          "type": "address"
        }
      ],
      "stateMutability": "view",
      "type": "function"
    },
    {
      "inputs": [
        {
          "internalType": "address",
          "name": "",
          "type": "address"
        }
      ],
      "name": "stakableTokenAttributes",
      "outputs": [
        {
          "internalType": "uint256",
          "name": "minYield",
          "type": "uint256"
        },
        {
          "internalType": "uint256",
          "name": "maxYield",
          "type": "uint256"
        },
        {
          "internalType": "uint256",
          "name": "step",
          "type": "uint256"
        },
        {
          "internalType": "uint256",
          "name": "yieldPeriod",
          "type": "uint256"
        }
      ],
      "stateMutability": "view",
      "type": "function"
    },
    {
      "inputs": [
        {
          "internalType": "address",
          "name": "newOwner",
          "type": "address"
        }
      ],
      "name": "transferOwnership",
      "outputs": [],
      "stateMutability": "nonpayable",
      "type": "function"
    },
    {
      "inputs": [
        {
          "internalType": "address",
          "name": "_recipient",
          "type": "address"
        },
        {
          "internalType": "uint256",
          "name": "_amount",
          "type": "uint256"
        }
      ],
      "name": "mintRewardToken",
      "outputs": [],
      "stateMutability": "nonpayable",
      "type": "function"
    },
    {
      "inputs": [
        {
          "internalType": "address",
          "name": "_token",
          "type": "address"
        },
        {
          "internalType": "uint256",
          "name": "_minYield",
          "type": "uint256"
        },
        {
          "internalType": "uint256",
          "name": "_maxYield",
          "type": "uint256"
        },
        {
          "internalType": "uint256",
          "name": "_step",
          "type": "uint256"
        },
        {
          "internalType": "uint256",
          "name": "_yieldPeriod",
          "type": "uint256"
        }
      ],
      "name": "addStakableToken",
      "outputs": [],
      "stateMutability": "nonpayable",
      "type": "function"
    },
    {
      "inputs": [
        {
          "internalType": "address",
          "name": "_token",
          "type": "address"
        },
        {
          "internalType": "uint256",
          "name": "_tokenId",
          "type": "uint256"
        }
      ],
      "name": "stake",
      "outputs": [],
      "stateMutability": "nonpayable",
      "type": "function"
    },
    {
      "inputs": [
        {
          "internalType": "address",
          "name": "_user",
          "type": "address"
        },
        {
          "internalType": "address",
          "name": "_token",
          "type": "address"
        },
        {
          "internalType": "uint256",
          "name": "_tokenId",
          "type": "uint256"
        }
      ],
      "name": "stakeFor",
      "outputs": [],
      "stateMutability": "nonpayable",
      "type": "function"
    },
    {
      "inputs": [
        {
          "internalType": "address",
          "name": "_token",
          "type": "address"
        },
        {
          "internalType": "uint256",
          "name": "_tokenId",
          "type": "uint256"
        }
      ],
      "name": "unstake",
      "outputs": [],
      "stateMutability": "nonpayable",
      "type": "function"
    },
    {
      "inputs": [
        {
          "internalType": "address",
          "name": "_token",
          "type": "address"
        }
      ],
      "name": "claimRewards",
      "outputs": [],
      "stateMutability": "nonpayable",
      "type": "function"
    },
    {
      "inputs": [
        {
          "internalType": "address",
          "name": "_user",
          "type": "address"
        },
        {
          "internalType": "address",
          "name": "_token",
          "type": "address"
        }
      ],
      "name": "dividendOf",
      "outputs": [
        {
          "internalType": "uint256",
          "name": "",
          "type": "uint256"
        }
      ],
      "stateMutability": "view",
      "type": "function"
    },
    {
      "inputs": [
        {
          "internalType": "address",
          "name": "_token",
          "type": "address"
        },
        {
          "internalType": "uint256",
          "name": "_tokenId",
          "type": "uint256"
        }
      ],
      "name": "unstakeAndClaimRewards",
      "outputs": [],
      "stateMutability": "nonpayable",
      "type": "function"
    },
    {
      "inputs": [
        {
          "internalType": "address",
          "name": "_user",
          "type": "address"
        },
        {
          "internalType": "address",
          "name": "_token",
          "type": "address"
        }
      ],
      "name": "totalStakedFor",
      "outputs": [
        {
          "internalType": "uint256",
          "name": "",
          "type": "uint256"
        }
      ],
      "stateMutability": "view",
      "type": "function"
    },
    {
      "inputs": [
        {
          "internalType": "address",
          "name": "_token",
          "type": "address"
        }
      ],
      "name": "totalStaked",
      "outputs": [
        {
          "internalType": "uint256",
          "name": "",
          "type": "uint256"
        }
      ],
      "stateMutability": "view",
      "type": "function"
    },
    {
      "inputs": [
        {
          "internalType": "address",
          "name": "_user",
          "type": "address"
        },
        {
          "internalType": "address",
          "name": "_token",
          "type": "address"
        }
      ],
      "name": "stakedTokenIds",
      "outputs": [
        {
          "internalType": "uint256[]",
          "name": "",
          "type": "uint256[]"
        }
      ],
      "stateMutability": "view",
      "type": "function"
    }
  ],
  "bytecode": "0x60806040523480156200001157600080fd5b5060405162004fb538038062004fb58339818101604052810190620000379190620004ba565b620000576200004b620000e360201b60201c565b620000eb60201b60201c565b6200006c8585858585620001af60201b60201c565b6040516200007a9062000407565b604051809103906000f08015801562000097573d6000803e3d6000fd5b50600360006101000a81548173ffffffffffffffffffffffffffffffffffffffff021916908373ffffffffffffffffffffffffffffffffffffffff1602179055505050505050620006a9565b600033905090565b60008060009054906101000a900473ffffffffffffffffffffffffffffffffffffffff169050816000806101000a81548173ffffffffffffffffffffffffffffffffffffffff021916908373ffffffffffffffffffffffffffffffffffffffff1602179055508173ffffffffffffffffffffffffffffffffffffffff168173ffffffffffffffffffffffffffffffffffffffff167f8be0079c531659141344cd1fd0a4f28419497f9722a3daafe3b4186f6b6457e060405160405180910390a35050565b60008311620001f5576040517f08c379a0000000000000000000000000000000000000000000000000000000008152600401620001ec90620005a3565b60405180910390fd5b600084116200023b576040517f08c379a0000000000000000000000000000000000000000000000000000000008152600401620002329062000615565b60405180910390fd5b603c811162000281576040517f08c379a0000000000000000000000000000000000000000000000000000000008152600401620002789062000687565b60405180910390fd5b82600160008773ffffffffffffffffffffffffffffffffffffffff1673ffffffffffffffffffffffffffffffffffffffff1681526020019081526020016000206001018190555083600160008773ffffffffffffffffffffffffffffffffffffffff1673ffffffffffffffffffffffffffffffffffffffff1681526020019081526020016000206000018190555081600160008773ffffffffffffffffffffffffffffffffffffffff1673ffffffffffffffffffffffffffffffffffffffff1681526020019081526020016000206002018190555080600160008773ffffffffffffffffffffffffffffffffffffffff1673ffffffffffffffffffffffffffffffffffffffff168152602001908152602001600020600301819055506002859080600181540180825580915050600190039060005260206000200160009091909190916101000a81548173ffffffffffffffffffffffffffffffffffffffff021916908373ffffffffffffffffffffffffffffffffffffffff1602179055505050505050565b611d0f80620032a683390190565b600080fd5b600073ffffffffffffffffffffffffffffffffffffffff82169050919050565b600062000447826200041a565b9050919050565b62000459816200043a565b81146200046557600080fd5b50565b60008151905062000479816200044e565b92915050565b6000819050919050565b62000494816200047f565b8114620004a057600080fd5b50565b600081519050620004b48162000489565b92915050565b600080600080600060a08688031215620004d957620004d862000415565b5b6000620004e98882890162000468565b9550506020620004fc88828901620004a3565b94505060406200050f88828901620004a3565b93505060606200052288828901620004a3565b92505060806200053588828901620004a3565b9150509295509295909350565b600082825260208201905092915050565b7f496e76616c6964206d6178000000000000000000000000000000000000000000600082015250565b60006200058b600b8362000542565b9150620005988262000553565b602082019050919050565b60006020820190508181036000830152620005be816200057c565b9050919050565b7f496e76616c6964206d696e000000000000000000000000000000000000000000600082015250565b6000620005fd600b8362000542565b91506200060a82620005c5565b602082019050919050565b600060208201905081810360008301526200063081620005ee565b9050919050565b7f496e76616c696420706572696f64000000000000000000000000000000000000600082015250565b60006200066f600e8362000542565b91506200067c8262000637565b602082019050919050565b60006020820190508181036000830152620006a28162000660565b9050919050565b612bed80620006b96000396000f3fe608060405234801561001057600080fd5b50600436106101005760003560e01c8063adc9772e11610097578063ef5cfb8c11610066578063ef5cfb8c14610295578063f2fde38b146102b1578063f5a097cd146102cd578063f7c618c11461030057610100565b8063adc9772e14610211578063c2a672e01461022d578063cb83bcd614610249578063db2ee2b01461027957610100565b8063715018a6116100d3578063715018a61461019d5780638da5cb5b146101a75780639bfd8d61146101c5578063ac613b5c146101f557610100565b80631ddec53b146101055780632cc205d9146101215780632dd5567a1461015157806365d8dded1461016d575b600080fd5b61011f600480360381019061011a919061202e565b61031e565b005b61013b600480360381019061013691906120a9565b6103f7565b60405161014891906120f8565b60405180910390f35b61016b60048036038101906101669190612113565b610453565b005b610187600480360381019061018291906120a9565b6104ab565b6040516101949190612224565b60405180910390f35b6101a5610507565b005b6101af61058f565b6040516101bc9190612255565b60405180910390f35b6101df60048036038101906101da9190612270565b6105b8565b6040516101ec91906120f8565b60405180910390f35b61020f600480360381019061020a919061229d565b610612565b005b61022b6004803603810190610226919061229d565b610756565b005b6102476004803603810190610242919061229d565b6107ad565b005b610263600480360381019061025e91906120a9565b6108e7565b60405161027091906120f8565b60405180910390f35b610293600480360381019061028e919061229d565b610943565b005b6102af60048036038101906102aa9190612270565b610a52565b005b6102cb60048036038101906102c69190612270565b610aa7565b005b6102e760048036038101906102e29190612270565b610b9f565b6040516102f794939291906122dd565b60405180910390f35b610308610bcf565b6040516103159190612381565b60405180910390f35b610326610bf5565b73ffffffffffffffffffffffffffffffffffffffff1661034461058f565b73ffffffffffffffffffffffffffffffffffffffff161461039a576040517f08c379a0000000000000000000000000000000000000000000000000000000008152600401610391906123f9565b60405180910390fd5b6103a385610bfd565b156103e3576040517f08c379a00000000000000000000000000000000000000000000000000000000081526004016103da90612465565b60405180910390fd5b6103f08585858585610c4c565b5050505050565b600061040282610bfd565b610441576040517f08c379a0000000000000000000000000000000000000000000000000000000008152600401610438906124d1565b60405180910390fd5b61044b8383610e9b565b905092915050565b61045c82610bfd565b61049b576040517f08c379a0000000000000000000000000000000000000000000000000000000008152600401610492906124d1565b60405180910390fd5b6104a6838383611078565b505050565b60606104b682610bfd565b6104f5576040517f08c379a00000000000000000000000000000000000000000000000000000000081526004016104ec906124d1565b60405180910390fd5b6104ff8383611245565b905092915050565b61050f610bf5565b73ffffffffffffffffffffffffffffffffffffffff1661052d61058f565b73ffffffffffffffffffffffffffffffffffffffff1614610583576040517f08c379a000000000000000000000000000000000000000000000000000000000815260040161057a906123f9565b60405180910390fd5b61058d60006114a8565b565b60008060009054906101000a900473ffffffffffffffffffffffffffffffffffffffff16905090565b60006105c382610bfd565b610602576040517f08c379a00000000000000000000000000000000000000000000000000000000081526004016105f9906124d1565b60405180910390fd5b61060b8261156c565b9050919050565b61061b82610bfd565b61065a576040517f08c379a0000000000000000000000000000000000000000000000000000000008152600401610651906124d1565b60405180910390fd5b3373ffffffffffffffffffffffffffffffffffffffff16600160008473ffffffffffffffffffffffffffffffffffffffff1673ffffffffffffffffffffffffffffffffffffffff168152602001908152602001600020600401600083815260200190815260200160002060010160009054906101000a900473ffffffffffffffffffffffffffffffffffffffff1673ffffffffffffffffffffffffffffffffffffffff161461073e576040517f08c379a00000000000000000000000000000000000000000000000000000000081526004016107359061253d565b60405180910390fd5b6107483383611655565b61075282826117d0565b5050565b61075f82610bfd565b61079e576040517f08c379a0000000000000000000000000000000000000000000000000000000008152600401610795906124d1565b60405180910390fd5b6107a9338383611078565b5050565b6107b682610bfd565b6107f5576040517f08c379a00000000000000000000000000000000000000000000000000000000081526004016107ec906124d1565b60405180910390fd5b3373ffffffffffffffffffffffffffffffffffffffff16600160008473ffffffffffffffffffffffffffffffffffffffff1673ffffffffffffffffffffffffffffffffffffffff168152602001908152602001600020600401600083815260200190815260200160002060010160009054906101000a900473ffffffffffffffffffffffffffffffffffffffff1673ffffffffffffffffffffffffffffffffffffffff16146108d9576040517f08c379a00000000000000000000000000000000000000000000000000000000081526004016108d09061253d565b60405180910390fd5b6108e382826117d0565b5050565b60006108f282610bfd565b610931576040517f08c379a0000000000000000000000000000000000000000000000000000000008152600401610928906124d1565b60405180910390fd5b61093b8383611baa565b905092915050565b61094b610bf5565b73ffffffffffffffffffffffffffffffffffffffff1661096961058f565b73ffffffffffffffffffffffffffffffffffffffff16146109bf576040517f08c379a00000000000000000000000000000000000000000000000000000000081526004016109b6906123f9565b60405180910390fd5b600360009054906101000a900473ffffffffffffffffffffffffffffffffffffffff1673ffffffffffffffffffffffffffffffffffffffff166340c10f1983836040518363ffffffff1660e01b8152600401610a1c92919061255d565b600060405180830381600087803b158015610a3657600080fd5b505af1158015610a4a573d6000803e3d6000fd5b505050505050565b610a5b81610bfd565b610a9a576040517f08c379a0000000000000000000000000000000000000000000000000000000008152600401610a91906124d1565b60405180910390fd5b610aa43382611655565b50565b610aaf610bf5565b73ffffffffffffffffffffffffffffffffffffffff16610acd61058f565b73ffffffffffffffffffffffffffffffffffffffff1614610b23576040517f08c379a0000000000000000000000000000000000000000000000000000000008152600401610b1a906123f9565b60405180910390fd5b600073ffffffffffffffffffffffffffffffffffffffff168173ffffffffffffffffffffffffffffffffffffffff161415610b93576040517f08c379a0000000000000000000000000000000000000000000000000000000008152600401610b8a906125f8565b60405180910390fd5b610b9c816114a8565b50565b60016020528060005260406000206000915090508060000154908060010154908060020154908060030154905084565b600360009054906101000a900473ffffffffffffffffffffffffffffffffffffffff1681565b600033905090565b600080600160008473ffffffffffffffffffffffffffffffffffffffff1673ffffffffffffffffffffffffffffffffffffffff1681526020019081526020016000206001015414159050919050565b60008311610c8f576040517f08c379a0000000000000000000000000000000000000000000000000000000008152600401610c8690612664565b60405180910390fd5b60008411610cd2576040517f08c379a0000000000000000000000000000000000000000000000000000000008152600401610cc9906126d0565b60405180910390fd5b603c8111610d15576040517f08c379a0000000000000000000000000000000000000000000000000000000008152600401610d0c9061273c565b60405180910390fd5b82600160008773ffffffffffffffffffffffffffffffffffffffff1673ffffffffffffffffffffffffffffffffffffffff1681526020019081526020016000206001018190555083600160008773ffffffffffffffffffffffffffffffffffffffff1673ffffffffffffffffffffffffffffffffffffffff1681526020019081526020016000206000018190555081600160008773ffffffffffffffffffffffffffffffffffffffff1673ffffffffffffffffffffffffffffffffffffffff1681526020019081526020016000206002018190555080600160008773ffffffffffffffffffffffffffffffffffffffff1673ffffffffffffffffffffffffffffffffffffffff168152602001908152602001600020600301819055506002859080600181540180825580915050600190039060005260206000200160009091909190916101000a81548173ffffffffffffffffffffffffffffffffffffffff021916908373ffffffffffffffffffffffffffffffffffffffff1602179055505050505050565b6000806000905060005b600160008573ffffffffffffffffffffffffffffffffffffffff1673ffffffffffffffffffffffffffffffffffffffff1681526020019081526020016000206005018054905081101561106d576000600160008673ffffffffffffffffffffffffffffffffffffffff1673ffffffffffffffffffffffffffffffffffffffff1681526020019081526020016000206004016000600160008873ffffffffffffffffffffffffffffffffffffffff1673ffffffffffffffffffffffffffffffffffffffff1681526020019081526020016000206005018481548110610f8c57610f8b61275c565b5b90600052602060002001548152602001908152602001600020604051806040016040529081600082015481526020016001820160009054906101000a900473ffffffffffffffffffffffffffffffffffffffff1673ffffffffffffffffffffffffffffffffffffffff1673ffffffffffffffffffffffffffffffffffffffff168152505090508573ffffffffffffffffffffffffffffffffffffffff16816020015173ffffffffffffffffffffffffffffffffffffffff161415611059578280611055906127ba565b9350505b508080611065906127ba565b915050610ea5565b819250505092915050565b8173ffffffffffffffffffffffffffffffffffffffff166323b872dd8430846040518463ffffffff1660e01b81526004016110b593929190612803565b600060405180830381600087803b1580156110cf57600080fd5b505af11580156110e3573d6000803e3d6000fd5b5050505042600160008473ffffffffffffffffffffffffffffffffffffffff1673ffffffffffffffffffffffffffffffffffffffff16815260200190815260200160002060040160008381526020019081526020016000206000018190555082600160008473ffffffffffffffffffffffffffffffffffffffff1673ffffffffffffffffffffffffffffffffffffffff168152602001908152602001600020600401600083815260200190815260200160002060010160006101000a81548173ffffffffffffffffffffffffffffffffffffffff021916908373ffffffffffffffffffffffffffffffffffffffff160217905550600160008373ffffffffffffffffffffffffffffffffffffffff1673ffffffffffffffffffffffffffffffffffffffff168152602001908152602001600020600501819080600181540180825580915050600190039060005260206000200160009091909190915055505050565b606060006112538484610e9b565b905060008167ffffffffffffffff8111156112715761127061283a565b5b60405190808252806020026020018201604052801561129f5781602001602082028036833780820191505090505b5090506000805b600160008773ffffffffffffffffffffffffffffffffffffffff1673ffffffffffffffffffffffffffffffffffffffff1681526020019081526020016000206005018054905081101561149b578673ffffffffffffffffffffffffffffffffffffffff16600160008873ffffffffffffffffffffffffffffffffffffffff1673ffffffffffffffffffffffffffffffffffffffff1681526020019081526020016000206004016000600160008a73ffffffffffffffffffffffffffffffffffffffff1673ffffffffffffffffffffffffffffffffffffffff16815260200190815260200160002060050184815481106113a2576113a161275c565b5b9060005260206000200154815260200190815260200160002060010160009054906101000a900473ffffffffffffffffffffffffffffffffffffffff1673ffffffffffffffffffffffffffffffffffffffff16141561148857600160008773ffffffffffffffffffffffffffffffffffffffff1673ffffffffffffffffffffffffffffffffffffffff168152602001908152602001600020600501818154811061144f5761144e61275c565b5b906000526020600020015483838151811061146d5761146c61275c565b5b6020026020010181815250508180611484906127ba565b9250505b8080611493906127ba565b9150506112a6565b8294505050505092915050565b60008060009054906101000a900473ffffffffffffffffffffffffffffffffffffffff169050816000806101000a81548173ffffffffffffffffffffffffffffffffffffffff021916908373ffffffffffffffffffffffffffffffffffffffff1602179055508173ffffffffffffffffffffffffffffffffffffffff168173ffffffffffffffffffffffffffffffffffffffff167f8be0079c531659141344cd1fd0a4f28419497f9722a3daafe3b4186f6b6457e060405160405180910390a35050565b6000806000905060005b600160008573ffffffffffffffffffffffffffffffffffffffff1673ffffffffffffffffffffffffffffffffffffffff1681526020019081526020016000206005018054905081101561164b576000600160008673ffffffffffffffffffffffffffffffffffffffff1673ffffffffffffffffffffffffffffffffffffffff16815260200190815260200160002060050182815481106116195761161861275c565b5b906000526020600020015414611638578180611634906127ba565b9250505b8080611643906127ba565b915050611576565b5080915050919050565b60006116618383611baa565b9050600081116116a6576040517f08c379a000000000000000000000000000000000000000000000000000000000815260040161169d906128b5565b60405180910390fd5b80600160008473ffffffffffffffffffffffffffffffffffffffff1673ffffffffffffffffffffffffffffffffffffffff16815260200190815260200160002060060160008573ffffffffffffffffffffffffffffffffffffffff1673ffffffffffffffffffffffffffffffffffffffff168152602001908152602001600020600082825461173591906128df565b92505081905550600360009054906101000a900473ffffffffffffffffffffffffffffffffffffffff1673ffffffffffffffffffffffffffffffffffffffff166340c10f1984836040518363ffffffff1660e01b815260040161179992919061255d565b600060405180830381600087803b1580156117b357600080fd5b505af11580156117c7573d6000803e3d6000fd5b50505050505050565b6000600160008473ffffffffffffffffffffffffffffffffffffffff1673ffffffffffffffffffffffffffffffffffffffff168152602001908152602001600020600401600083815260200190815260200160002060010160009054906101000a900473ffffffffffffffffffffffffffffffffffffffff16905060006118eb600160008673ffffffffffffffffffffffffffffffffffffffff1673ffffffffffffffffffffffffffffffffffffffff168152602001908152602001600020600160008773ffffffffffffffffffffffffffffffffffffffff1673ffffffffffffffffffffffffffffffffffffffff168152602001908152602001600020600401600086815260200190815260200160002060000154611eab565b905080600160008673ffffffffffffffffffffffffffffffffffffffff1673ffffffffffffffffffffffffffffffffffffffff16815260200190815260200160002060060160008473ffffffffffffffffffffffffffffffffffffffff1673ffffffffffffffffffffffffffffffffffffffff168152602001908152602001600020600082825461197c9190612973565b92505081905550600160008573ffffffffffffffffffffffffffffffffffffffff1673ffffffffffffffffffffffffffffffffffffffff16815260200190815260200160002060040160008481526020019081526020016000206000808201600090556001820160006101000a81549073ffffffffffffffffffffffffffffffffffffffff0219169055505060005b600160008673ffffffffffffffffffffffffffffffffffffffff1673ffffffffffffffffffffffffffffffffffffffff16815260200190815260200160002060050180549050811015611b345783600160008773ffffffffffffffffffffffffffffffffffffffff1673ffffffffffffffffffffffffffffffffffffffff1681526020019081526020016000206005018281548110611aad57611aac61275c565b5b90600052602060002001541415611b2157600160008673ffffffffffffffffffffffffffffffffffffffff1673ffffffffffffffffffffffffffffffffffffffff1681526020019081526020016000206005018181548110611b1257611b1161275c565b5b90600052602060002001600090555b8080611b2c906127ba565b915050611a0b565b508373ffffffffffffffffffffffffffffffffffffffff166342842e0e3084866040518463ffffffff1660e01b8152600401611b7293929190612803565b600060405180830381600087803b158015611b8c57600080fd5b505af1158015611ba0573d6000803e3d6000fd5b5050505050505050565b6000806000905060005b600160008573ffffffffffffffffffffffffffffffffffffffff1673ffffffffffffffffffffffffffffffffffffffff16815260200190815260200160002060050180549050811015611dcc576000600160008673ffffffffffffffffffffffffffffffffffffffff1673ffffffffffffffffffffffffffffffffffffffff1681526020019081526020016000206004016000600160008873ffffffffffffffffffffffffffffffffffffffff1673ffffffffffffffffffffffffffffffffffffffff1681526020019081526020016000206005018481548110611c9b57611c9a61275c565b5b90600052602060002001548152602001908152602001600020604051806040016040529081600082015481526020016001820160009054906101000a900473ffffffffffffffffffffffffffffffffffffffff1673ffffffffffffffffffffffffffffffffffffffff1673ffffffffffffffffffffffffffffffffffffffff168152505090508573ffffffffffffffffffffffffffffffffffffffff16816020015173ffffffffffffffffffffffffffffffffffffffff1614611d5e5750611db9565b611daa600160008773ffffffffffffffffffffffffffffffffffffffff1673ffffffffffffffffffffffffffffffffffffffff1681526020019081526020016000208260000151611eab565b83611db59190612a07565b9250505b8080611dc4906127ba565b915050611bb4565b6000600160008673ffffffffffffffffffffffffffffffffffffffff1673ffffffffffffffffffffffffffffffffffffffff16815260200190815260200160002060060160008773ffffffffffffffffffffffffffffffffffffffff1673ffffffffffffffffffffffffffffffffffffffff1681526020019081526020016000205483611e599190612973565b90506000811215611e9f576040517f08c379a0000000000000000000000000000000000000000000000000000000008152600401611e9690612aa9565b60405180910390fd5b80935050505092915050565b600080821415611ebe5760009050611f8f565b600083600301548342611ed19190612ac9565b611edb9190612b2c565b90506000805b82811015611f60576000866002015482611efb9190612b5d565b8760000154611f0a9190612a07565b90508660010154811115611f3e57866001015483611f289190612a07565b92508180611f35906127ba565b92505050611f60565b8083611f4a9190612a07565b9250508080611f58906127ba565b915050611ee1565b85600101548184611f719190612ac9565b611f7b9190612b5d565b82611f869190612a07565b91508193505050505b92915050565b600080fd5b600073ffffffffffffffffffffffffffffffffffffffff82169050919050565b6000611fc582611f9a565b9050919050565b611fd581611fba565b8114611fe057600080fd5b50565b600081359050611ff281611fcc565b92915050565b6000819050919050565b61200b81611ff8565b811461201657600080fd5b50565b60008135905061202881612002565b92915050565b600080600080600060a0868803121561204a57612049611f95565b5b600061205888828901611fe3565b955050602061206988828901612019565b945050604061207a88828901612019565b935050606061208b88828901612019565b925050608061209c88828901612019565b9150509295509295909350565b600080604083850312156120c0576120bf611f95565b5b60006120ce85828601611fe3565b92505060206120df85828601611fe3565b9150509250929050565b6120f281611ff8565b82525050565b600060208201905061210d60008301846120e9565b92915050565b60008060006060848603121561212c5761212b611f95565b5b600061213a86828701611fe3565b935050602061214b86828701611fe3565b925050604061215c86828701612019565b9150509250925092565b600081519050919050565b600082825260208201905092915050565b6000819050602082019050919050565b61219b81611ff8565b82525050565b60006121ad8383612192565b60208301905092915050565b6000602082019050919050565b60006121d182612166565b6121db8185612171565b93506121e683612182565b8060005b838110156122175781516121fe88826121a1565b9750612209836121b9565b9250506001810190506121ea565b5085935050505092915050565b6000602082019050818103600083015261223e81846121c6565b905092915050565b61224f81611fba565b82525050565b600060208201905061226a6000830184612246565b92915050565b60006020828403121561228657612285611f95565b5b600061229484828501611fe3565b91505092915050565b600080604083850312156122b4576122b3611f95565b5b60006122c285828601611fe3565b92505060206122d385828601612019565b9150509250929050565b60006080820190506122f260008301876120e9565b6122ff60208301866120e9565b61230c60408301856120e9565b61231960608301846120e9565b95945050505050565b6000819050919050565b600061234761234261233d84611f9a565b612322565b611f9a565b9050919050565b60006123598261232c565b9050919050565b600061236b8261234e565b9050919050565b61237b81612360565b82525050565b60006020820190506123966000830184612372565b92915050565b600082825260208201905092915050565b7f4f776e61626c653a2063616c6c6572206973206e6f7420746865206f776e6572600082015250565b60006123e360208361239c565b91506123ee826123ad565b602082019050919050565b60006020820190508181036000830152612412816123d6565b9050919050565b7f416c726561647920657869737473000000000000000000000000000000000000600082015250565b600061244f600e8361239c565b915061245a82612419565b602082019050919050565b6000602082019050818103600083015261247e81612442565b9050919050565b7f4e6f74207374616b61626c650000000000000000000000000000000000000000600082015250565b60006124bb600c8361239c565b91506124c682612485565b602082019050919050565b600060208201905081810360008301526124ea816124ae565b9050919050565b7f4e6f74206f776e65720000000000000000000000000000000000000000000000600082015250565b600061252760098361239c565b9150612532826124f1565b602082019050919050565b600060208201905081810360008301526125568161251a565b9050919050565b60006040820190506125726000830185612246565b61257f60208301846120e9565b9392505050565b7f4f776e61626c653a206e6577206f776e657220697320746865207a65726f206160008201527f6464726573730000000000000000000000000000000000000000000000000000602082015250565b60006125e260268361239c565b91506125ed82612586565b604082019050919050565b60006020820190508181036000830152612611816125d5565b9050919050565b7f496e76616c6964206d6178000000000000000000000000000000000000000000600082015250565b600061264e600b8361239c565b915061265982612618565b602082019050919050565b6000602082019050818103600083015261267d81612641565b9050919050565b7f496e76616c6964206d696e000000000000000000000000000000000000000000600082015250565b60006126ba600b8361239c565b91506126c582612684565b602082019050919050565b600060208201905081810360008301526126e9816126ad565b9050919050565b7f496e76616c696420706572696f64000000000000000000000000000000000000600082015250565b6000612726600e8361239c565b9150612731826126f0565b602082019050919050565b6000602082019050818103600083015261275581612719565b9050919050565b7f4e487b7100000000000000000000000000000000000000000000000000000000600052603260045260246000fd5b7f4e487b7100000000000000000000000000000000000000000000000000000000600052601160045260246000fd5b60006127c582611ff8565b91507fffffffffffffffffffffffffffffffffffffffffffffffffffffffffffffffff8214156127f8576127f761278b565b5b600182019050919050565b60006060820190506128186000830186612246565b6128256020830185612246565b61283260408301846120e9565b949350505050565b7f4e487b7100000000000000000000000000000000000000000000000000000000600052604160045260246000fd5b7f5a65726f206469766964656e6400000000000000000000000000000000000000600082015250565b600061289f600d8361239c565b91506128aa82612869565b602082019050919050565b600060208201905081810360008301526128ce81612892565b9050919050565b6000819050919050565b60006128ea826128d5565b91506128f5836128d5565b9250827f8000000000000000000000000000000000000000000000000000000000000000018212600084121516156129305761292f61278b565b5b827f7fffffffffffffffffffffffffffffffffffffffffffffffffffffffffffffff0182136000841216156129685761296761278b565b5b828203905092915050565b600061297e826128d5565b9150612989836128d5565b9250817f7fffffffffffffffffffffffffffffffffffffffffffffffffffffffffffffff038313600083121516156129c4576129c361278b565b5b817f80000000000000000000000000000000000000000000000000000000000000000383126000831216156129fc576129fb61278b565b5b828201905092915050565b6000612a1282611ff8565b9150612a1d83611ff8565b9250827fffffffffffffffffffffffffffffffffffffffffffffffffffffffffffffffff03821115612a5257612a5161278b565b5b828201905092915050565b7f556e646572666c6f770000000000000000000000000000000000000000000000600082015250565b6000612a9360098361239c565b9150612a9e82612a5d565b602082019050919050565b60006020820190508181036000830152612ac281612a86565b9050919050565b6000612ad482611ff8565b9150612adf83611ff8565b925082821015612af257612af161278b565b5b828203905092915050565b7f4e487b7100000000000000000000000000000000000000000000000000000000600052601260045260246000fd5b6000612b3782611ff8565b9150612b4283611ff8565b925082612b5257612b51612afd565b5b828204905092915050565b6000612b6882611ff8565b9150612b7383611ff8565b9250817fffffffffffffffffffffffffffffffffffffffffffffffffffffffffffffffff0483118215151615612bac57612bab61278b565b5b82820290509291505056fea26469706673582212207b648882c5fdb85dc2aa3256874d078b7e2212417e4ea06e185f9f3bdc4072af64736f6c6343000809003360806040523480156200001157600080fd5b506040518060400160405280600e81526020017f436f6c6c656765204372656469740000000000000000000000000000000000008152506040518060400160405280600281526020017f4343000000000000000000000000000000000000000000000000000000000000815250816003908051906020019062000096929190620001a6565b508060049080519060200190620000af929190620001a6565b505050620000d2620000c6620000d860201b60201c565b620000e060201b60201c565b620002bb565b600033905090565b6000600560009054906101000a900473ffffffffffffffffffffffffffffffffffffffff16905081600560006101000a81548173ffffffffffffffffffffffffffffffffffffffff021916908373ffffffffffffffffffffffffffffffffffffffff1602179055508173ffffffffffffffffffffffffffffffffffffffff168173ffffffffffffffffffffffffffffffffffffffff167f8be0079c531659141344cd1fd0a4f28419497f9722a3daafe3b4186f6b6457e060405160405180910390a35050565b828054620001b49062000285565b90600052602060002090601f016020900481019282620001d8576000855562000224565b82601f10620001f357805160ff191683800117855562000224565b8280016001018555821562000224579182015b828111156200022357825182559160200191906001019062000206565b5b50905062000233919062000237565b5090565b5b808211156200025257600081600090555060010162000238565b5090565b7f4e487b7100000000000000000000000000000000000000000000000000000000600052602260045260246000fd5b600060028204905060018216806200029e57607f821691505b60208210811415620002b557620002b462000256565b5b50919050565b611a4480620002cb6000396000f3fe608060405234801561001057600080fd5b50600436106100f55760003560e01c806370a0823111610097578063a457c2d711610066578063a457c2d714610276578063a9059cbb146102a6578063dd62ed3e146102d6578063f2fde38b14610306576100f5565b806370a0823114610200578063715018a6146102305780638da5cb5b1461023a57806395d89b4114610258576100f5565b806323b872dd116100d357806323b872dd14610166578063313ce5671461019657806339509351146101b457806340c10f19146101e4576100f5565b806306fdde03146100fa578063095ea7b31461011857806318160ddd14610148575b600080fd5b610102610322565b60405161010f9190611144565b60405180910390f35b610132600480360381019061012d91906111ff565b6103b4565b60405161013f919061125a565b60405180910390f35b6101506103d2565b60405161015d9190611284565b60405180910390f35b610180600480360381019061017b919061129f565b6103dc565b60405161018d919061125a565b60405180910390f35b61019e6104d4565b6040516101ab919061130e565b60405180910390f35b6101ce60048036038101906101c991906111ff565b6104dd565b6040516101db919061125a565b60405180910390f35b6101fe60048036038101906101f991906111ff565b610589565b005b61021a60048036038101906102159190611329565b610613565b6040516102279190611284565b60405180910390f35b61023861065b565b005b6102426106e3565b60405161024f9190611365565b60405180910390f35b61026061070d565b60405161026d9190611144565b60405180910390f35b610290600480360381019061028b91906111ff565b61079f565b60405161029d919061125a565b60405180910390f35b6102c060048036038101906102bb91906111ff565b61088a565b6040516102cd919061125a565b60405180910390f35b6102f060048036038101906102eb9190611380565b6108a8565b6040516102fd9190611284565b60405180910390f35b610320600480360381019061031b9190611329565b61092f565b005b606060038054610331906113ef565b80601f016020809104026020016040519081016040528092919081815260200182805461035d906113ef565b80156103aa5780601f1061037f576101008083540402835291602001916103aa565b820191906000526020600020905b81548152906001019060200180831161038d57829003601f168201915b5050505050905090565b60006103c86103c1610a27565b8484610a2f565b6001905092915050565b6000600254905090565b60006103e9848484610bfa565b6000600160008673ffffffffffffffffffffffffffffffffffffffff1673ffffffffffffffffffffffffffffffffffffffff1681526020019081526020016000206000610434610a27565b73ffffffffffffffffffffffffffffffffffffffff1673ffffffffffffffffffffffffffffffffffffffff168152602001908152602001600020549050828110156104b4576040517f08c379a00000000000000000000000000000000000000000000000000000000081526004016104ab90611493565b60405180910390fd5b6104c8856104c0610a27565b858403610a2f565b60019150509392505050565b60006012905090565b600061057f6104ea610a27565b8484600160006104f8610a27565b73ffffffffffffffffffffffffffffffffffffffff1673ffffffffffffffffffffffffffffffffffffffff16815260200190815260200160002060008873ffffffffffffffffffffffffffffffffffffffff1673ffffffffffffffffffffffffffffffffffffffff1681526020019081526020016000205461057a91906114e2565b610a2f565b6001905092915050565b610591610a27565b73ffffffffffffffffffffffffffffffffffffffff166105af6106e3565b73ffffffffffffffffffffffffffffffffffffffff1614610605576040517f08c379a00000000000000000000000000000000000000000000000000000000081526004016105fc90611584565b60405180910390fd5b61060f8282610e7b565b5050565b60008060008373ffffffffffffffffffffffffffffffffffffffff1673ffffffffffffffffffffffffffffffffffffffff168152602001908152602001600020549050919050565b610663610a27565b73ffffffffffffffffffffffffffffffffffffffff166106816106e3565b73ffffffffffffffffffffffffffffffffffffffff16146106d7576040517f08c379a00000000000000000000000000000000000000000000000000000000081526004016106ce90611584565b60405180910390fd5b6106e16000610fdb565b565b6000600560009054906101000a900473ffffffffffffffffffffffffffffffffffffffff16905090565b60606004805461071c906113ef565b80601f0160208091040260200160405190810160405280929190818152602001828054610748906113ef565b80156107955780601f1061076a57610100808354040283529160200191610795565b820191906000526020600020905b81548152906001019060200180831161077857829003601f168201915b5050505050905090565b600080600160006107ae610a27565b73ffffffffffffffffffffffffffffffffffffffff1673ffffffffffffffffffffffffffffffffffffffff16815260200190815260200160002060008573ffffffffffffffffffffffffffffffffffffffff1673ffffffffffffffffffffffffffffffffffffffff1681526020019081526020016000205490508281101561086b576040517f08c379a000000000000000000000000000000000000000000000000000000000815260040161086290611616565b60405180910390fd5b61087f610876610a27565b85858403610a2f565b600191505092915050565b600061089e610897610a27565b8484610bfa565b6001905092915050565b6000600160008473ffffffffffffffffffffffffffffffffffffffff1673ffffffffffffffffffffffffffffffffffffffff16815260200190815260200160002060008373ffffffffffffffffffffffffffffffffffffffff1673ffffffffffffffffffffffffffffffffffffffff16815260200190815260200160002054905092915050565b610937610a27565b73ffffffffffffffffffffffffffffffffffffffff166109556106e3565b73ffffffffffffffffffffffffffffffffffffffff16146109ab576040517f08c379a00000000000000000000000000000000000000000000000000000000081526004016109a290611584565b60405180910390fd5b600073ffffffffffffffffffffffffffffffffffffffff168173ffffffffffffffffffffffffffffffffffffffff161415610a1b576040517f08c379a0000000000000000000000000000000000000000000000000000000008152600401610a12906116a8565b60405180910390fd5b610a2481610fdb565b50565b600033905090565b600073ffffffffffffffffffffffffffffffffffffffff168373ffffffffffffffffffffffffffffffffffffffff161415610a9f576040517f08c379a0000000000000000000000000000000000000000000000000000000008152600401610a969061173a565b60405180910390fd5b600073ffffffffffffffffffffffffffffffffffffffff168273ffffffffffffffffffffffffffffffffffffffff161415610b0f576040517f08c379a0000000000000000000000000000000000000000000000000000000008152600401610b06906117cc565b60405180910390fd5b80600160008573ffffffffffffffffffffffffffffffffffffffff1673ffffffffffffffffffffffffffffffffffffffff16815260200190815260200160002060008473ffffffffffffffffffffffffffffffffffffffff1673ffffffffffffffffffffffffffffffffffffffff168152602001908152602001600020819055508173ffffffffffffffffffffffffffffffffffffffff168373ffffffffffffffffffffffffffffffffffffffff167f8c5be1e5ebec7d5bd14f71427d1e84f3dd0314c0f7b2291e5b200ac8c7c3b92583604051610bed9190611284565b60405180910390a3505050565b600073ffffffffffffffffffffffffffffffffffffffff168373ffffffffffffffffffffffffffffffffffffffff161415610c6a576040517f08c379a0000000000000000000000000000000000000000000000000000000008152600401610c619061185e565b60405180910390fd5b600073ffffffffffffffffffffffffffffffffffffffff168273ffffffffffffffffffffffffffffffffffffffff161415610cda576040517f08c379a0000000000000000000000000000000000000000000000000000000008152600401610cd1906118f0565b60405180910390fd5b610ce58383836110a1565b60008060008573ffffffffffffffffffffffffffffffffffffffff1673ffffffffffffffffffffffffffffffffffffffff16815260200190815260200160002054905081811015610d6b576040517f08c379a0000000000000000000000000000000000000000000000000000000008152600401610d6290611982565b60405180910390fd5b8181036000808673ffffffffffffffffffffffffffffffffffffffff1673ffffffffffffffffffffffffffffffffffffffff16815260200190815260200160002081905550816000808573ffffffffffffffffffffffffffffffffffffffff1673ffffffffffffffffffffffffffffffffffffffff1681526020019081526020016000206000828254610dfe91906114e2565b925050819055508273ffffffffffffffffffffffffffffffffffffffff168473ffffffffffffffffffffffffffffffffffffffff167fddf252ad1be2c89b69c2b068fc378daa952ba7f163c4a11628f55a4df523b3ef84604051610e629190611284565b60405180910390a3610e758484846110a6565b50505050565b600073ffffffffffffffffffffffffffffffffffffffff168273ffffffffffffffffffffffffffffffffffffffff161415610eeb576040517f08c379a0000000000000000000000000000000000000000000000000000000008152600401610ee2906119ee565b60405180910390fd5b610ef7600083836110a1565b8060026000828254610f0991906114e2565b92505081905550806000808473ffffffffffffffffffffffffffffffffffffffff1673ffffffffffffffffffffffffffffffffffffffff1681526020019081526020016000206000828254610f5e91906114e2565b925050819055508173ffffffffffffffffffffffffffffffffffffffff16600073ffffffffffffffffffffffffffffffffffffffff167fddf252ad1be2c89b69c2b068fc378daa952ba7f163c4a11628f55a4df523b3ef83604051610fc39190611284565b60405180910390a3610fd7600083836110a6565b5050565b6000600560009054906101000a900473ffffffffffffffffffffffffffffffffffffffff16905081600560006101000a81548173ffffffffffffffffffffffffffffffffffffffff021916908373ffffffffffffffffffffffffffffffffffffffff1602179055508173ffffffffffffffffffffffffffffffffffffffff168173ffffffffffffffffffffffffffffffffffffffff167f8be0079c531659141344cd1fd0a4f28419497f9722a3daafe3b4186f6b6457e060405160405180910390a35050565b505050565b505050565b600081519050919050565b600082825260208201905092915050565b60005b838110156110e55780820151818401526020810190506110ca565b838111156110f4576000848401525b50505050565b6000601f19601f8301169050919050565b6000611116826110ab565b61112081856110b6565b93506111308185602086016110c7565b611139816110fa565b840191505092915050565b6000602082019050818103600083015261115e818461110b565b905092915050565b600080fd5b600073ffffffffffffffffffffffffffffffffffffffff82169050919050565b60006111968261116b565b9050919050565b6111a68161118b565b81146111b157600080fd5b50565b6000813590506111c38161119d565b92915050565b6000819050919050565b6111dc816111c9565b81146111e757600080fd5b50565b6000813590506111f9816111d3565b92915050565b6000806040838503121561121657611215611166565b5b6000611224858286016111b4565b9250506020611235858286016111ea565b9150509250929050565b60008115159050919050565b6112548161123f565b82525050565b600060208201905061126f600083018461124b565b92915050565b61127e816111c9565b82525050565b60006020820190506112996000830184611275565b92915050565b6000806000606084860312156112b8576112b7611166565b5b60006112c6868287016111b4565b93505060206112d7868287016111b4565b92505060406112e8868287016111ea565b9150509250925092565b600060ff82169050919050565b611308816112f2565b82525050565b600060208201905061132360008301846112ff565b92915050565b60006020828403121561133f5761133e611166565b5b600061134d848285016111b4565b91505092915050565b61135f8161118b565b82525050565b600060208201905061137a6000830184611356565b92915050565b6000806040838503121561139757611396611166565b5b60006113a5858286016111b4565b92505060206113b6858286016111b4565b9150509250929050565b7f4e487b7100000000000000000000000000000000000000000000000000000000600052602260045260246000fd5b6000600282049050600182168061140757607f821691505b6020821081141561141b5761141a6113c0565b5b50919050565b7f45524332303a207472616e7366657220616d6f756e742065786365656473206160008201527f6c6c6f77616e6365000000000000000000000000000000000000000000000000602082015250565b600061147d6028836110b6565b915061148882611421565b604082019050919050565b600060208201905081810360008301526114ac81611470565b9050919050565b7f4e487b7100000000000000000000000000000000000000000000000000000000600052601160045260246000fd5b60006114ed826111c9565b91506114f8836111c9565b9250827fffffffffffffffffffffffffffffffffffffffffffffffffffffffffffffffff0382111561152d5761152c6114b3565b5b828201905092915050565b7f4f776e61626c653a2063616c6c6572206973206e6f7420746865206f776e6572600082015250565b600061156e6020836110b6565b915061157982611538565b602082019050919050565b6000602082019050818103600083015261159d81611561565b9050919050565b7f45524332303a2064656372656173656420616c6c6f77616e63652062656c6f7760008201527f207a65726f000000000000000000000000000000000000000000000000000000602082015250565b60006116006025836110b6565b915061160b826115a4565b604082019050919050565b6000602082019050818103600083015261162f816115f3565b9050919050565b7f4f776e61626c653a206e6577206f776e657220697320746865207a65726f206160008201527f6464726573730000000000000000000000000000000000000000000000000000602082015250565b60006116926026836110b6565b915061169d82611636565b604082019050919050565b600060208201905081810360008301526116c181611685565b9050919050565b7f45524332303a20617070726f76652066726f6d20746865207a65726f2061646460008201527f7265737300000000000000000000000000000000000000000000000000000000602082015250565b60006117246024836110b6565b915061172f826116c8565b604082019050919050565b6000602082019050818103600083015261175381611717565b9050919050565b7f45524332303a20617070726f766520746f20746865207a65726f20616464726560008201527f7373000000000000000000000000000000000000000000000000000000000000602082015250565b60006117b66022836110b6565b91506117c18261175a565b604082019050919050565b600060208201905081810360008301526117e5816117a9565b9050919050565b7f45524332303a207472616e736665722066726f6d20746865207a65726f20616460008201527f6472657373000000000000000000000000000000000000000000000000000000602082015250565b60006118486025836110b6565b9150611853826117ec565b604082019050919050565b600060208201905081810360008301526118778161183b565b9050919050565b7f45524332303a207472616e7366657220746f20746865207a65726f206164647260008201527f6573730000000000000000000000000000000000000000000000000000000000602082015250565b60006118da6023836110b6565b91506118e58261187e565b604082019050919050565b60006020820190508181036000830152611909816118cd565b9050919050565b7f45524332303a207472616e7366657220616d6f756e742065786365656473206260008201527f616c616e63650000000000000000000000000000000000000000000000000000602082015250565b600061196c6026836110b6565b915061197782611910565b604082019050919050565b6000602082019050818103600083015261199b8161195f565b9050919050565b7f45524332303a206d696e7420746f20746865207a65726f206164647265737300600082015250565b60006119d8601f836110b6565b91506119e3826119a2565b602082019050919050565b60006020820190508181036000830152611a07816119cb565b905091905056fea2646970667358221220f1b6ccad27e771f8f352d9980786cd94db15315be0b08ee8c09449ae6b7764e264736f6c63430008090033",
  "immutableReferences": {},
  "source": "// SPDX-License-Identifier: MIT\r\n\r\npragma solidity ^0.8.0;\r\n\r\nimport \"@openzeppelin/contracts/interfaces/IERC721.sol\";\r\nimport \"@openzeppelin/contracts/access/Ownable.sol\";\r\nimport \"./Interfaces/IStakingInterface.sol\";\r\nimport \"./interfaces/ICollegeCredit.sol\";\r\nimport \"./CollegeCredit.sol\";\r\n\r\ncontract IMDStaking is IStakingInterface, Ownable {\r\n    struct StakedToken {\r\n        uint256 stakeTimestamp;\r\n        address owner;\r\n    }\r\n\r\n    struct StakableTokenAttributes {\r\n        /**\r\n         * The minimum yield per period.\r\n         */\r\n        uint256 minYield;\r\n        /**\r\n         * The maximum yield per period.\r\n         */\r\n        uint256 maxYield;\r\n        /**\r\n         * The amount that yield increases per period.\r\n         */\r\n        uint256 step;\r\n        /**\r\n         * The amount of time needed to earn 1 yield.\r\n         */\r\n        uint256 yieldPeriod;\r\n        /**\r\n         * A mapping from token ids to information about that token's staking.\r\n         */\r\n        mapping(uint256 => StakedToken) stakedTokens;\r\n        /**\r\n         * An array of token ids that are staked.\r\n         * @dev may contain 0 values which should be filtered.\r\n         */\r\n        uint256[] stakedTokenIds;\r\n        /**\r\n         * A mapping of modifiers to rewards for each staker's\r\n         * address.\r\n         */\r\n        mapping(address => int256) rewardModifier;\r\n    }\r\n\r\n    /**\r\n     * A mapping of token addresses to staking configurations.\r\n     */\r\n    mapping(address => StakableTokenAttributes) public stakableTokenAttributes;\r\n    /**\r\n     * An array of stakable ERC721 token addresses.\r\n     */\r\n    address[] stakableTokens;\r\n\r\n    /**\r\n     * The reward token (college credit) to be issued to stakers.\r\n     */\r\n    ICollegeCredit public rewardToken;\r\n\r\n    /**\r\n     * The constructor for the staking contract, builds the initial reward token and stakable token.\r\n     * @param _token the first stakable token address.\r\n     * @param _minYield the minimum yield for the stakable token.\r\n     * @param _maxYield the maximum yield for the stakable token.\r\n     * @param _step the amount yield increases per yield period.\r\n     * @param _yieldPeriod the length (in seconds) of a yield period (the amount of period after which a yield is calculated)\r\n     */\r\n    constructor(\r\n        address _token,\r\n        uint256 _minYield,\r\n        uint256 _maxYield,\r\n        uint256 _step,\r\n        uint256 _yieldPeriod\r\n    ) {\r\n        _addStakableToken(_token, _minYield, _maxYield, _step, _yieldPeriod);\r\n\r\n        rewardToken = new CollegeCredit();\r\n    }\r\n\r\n    /**\r\n     * Mints the reward token to an account.\r\n     * @dev owner only.\r\n     * @param _recipient the recipient of the minted tokens.\r\n     * @param _amount the amount of tokens to mint.\r\n     */\r\n    function mintRewardToken(address _recipient, uint256 _amount)\r\n        external\r\n        onlyOwner\r\n    {\r\n        rewardToken.mint(_recipient, _amount);\r\n    }\r\n\r\n    /**\r\n     * Adds a new token that can be staked in the contract.\r\n     * @param _token the first stakable token address.\r\n     * @param _minYield the minimum yield for the stakable token.\r\n     * @param _maxYield the maximum yield for the stakable token.\r\n     * @param _step the amount yield increases per yield period.\r\n     * @param _yieldPeriod the length (in seconds) of a yield period (the amount of period after which a yield is calculated).\r\n     * @dev owner only, doesn't allow adding already staked tokens.\r\n     */\r\n    function addStakableToken(\r\n        address _token,\r\n        uint256 _minYield,\r\n        uint256 _maxYield,\r\n        uint256 _step,\r\n        uint256 _yieldPeriod\r\n    ) external onlyOwner {\r\n        require(!_isStakable(_token), \"Already exists\");\r\n        _addStakableToken(_token, _minYield, _maxYield, _step, _yieldPeriod);\r\n    }\r\n\r\n    /**\r\n     * Stakes a given token id from a given contract.\r\n     * @param _token the address of the stakable token.\r\n     * @param _tokenId the id of the token to stake.\r\n     * @dev the contract must be approved to transfer that token first.\r\n     *      the address must be a stakable token.\r\n     */\r\n    function stake(address _token, uint256 _tokenId) external {\r\n        require(_isStakable(_token), \"Not stakable\");\r\n        _stakeFor(msg.sender, _token, _tokenId);\r\n    }\r\n\r\n    /**\r\n     * Stakes a given token id from a given contract.\r\n     * @param _user the user from which to transfer the token.\r\n     * @param _token the address of the stakable token.\r\n     * @param _tokenId the id of the token to stake.\r\n     * @dev the contract must be approved to transfer that token first.\r\n     *      the address must be a stakable token.\r\n     */\r\n    function stakeFor(\r\n        address _user,\r\n        address _token,\r\n        uint256 _tokenId\r\n    ) external {\r\n        require(_isStakable(_token), \"Not stakable\");\r\n        _stakeFor(_user, _token, _tokenId);\r\n    }\r\n\r\n    /**\r\n     * Unstakes a given token held by the calling user.\r\n     * @param _token the address of the token contract that the token belongs to.\r\n     * @param _tokenId the id of the token to unstake.\r\n     * @dev reverts if the token is not owned by the caller.\r\n     */\r\n    function unstake(address _token, uint256 _tokenId) external {\r\n        require(_isStakable(_token), \"Not stakable\");\r\n        require(\r\n            stakableTokenAttributes[_token].stakedTokens[_tokenId].owner ==\r\n                msg.sender,\r\n            \"Not owner\"\r\n        );\r\n        _unstake(_token, _tokenId);\r\n    }\r\n\r\n    /**\r\n     * Claims the rewards for the caller.\r\n     * @param _token the token for which we are claiming rewards.\r\n     */\r\n    function claimRewards(address _token) external {\r\n        require(_isStakable(_token), \"Not stakable\");\r\n        _withdrawRewards(msg.sender, _token);\r\n    }\r\n\r\n    /**\r\n     * Gets the College Credit dividend of the provided user.\r\n     * @param _user the user whose dividend we are checking.\r\n     * @param _token the token in which we are checking.\r\n     */\r\n    function dividendOf(address _user, address _token)\r\n        external\r\n        view\r\n        returns (uint256)\r\n    {\r\n        require(_isStakable(_token), \"Not stakable\");\r\n        return _dividendOf(_user, _token);\r\n    }\r\n\r\n    /**\r\n     * Unstakes a given token held by the calling user AND withdraws all dividends.\r\n     * @param _token the address of the token contract that the token belongs to.\r\n     * @param _tokenId the id of the token to unstake.\r\n     * @dev reverts if the token is not owned by the caller.\r\n     */\r\n    function unstakeAndClaimRewards(address _token, uint256 _tokenId) external {\r\n        require(_isStakable(_token), \"Not stakable\");\r\n        require(\r\n            stakableTokenAttributes[_token].stakedTokens[_tokenId].owner ==\r\n                msg.sender,\r\n            \"Not owner\"\r\n        );\r\n        _withdrawRewards(msg.sender, _token);\r\n        _unstake(_token, _tokenId);\r\n    }\r\n\r\n    /**\r\n     * Gets the total amount of tokens staked for the given user in the given contract.\r\n     * @param _user the user whose stakes are being counted.\r\n     * @param _token the address of the contract whose staked tokens we are skimming.\r\n     * @dev reverts if called on an invalid token address.\r\n     */\r\n    function totalStakedFor(address _user, address _token)\r\n        external\r\n        view\r\n        returns (uint256)\r\n    {\r\n        require(_isStakable(_token), \"Not stakable\");\r\n        return _totalStaked(_user, _token);\r\n    }\r\n\r\n    /**\r\n     * Gets the total amount staked for a given token address.\r\n     * @param _token the address to get the amount staked from.\r\n     */\r\n    function totalStaked(address _token) external view returns (uint256) {\r\n        require(_isStakable(_token), \"Not stakable\");\r\n        return _totalStaked(_token);\r\n    }\r\n\r\n    /**\r\n     * Gets all of the token ids that a user has staked from a given contract.\r\n     * @param _user the user whose token ids are being analyzed.\r\n     * @param _token the address of the token contract being analyzed.\r\n     * @return an array of token ids staked by that user.\r\n     * @dev reverts if called on an invalid token address.\r\n     */\r\n    function stakedTokenIds(address _user, address _token)\r\n        external\r\n        view\r\n        returns (uint256[] memory)\r\n    {\r\n        require(_isStakable(_token), \"Not stakable\");\r\n        return _stakedTokenIds(_user, _token);\r\n    }\r\n\r\n    // --------------- INTERNAL FUNCTIONS -----------------\r\n\r\n    /**\r\n     * Gets the total amount staked for a given token address.\r\n     * @param _token the address to get the amount staked from.\r\n     */\r\n    function _totalStaked(address _token) internal view returns (uint256) {\r\n        uint256 result = 0;\r\n        for (\r\n            uint256 i = 0;\r\n            i < stakableTokenAttributes[_token].stakedTokenIds.length;\r\n            i++\r\n        ) {\r\n            if (stakableTokenAttributes[_token].stakedTokenIds[i] != 0)\r\n                result++;\r\n        }\r\n\r\n        return result;\r\n    }\r\n\r\n    /**\r\n     * @return if the given token address is stakable.\r\n     * @param _token the address to a token to query for stakability.\r\n     * @dev does not check if is ERC721, that is up to the user.\r\n     */\r\n    function _isStakable(address _token) internal view returns (bool) {\r\n        return stakableTokenAttributes[_token].maxYield != 0;\r\n    }\r\n\r\n    /**\r\n     * Adds a given token to the list of stakable tokens.\r\n     * @param _token the first stakable token address.\r\n     * @param _minYield the minimum yield for the stakable token.\r\n     * @param _maxYield the maximum yield for the stakable token.\r\n     * @param _step the amount yield increases per yield period.\r\n     * @param _yieldPeriod the length (in seconds) of a yield period (the amount of period after which a yield is calculated).\r\n     * @dev checks constraints to ensure _isStakable works as well as other logic. Does not check if is already stakable.\r\n     */\r\n    function _addStakableToken(\r\n        address _token,\r\n        uint256 _minYield,\r\n        uint256 _maxYield,\r\n        uint256 _step,\r\n        uint256 _yieldPeriod\r\n    ) internal {\r\n        require(_maxYield > 0, \"Invalid max\");\r\n        require(_minYield > 0, \"Invalid min\");\r\n        require(_yieldPeriod > 1 minutes, \"Invalid period\");\r\n\r\n        stakableTokenAttributes[_token].maxYield = _maxYield;\r\n        stakableTokenAttributes[_token].minYield = _minYield;\r\n        stakableTokenAttributes[_token].step = _step;\r\n        stakableTokenAttributes[_token].yieldPeriod = _yieldPeriod;\r\n\r\n        stakableTokens.push(_token);\r\n    }\r\n\r\n    /**\r\n     * Stakes a given token id from a given contract.\r\n     * @param _user the user from which to transfer the token.\r\n     * @param _token the address of the stakable token.\r\n     * @param _tokenId the id of the token to stake.\r\n     * @dev the contract must be approved to transfer that token first.\r\n     *      the address must be a stakable token.\r\n     */\r\n    function _stakeFor(\r\n        address _user,\r\n        address _token,\r\n        uint256 _tokenId\r\n    ) internal {\r\n        IERC721(_token).transferFrom(_user, address(this), _tokenId);\r\n\r\n        stakableTokenAttributes[_token]\r\n            .stakedTokens[_tokenId]\r\n            .stakeTimestamp = block.timestamp;\r\n        stakableTokenAttributes[_token].stakedTokens[_tokenId].owner = _user;\r\n        stakableTokenAttributes[_token].stakedTokenIds.push(_tokenId);\r\n    }\r\n\r\n    /**\r\n     * Retrieves the dividend owed on a particular token with a given timestamp.\r\n     * @param _tokenAttributes the attributes of the token provided.\r\n     * @param _timestamp the timestamp at which the token was staked.\r\n     * @return the dividend owed for that specific token.\r\n     */\r\n    function _tokenDividend(\r\n        StakableTokenAttributes storage _tokenAttributes,\r\n        uint256 _timestamp\r\n    ) internal view returns (uint256) {\r\n        if (_timestamp == 0) return 0;\r\n\r\n        uint256 periods = (block.timestamp - _timestamp) /\r\n            _tokenAttributes.yieldPeriod;\r\n\r\n        uint256 dividend = 0;\r\n        uint256 i = 0;\r\n        for (i; i < periods; i++) {\r\n            uint256 uncappedYield = _tokenAttributes.minYield +\r\n                i *\r\n                _tokenAttributes.step;\r\n\r\n            if (uncappedYield > _tokenAttributes.maxYield) {\r\n                dividend += _tokenAttributes.maxYield;\r\n                i++;\r\n                break;\r\n            }\r\n            dividend += uncappedYield;\r\n        }\r\n\r\n        dividend += (periods - i) * _tokenAttributes.maxYield;\r\n\r\n        return dividend;\r\n    }\r\n\r\n    /**\r\n     * Gets the total amount of tokens staked for the given user in the given contract.\r\n     * @param _user the user whose stakes are being counted.\r\n     * @param _token the address of the contract whose staked tokens we are skimming.\r\n     * @dev does not check if the token address is stakable.\r\n     */\r\n    function _totalStaked(address _user, address _token)\r\n        internal\r\n        view\r\n        returns (uint256)\r\n    {\r\n        uint256 tokenCount = 0;\r\n\r\n        uint256 tokenIdIndex = 0;\r\n        for (\r\n            tokenIdIndex;\r\n            tokenIdIndex <\r\n            stakableTokenAttributes[_token].stakedTokenIds.length;\r\n            tokenIdIndex++\r\n        ) {\r\n            StakedToken memory stakedToken = stakableTokenAttributes[_token]\r\n                .stakedTokens[\r\n                    stakableTokenAttributes[_token].stakedTokenIds[tokenIdIndex]\r\n                ];\r\n\r\n            if (stakedToken.owner == _user) tokenCount++;\r\n        }\r\n\r\n        return tokenCount;\r\n    }\r\n\r\n    /**\r\n     * Gets all of the token ids that a user has staked from a given contract.\r\n     * @param _user the user whose token ids are being analyzed.\r\n     * @param _token the address of the token contract being analyzed.\r\n     * @return an array of token ids staked by that user.\r\n     * @dev does not check if the token address is stakable.\r\n     */\r\n    function _stakedTokenIds(address _user, address _token)\r\n        internal\r\n        view\r\n        returns (uint256[] memory)\r\n    {\r\n        uint256 numStaked = _totalStaked(_user, _token);\r\n        uint256[] memory tokenIds = new uint256[](numStaked);\r\n\r\n        uint256 numFound = 0;\r\n        uint256 tokenIdIndex = 0;\r\n        for (\r\n            tokenIdIndex;\r\n            tokenIdIndex <\r\n            stakableTokenAttributes[_token].stakedTokenIds.length;\r\n            tokenIdIndex++\r\n        ) {\r\n            if (\r\n                stakableTokenAttributes[_token]\r\n                    .stakedTokens[\r\n                        stakableTokenAttributes[_token].stakedTokenIds[\r\n                            tokenIdIndex\r\n                        ]\r\n                    ]\r\n                    .owner == _user\r\n            ) {\r\n                tokenIds[numFound] = stakableTokenAttributes[_token]\r\n                    .stakedTokenIds[tokenIdIndex];\r\n                numFound++;\r\n            }\r\n        }\r\n\r\n        return tokenIds;\r\n    }\r\n\r\n    /**\r\n     * Gets the College Credit dividend of the provided user.\r\n     * @param _user the user whose dividend we are checking.\r\n     * @param _token the token whose dividends we are checking.\r\n     */\r\n    function _dividendOf(address _user, address _token)\r\n        internal\r\n        view\r\n        returns (uint256)\r\n    {\r\n        uint256 dividend = 0;\r\n        uint256 tokenIdIndex = 0;\r\n\r\n        for (\r\n            tokenIdIndex;\r\n            tokenIdIndex <\r\n            stakableTokenAttributes[_token].stakedTokenIds.length;\r\n            tokenIdIndex++\r\n        ) {\r\n            StakedToken memory stakedToken = stakableTokenAttributes[_token]\r\n                .stakedTokens[\r\n                    stakableTokenAttributes[_token].stakedTokenIds[tokenIdIndex]\r\n                ];\r\n\r\n            if (stakedToken.owner != _user) continue;\r\n            dividend += _tokenDividend(\r\n                stakableTokenAttributes[_token],\r\n                stakedToken.stakeTimestamp\r\n            );\r\n        }\r\n\r\n        int256 resultantDividend = int256(dividend) + stakableTokenAttributes[_token].rewardModifier[_user];\r\n        require(resultantDividend >= 0, \"Underflow\");\r\n\r\n        return uint256(resultantDividend);\r\n    }\r\n\r\n    /**\r\n     * Unstakes a given token id.\r\n     * @param _token the address of the token contract that the token belongs to.\r\n     * @param _tokenId the id of the token to unstake.\r\n     * @dev does not check permissions.\r\n     */\r\n    function _unstake(address _token, uint256 _tokenId) internal {\r\n        address owner = stakableTokenAttributes[_token]\r\n            .stakedTokens[_tokenId]\r\n            .owner;\r\n\r\n        // will fail to get dividend if not staked or bad token contract\r\n        uint256 dividend = _tokenDividend(\r\n            stakableTokenAttributes[_token],\r\n            stakableTokenAttributes[_token]\r\n                .stakedTokens[_tokenId]\r\n                .stakeTimestamp\r\n        );\r\n\r\n        stakableTokenAttributes[_token].rewardModifier[owner] += int256(dividend);\r\n        delete stakableTokenAttributes[_token].stakedTokens[_tokenId];\r\n\r\n        for (\r\n            uint256 i = 0;\r\n            i < stakableTokenAttributes[_token].stakedTokenIds.length;\r\n            i++\r\n        ) {\r\n            if (stakableTokenAttributes[_token].stakedTokenIds[i] == _tokenId) {\r\n                delete stakableTokenAttributes[_token].stakedTokenIds[i];\r\n            }\r\n        }\r\n\r\n        IERC721(_token).safeTransferFrom(address(this), owner, _tokenId);\r\n    }\r\n\r\n    /**\r\n     * Claims the dividend for the user.\r\n     * @param _user the user whose rewards are being withdrawn.\r\n     * @param _token the token from which rewards are being withdrawn.\r\n     * @dev does not check is the user has permission to withdraw. Reverts on zero dividend.\r\n     */\r\n    function _withdrawRewards(address _user, address _token) internal {\r\n        uint256 dividend = _dividendOf(_user, _token);\r\n        require(dividend > 0, \"Zero dividend\");\r\n        stakableTokenAttributes[_token].rewardModifier[_user] -= int256(dividend);\r\n\r\n        rewardToken.mint(_user, dividend);\r\n    }\r\n}\r\n",
  "sourcePath": "C:\\Users\\Cory\\source\\repos\\CyberpunkApeExecutives\\contracts\\Staking\\contracts\\IMDStaking.sol",
  "compiler": {
    "name": "solc",
    "version": "0.8.9+commit.e5eed63a.Emscripten.clang"
  },
  "schemaVersion": "3.4.3",
  "updatedAt": "2021-11-29T03:35:52.458Z",
  "devdoc": {
    "kind": "dev",
    "methods": {
      "addStakableToken(address,uint256,uint256,uint256,uint256)": {
        "details": "owner only, doesn't allow adding already staked tokens.",
        "params": {
          "_maxYield": "the maximum yield for the stakable token.",
          "_minYield": "the minimum yield for the stakable token.",
          "_step": "the amount yield increases per yield period.",
          "_token": "the first stakable token address.",
          "_yieldPeriod": "the length (in seconds) of a yield period (the amount of period after which a yield is calculated)."
        }
      },
      "claimRewards(address)": {
        "params": {
          "_token": "the token for which we are claiming rewards."
        }
      },
      "constructor": {
        "params": {
          "_maxYield": "the maximum yield for the stakable token.",
          "_minYield": "the minimum yield for the stakable token.",
          "_step": "the amount yield increases per yield period.",
          "_token": "the first stakable token address.",
          "_yieldPeriod": "the length (in seconds) of a yield period (the amount of period after which a yield is calculated)"
        }
      },
      "dividendOf(address,address)": {
        "params": {
          "_token": "the token in which we are checking.",
          "_user": "the user whose dividend we are checking."
        }
      },
      "mintRewardToken(address,uint256)": {
        "details": "owner only.",
        "params": {
          "_amount": "the amount of tokens to mint.",
          "_recipient": "the recipient of the minted tokens."
        }
      },
      "owner()": {
        "details": "Returns the address of the current owner."
      },
      "renounceOwnership()": {
        "details": "Leaves the contract without owner. It will not be possible to call `onlyOwner` functions anymore. Can only be called by the current owner. NOTE: Renouncing ownership will leave the contract without an owner, thereby removing any functionality that is only available to the owner."
      },
      "stake(address,uint256)": {
        "details": "the contract must be approved to transfer that token first.      the address must be a stakable token.",
        "params": {
          "_token": "the address of the stakable token.",
          "_tokenId": "the id of the token to stake."
        }
      },
      "stakeFor(address,address,uint256)": {
        "details": "the contract must be approved to transfer that token first.      the address must be a stakable token.",
        "params": {
          "_token": "the address of the stakable token.",
          "_tokenId": "the id of the token to stake.",
          "_user": "the user from which to transfer the token."
        }
      },
      "stakedTokenIds(address,address)": {
        "details": "reverts if called on an invalid token address.",
        "params": {
          "_token": "the address of the token contract being analyzed.",
          "_user": "the user whose token ids are being analyzed."
        },
        "returns": {
          "_0": "an array of token ids staked by that user."
        }
      },
      "totalStaked(address)": {
        "params": {
          "_token": "the address to get the amount staked from."
        }
      },
      "totalStakedFor(address,address)": {
        "details": "reverts if called on an invalid token address.",
        "params": {
          "_token": "the address of the contract whose staked tokens we are skimming.",
          "_user": "the user whose stakes are being counted."
        }
      },
      "transferOwnership(address)": {
        "details": "Transfers ownership of the contract to a new account (`newOwner`). Can only be called by the current owner."
      },
      "unstake(address,uint256)": {
        "details": "reverts if the token is not owned by the caller.",
        "params": {
          "_token": "the address of the token contract that the token belongs to.",
          "_tokenId": "the id of the token to unstake."
        }
      },
      "unstakeAndClaimRewards(address,uint256)": {
        "details": "reverts if the token is not owned by the caller.",
        "params": {
          "_token": "the address of the token contract that the token belongs to.",
          "_tokenId": "the id of the token to unstake."
        }
      }
    },
    "version": 1
  },
  "userdoc": {
    "kind": "user",
    "methods": {
      "addStakableToken(address,uint256,uint256,uint256,uint256)": {
        "notice": "Adds a new token that can be staked in the contract."
      },
      "claimRewards(address)": {
        "notice": "Claims the rewards for the caller."
      },
      "constructor": {
        "notice": "The constructor for the staking contract, builds the initial reward token and stakable token."
      },
      "dividendOf(address,address)": {
        "notice": "Gets the College Credit dividend of the provided user."
      },
      "mintRewardToken(address,uint256)": {
        "notice": "Mints the reward token to an account."
      },
      "rewardToken()": {
        "notice": "The reward token (college credit) to be issued to stakers."
      },
      "stakableTokenAttributes(address)": {
        "notice": "A mapping of token addresses to staking configurations."
      },
      "stake(address,uint256)": {
        "notice": "Stakes a given token id from a given contract."
      },
      "stakeFor(address,address,uint256)": {
        "notice": "Stakes a given token id from a given contract."
      },
      "stakedTokenIds(address,address)": {
        "notice": "Gets all of the token ids that a user has staked from a given contract."
      },
      "totalStaked(address)": {
        "notice": "Gets the total amount staked for a given token address."
      },
      "totalStakedFor(address,address)": {
        "notice": "Gets the total amount of tokens staked for the given user in the given contract."
      },
      "unstake(address,uint256)": {
        "notice": "Unstakes a given token held by the calling user."
      },
      "unstakeAndClaimRewards(address,uint256)": {
        "notice": "Unstakes a given token held by the calling user AND withdraws all dividends."
      }
    },
    "version": 1
  }
}