{
  "contractName": "IMDStaking",
  "abi": [
    {
      "inputs": [
        {
          "internalType": "address",
          "name": "_token",
          "type": "address"
        },
        {
          "internalType": "uint256",
          "name": "_minYield",
          "type": "uint256"
        },
        {
          "internalType": "uint256",
          "name": "_maxYield",
          "type": "uint256"
        },
        {
          "internalType": "uint256",
          "name": "_step",
          "type": "uint256"
        },
        {
          "internalType": "uint256",
          "name": "_yieldPeriod",
          "type": "uint256"
        }
      ],
      "stateMutability": "nonpayable",
      "type": "constructor"
    },
    {
      "anonymous": false,
      "inputs": [
        {
          "indexed": true,
          "internalType": "address",
          "name": "previousOwner",
          "type": "address"
        },
        {
          "indexed": true,
          "internalType": "address",
          "name": "newOwner",
          "type": "address"
        }
      ],
      "name": "OwnershipTransferred",
      "type": "event"
    },
    {
      "inputs": [],
      "name": "owner",
      "outputs": [
        {
          "internalType": "address",
          "name": "",
          "type": "address"
        }
      ],
      "stateMutability": "view",
      "type": "function"
    },
    {
      "inputs": [],
      "name": "renounceOwnership",
      "outputs": [],
      "stateMutability": "nonpayable",
      "type": "function"
    },
    {
      "inputs": [],
      "name": "rewardToken",
      "outputs": [
        {
          "internalType": "contract ICollegeCredit",
          "name": "",
          "type": "address"
        }
      ],
      "stateMutability": "view",
      "type": "function"
    },
    {
      "inputs": [
        {
          "internalType": "address",
          "name": "",
          "type": "address"
        }
      ],
      "name": "stakableTokenAttributes",
      "outputs": [
        {
          "internalType": "uint256",
          "name": "minYield",
          "type": "uint256"
        },
        {
          "internalType": "uint256",
          "name": "maxYield",
          "type": "uint256"
        },
        {
          "internalType": "uint256",
          "name": "step",
          "type": "uint256"
        },
        {
          "internalType": "uint256",
          "name": "yieldPeriod",
          "type": "uint256"
        }
      ],
      "stateMutability": "view",
      "type": "function"
    },
    {
      "inputs": [
        {
          "internalType": "address",
          "name": "newOwner",
          "type": "address"
        }
      ],
      "name": "transferOwnership",
      "outputs": [],
      "stateMutability": "nonpayable",
      "type": "function"
    },
    {
      "inputs": [
        {
          "internalType": "address",
          "name": "_recipient",
          "type": "address"
        },
        {
          "internalType": "uint256",
          "name": "_amount",
          "type": "uint256"
        }
      ],
      "name": "mintRewardToken",
      "outputs": [],
      "stateMutability": "nonpayable",
      "type": "function"
    },
    {
      "inputs": [
        {
          "internalType": "address",
          "name": "_token",
          "type": "address"
        },
        {
          "internalType": "uint256",
          "name": "_minYield",
          "type": "uint256"
        },
        {
          "internalType": "uint256",
          "name": "_maxYield",
          "type": "uint256"
        },
        {
          "internalType": "uint256",
          "name": "_step",
          "type": "uint256"
        },
        {
          "internalType": "uint256",
          "name": "_yieldPeriod",
          "type": "uint256"
        }
      ],
      "name": "addStakableToken",
      "outputs": [],
      "stateMutability": "nonpayable",
      "type": "function"
    },
    {
      "inputs": [
        {
          "internalType": "address",
          "name": "_token",
          "type": "address"
        },
        {
          "internalType": "uint256",
          "name": "_tokenId",
          "type": "uint256"
        }
      ],
      "name": "stake",
      "outputs": [],
      "stateMutability": "nonpayable",
      "type": "function"
    },
    {
      "inputs": [
        {
          "internalType": "address",
          "name": "_token",
          "type": "address"
        },
        {
          "internalType": "uint256[]",
          "name": "_tokenIds",
          "type": "uint256[]"
        }
      ],
      "name": "stakeMany",
      "outputs": [],
      "stateMutability": "nonpayable",
      "type": "function"
    },
    {
      "inputs": [
        {
          "internalType": "address",
          "name": "_token",
          "type": "address"
        },
        {
          "internalType": "uint256",
          "name": "_tokenId",
          "type": "uint256"
        }
      ],
      "name": "unstake",
      "outputs": [],
      "stateMutability": "nonpayable",
      "type": "function"
    },
    {
      "inputs": [
        {
          "internalType": "address",
          "name": "_token",
          "type": "address"
        },
        {
          "internalType": "uint256[]",
          "name": "_tokenIds",
          "type": "uint256[]"
        }
      ],
      "name": "unstakeMany",
      "outputs": [],
      "stateMutability": "nonpayable",
      "type": "function"
    },
    {
      "inputs": [
        {
          "internalType": "address",
          "name": "_token",
          "type": "address"
        }
      ],
      "name": "claimRewards",
      "outputs": [],
      "stateMutability": "nonpayable",
      "type": "function"
    },
    {
      "inputs": [
        {
          "internalType": "address",
          "name": "_user",
          "type": "address"
        },
        {
          "internalType": "address",
          "name": "_token",
          "type": "address"
        }
      ],
      "name": "dividendOf",
      "outputs": [
        {
          "internalType": "uint256",
          "name": "",
          "type": "uint256"
        }
      ],
      "stateMutability": "view",
      "type": "function"
    },
    {
      "inputs": [
        {
          "internalType": "address",
          "name": "_token",
          "type": "address"
        },
        {
          "internalType": "uint256",
          "name": "_tokenId",
          "type": "uint256"
        }
      ],
      "name": "unstakeAndClaimRewards",
      "outputs": [],
      "stateMutability": "nonpayable",
      "type": "function"
    },
    {
      "inputs": [
        {
          "internalType": "address",
          "name": "_token",
          "type": "address"
        },
        {
          "internalType": "uint256[]",
          "name": "_tokenIds",
          "type": "uint256[]"
        }
      ],
      "name": "unstakeManyAndClaimRewards",
      "outputs": [],
      "stateMutability": "nonpayable",
      "type": "function"
    },
    {
      "inputs": [
        {
          "internalType": "address",
          "name": "_user",
          "type": "address"
        },
        {
          "internalType": "address",
          "name": "_token",
          "type": "address"
        }
      ],
      "name": "totalStakedFor",
      "outputs": [
        {
          "internalType": "uint256",
          "name": "",
          "type": "uint256"
        }
      ],
      "stateMutability": "view",
      "type": "function"
    },
    {
      "inputs": [
        {
          "internalType": "address",
          "name": "_token",
          "type": "address"
        }
      ],
      "name": "totalStaked",
      "outputs": [
        {
          "internalType": "uint256",
          "name": "",
          "type": "uint256"
        }
      ],
      "stateMutability": "view",
      "type": "function"
    },
    {
      "inputs": [
        {
          "internalType": "address",
          "name": "_user",
          "type": "address"
        },
        {
          "internalType": "address",
          "name": "_token",
          "type": "address"
        }
      ],
      "name": "stakedTokenIds",
      "outputs": [
        {
          "internalType": "uint256[]",
          "name": "",
          "type": "uint256[]"
        }
      ],
      "stateMutability": "view",
      "type": "function"
    }
  ],
  "bytecode": "0x60806040523480156200001157600080fd5b50604051620053dd380380620053dd8339818101604052810190620000379190620004ba565b620000576200004b620000e360201b60201c565b620000eb60201b60201c565b6200006c8585858585620001af60201b60201c565b6040516200007a9062000407565b604051809103906000f08015801562000097573d6000803e3d6000fd5b50600160006101000a81548173ffffffffffffffffffffffffffffffffffffffff021916908373ffffffffffffffffffffffffffffffffffffffff1602179055505050505050620006a9565b600033905090565b60008060009054906101000a900473ffffffffffffffffffffffffffffffffffffffff169050816000806101000a81548173ffffffffffffffffffffffffffffffffffffffff021916908373ffffffffffffffffffffffffffffffffffffffff1602179055508173ffffffffffffffffffffffffffffffffffffffff168173ffffffffffffffffffffffffffffffffffffffff167f8be0079c531659141344cd1fd0a4f28419497f9722a3daafe3b4186f6b6457e060405160405180910390a35050565b60008311620001f5576040517f08c379a0000000000000000000000000000000000000000000000000000000008152600401620001ec90620005a3565b60405180910390fd5b600084116200023b576040517f08c379a0000000000000000000000000000000000000000000000000000000008152600401620002329062000615565b60405180910390fd5b603c811162000281576040517f08c379a0000000000000000000000000000000000000000000000000000000008152600401620002789062000687565b60405180910390fd5b82600260008773ffffffffffffffffffffffffffffffffffffffff1673ffffffffffffffffffffffffffffffffffffffff1681526020019081526020016000206001018190555083600260008773ffffffffffffffffffffffffffffffffffffffff1673ffffffffffffffffffffffffffffffffffffffff1681526020019081526020016000206000018190555081600260008773ffffffffffffffffffffffffffffffffffffffff1673ffffffffffffffffffffffffffffffffffffffff1681526020019081526020016000206002018190555080600260008773ffffffffffffffffffffffffffffffffffffffff1673ffffffffffffffffffffffffffffffffffffffff168152602001908152602001600020600301819055506003859080600181540180825580915050600190039060005260206000200160009091909190916101000a81548173ffffffffffffffffffffffffffffffffffffffff021916908373ffffffffffffffffffffffffffffffffffffffff1602179055505050505050565b611d0f80620036ce83390190565b600080fd5b600073ffffffffffffffffffffffffffffffffffffffff82169050919050565b600062000447826200041a565b9050919050565b62000459816200043a565b81146200046557600080fd5b50565b60008151905062000479816200044e565b92915050565b6000819050919050565b62000494816200047f565b8114620004a057600080fd5b50565b600081519050620004b48162000489565b92915050565b600080600080600060a08688031215620004d957620004d862000415565b5b6000620004e98882890162000468565b9550506020620004fc88828901620004a3565b94505060406200050f88828901620004a3565b93505060606200052288828901620004a3565b92505060806200053588828901620004a3565b9150509295509295909350565b600082825260208201905092915050565b7f496e76616c6964206d6178000000000000000000000000000000000000000000600082015250565b60006200058b600b8362000542565b9150620005988262000553565b602082019050919050565b60006020820190508181036000830152620005be816200057c565b9050919050565b7f496e76616c6964206d696e000000000000000000000000000000000000000000600082015250565b6000620005fd600b8362000542565b91506200060a82620005c5565b602082019050919050565b600060208201905081810360008301526200063081620005ee565b9050919050565b7f496e76616c696420706572696f64000000000000000000000000000000000000600082015250565b60006200066f600e8362000542565b91506200067c8262000637565b602082019050919050565b60006020820190508181036000830152620006a28162000660565b9050919050565b61301580620006b96000396000f3fe608060405234801561001057600080fd5b50600436106101165760003560e01c8063adc9772e116100a2578063e3f3be9a11610071578063e3f3be9a146102c7578063ef5cfb8c146102e3578063f2fde38b146102ff578063f5a097cd1461031b578063f7c618c11461034e57610116565b8063adc9772e14610243578063c2a672e01461025f578063cb83bcd61461027b578063db2ee2b0146102ab57610116565b806365d8dded116100e957806365d8dded1461019f578063715018a6146101cf5780638da5cb5b146101d95780639bfd8d61146101f7578063ac613b5c1461022757610116565b80631ddec53b1461011b5780632cc205d91461013757806359a6318e146101675780636382226314610183575b600080fd5b610135600480360381019061013091906123e4565b61036c565b005b610151600480360381019061014c919061245f565b610445565b60405161015e91906124ae565b60405180910390f35b610181600480360381019061017c919061252e565b6104a1565b005b61019d6004803603810190610198919061252e565b610534565b005b6101b960048036038101906101b4919061245f565b6106c3565b6040516101c6919061264c565b60405180910390f35b6101d761071f565b005b6101e16107a7565b6040516101ee919061267d565b60405180910390f35b610211600480360381019061020c9190612698565b6107d0565b60405161021e91906124ae565b60405180910390f35b610241600480360381019061023c91906126c5565b61082a565b005b61025d600480360381019061025891906126c5565b61096e565b005b610279600480360381019061027491906126c5565b6109c5565b005b6102956004803603810190610290919061245f565b610aff565b6040516102a291906124ae565b60405180910390f35b6102c560048036038101906102c091906126c5565b610b5b565b005b6102e160048036038101906102dc919061252e565b610c6a565b005b6102fd60048036038101906102f89190612698565b610e03565b005b61031960048036038101906103149190612698565b610e58565b005b61033560048036038101906103309190612698565b610f50565b6040516103459493929190612705565b60405180910390f35b610356610f80565b60405161036391906127a9565b60405180910390f35b610374610fa6565b73ffffffffffffffffffffffffffffffffffffffff166103926107a7565b73ffffffffffffffffffffffffffffffffffffffff16146103e8576040517f08c379a00000000000000000000000000000000000000000000000000000000081526004016103df90612821565b60405180910390fd5b6103f185610fae565b15610431576040517f08c379a00000000000000000000000000000000000000000000000000000000081526004016104289061288d565b60405180910390fd5b61043e8585858585610ffd565b5050505050565b600061045082610fae565b61048f576040517f08c379a0000000000000000000000000000000000000000000000000000000008152600401610486906128f9565b60405180910390fd5b610499838361124c565b905092915050565b6104aa83610fae565b6104e9576040517f08c379a00000000000000000000000000000000000000000000000000000000081526004016104e0906128f9565b60405180910390fd5b60005b8282905081101561052e5761051b338585858581811061050f5761050e612919565b5b90506020020135611429565b808061052690612977565b9150506104ec565b50505050565b61053d83610fae565b61057c576040517f08c379a0000000000000000000000000000000000000000000000000000000008152600401610573906128f9565b60405180910390fd5b60005b828290508110156106bd573373ffffffffffffffffffffffffffffffffffffffff16600260008673ffffffffffffffffffffffffffffffffffffffff1673ffffffffffffffffffffffffffffffffffffffff16815260200190815260200160002060040160008585858181106105f8576105f7612919565b5b90506020020135815260200190815260200160002060010160009054906101000a900473ffffffffffffffffffffffffffffffffffffffff1673ffffffffffffffffffffffffffffffffffffffff1614610687576040517f08c379a000000000000000000000000000000000000000000000000000000000815260040161067e90612a0c565b60405180910390fd5b6106aa8484848481811061069e5761069d612919565b5b905060200201356115f6565b80806106b590612977565b91505061057f565b50505050565b60606106ce82610fae565b61070d576040517f08c379a0000000000000000000000000000000000000000000000000000000008152600401610704906128f9565b60405180910390fd5b61071783836119d0565b905092915050565b610727610fa6565b73ffffffffffffffffffffffffffffffffffffffff166107456107a7565b73ffffffffffffffffffffffffffffffffffffffff161461079b576040517f08c379a000000000000000000000000000000000000000000000000000000000815260040161079290612821565b60405180910390fd5b6107a56000611c33565b565b60008060009054906101000a900473ffffffffffffffffffffffffffffffffffffffff16905090565b60006107db82610fae565b61081a576040517f08c379a0000000000000000000000000000000000000000000000000000000008152600401610811906128f9565b60405180910390fd5b61082382611cf7565b9050919050565b61083382610fae565b610872576040517f08c379a0000000000000000000000000000000000000000000000000000000008152600401610869906128f9565b60405180910390fd5b3373ffffffffffffffffffffffffffffffffffffffff16600260008473ffffffffffffffffffffffffffffffffffffffff1673ffffffffffffffffffffffffffffffffffffffff168152602001908152602001600020600401600083815260200190815260200160002060010160009054906101000a900473ffffffffffffffffffffffffffffffffffffffff1673ffffffffffffffffffffffffffffffffffffffff1614610956576040517f08c379a000000000000000000000000000000000000000000000000000000000815260040161094d90612a0c565b60405180910390fd5b6109603383611de0565b61096a82826115f6565b5050565b61097782610fae565b6109b6576040517f08c379a00000000000000000000000000000000000000000000000000000000081526004016109ad906128f9565b60405180910390fd5b6109c1338383611429565b5050565b6109ce82610fae565b610a0d576040517f08c379a0000000000000000000000000000000000000000000000000000000008152600401610a04906128f9565b60405180910390fd5b3373ffffffffffffffffffffffffffffffffffffffff16600260008473ffffffffffffffffffffffffffffffffffffffff1673ffffffffffffffffffffffffffffffffffffffff168152602001908152602001600020600401600083815260200190815260200160002060010160009054906101000a900473ffffffffffffffffffffffffffffffffffffffff1673ffffffffffffffffffffffffffffffffffffffff1614610af1576040517f08c379a0000000000000000000000000000000000000000000000000000000008152600401610ae890612a0c565b60405180910390fd5b610afb82826115f6565b5050565b6000610b0a82610fae565b610b49576040517f08c379a0000000000000000000000000000000000000000000000000000000008152600401610b40906128f9565b60405180910390fd5b610b538383611f5b565b905092915050565b610b63610fa6565b73ffffffffffffffffffffffffffffffffffffffff16610b816107a7565b73ffffffffffffffffffffffffffffffffffffffff1614610bd7576040517f08c379a0000000000000000000000000000000000000000000000000000000008152600401610bce90612821565b60405180910390fd5b600160009054906101000a900473ffffffffffffffffffffffffffffffffffffffff1673ffffffffffffffffffffffffffffffffffffffff166340c10f1983836040518363ffffffff1660e01b8152600401610c34929190612a2c565b600060405180830381600087803b158015610c4e57600080fd5b505af1158015610c62573d6000803e3d6000fd5b505050505050565b610c7383610fae565b610cb2576040517f08c379a0000000000000000000000000000000000000000000000000000000008152600401610ca9906128f9565b60405180910390fd5b60005b82829050811015610df3573373ffffffffffffffffffffffffffffffffffffffff16600260008673ffffffffffffffffffffffffffffffffffffffff1673ffffffffffffffffffffffffffffffffffffffff1681526020019081526020016000206004016000858585818110610d2e57610d2d612919565b5b90506020020135815260200190815260200160002060010160009054906101000a900473ffffffffffffffffffffffffffffffffffffffff1673ffffffffffffffffffffffffffffffffffffffff1614610dbd576040517f08c379a0000000000000000000000000000000000000000000000000000000008152600401610db490612a0c565b60405180910390fd5b610de084848484818110610dd457610dd3612919565b5b905060200201356115f6565b8080610deb90612977565b915050610cb5565b50610dfe3384611de0565b505050565b610e0c81610fae565b610e4b576040517f08c379a0000000000000000000000000000000000000000000000000000000008152600401610e42906128f9565b60405180910390fd5b610e553382611de0565b50565b610e60610fa6565b73ffffffffffffffffffffffffffffffffffffffff16610e7e6107a7565b73ffffffffffffffffffffffffffffffffffffffff1614610ed4576040517f08c379a0000000000000000000000000000000000000000000000000000000008152600401610ecb90612821565b60405180910390fd5b600073ffffffffffffffffffffffffffffffffffffffff168173ffffffffffffffffffffffffffffffffffffffff161415610f44576040517f08c379a0000000000000000000000000000000000000000000000000000000008152600401610f3b90612ac7565b60405180910390fd5b610f4d81611c33565b50565b60026020528060005260406000206000915090508060000154908060010154908060020154908060030154905084565b600160009054906101000a900473ffffffffffffffffffffffffffffffffffffffff1681565b600033905090565b600080600260008473ffffffffffffffffffffffffffffffffffffffff1673ffffffffffffffffffffffffffffffffffffffff1681526020019081526020016000206001015414159050919050565b60008311611040576040517f08c379a000000000000000000000000000000000000000000000000000000000815260040161103790612b33565b60405180910390fd5b60008411611083576040517f08c379a000000000000000000000000000000000000000000000000000000000815260040161107a90612b9f565b60405180910390fd5b603c81116110c6576040517f08c379a00000000000000000000000000000000000000000000000000000000081526004016110bd90612c0b565b60405180910390fd5b82600260008773ffffffffffffffffffffffffffffffffffffffff1673ffffffffffffffffffffffffffffffffffffffff1681526020019081526020016000206001018190555083600260008773ffffffffffffffffffffffffffffffffffffffff1673ffffffffffffffffffffffffffffffffffffffff1681526020019081526020016000206000018190555081600260008773ffffffffffffffffffffffffffffffffffffffff1673ffffffffffffffffffffffffffffffffffffffff1681526020019081526020016000206002018190555080600260008773ffffffffffffffffffffffffffffffffffffffff1673ffffffffffffffffffffffffffffffffffffffff168152602001908152602001600020600301819055506003859080600181540180825580915050600190039060005260206000200160009091909190916101000a81548173ffffffffffffffffffffffffffffffffffffffff021916908373ffffffffffffffffffffffffffffffffffffffff1602179055505050505050565b6000806000905060005b600260008573ffffffffffffffffffffffffffffffffffffffff1673ffffffffffffffffffffffffffffffffffffffff1681526020019081526020016000206006018054905081101561141e576000600260008673ffffffffffffffffffffffffffffffffffffffff1673ffffffffffffffffffffffffffffffffffffffff1681526020019081526020016000206004016000600260008873ffffffffffffffffffffffffffffffffffffffff1673ffffffffffffffffffffffffffffffffffffffff168152602001908152602001600020600601848154811061133d5761133c612919565b5b90600052602060002001548152602001908152602001600020604051806040016040529081600082015481526020016001820160009054906101000a900473ffffffffffffffffffffffffffffffffffffffff1673ffffffffffffffffffffffffffffffffffffffff1673ffffffffffffffffffffffffffffffffffffffff168152505090508573ffffffffffffffffffffffffffffffffffffffff16816020015173ffffffffffffffffffffffffffffffffffffffff16141561140a57828061140690612977565b9350505b50808061141690612977565b915050611256565b819250505092915050565b8173ffffffffffffffffffffffffffffffffffffffff166323b872dd8430846040518463ffffffff1660e01b815260040161146693929190612c2b565b600060405180830381600087803b15801561148057600080fd5b505af1158015611494573d6000803e3d6000fd5b5050505042600260008473ffffffffffffffffffffffffffffffffffffffff1673ffffffffffffffffffffffffffffffffffffffff16815260200190815260200160002060040160008381526020019081526020016000206000018190555082600260008473ffffffffffffffffffffffffffffffffffffffff1673ffffffffffffffffffffffffffffffffffffffff168152602001908152602001600020600401600083815260200190815260200160002060010160006101000a81548173ffffffffffffffffffffffffffffffffffffffff021916908373ffffffffffffffffffffffffffffffffffffffff160217905550600260008373ffffffffffffffffffffffffffffffffffffffff1673ffffffffffffffffffffffffffffffffffffffff168152602001908152602001600020600601819080600181540180825580915050600190039060005260206000200160009091909190915055505050565b6000600260008473ffffffffffffffffffffffffffffffffffffffff1673ffffffffffffffffffffffffffffffffffffffff168152602001908152602001600020600401600083815260200190815260200160002060010160009054906101000a900473ffffffffffffffffffffffffffffffffffffffff1690506000611711600260008673ffffffffffffffffffffffffffffffffffffffff1673ffffffffffffffffffffffffffffffffffffffff168152602001908152602001600020600260008773ffffffffffffffffffffffffffffffffffffffff1673ffffffffffffffffffffffffffffffffffffffff16815260200190815260200160002060040160008681526020019081526020016000206000015461225c565b905080600260008673ffffffffffffffffffffffffffffffffffffffff1673ffffffffffffffffffffffffffffffffffffffff16815260200190815260200160002060050160008473ffffffffffffffffffffffffffffffffffffffff1673ffffffffffffffffffffffffffffffffffffffff16815260200190815260200160002060008282546117a29190612c6c565b92505081905550600260008573ffffffffffffffffffffffffffffffffffffffff1673ffffffffffffffffffffffffffffffffffffffff16815260200190815260200160002060040160008481526020019081526020016000206000808201600090556001820160006101000a81549073ffffffffffffffffffffffffffffffffffffffff0219169055505060005b600260008673ffffffffffffffffffffffffffffffffffffffff1673ffffffffffffffffffffffffffffffffffffffff1681526020019081526020016000206006018054905081101561195a5783600260008773ffffffffffffffffffffffffffffffffffffffff1673ffffffffffffffffffffffffffffffffffffffff16815260200190815260200160002060060182815481106118d3576118d2612919565b5b9060005260206000200154141561194757600260008673ffffffffffffffffffffffffffffffffffffffff1673ffffffffffffffffffffffffffffffffffffffff168152602001908152602001600020600601818154811061193857611937612919565b5b90600052602060002001600090555b808061195290612977565b915050611831565b508373ffffffffffffffffffffffffffffffffffffffff166342842e0e3084866040518463ffffffff1660e01b815260040161199893929190612c2b565b600060405180830381600087803b1580156119b257600080fd5b505af11580156119c6573d6000803e3d6000fd5b5050505050505050565b606060006119de848461124c565b905060008167ffffffffffffffff8111156119fc576119fb612d00565b5b604051908082528060200260200182016040528015611a2a5781602001602082028036833780820191505090505b5090506000805b600260008773ffffffffffffffffffffffffffffffffffffffff1673ffffffffffffffffffffffffffffffffffffffff16815260200190815260200160002060060180549050811015611c26578673ffffffffffffffffffffffffffffffffffffffff16600260008873ffffffffffffffffffffffffffffffffffffffff1673ffffffffffffffffffffffffffffffffffffffff1681526020019081526020016000206004016000600260008a73ffffffffffffffffffffffffffffffffffffffff1673ffffffffffffffffffffffffffffffffffffffff1681526020019081526020016000206006018481548110611b2d57611b2c612919565b5b9060005260206000200154815260200190815260200160002060010160009054906101000a900473ffffffffffffffffffffffffffffffffffffffff1673ffffffffffffffffffffffffffffffffffffffff161415611c1357600260008773ffffffffffffffffffffffffffffffffffffffff1673ffffffffffffffffffffffffffffffffffffffff1681526020019081526020016000206006018181548110611bda57611bd9612919565b5b9060005260206000200154838381518110611bf857611bf7612919565b5b6020026020010181815250508180611c0f90612977565b9250505b8080611c1e90612977565b915050611a31565b8294505050505092915050565b60008060009054906101000a900473ffffffffffffffffffffffffffffffffffffffff169050816000806101000a81548173ffffffffffffffffffffffffffffffffffffffff021916908373ffffffffffffffffffffffffffffffffffffffff1602179055508173ffffffffffffffffffffffffffffffffffffffff168173ffffffffffffffffffffffffffffffffffffffff167f8be0079c531659141344cd1fd0a4f28419497f9722a3daafe3b4186f6b6457e060405160405180910390a35050565b6000806000905060005b600260008573ffffffffffffffffffffffffffffffffffffffff1673ffffffffffffffffffffffffffffffffffffffff16815260200190815260200160002060060180549050811015611dd6576000600260008673ffffffffffffffffffffffffffffffffffffffff1673ffffffffffffffffffffffffffffffffffffffff1681526020019081526020016000206006018281548110611da457611da3612919565b5b906000526020600020015414611dc3578180611dbf90612977565b9250505b8080611dce90612977565b915050611d01565b5080915050919050565b6000611dec8383611f5b565b905060008111611e31576040517f08c379a0000000000000000000000000000000000000000000000000000000008152600401611e2890612d7b565b60405180910390fd5b80600260008473ffffffffffffffffffffffffffffffffffffffff1673ffffffffffffffffffffffffffffffffffffffff16815260200190815260200160002060050160008573ffffffffffffffffffffffffffffffffffffffff1673ffffffffffffffffffffffffffffffffffffffff1681526020019081526020016000206000828254611ec09190612d9b565b92505081905550600160009054906101000a900473ffffffffffffffffffffffffffffffffffffffff1673ffffffffffffffffffffffffffffffffffffffff166340c10f1984836040518363ffffffff1660e01b8152600401611f24929190612a2c565b600060405180830381600087803b158015611f3e57600080fd5b505af1158015611f52573d6000803e3d6000fd5b50505050505050565b6000806000905060005b600260008573ffffffffffffffffffffffffffffffffffffffff1673ffffffffffffffffffffffffffffffffffffffff1681526020019081526020016000206006018054905081101561217d576000600260008673ffffffffffffffffffffffffffffffffffffffff1673ffffffffffffffffffffffffffffffffffffffff1681526020019081526020016000206004016000600260008873ffffffffffffffffffffffffffffffffffffffff1673ffffffffffffffffffffffffffffffffffffffff168152602001908152602001600020600601848154811061204c5761204b612919565b5b90600052602060002001548152602001908152602001600020604051806040016040529081600082015481526020016001820160009054906101000a900473ffffffffffffffffffffffffffffffffffffffff1673ffffffffffffffffffffffffffffffffffffffff1673ffffffffffffffffffffffffffffffffffffffff168152505090508573ffffffffffffffffffffffffffffffffffffffff16816020015173ffffffffffffffffffffffffffffffffffffffff161461210f575061216a565b61215b600260008773ffffffffffffffffffffffffffffffffffffffff1673ffffffffffffffffffffffffffffffffffffffff168152602001908152602001600020826000015161225c565b836121669190612e2f565b9250505b808061217590612977565b915050611f65565b6000600260008673ffffffffffffffffffffffffffffffffffffffff1673ffffffffffffffffffffffffffffffffffffffff16815260200190815260200160002060050160008773ffffffffffffffffffffffffffffffffffffffff1673ffffffffffffffffffffffffffffffffffffffff168152602001908152602001600020548361220a9190612c6c565b90506000811215612250576040517f08c379a000000000000000000000000000000000000000000000000000000000815260040161224790612ed1565b60405180910390fd5b80935050505092915050565b60008082141561226f5760009050612340565b6000836003015483426122829190612ef1565b61228c9190612f54565b90506000805b828110156123115760008660020154826122ac9190612f85565b87600001546122bb9190612e2f565b905086600101548111156122ef578660010154836122d99190612e2f565b925081806122e690612977565b92505050612311565b80836122fb9190612e2f565b925050808061230990612977565b915050612292565b856001015481846123229190612ef1565b61232c9190612f85565b826123379190612e2f565b91508193505050505b92915050565b600080fd5b600080fd5b600073ffffffffffffffffffffffffffffffffffffffff82169050919050565b600061237b82612350565b9050919050565b61238b81612370565b811461239657600080fd5b50565b6000813590506123a881612382565b92915050565b6000819050919050565b6123c1816123ae565b81146123cc57600080fd5b50565b6000813590506123de816123b8565b92915050565b600080600080600060a08688031215612400576123ff612346565b5b600061240e88828901612399565b955050602061241f888289016123cf565b9450506040612430888289016123cf565b9350506060612441888289016123cf565b9250506080612452888289016123cf565b9150509295509295909350565b6000806040838503121561247657612475612346565b5b600061248485828601612399565b925050602061249585828601612399565b9150509250929050565b6124a8816123ae565b82525050565b60006020820190506124c3600083018461249f565b92915050565b600080fd5b600080fd5b600080fd5b60008083601f8401126124ee576124ed6124c9565b5b8235905067ffffffffffffffff81111561250b5761250a6124ce565b5b602083019150836020820283011115612527576125266124d3565b5b9250929050565b60008060006040848603121561254757612546612346565b5b600061255586828701612399565b935050602084013567ffffffffffffffff8111156125765761257561234b565b5b612582868287016124d8565b92509250509250925092565b600081519050919050565b600082825260208201905092915050565b6000819050602082019050919050565b6125c3816123ae565b82525050565b60006125d583836125ba565b60208301905092915050565b6000602082019050919050565b60006125f98261258e565b6126038185612599565b935061260e836125aa565b8060005b8381101561263f57815161262688826125c9565b9750612631836125e1565b925050600181019050612612565b5085935050505092915050565b6000602082019050818103600083015261266681846125ee565b905092915050565b61267781612370565b82525050565b6000602082019050612692600083018461266e565b92915050565b6000602082840312156126ae576126ad612346565b5b60006126bc84828501612399565b91505092915050565b600080604083850312156126dc576126db612346565b5b60006126ea85828601612399565b92505060206126fb858286016123cf565b9150509250929050565b600060808201905061271a600083018761249f565b612727602083018661249f565b612734604083018561249f565b612741606083018461249f565b95945050505050565b6000819050919050565b600061276f61276a61276584612350565b61274a565b612350565b9050919050565b600061278182612754565b9050919050565b600061279382612776565b9050919050565b6127a381612788565b82525050565b60006020820190506127be600083018461279a565b92915050565b600082825260208201905092915050565b7f4f776e61626c653a2063616c6c6572206973206e6f7420746865206f776e6572600082015250565b600061280b6020836127c4565b9150612816826127d5565b602082019050919050565b6000602082019050818103600083015261283a816127fe565b9050919050565b7f416c726561647920657869737473000000000000000000000000000000000000600082015250565b6000612877600e836127c4565b915061288282612841565b602082019050919050565b600060208201905081810360008301526128a68161286a565b9050919050565b7f4e6f74207374616b61626c650000000000000000000000000000000000000000600082015250565b60006128e3600c836127c4565b91506128ee826128ad565b602082019050919050565b60006020820190508181036000830152612912816128d6565b9050919050565b7f4e487b7100000000000000000000000000000000000000000000000000000000600052603260045260246000fd5b7f4e487b7100000000000000000000000000000000000000000000000000000000600052601160045260246000fd5b6000612982826123ae565b91507fffffffffffffffffffffffffffffffffffffffffffffffffffffffffffffffff8214156129b5576129b4612948565b5b600182019050919050565b7f4e6f74206f776e65720000000000000000000000000000000000000000000000600082015250565b60006129f66009836127c4565b9150612a01826129c0565b602082019050919050565b60006020820190508181036000830152612a25816129e9565b9050919050565b6000604082019050612a41600083018561266e565b612a4e602083018461249f565b9392505050565b7f4f776e61626c653a206e6577206f776e657220697320746865207a65726f206160008201527f6464726573730000000000000000000000000000000000000000000000000000602082015250565b6000612ab16026836127c4565b9150612abc82612a55565b604082019050919050565b60006020820190508181036000830152612ae081612aa4565b9050919050565b7f496e76616c6964206d6178000000000000000000000000000000000000000000600082015250565b6000612b1d600b836127c4565b9150612b2882612ae7565b602082019050919050565b60006020820190508181036000830152612b4c81612b10565b9050919050565b7f496e76616c6964206d696e000000000000000000000000000000000000000000600082015250565b6000612b89600b836127c4565b9150612b9482612b53565b602082019050919050565b60006020820190508181036000830152612bb881612b7c565b9050919050565b7f496e76616c696420706572696f64000000000000000000000000000000000000600082015250565b6000612bf5600e836127c4565b9150612c0082612bbf565b602082019050919050565b60006020820190508181036000830152612c2481612be8565b9050919050565b6000606082019050612c40600083018661266e565b612c4d602083018561266e565b612c5a604083018461249f565b949350505050565b6000819050919050565b6000612c7782612c62565b9150612c8283612c62565b9250817f7fffffffffffffffffffffffffffffffffffffffffffffffffffffffffffffff03831360008312151615612cbd57612cbc612948565b5b817f8000000000000000000000000000000000000000000000000000000000000000038312600083121615612cf557612cf4612948565b5b828201905092915050565b7f4e487b7100000000000000000000000000000000000000000000000000000000600052604160045260246000fd5b7f5a65726f206469766964656e6400000000000000000000000000000000000000600082015250565b6000612d65600d836127c4565b9150612d7082612d2f565b602082019050919050565b60006020820190508181036000830152612d9481612d58565b9050919050565b6000612da682612c62565b9150612db183612c62565b9250827f800000000000000000000000000000000000000000000000000000000000000001821260008412151615612dec57612deb612948565b5b827f7fffffffffffffffffffffffffffffffffffffffffffffffffffffffffffffff018213600084121615612e2457612e23612948565b5b828203905092915050565b6000612e3a826123ae565b9150612e45836123ae565b9250827fffffffffffffffffffffffffffffffffffffffffffffffffffffffffffffffff03821115612e7a57612e79612948565b5b828201905092915050565b7f556e646572666c6f770000000000000000000000000000000000000000000000600082015250565b6000612ebb6009836127c4565b9150612ec682612e85565b602082019050919050565b60006020820190508181036000830152612eea81612eae565b9050919050565b6000612efc826123ae565b9150612f07836123ae565b925082821015612f1a57612f19612948565b5b828203905092915050565b7f4e487b7100000000000000000000000000000000000000000000000000000000600052601260045260246000fd5b6000612f5f826123ae565b9150612f6a836123ae565b925082612f7a57612f79612f25565b5b828204905092915050565b6000612f90826123ae565b9150612f9b836123ae565b9250817fffffffffffffffffffffffffffffffffffffffffffffffffffffffffffffffff0483118215151615612fd457612fd3612948565b5b82820290509291505056fea2646970667358221220e2293b5c32a32ba0f89147141e46c00e78186e75972579145573a7aa0eae448064736f6c6343000809003360806040523480156200001157600080fd5b506040518060400160405280600e81526020017f436f6c6c656765204372656469740000000000000000000000000000000000008152506040518060400160405280600281526020017f4343000000000000000000000000000000000000000000000000000000000000815250816003908051906020019062000096929190620001a6565b508060049080519060200190620000af929190620001a6565b505050620000d2620000c6620000d860201b60201c565b620000e060201b60201c565b620002bb565b600033905090565b6000600560009054906101000a900473ffffffffffffffffffffffffffffffffffffffff16905081600560006101000a81548173ffffffffffffffffffffffffffffffffffffffff021916908373ffffffffffffffffffffffffffffffffffffffff1602179055508173ffffffffffffffffffffffffffffffffffffffff168173ffffffffffffffffffffffffffffffffffffffff167f8be0079c531659141344cd1fd0a4f28419497f9722a3daafe3b4186f6b6457e060405160405180910390a35050565b828054620001b49062000285565b90600052602060002090601f016020900481019282620001d8576000855562000224565b82601f10620001f357805160ff191683800117855562000224565b8280016001018555821562000224579182015b828111156200022357825182559160200191906001019062000206565b5b50905062000233919062000237565b5090565b5b808211156200025257600081600090555060010162000238565b5090565b7f4e487b7100000000000000000000000000000000000000000000000000000000600052602260045260246000fd5b600060028204905060018216806200029e57607f821691505b60208210811415620002b557620002b462000256565b5b50919050565b611a4480620002cb6000396000f3fe608060405234801561001057600080fd5b50600436106100f55760003560e01c806370a0823111610097578063a457c2d711610066578063a457c2d714610276578063a9059cbb146102a6578063dd62ed3e146102d6578063f2fde38b14610306576100f5565b806370a0823114610200578063715018a6146102305780638da5cb5b1461023a57806395d89b4114610258576100f5565b806323b872dd116100d357806323b872dd14610166578063313ce5671461019657806339509351146101b457806340c10f19146101e4576100f5565b806306fdde03146100fa578063095ea7b31461011857806318160ddd14610148575b600080fd5b610102610322565b60405161010f9190611144565b60405180910390f35b610132600480360381019061012d91906111ff565b6103b4565b60405161013f919061125a565b60405180910390f35b6101506103d2565b60405161015d9190611284565b60405180910390f35b610180600480360381019061017b919061129f565b6103dc565b60405161018d919061125a565b60405180910390f35b61019e6104d4565b6040516101ab919061130e565b60405180910390f35b6101ce60048036038101906101c991906111ff565b6104dd565b6040516101db919061125a565b60405180910390f35b6101fe60048036038101906101f991906111ff565b610589565b005b61021a60048036038101906102159190611329565b610613565b6040516102279190611284565b60405180910390f35b61023861065b565b005b6102426106e3565b60405161024f9190611365565b60405180910390f35b61026061070d565b60405161026d9190611144565b60405180910390f35b610290600480360381019061028b91906111ff565b61079f565b60405161029d919061125a565b60405180910390f35b6102c060048036038101906102bb91906111ff565b61088a565b6040516102cd919061125a565b60405180910390f35b6102f060048036038101906102eb9190611380565b6108a8565b6040516102fd9190611284565b60405180910390f35b610320600480360381019061031b9190611329565b61092f565b005b606060038054610331906113ef565b80601f016020809104026020016040519081016040528092919081815260200182805461035d906113ef565b80156103aa5780601f1061037f576101008083540402835291602001916103aa565b820191906000526020600020905b81548152906001019060200180831161038d57829003601f168201915b5050505050905090565b60006103c86103c1610a27565b8484610a2f565b6001905092915050565b6000600254905090565b60006103e9848484610bfa565b6000600160008673ffffffffffffffffffffffffffffffffffffffff1673ffffffffffffffffffffffffffffffffffffffff1681526020019081526020016000206000610434610a27565b73ffffffffffffffffffffffffffffffffffffffff1673ffffffffffffffffffffffffffffffffffffffff168152602001908152602001600020549050828110156104b4576040517f08c379a00000000000000000000000000000000000000000000000000000000081526004016104ab90611493565b60405180910390fd5b6104c8856104c0610a27565b858403610a2f565b60019150509392505050565b60006012905090565b600061057f6104ea610a27565b8484600160006104f8610a27565b73ffffffffffffffffffffffffffffffffffffffff1673ffffffffffffffffffffffffffffffffffffffff16815260200190815260200160002060008873ffffffffffffffffffffffffffffffffffffffff1673ffffffffffffffffffffffffffffffffffffffff1681526020019081526020016000205461057a91906114e2565b610a2f565b6001905092915050565b610591610a27565b73ffffffffffffffffffffffffffffffffffffffff166105af6106e3565b73ffffffffffffffffffffffffffffffffffffffff1614610605576040517f08c379a00000000000000000000000000000000000000000000000000000000081526004016105fc90611584565b60405180910390fd5b61060f8282610e7b565b5050565b60008060008373ffffffffffffffffffffffffffffffffffffffff1673ffffffffffffffffffffffffffffffffffffffff168152602001908152602001600020549050919050565b610663610a27565b73ffffffffffffffffffffffffffffffffffffffff166106816106e3565b73ffffffffffffffffffffffffffffffffffffffff16146106d7576040517f08c379a00000000000000000000000000000000000000000000000000000000081526004016106ce90611584565b60405180910390fd5b6106e16000610fdb565b565b6000600560009054906101000a900473ffffffffffffffffffffffffffffffffffffffff16905090565b60606004805461071c906113ef565b80601f0160208091040260200160405190810160405280929190818152602001828054610748906113ef565b80156107955780601f1061076a57610100808354040283529160200191610795565b820191906000526020600020905b81548152906001019060200180831161077857829003601f168201915b5050505050905090565b600080600160006107ae610a27565b73ffffffffffffffffffffffffffffffffffffffff1673ffffffffffffffffffffffffffffffffffffffff16815260200190815260200160002060008573ffffffffffffffffffffffffffffffffffffffff1673ffffffffffffffffffffffffffffffffffffffff1681526020019081526020016000205490508281101561086b576040517f08c379a000000000000000000000000000000000000000000000000000000000815260040161086290611616565b60405180910390fd5b61087f610876610a27565b85858403610a2f565b600191505092915050565b600061089e610897610a27565b8484610bfa565b6001905092915050565b6000600160008473ffffffffffffffffffffffffffffffffffffffff1673ffffffffffffffffffffffffffffffffffffffff16815260200190815260200160002060008373ffffffffffffffffffffffffffffffffffffffff1673ffffffffffffffffffffffffffffffffffffffff16815260200190815260200160002054905092915050565b610937610a27565b73ffffffffffffffffffffffffffffffffffffffff166109556106e3565b73ffffffffffffffffffffffffffffffffffffffff16146109ab576040517f08c379a00000000000000000000000000000000000000000000000000000000081526004016109a290611584565b60405180910390fd5b600073ffffffffffffffffffffffffffffffffffffffff168173ffffffffffffffffffffffffffffffffffffffff161415610a1b576040517f08c379a0000000000000000000000000000000000000000000000000000000008152600401610a12906116a8565b60405180910390fd5b610a2481610fdb565b50565b600033905090565b600073ffffffffffffffffffffffffffffffffffffffff168373ffffffffffffffffffffffffffffffffffffffff161415610a9f576040517f08c379a0000000000000000000000000000000000000000000000000000000008152600401610a969061173a565b60405180910390fd5b600073ffffffffffffffffffffffffffffffffffffffff168273ffffffffffffffffffffffffffffffffffffffff161415610b0f576040517f08c379a0000000000000000000000000000000000000000000000000000000008152600401610b06906117cc565b60405180910390fd5b80600160008573ffffffffffffffffffffffffffffffffffffffff1673ffffffffffffffffffffffffffffffffffffffff16815260200190815260200160002060008473ffffffffffffffffffffffffffffffffffffffff1673ffffffffffffffffffffffffffffffffffffffff168152602001908152602001600020819055508173ffffffffffffffffffffffffffffffffffffffff168373ffffffffffffffffffffffffffffffffffffffff167f8c5be1e5ebec7d5bd14f71427d1e84f3dd0314c0f7b2291e5b200ac8c7c3b92583604051610bed9190611284565b60405180910390a3505050565b600073ffffffffffffffffffffffffffffffffffffffff168373ffffffffffffffffffffffffffffffffffffffff161415610c6a576040517f08c379a0000000000000000000000000000000000000000000000000000000008152600401610c619061185e565b60405180910390fd5b600073ffffffffffffffffffffffffffffffffffffffff168273ffffffffffffffffffffffffffffffffffffffff161415610cda576040517f08c379a0000000000000000000000000000000000000000000000000000000008152600401610cd1906118f0565b60405180910390fd5b610ce58383836110a1565b60008060008573ffffffffffffffffffffffffffffffffffffffff1673ffffffffffffffffffffffffffffffffffffffff16815260200190815260200160002054905081811015610d6b576040517f08c379a0000000000000000000000000000000000000000000000000000000008152600401610d6290611982565b60405180910390fd5b8181036000808673ffffffffffffffffffffffffffffffffffffffff1673ffffffffffffffffffffffffffffffffffffffff16815260200190815260200160002081905550816000808573ffffffffffffffffffffffffffffffffffffffff1673ffffffffffffffffffffffffffffffffffffffff1681526020019081526020016000206000828254610dfe91906114e2565b925050819055508273ffffffffffffffffffffffffffffffffffffffff168473ffffffffffffffffffffffffffffffffffffffff167fddf252ad1be2c89b69c2b068fc378daa952ba7f163c4a11628f55a4df523b3ef84604051610e629190611284565b60405180910390a3610e758484846110a6565b50505050565b600073ffffffffffffffffffffffffffffffffffffffff168273ffffffffffffffffffffffffffffffffffffffff161415610eeb576040517f08c379a0000000000000000000000000000000000000000000000000000000008152600401610ee2906119ee565b60405180910390fd5b610ef7600083836110a1565b8060026000828254610f0991906114e2565b92505081905550806000808473ffffffffffffffffffffffffffffffffffffffff1673ffffffffffffffffffffffffffffffffffffffff1681526020019081526020016000206000828254610f5e91906114e2565b925050819055508173ffffffffffffffffffffffffffffffffffffffff16600073ffffffffffffffffffffffffffffffffffffffff167fddf252ad1be2c89b69c2b068fc378daa952ba7f163c4a11628f55a4df523b3ef83604051610fc39190611284565b60405180910390a3610fd7600083836110a6565b5050565b6000600560009054906101000a900473ffffffffffffffffffffffffffffffffffffffff16905081600560006101000a81548173ffffffffffffffffffffffffffffffffffffffff021916908373ffffffffffffffffffffffffffffffffffffffff1602179055508173ffffffffffffffffffffffffffffffffffffffff168173ffffffffffffffffffffffffffffffffffffffff167f8be0079c531659141344cd1fd0a4f28419497f9722a3daafe3b4186f6b6457e060405160405180910390a35050565b505050565b505050565b600081519050919050565b600082825260208201905092915050565b60005b838110156110e55780820151818401526020810190506110ca565b838111156110f4576000848401525b50505050565b6000601f19601f8301169050919050565b6000611116826110ab565b61112081856110b6565b93506111308185602086016110c7565b611139816110fa565b840191505092915050565b6000602082019050818103600083015261115e818461110b565b905092915050565b600080fd5b600073ffffffffffffffffffffffffffffffffffffffff82169050919050565b60006111968261116b565b9050919050565b6111a68161118b565b81146111b157600080fd5b50565b6000813590506111c38161119d565b92915050565b6000819050919050565b6111dc816111c9565b81146111e757600080fd5b50565b6000813590506111f9816111d3565b92915050565b6000806040838503121561121657611215611166565b5b6000611224858286016111b4565b9250506020611235858286016111ea565b9150509250929050565b60008115159050919050565b6112548161123f565b82525050565b600060208201905061126f600083018461124b565b92915050565b61127e816111c9565b82525050565b60006020820190506112996000830184611275565b92915050565b6000806000606084860312156112b8576112b7611166565b5b60006112c6868287016111b4565b93505060206112d7868287016111b4565b92505060406112e8868287016111ea565b9150509250925092565b600060ff82169050919050565b611308816112f2565b82525050565b600060208201905061132360008301846112ff565b92915050565b60006020828403121561133f5761133e611166565b5b600061134d848285016111b4565b91505092915050565b61135f8161118b565b82525050565b600060208201905061137a6000830184611356565b92915050565b6000806040838503121561139757611396611166565b5b60006113a5858286016111b4565b92505060206113b6858286016111b4565b9150509250929050565b7f4e487b7100000000000000000000000000000000000000000000000000000000600052602260045260246000fd5b6000600282049050600182168061140757607f821691505b6020821081141561141b5761141a6113c0565b5b50919050565b7f45524332303a207472616e7366657220616d6f756e742065786365656473206160008201527f6c6c6f77616e6365000000000000000000000000000000000000000000000000602082015250565b600061147d6028836110b6565b915061148882611421565b604082019050919050565b600060208201905081810360008301526114ac81611470565b9050919050565b7f4e487b7100000000000000000000000000000000000000000000000000000000600052601160045260246000fd5b60006114ed826111c9565b91506114f8836111c9565b9250827fffffffffffffffffffffffffffffffffffffffffffffffffffffffffffffffff0382111561152d5761152c6114b3565b5b828201905092915050565b7f4f776e61626c653a2063616c6c6572206973206e6f7420746865206f776e6572600082015250565b600061156e6020836110b6565b915061157982611538565b602082019050919050565b6000602082019050818103600083015261159d81611561565b9050919050565b7f45524332303a2064656372656173656420616c6c6f77616e63652062656c6f7760008201527f207a65726f000000000000000000000000000000000000000000000000000000602082015250565b60006116006025836110b6565b915061160b826115a4565b604082019050919050565b6000602082019050818103600083015261162f816115f3565b9050919050565b7f4f776e61626c653a206e6577206f776e657220697320746865207a65726f206160008201527f6464726573730000000000000000000000000000000000000000000000000000602082015250565b60006116926026836110b6565b915061169d82611636565b604082019050919050565b600060208201905081810360008301526116c181611685565b9050919050565b7f45524332303a20617070726f76652066726f6d20746865207a65726f2061646460008201527f7265737300000000000000000000000000000000000000000000000000000000602082015250565b60006117246024836110b6565b915061172f826116c8565b604082019050919050565b6000602082019050818103600083015261175381611717565b9050919050565b7f45524332303a20617070726f766520746f20746865207a65726f20616464726560008201527f7373000000000000000000000000000000000000000000000000000000000000602082015250565b60006117b66022836110b6565b91506117c18261175a565b604082019050919050565b600060208201905081810360008301526117e5816117a9565b9050919050565b7f45524332303a207472616e736665722066726f6d20746865207a65726f20616460008201527f6472657373000000000000000000000000000000000000000000000000000000602082015250565b60006118486025836110b6565b9150611853826117ec565b604082019050919050565b600060208201905081810360008301526118778161183b565b9050919050565b7f45524332303a207472616e7366657220746f20746865207a65726f206164647260008201527f6573730000000000000000000000000000000000000000000000000000000000602082015250565b60006118da6023836110b6565b91506118e58261187e565b604082019050919050565b60006020820190508181036000830152611909816118cd565b9050919050565b7f45524332303a207472616e7366657220616d6f756e742065786365656473206260008201527f616c616e63650000000000000000000000000000000000000000000000000000602082015250565b600061196c6026836110b6565b915061197782611910565b604082019050919050565b6000602082019050818103600083015261199b8161195f565b9050919050565b7f45524332303a206d696e7420746f20746865207a65726f206164647265737300600082015250565b60006119d8601f836110b6565b91506119e3826119a2565b602082019050919050565b60006020820190508181036000830152611a07816119cb565b905091905056fea2646970667358221220f1b6ccad27e771f8f352d9980786cd94db15315be0b08ee8c09449ae6b7764e264736f6c63430008090033",
  "immutableReferences": {},
  "source": "// SPDX-License-Identifier: MIT\r\n\r\npragma solidity ^0.8.0;\r\n\r\nimport \"@openzeppelin/contracts/interfaces/IERC721.sol\";\r\nimport \"@openzeppelin/contracts/access/Ownable.sol\";\r\nimport \"./interfaces/ICollegeCredit.sol\";\r\nimport \"./CollegeCredit.sol\";\r\n\r\ncontract IMDStaking is Ownable {\r\n    struct StakedToken {\r\n        uint256 stakeTimestamp;\r\n        address owner;\r\n    }\r\n\r\n    struct StakableTokenAttributes {\r\n        /**\r\n         * The minimum yield per period.\r\n         */\r\n        uint256 minYield;\r\n        /**\r\n         * The maximum yield per period.\r\n         */\r\n        uint256 maxYield;\r\n        /**\r\n         * The amount that yield increases per period.\r\n         */\r\n        uint256 step;\r\n        /**\r\n         * The amount of time needed to earn 1 yield.\r\n         */\r\n        uint256 yieldPeriod;\r\n        /**\r\n         * A mapping from token ids to information about that token's staking.\r\n         */\r\n        mapping(uint256 => StakedToken) stakedTokens;\r\n        /**\r\n         * A mapping of modifiers to rewards for each staker's\r\n         * address.\r\n         */\r\n        mapping(address => int256) rewardModifier;\r\n        /**\r\n         * An array of token ids that are staked.\r\n         * @dev may contain 0 values which should be filtered.\r\n         */\r\n        uint256[] stakedTokenIds;\r\n    }\r\n\r\n    /**\r\n     * The reward token (college credit) to be issued to stakers.\r\n     */\r\n    ICollegeCredit public rewardToken;\r\n\r\n    /**\r\n     * A mapping of token addresses to staking configurations.\r\n     */\r\n    mapping(address => StakableTokenAttributes) public stakableTokenAttributes;\r\n\r\n    /**\r\n     * An array of stakable ERC721 token addresses.\r\n     */\r\n    address[] stakableTokens;\r\n\r\n    /**\r\n     * The constructor for the staking contract, builds the initial reward token and stakable token.\r\n     * @param _token the first stakable token address.\r\n     * @param _minYield the minimum yield for the stakable token.\r\n     * @param _maxYield the maximum yield for the stakable token.\r\n     * @param _step the amount yield increases per yield period.\r\n     * @param _yieldPeriod the length (in seconds) of a yield period (the amount of period after which a yield is calculated)\r\n     */\r\n    constructor(\r\n        address _token,\r\n        uint256 _minYield,\r\n        uint256 _maxYield,\r\n        uint256 _step,\r\n        uint256 _yieldPeriod\r\n    ) {\r\n        _addStakableToken(_token, _minYield, _maxYield, _step, _yieldPeriod);\r\n\r\n        rewardToken = new CollegeCredit();\r\n    }\r\n\r\n    /**\r\n     * Mints the reward token to an account.\r\n     * @dev owner only.\r\n     * @param _recipient the recipient of the minted tokens.\r\n     * @param _amount the amount of tokens to mint.\r\n     */\r\n    function mintRewardToken(address _recipient, uint256 _amount)\r\n        external\r\n        onlyOwner\r\n    {\r\n        rewardToken.mint(_recipient, _amount);\r\n    }\r\n\r\n    /**\r\n     * Adds a new token that can be staked in the contract.\r\n     * @param _token the first stakable token address.\r\n     * @param _minYield the minimum yield for the stakable token.\r\n     * @param _maxYield the maximum yield for the stakable token.\r\n     * @param _step the amount yield increases per yield period.\r\n     * @param _yieldPeriod the length (in seconds) of a yield period (the amount of period after which a yield is calculated).\r\n     * @dev owner only, doesn't allow adding already staked tokens.\r\n     */\r\n    function addStakableToken(\r\n        address _token,\r\n        uint256 _minYield,\r\n        uint256 _maxYield,\r\n        uint256 _step,\r\n        uint256 _yieldPeriod\r\n    ) external onlyOwner {\r\n        require(!_isStakable(_token), \"Already exists\");\r\n        _addStakableToken(_token, _minYield, _maxYield, _step, _yieldPeriod);\r\n    }\r\n\r\n    /**\r\n     * Stakes a given token id from a given contract.\r\n     * @param _token the address of the stakable token.\r\n     * @param _tokenId the id of the token to stake.\r\n     * @dev the contract must be approved to transfer that token first.\r\n     *      the address must be a stakable token.\r\n     */\r\n    function stake(address _token, uint256 _tokenId) external {\r\n        require(_isStakable(_token), \"Not stakable\");\r\n        _stakeFor(msg.sender, _token, _tokenId);\r\n    }\r\n\r\n    /**\r\n     * Stakes a given token id from a given contract.\r\n     * @param _token the address of the stakable token.\r\n     * @param _tokenIds the ids of the tokens to stake.\r\n     * @dev the contract must be approved to transfer that token first.\r\n     *      the address must be a stakable token.\r\n     */\r\n    function stakeMany(address _token, uint256[] calldata _tokenIds) external {\r\n        require(_isStakable(_token), \"Not stakable\");\r\n        for (uint256 i = 0; i < _tokenIds.length; i++) {\r\n            _stakeFor(msg.sender, _token, _tokenIds[i]);\r\n        }\r\n    }\r\n\r\n    /**\r\n     * Unstakes a given token held by the calling user.\r\n     * @param _token the address of the token contract that the token belongs to.\r\n     * @param _tokenId the id of the token to unstake.\r\n     * @dev reverts if the token is not owned by the caller.\r\n     */\r\n    function unstake(address _token, uint256 _tokenId) external {\r\n        require(_isStakable(_token), \"Not stakable\");\r\n        require(\r\n            stakableTokenAttributes[_token].stakedTokens[_tokenId].owner ==\r\n                msg.sender,\r\n            \"Not owner\"\r\n        );\r\n        _unstake(_token, _tokenId);\r\n    }\r\n\r\n    /**\r\n     * Unstakes the given tokens held by the calling user.\r\n     * @param _token the address of the token contract that the tokens belong to.\r\n     * @param _tokenIds the ids of the tokens to unstake.\r\n     * @dev reverts if the token(s) are not owned by the caller.\r\n     */\r\n    function unstakeMany(address _token, uint256[] calldata _tokenIds)\r\n        external\r\n    {\r\n        require(_isStakable(_token), \"Not stakable\");\r\n        for (uint256 i = 0; i < _tokenIds.length; i++) {\r\n            require(\r\n                stakableTokenAttributes[_token]\r\n                    .stakedTokens[_tokenIds[i]]\r\n                    .owner == msg.sender,\r\n                \"Not owner\"\r\n            );\r\n\r\n            _unstake(_token, _tokenIds[i]);\r\n        }\r\n    }\r\n\r\n    /**\r\n     * Claims the rewards for the caller.\r\n     * @param _token the token for which we are claiming rewards.\r\n     */\r\n    function claimRewards(address _token) external {\r\n        require(_isStakable(_token), \"Not stakable\");\r\n        _withdrawRewards(msg.sender, _token);\r\n    }\r\n\r\n    /**\r\n     * Gets the College Credit dividend of the provided user.\r\n     * @param _user the user whose dividend we are checking.\r\n     * @param _token the token in which we are checking.\r\n     */\r\n    function dividendOf(address _user, address _token)\r\n        external\r\n        view\r\n        returns (uint256)\r\n    {\r\n        require(_isStakable(_token), \"Not stakable\");\r\n        return _dividendOf(_user, _token);\r\n    }\r\n\r\n    /**\r\n     * Unstakes a given token held by the calling user AND withdraws all dividends.\r\n     * @param _token the address of the token contract that the token belongs to.\r\n     * @param _tokenId the id of the token to unstake.\r\n     * @dev reverts if the token is not owned by the caller.\r\n     */\r\n    function unstakeAndClaimRewards(address _token, uint256 _tokenId) external {\r\n        require(_isStakable(_token), \"Not stakable\");\r\n        require(\r\n            stakableTokenAttributes[_token].stakedTokens[_tokenId].owner ==\r\n                msg.sender,\r\n            \"Not owner\"\r\n        );\r\n        _withdrawRewards(msg.sender, _token);\r\n        _unstake(_token, _tokenId);\r\n    }\r\n\r\n    /**\r\n     * Unstakes the given tokens held by the calling user AND withdraws all dividends.\r\n     * @param _token the address of the token contract that the token belongs to.\r\n     * @param _tokenIds the ids of the tokens to unstake.\r\n     * @dev reverts if the tokens are not owned by the caller.\r\n     */\r\n    function unstakeManyAndClaimRewards(address _token, uint256[] calldata _tokenIds) external {\r\n        require(_isStakable(_token), \"Not stakable\");\r\n        for (uint256 i = 0; i < _tokenIds.length; i++) {\r\n            require(\r\n                stakableTokenAttributes[_token].stakedTokens[_tokenIds[i]].owner ==\r\n                        msg.sender,\r\n                    \"Not owner\"\r\n            );\r\n            _unstake(_token, _tokenIds[i]);\r\n\r\n        }\r\n        _withdrawRewards(msg.sender, _token);\r\n    }\r\n\r\n    /**\r\n     * Gets the total amount of tokens staked for the given user in the given contract.\r\n     * @param _user the user whose stakes are being counted.\r\n     * @param _token the address of the contract whose staked tokens we are skimming.\r\n     * @dev reverts if called on an invalid token address.\r\n     */\r\n    function totalStakedFor(address _user, address _token)\r\n        external\r\n        view\r\n        returns (uint256)\r\n    {\r\n        require(_isStakable(_token), \"Not stakable\");\r\n        return _totalStaked(_user, _token);\r\n    }\r\n\r\n    /**\r\n     * Gets the total amount staked for a given token address.\r\n     * @param _token the address to get the amount staked from.\r\n     */\r\n    function totalStaked(address _token) external view returns (uint256) {\r\n        require(_isStakable(_token), \"Not stakable\");\r\n        return _totalStaked(_token);\r\n    }\r\n\r\n    /**\r\n     * Gets all of the token ids that a user has staked from a given contract.\r\n     * @param _user the user whose token ids are being analyzed.\r\n     * @param _token the address of the token contract being analyzed.\r\n     * @return an array of token ids staked by that user.\r\n     * @dev reverts if called on an invalid token address.\r\n     */\r\n    function stakedTokenIds(address _user, address _token)\r\n        external\r\n        view\r\n        returns (uint256[] memory)\r\n    {\r\n        require(_isStakable(_token), \"Not stakable\");\r\n        return _stakedTokenIds(_user, _token);\r\n    }\r\n\r\n    // --------------- INTERNAL FUNCTIONS -----------------\r\n\r\n    /**\r\n     * Gets the total amount staked for a given token address.\r\n     * @param _token the address to get the amount staked from.\r\n     */\r\n    function _totalStaked(address _token) internal view returns (uint256) {\r\n        uint256 result = 0;\r\n        for (\r\n            uint256 i = 0;\r\n            i < stakableTokenAttributes[_token].stakedTokenIds.length;\r\n            i++\r\n        ) {\r\n            if (stakableTokenAttributes[_token].stakedTokenIds[i] != 0)\r\n                result++;\r\n        }\r\n\r\n        return result;\r\n    }\r\n\r\n    /**\r\n     * @return if the given token address is stakable.\r\n     * @param _token the address to a token to query for stakability.\r\n     * @dev does not check if is ERC721, that is up to the user.\r\n     */\r\n    function _isStakable(address _token) internal view returns (bool) {\r\n        return stakableTokenAttributes[_token].maxYield != 0;\r\n    }\r\n\r\n    /**\r\n     * Adds a given token to the list of stakable tokens.\r\n     * @param _token the first stakable token address.\r\n     * @param _minYield the minimum yield for the stakable token.\r\n     * @param _maxYield the maximum yield for the stakable token.\r\n     * @param _step the amount yield increases per yield period.\r\n     * @param _yieldPeriod the length (in seconds) of a yield period (the amount of period after which a yield is calculated).\r\n     * @dev checks constraints to ensure _isStakable works as well as other logic. Does not check if is already stakable.\r\n     */\r\n    function _addStakableToken(\r\n        address _token,\r\n        uint256 _minYield,\r\n        uint256 _maxYield,\r\n        uint256 _step,\r\n        uint256 _yieldPeriod\r\n    ) internal {\r\n        require(_maxYield > 0, \"Invalid max\");\r\n        require(_minYield > 0, \"Invalid min\");\r\n        require(_yieldPeriod > 1 minutes, \"Invalid period\");\r\n\r\n        stakableTokenAttributes[_token].maxYield = _maxYield;\r\n        stakableTokenAttributes[_token].minYield = _minYield;\r\n        stakableTokenAttributes[_token].step = _step;\r\n        stakableTokenAttributes[_token].yieldPeriod = _yieldPeriod;\r\n\r\n        stakableTokens.push(_token);\r\n    }\r\n\r\n    /**\r\n     * Stakes a given token id from a given contract.\r\n     * @param _user the user from which to transfer the token.\r\n     * @param _token the address of the stakable token.\r\n     * @param _tokenId the id of the token to stake.\r\n     * @dev the contract must be approved to transfer that token first.\r\n     *      the address must be a stakable token.\r\n     */\r\n    function _stakeFor(\r\n        address _user,\r\n        address _token,\r\n        uint256 _tokenId\r\n    ) internal {\r\n        IERC721(_token).transferFrom(_user, address(this), _tokenId);\r\n\r\n        stakableTokenAttributes[_token]\r\n            .stakedTokens[_tokenId]\r\n            .stakeTimestamp = block.timestamp;\r\n        stakableTokenAttributes[_token].stakedTokens[_tokenId].owner = _user;\r\n        stakableTokenAttributes[_token].stakedTokenIds.push(_tokenId);\r\n    }\r\n\r\n    /**\r\n     * Retrieves the dividend owed on a particular token with a given timestamp.\r\n     * @param _tokenAttributes the attributes of the token provided.\r\n     * @param _timestamp the timestamp at which the token was staked.\r\n     * @return the dividend owed for that specific token.\r\n     */\r\n    function _tokenDividend(\r\n        StakableTokenAttributes storage _tokenAttributes,\r\n        uint256 _timestamp\r\n    ) internal view returns (uint256) {\r\n        if (_timestamp == 0) return 0;\r\n\r\n        uint256 periods = (block.timestamp - _timestamp) /\r\n            _tokenAttributes.yieldPeriod;\r\n\r\n        uint256 dividend = 0;\r\n        uint256 i = 0;\r\n        for (i; i < periods; i++) {\r\n            uint256 uncappedYield = _tokenAttributes.minYield +\r\n                i *\r\n                _tokenAttributes.step;\r\n\r\n            if (uncappedYield > _tokenAttributes.maxYield) {\r\n                dividend += _tokenAttributes.maxYield;\r\n                i++;\r\n                break;\r\n            }\r\n            dividend += uncappedYield;\r\n        }\r\n\r\n        dividend += (periods - i) * _tokenAttributes.maxYield;\r\n\r\n        return dividend;\r\n    }\r\n\r\n    /**\r\n     * Gets the total amount of tokens staked for the given user in the given contract.\r\n     * @param _user the user whose stakes are being counted.\r\n     * @param _token the address of the contract whose staked tokens we are skimming.\r\n     * @dev does not check if the token address is stakable.\r\n     */\r\n    function _totalStaked(address _user, address _token)\r\n        internal\r\n        view\r\n        returns (uint256)\r\n    {\r\n        uint256 tokenCount = 0;\r\n\r\n        uint256 tokenIdIndex = 0;\r\n        for (\r\n            tokenIdIndex;\r\n            tokenIdIndex <\r\n            stakableTokenAttributes[_token].stakedTokenIds.length;\r\n            tokenIdIndex++\r\n        ) {\r\n            StakedToken memory stakedToken = stakableTokenAttributes[_token]\r\n                .stakedTokens[\r\n                    stakableTokenAttributes[_token].stakedTokenIds[tokenIdIndex]\r\n                ];\r\n\r\n            if (stakedToken.owner == _user) tokenCount++;\r\n        }\r\n\r\n        return tokenCount;\r\n    }\r\n\r\n    /**\r\n     * Gets all of the token ids that a user has staked from a given contract.\r\n     * @param _user the user whose token ids are being analyzed.\r\n     * @param _token the address of the token contract being analyzed.\r\n     * @return an array of token ids staked by that user.\r\n     * @dev does not check if the token address is stakable.\r\n     */\r\n    function _stakedTokenIds(address _user, address _token)\r\n        internal\r\n        view\r\n        returns (uint256[] memory)\r\n    {\r\n        uint256 numStaked = _totalStaked(_user, _token);\r\n        uint256[] memory tokenIds = new uint256[](numStaked);\r\n\r\n        uint256 numFound = 0;\r\n        uint256 tokenIdIndex = 0;\r\n        for (\r\n            tokenIdIndex;\r\n            tokenIdIndex <\r\n            stakableTokenAttributes[_token].stakedTokenIds.length;\r\n            tokenIdIndex++\r\n        ) {\r\n            if (\r\n                stakableTokenAttributes[_token]\r\n                    .stakedTokens[\r\n                        stakableTokenAttributes[_token].stakedTokenIds[\r\n                            tokenIdIndex\r\n                        ]\r\n                    ]\r\n                    .owner == _user\r\n            ) {\r\n                tokenIds[numFound] = stakableTokenAttributes[_token]\r\n                    .stakedTokenIds[tokenIdIndex];\r\n                numFound++;\r\n            }\r\n        }\r\n\r\n        return tokenIds;\r\n    }\r\n\r\n    /**\r\n     * Gets the College Credit dividend of the provided user.\r\n     * @param _user the user whose dividend we are checking.\r\n     * @param _token the token whose dividends we are checking.\r\n     */\r\n    function _dividendOf(address _user, address _token)\r\n        internal\r\n        view\r\n        returns (uint256)\r\n    {\r\n        uint256 dividend = 0;\r\n        uint256 tokenIdIndex = 0;\r\n\r\n        for (\r\n            tokenIdIndex;\r\n            tokenIdIndex <\r\n            stakableTokenAttributes[_token].stakedTokenIds.length;\r\n            tokenIdIndex++\r\n        ) {\r\n            StakedToken memory stakedToken = stakableTokenAttributes[_token]\r\n                .stakedTokens[\r\n                    stakableTokenAttributes[_token].stakedTokenIds[tokenIdIndex]\r\n                ];\r\n\r\n            if (stakedToken.owner != _user) continue;\r\n            dividend += _tokenDividend(\r\n                stakableTokenAttributes[_token],\r\n                stakedToken.stakeTimestamp\r\n            );\r\n        }\r\n\r\n        int256 resultantDividend = int256(dividend) +\r\n            stakableTokenAttributes[_token].rewardModifier[_user];\r\n\r\n        require(resultantDividend >= 0, \"Underflow\");\r\n        return uint256(resultantDividend);\r\n    }\r\n\r\n    /**\r\n     * Unstakes a given token id.\r\n     * @param _token the address of the token contract that the token belongs to.\r\n     * @param _tokenId the id of the token to unstake.\r\n     * @dev does not check permissions.\r\n     */\r\n    function _unstake(address _token, uint256 _tokenId) internal {\r\n        address owner = stakableTokenAttributes[_token]\r\n            .stakedTokens[_tokenId]\r\n            .owner;\r\n\r\n        // will fail to get dividend if not staked or bad token contract\r\n        uint256 dividend = _tokenDividend(\r\n            stakableTokenAttributes[_token],\r\n            stakableTokenAttributes[_token]\r\n                .stakedTokens[_tokenId]\r\n                .stakeTimestamp\r\n        );\r\n\r\n        stakableTokenAttributes[_token].rewardModifier[owner] += int256(\r\n            dividend\r\n        );\r\n\r\n        delete stakableTokenAttributes[_token].stakedTokens[_tokenId];\r\n\r\n        for (\r\n            uint256 i = 0;\r\n            i < stakableTokenAttributes[_token].stakedTokenIds.length;\r\n            i++\r\n        ) {\r\n            if (stakableTokenAttributes[_token].stakedTokenIds[i] == _tokenId) {\r\n                delete stakableTokenAttributes[_token].stakedTokenIds[i];\r\n            }\r\n        }\r\n\r\n        IERC721(_token).safeTransferFrom(address(this), owner, _tokenId);\r\n    }\r\n\r\n    /**\r\n     * Claims the dividend for the user.\r\n     * @param _user the user whose rewards are being withdrawn.\r\n     * @param _token the token from which rewards are being withdrawn.\r\n     * @dev does not check is the user has permission to withdraw. Reverts on zero dividend.\r\n     */\r\n    function _withdrawRewards(address _user, address _token) internal {\r\n        uint256 dividend = _dividendOf(_user, _token);\r\n        require(dividend > 0, \"Zero dividend\");\r\n\r\n        stakableTokenAttributes[_token].rewardModifier[_user] -= int256(\r\n            dividend\r\n        );\r\n\r\n        rewardToken.mint(_user, dividend);\r\n    }\r\n}\r\n",
  "sourcePath": "C:\\Users\\Cory\\source\\repos\\CyberpunkApeExecutives\\contracts\\Staking\\contracts\\IMDStaking.sol",
  "compiler": {
    "name": "solc",
    "version": "0.8.9+commit.e5eed63a.Emscripten.clang"
  },
  "schemaVersion": "3.4.3",
  "updatedAt": "2021-11-29T04:30:37.799Z",
  "devdoc": {
    "kind": "dev",
    "methods": {
      "addStakableToken(address,uint256,uint256,uint256,uint256)": {
        "details": "owner only, doesn't allow adding already staked tokens.",
        "params": {
          "_maxYield": "the maximum yield for the stakable token.",
          "_minYield": "the minimum yield for the stakable token.",
          "_step": "the amount yield increases per yield period.",
          "_token": "the first stakable token address.",
          "_yieldPeriod": "the length (in seconds) of a yield period (the amount of period after which a yield is calculated)."
        }
      },
      "claimRewards(address)": {
        "params": {
          "_token": "the token for which we are claiming rewards."
        }
      },
      "constructor": {
        "params": {
          "_maxYield": "the maximum yield for the stakable token.",
          "_minYield": "the minimum yield for the stakable token.",
          "_step": "the amount yield increases per yield period.",
          "_token": "the first stakable token address.",
          "_yieldPeriod": "the length (in seconds) of a yield period (the amount of period after which a yield is calculated)"
        }
      },
      "dividendOf(address,address)": {
        "params": {
          "_token": "the token in which we are checking.",
          "_user": "the user whose dividend we are checking."
        }
      },
      "mintRewardToken(address,uint256)": {
        "details": "owner only.",
        "params": {
          "_amount": "the amount of tokens to mint.",
          "_recipient": "the recipient of the minted tokens."
        }
      },
      "owner()": {
        "details": "Returns the address of the current owner."
      },
      "renounceOwnership()": {
        "details": "Leaves the contract without owner. It will not be possible to call `onlyOwner` functions anymore. Can only be called by the current owner. NOTE: Renouncing ownership will leave the contract without an owner, thereby removing any functionality that is only available to the owner."
      },
      "stake(address,uint256)": {
        "details": "the contract must be approved to transfer that token first.      the address must be a stakable token.",
        "params": {
          "_token": "the address of the stakable token.",
          "_tokenId": "the id of the token to stake."
        }
      },
      "stakeMany(address,uint256[])": {
        "details": "the contract must be approved to transfer that token first.      the address must be a stakable token.",
        "params": {
          "_token": "the address of the stakable token.",
          "_tokenIds": "the ids of the tokens to stake."
        }
      },
      "stakedTokenIds(address,address)": {
        "details": "reverts if called on an invalid token address.",
        "params": {
          "_token": "the address of the token contract being analyzed.",
          "_user": "the user whose token ids are being analyzed."
        },
        "returns": {
          "_0": "an array of token ids staked by that user."
        }
      },
      "totalStaked(address)": {
        "params": {
          "_token": "the address to get the amount staked from."
        }
      },
      "totalStakedFor(address,address)": {
        "details": "reverts if called on an invalid token address.",
        "params": {
          "_token": "the address of the contract whose staked tokens we are skimming.",
          "_user": "the user whose stakes are being counted."
        }
      },
      "transferOwnership(address)": {
        "details": "Transfers ownership of the contract to a new account (`newOwner`). Can only be called by the current owner."
      },
      "unstake(address,uint256)": {
        "details": "reverts if the token is not owned by the caller.",
        "params": {
          "_token": "the address of the token contract that the token belongs to.",
          "_tokenId": "the id of the token to unstake."
        }
      },
      "unstakeAndClaimRewards(address,uint256)": {
        "details": "reverts if the token is not owned by the caller.",
        "params": {
          "_token": "the address of the token contract that the token belongs to.",
          "_tokenId": "the id of the token to unstake."
        }
      },
      "unstakeMany(address,uint256[])": {
        "details": "reverts if the token(s) are not owned by the caller.",
        "params": {
          "_token": "the address of the token contract that the tokens belong to.",
          "_tokenIds": "the ids of the tokens to unstake."
        }
      },
      "unstakeManyAndClaimRewards(address,uint256[])": {
        "details": "reverts if the tokens are not owned by the caller.",
        "params": {
          "_token": "the address of the token contract that the token belongs to.",
          "_tokenIds": "the ids of the tokens to unstake."
        }
      }
    },
    "version": 1
  },
  "userdoc": {
    "kind": "user",
    "methods": {
      "addStakableToken(address,uint256,uint256,uint256,uint256)": {
        "notice": "Adds a new token that can be staked in the contract."
      },
      "claimRewards(address)": {
        "notice": "Claims the rewards for the caller."
      },
      "constructor": {
        "notice": "The constructor for the staking contract, builds the initial reward token and stakable token."
      },
      "dividendOf(address,address)": {
        "notice": "Gets the College Credit dividend of the provided user."
      },
      "mintRewardToken(address,uint256)": {
        "notice": "Mints the reward token to an account."
      },
      "rewardToken()": {
        "notice": "The reward token (college credit) to be issued to stakers."
      },
      "stakableTokenAttributes(address)": {
        "notice": "A mapping of token addresses to staking configurations."
      },
      "stake(address,uint256)": {
        "notice": "Stakes a given token id from a given contract."
      },
      "stakeMany(address,uint256[])": {
        "notice": "Stakes a given token id from a given contract."
      },
      "stakedTokenIds(address,address)": {
        "notice": "Gets all of the token ids that a user has staked from a given contract."
      },
      "totalStaked(address)": {
        "notice": "Gets the total amount staked for a given token address."
      },
      "totalStakedFor(address,address)": {
        "notice": "Gets the total amount of tokens staked for the given user in the given contract."
      },
      "unstake(address,uint256)": {
        "notice": "Unstakes a given token held by the calling user."
      },
      "unstakeAndClaimRewards(address,uint256)": {
        "notice": "Unstakes a given token held by the calling user AND withdraws all dividends."
      },
      "unstakeMany(address,uint256[])": {
        "notice": "Unstakes the given tokens held by the calling user."
      },
      "unstakeManyAndClaimRewards(address,uint256[])": {
        "notice": "Unstakes the given tokens held by the calling user AND withdraws all dividends."
      }
    },
    "version": 1
  }
}