{
  "contractName": "IMDStaking",
  "abi": [
    {
      "inputs": [
        {
          "internalType": "address",
          "name": "_token",
          "type": "address"
        },
        {
          "internalType": "uint256",
          "name": "_minYield",
          "type": "uint256"
        },
        {
          "internalType": "uint256",
          "name": "_maxYield",
          "type": "uint256"
        },
        {
          "internalType": "uint256",
          "name": "_step",
          "type": "uint256"
        },
        {
          "internalType": "uint256",
          "name": "_yieldPeriod",
          "type": "uint256"
        }
      ],
      "stateMutability": "nonpayable",
      "type": "constructor"
    },
    {
      "anonymous": false,
      "inputs": [
        {
          "indexed": true,
          "internalType": "address",
          "name": "previousOwner",
          "type": "address"
        },
        {
          "indexed": true,
          "internalType": "address",
          "name": "newOwner",
          "type": "address"
        }
      ],
      "name": "OwnershipTransferred",
      "type": "event"
    },
    {
      "anonymous": false,
      "inputs": [
        {
          "indexed": true,
          "internalType": "address",
          "name": "user",
          "type": "address"
        },
        {
          "indexed": false,
          "internalType": "uint256",
          "name": "amount",
          "type": "uint256"
        },
        {
          "indexed": false,
          "internalType": "uint256",
          "name": "total",
          "type": "uint256"
        },
        {
          "indexed": false,
          "internalType": "bytes",
          "name": "data",
          "type": "bytes"
        }
      ],
      "name": "Staked",
      "type": "event"
    },
    {
      "anonymous": false,
      "inputs": [
        {
          "indexed": true,
          "internalType": "address",
          "name": "user",
          "type": "address"
        },
        {
          "indexed": false,
          "internalType": "uint256",
          "name": "amount",
          "type": "uint256"
        },
        {
          "indexed": false,
          "internalType": "uint256",
          "name": "total",
          "type": "uint256"
        },
        {
          "indexed": false,
          "internalType": "bytes",
          "name": "data",
          "type": "bytes"
        }
      ],
      "name": "Unstaked",
      "type": "event"
    },
    {
      "inputs": [],
      "name": "owner",
      "outputs": [
        {
          "internalType": "address",
          "name": "",
          "type": "address"
        }
      ],
      "stateMutability": "view",
      "type": "function"
    },
    {
      "inputs": [],
      "name": "renounceOwnership",
      "outputs": [],
      "stateMutability": "nonpayable",
      "type": "function"
    },
    {
      "inputs": [],
      "name": "rewardToken",
      "outputs": [
        {
          "internalType": "contract ICollegeCredit",
          "name": "",
          "type": "address"
        }
      ],
      "stateMutability": "view",
      "type": "function"
    },
    {
      "inputs": [
        {
          "internalType": "address",
          "name": "",
          "type": "address"
        }
      ],
      "name": "stakableTokenAttributes",
      "outputs": [
        {
          "internalType": "uint256",
          "name": "minYield",
          "type": "uint256"
        },
        {
          "internalType": "uint256",
          "name": "maxYield",
          "type": "uint256"
        },
        {
          "internalType": "uint256",
          "name": "step",
          "type": "uint256"
        },
        {
          "internalType": "uint256",
          "name": "yieldPeriod",
          "type": "uint256"
        }
      ],
      "stateMutability": "view",
      "type": "function"
    },
    {
      "inputs": [
        {
          "internalType": "address",
          "name": "newOwner",
          "type": "address"
        }
      ],
      "name": "transferOwnership",
      "outputs": [],
      "stateMutability": "nonpayable",
      "type": "function"
    },
    {
      "inputs": [
        {
          "internalType": "address",
          "name": "_recipient",
          "type": "address"
        },
        {
          "internalType": "uint256",
          "name": "_amount",
          "type": "uint256"
        }
      ],
      "name": "mintRewardToken",
      "outputs": [],
      "stateMutability": "nonpayable",
      "type": "function"
    },
    {
      "inputs": [
        {
          "internalType": "address",
          "name": "_token",
          "type": "address"
        },
        {
          "internalType": "uint256",
          "name": "_minYield",
          "type": "uint256"
        },
        {
          "internalType": "uint256",
          "name": "_maxYield",
          "type": "uint256"
        },
        {
          "internalType": "uint256",
          "name": "_step",
          "type": "uint256"
        },
        {
          "internalType": "uint256",
          "name": "_yieldPeriod",
          "type": "uint256"
        }
      ],
      "name": "addStakableToken",
      "outputs": [],
      "stateMutability": "nonpayable",
      "type": "function"
    },
    {
      "inputs": [
        {
          "internalType": "address",
          "name": "_token",
          "type": "address"
        },
        {
          "internalType": "uint256",
          "name": "_tokenId",
          "type": "uint256"
        }
      ],
      "name": "stake",
      "outputs": [],
      "stateMutability": "nonpayable",
      "type": "function"
    },
    {
      "inputs": [
        {
          "internalType": "address",
          "name": "_user",
          "type": "address"
        },
        {
          "internalType": "address",
          "name": "_token",
          "type": "address"
        },
        {
          "internalType": "uint256",
          "name": "_tokenId",
          "type": "uint256"
        }
      ],
      "name": "stakeFor",
      "outputs": [],
      "stateMutability": "nonpayable",
      "type": "function"
    },
    {
      "inputs": [
        {
          "internalType": "address",
          "name": "_token",
          "type": "address"
        },
        {
          "internalType": "uint256",
          "name": "_tokenId",
          "type": "uint256"
        }
      ],
      "name": "unstake",
      "outputs": [],
      "stateMutability": "nonpayable",
      "type": "function"
    },
    {
      "inputs": [],
      "name": "claimRewards",
      "outputs": [],
      "stateMutability": "nonpayable",
      "type": "function"
    },
    {
      "inputs": [
        {
          "internalType": "address",
          "name": "_user",
          "type": "address"
        }
      ],
      "name": "dividendOf",
      "outputs": [
        {
          "internalType": "uint256",
          "name": "",
          "type": "uint256"
        }
      ],
      "stateMutability": "view",
      "type": "function"
    },
    {
      "inputs": [
        {
          "internalType": "address",
          "name": "_token",
          "type": "address"
        },
        {
          "internalType": "uint256",
          "name": "_tokenId",
          "type": "uint256"
        }
      ],
      "name": "unstakeAndClaimRewards",
      "outputs": [],
      "stateMutability": "nonpayable",
      "type": "function"
    },
    {
      "inputs": [
        {
          "internalType": "address",
          "name": "_user",
          "type": "address"
        },
        {
          "internalType": "address",
          "name": "_token",
          "type": "address"
        }
      ],
      "name": "totalStakedFor",
      "outputs": [
        {
          "internalType": "uint256",
          "name": "",
          "type": "uint256"
        }
      ],
      "stateMutability": "view",
      "type": "function"
    },
    {
      "inputs": [
        {
          "internalType": "address",
          "name": "_token",
          "type": "address"
        }
      ],
      "name": "totalStaked",
      "outputs": [
        {
          "internalType": "uint256",
          "name": "",
          "type": "uint256"
        }
      ],
      "stateMutability": "view",
      "type": "function"
    },
    {
      "inputs": [
        {
          "internalType": "address",
          "name": "_user",
          "type": "address"
        },
        {
          "internalType": "address",
          "name": "_token",
          "type": "address"
        }
      ],
      "name": "stakedTokenIds",
      "outputs": [
        {
          "internalType": "uint256[]",
          "name": "",
          "type": "uint256[]"
        }
      ],
      "stateMutability": "view",
      "type": "function"
    }
  ],
  "bytecode": "0x60806040523480156200001157600080fd5b50604051620049f9380380620049f98339818101604052810190620000379190620003ef565b620000576200004b620000ea60201b60201c565b620000f260201b60201c565b60018081905550620000738585858585620001b660201b60201c565b60405162000081906200033c565b604051809103906000f0801580156200009e573d6000803e3d6000fd5b50600560006101000a81548173ffffffffffffffffffffffffffffffffffffffff021916908373ffffffffffffffffffffffffffffffffffffffff160217905550505050505062000477565b600033905090565b60008060009054906101000a900473ffffffffffffffffffffffffffffffffffffffff169050816000806101000a81548173ffffffffffffffffffffffffffffffffffffffff021916908373ffffffffffffffffffffffffffffffffffffffff1602179055508173ffffffffffffffffffffffffffffffffffffffff168173ffffffffffffffffffffffffffffffffffffffff167f8be0079c531659141344cd1fd0a4f28419497f9722a3daafe3b4186f6b6457e060405160405180910390a35050565b82600360008773ffffffffffffffffffffffffffffffffffffffff1673ffffffffffffffffffffffffffffffffffffffff1681526020019081526020016000206001018190555083600360008773ffffffffffffffffffffffffffffffffffffffff1673ffffffffffffffffffffffffffffffffffffffff1681526020019081526020016000206000018190555081600360008773ffffffffffffffffffffffffffffffffffffffff1673ffffffffffffffffffffffffffffffffffffffff1681526020019081526020016000206002018190555080600360008773ffffffffffffffffffffffffffffffffffffffff1673ffffffffffffffffffffffffffffffffffffffff168152602001908152602001600020600301819055506004859080600181540180825580915050600190039060005260206000200160009091909190916101000a81548173ffffffffffffffffffffffffffffffffffffffff021916908373ffffffffffffffffffffffffffffffffffffffff1602179055505050505050565b611d0f8062002cea83390190565b600080fd5b600073ffffffffffffffffffffffffffffffffffffffff82169050919050565b60006200037c826200034f565b9050919050565b6200038e816200036f565b81146200039a57600080fd5b50565b600081519050620003ae8162000383565b92915050565b6000819050919050565b620003c981620003b4565b8114620003d557600080fd5b50565b600081519050620003e981620003be565b92915050565b600080600080600060a086880312156200040e576200040d6200034a565b5b60006200041e888289016200039d565b95505060206200043188828901620003d8565b94505060406200044488828901620003d8565b93505060606200045788828901620003d8565b92505060806200046a88828901620003d8565b9150509295509295909350565b61286380620004876000396000f3fe608060405234801561001057600080fd5b50600436106101005760003560e01c80639bfd8d6111610097578063db2ee2b011610066578063db2ee2b014610283578063f2fde38b1461029f578063f5a097cd146102bb578063f7c618c1146102ee57610100565b80639bfd8d61146101ff578063ac613b5c1461022f578063adc9772e1461024b578063c2a672e01461026757610100565b806365d8dded116100d357806365d8dded14610177578063715018a6146101a75780638da5cb5b146101b157806391b89fba146101cf57610100565b80631ddec53b146101055780632cc205d9146101215780632dd5567a14610151578063372500ab1461016d575b600080fd5b61011f600480360381019061011a9190611d7c565b61030c565b005b61013b60048036038101906101369190611df7565b6103e5565b6040516101489190611e46565b60405180910390f35b61016b60048036038101906101669190611e61565b610441565b005b610175610451565b005b610191600480360381019061018c9190611df7565b61045c565b60405161019e9190611f72565b60405180910390f35b6101af6104b8565b005b6101b9610540565b6040516101c69190611fa3565b60405180910390f35b6101e960048036038101906101e49190611fbe565b610569565b6040516101f69190611e46565b60405180910390f35b61021960048036038101906102149190611fbe565b61057b565b6040516102269190611e46565b60405180910390f35b61024960048036038101906102449190611feb565b6105ca565b005b61026560048036038101906102609190611feb565b6106c5565b005b610281600480360381019061027c9190611feb565b6106d4565b005b61029d60048036038101906102989190611feb565b6107c6565b005b6102b960048036038101906102b49190611fbe565b6108d5565b005b6102d560048036038101906102d09190611fbe565b6109cd565b6040516102e5949392919061202b565b60405180910390f35b6102f66109fd565b60405161030391906120cf565b60405180910390f35b610314610a23565b73ffffffffffffffffffffffffffffffffffffffff16610332610540565b73ffffffffffffffffffffffffffffffffffffffff1614610388576040517f08c379a000000000000000000000000000000000000000000000000000000000815260040161037f90612147565b60405180910390fd5b61039185610a2b565b156103d1576040517f08c379a00000000000000000000000000000000000000000000000000000000081526004016103c8906121b3565b60405180910390fd5b6103de8585858585610a7a565b5050505050565b60006103f082610a2b565b61042f576040517f08c379a00000000000000000000000000000000000000000000000000000000081526004016104269061221f565b60405180910390fd5b6104398383610c00565b905092915050565b61044c838383610ddd565b505050565b61045a33610ff2565b565b606061046782610a2b565b6104a6576040517f08c379a000000000000000000000000000000000000000000000000000000000815260040161049d9061221f565b60405180910390fd5b6104b0838361112b565b905092915050565b6104c0610a23565b73ffffffffffffffffffffffffffffffffffffffff166104de610540565b73ffffffffffffffffffffffffffffffffffffffff1614610534576040517f08c379a000000000000000000000000000000000000000000000000000000000815260040161052b90612147565b60405180910390fd5b61053e600061138e565b565b60008060009054906101000a900473ffffffffffffffffffffffffffffffffffffffff16905090565b600061057482611452565b9050919050565b6000600360008373ffffffffffffffffffffffffffffffffffffffff1673ffffffffffffffffffffffffffffffffffffffff168152602001908152602001600020600501805490509050919050565b3373ffffffffffffffffffffffffffffffffffffffff16600360008473ffffffffffffffffffffffffffffffffffffffff1673ffffffffffffffffffffffffffffffffffffffff168152602001908152602001600020600401600083815260200190815260200160002060010160009054906101000a900473ffffffffffffffffffffffffffffffffffffffff1673ffffffffffffffffffffffffffffffffffffffff16146106ae576040517f08c379a00000000000000000000000000000000000000000000000000000000081526004016106a59061228b565b60405180910390fd5b6106b733610ff2565b6106c1828261182e565b5050565b6106d0338383610ddd565b5050565b3373ffffffffffffffffffffffffffffffffffffffff16600360008473ffffffffffffffffffffffffffffffffffffffff1673ffffffffffffffffffffffffffffffffffffffff168152602001908152602001600020600401600083815260200190815260200160002060010160009054906101000a900473ffffffffffffffffffffffffffffffffffffffff1673ffffffffffffffffffffffffffffffffffffffff16146107b8576040517f08c379a00000000000000000000000000000000000000000000000000000000081526004016107af9061228b565b60405180910390fd5b6107c2828261182e565b5050565b6107ce610a23565b73ffffffffffffffffffffffffffffffffffffffff166107ec610540565b73ffffffffffffffffffffffffffffffffffffffff1614610842576040517f08c379a000000000000000000000000000000000000000000000000000000000815260040161083990612147565b60405180910390fd5b600560009054906101000a900473ffffffffffffffffffffffffffffffffffffffff1673ffffffffffffffffffffffffffffffffffffffff166340c10f1983836040518363ffffffff1660e01b815260040161089f9291906122ab565b600060405180830381600087803b1580156108b957600080fd5b505af11580156108cd573d6000803e3d6000fd5b505050505050565b6108dd610a23565b73ffffffffffffffffffffffffffffffffffffffff166108fb610540565b73ffffffffffffffffffffffffffffffffffffffff1614610951576040517f08c379a000000000000000000000000000000000000000000000000000000000815260040161094890612147565b60405180910390fd5b600073ffffffffffffffffffffffffffffffffffffffff168173ffffffffffffffffffffffffffffffffffffffff1614156109c1576040517f08c379a00000000000000000000000000000000000000000000000000000000081526004016109b890612346565b60405180910390fd5b6109ca8161138e565b50565b60036020528060005260406000206000915090508060000154908060010154908060020154908060030154905084565b600560009054906101000a900473ffffffffffffffffffffffffffffffffffffffff1681565b600033905090565b600080600360008473ffffffffffffffffffffffffffffffffffffffff1673ffffffffffffffffffffffffffffffffffffffff1681526020019081526020016000206001015414159050919050565b82600360008773ffffffffffffffffffffffffffffffffffffffff1673ffffffffffffffffffffffffffffffffffffffff1681526020019081526020016000206001018190555083600360008773ffffffffffffffffffffffffffffffffffffffff1673ffffffffffffffffffffffffffffffffffffffff1681526020019081526020016000206000018190555081600360008773ffffffffffffffffffffffffffffffffffffffff1673ffffffffffffffffffffffffffffffffffffffff1681526020019081526020016000206002018190555080600360008773ffffffffffffffffffffffffffffffffffffffff1673ffffffffffffffffffffffffffffffffffffffff168152602001908152602001600020600301819055506004859080600181540180825580915050600190039060005260206000200160009091909190916101000a81548173ffffffffffffffffffffffffffffffffffffffff021916908373ffffffffffffffffffffffffffffffffffffffff1602179055505050505050565b6000806000905060005b600360008573ffffffffffffffffffffffffffffffffffffffff1673ffffffffffffffffffffffffffffffffffffffff16815260200190815260200160002060050180549050811015610dd2576000600360008673ffffffffffffffffffffffffffffffffffffffff1673ffffffffffffffffffffffffffffffffffffffff1681526020019081526020016000206004016000600360008873ffffffffffffffffffffffffffffffffffffffff1673ffffffffffffffffffffffffffffffffffffffff1681526020019081526020016000206005018481548110610cf157610cf0612366565b5b90600052602060002001548152602001908152602001600020604051806040016040529081600082015481526020016001820160009054906101000a900473ffffffffffffffffffffffffffffffffffffffff1673ffffffffffffffffffffffffffffffffffffffff1673ffffffffffffffffffffffffffffffffffffffff168152505090508573ffffffffffffffffffffffffffffffffffffffff16816020015173ffffffffffffffffffffffffffffffffffffffff161415610dbe578280610dba906123c4565b9350505b508080610dca906123c4565b915050610c0a565b819250505092915050565b610de682610a2b565b610e25576040517f08c379a0000000000000000000000000000000000000000000000000000000008152600401610e1c9061221f565b60405180910390fd5b8173ffffffffffffffffffffffffffffffffffffffff166323b872dd8430846040518463ffffffff1660e01b8152600401610e629392919061240d565b600060405180830381600087803b158015610e7c57600080fd5b505af1158015610e90573d6000803e3d6000fd5b5050505042600360008473ffffffffffffffffffffffffffffffffffffffff1673ffffffffffffffffffffffffffffffffffffffff16815260200190815260200160002060040160008381526020019081526020016000206000018190555082600360008473ffffffffffffffffffffffffffffffffffffffff1673ffffffffffffffffffffffffffffffffffffffff168152602001908152602001600020600401600083815260200190815260200160002060010160006101000a81548173ffffffffffffffffffffffffffffffffffffffff021916908373ffffffffffffffffffffffffffffffffffffffff160217905550600360008373ffffffffffffffffffffffffffffffffffffffff1673ffffffffffffffffffffffffffffffffffffffff168152602001908152602001600020600501819080600181540180825580915050600190039060005260206000200160009091909190915055505050565b6000610ffd82611452565b905060008111611042576040517f08c379a000000000000000000000000000000000000000000000000000000000815260040161103990612490565b60405180910390fd5b80600260008473ffffffffffffffffffffffffffffffffffffffff1673ffffffffffffffffffffffffffffffffffffffff168152602001908152602001600020600082825461109191906124ba565b92505081905550600560009054906101000a900473ffffffffffffffffffffffffffffffffffffffff1673ffffffffffffffffffffffffffffffffffffffff166340c10f1983836040518363ffffffff1660e01b81526004016110f59291906122ab565b600060405180830381600087803b15801561110f57600080fd5b505af1158015611123573d6000803e3d6000fd5b505050505050565b606060006111398484610c00565b905060008167ffffffffffffffff8111156111575761115661254e565b5b6040519080825280602002602001820160405280156111855781602001602082028036833780820191505090505b5090506000805b600360008773ffffffffffffffffffffffffffffffffffffffff1673ffffffffffffffffffffffffffffffffffffffff16815260200190815260200160002060050180549050811015611381578673ffffffffffffffffffffffffffffffffffffffff16600360008873ffffffffffffffffffffffffffffffffffffffff1673ffffffffffffffffffffffffffffffffffffffff1681526020019081526020016000206004016000600360008a73ffffffffffffffffffffffffffffffffffffffff1673ffffffffffffffffffffffffffffffffffffffff168152602001908152602001600020600501848154811061128857611287612366565b5b9060005260206000200154815260200190815260200160002060010160009054906101000a900473ffffffffffffffffffffffffffffffffffffffff1673ffffffffffffffffffffffffffffffffffffffff16141561136e57600360008773ffffffffffffffffffffffffffffffffffffffff1673ffffffffffffffffffffffffffffffffffffffff168152602001908152602001600020600501818154811061133557611334612366565b5b906000526020600020015483838151811061135357611352612366565b5b602002602001018181525050818061136a906123c4565b9250505b8080611379906123c4565b91505061118c565b8294505050505092915050565b60008060009054906101000a900473ffffffffffffffffffffffffffffffffffffffff169050816000806101000a81548173ffffffffffffffffffffffffffffffffffffffff021916908373ffffffffffffffffffffffffffffffffffffffff1602179055508173ffffffffffffffffffffffffffffffffffffffff168173ffffffffffffffffffffffffffffffffffffffff167f8be0079c531659141344cd1fd0a4f28419497f9722a3daafe3b4186f6b6457e060405160405180910390a35050565b6000806000905060005b6004805490508110156117905760005b600360006004848154811061148457611483612366565b5b9060005260206000200160009054906101000a900473ffffffffffffffffffffffffffffffffffffffff1673ffffffffffffffffffffffffffffffffffffffff1673ffffffffffffffffffffffffffffffffffffffff1681526020019081526020016000206005018054905081101561177c576000600360006004858154811061151157611510612366565b5b9060005260206000200160009054906101000a900473ffffffffffffffffffffffffffffffffffffffff1673ffffffffffffffffffffffffffffffffffffffff1673ffffffffffffffffffffffffffffffffffffffff1681526020019081526020016000206004016000600360006004878154811061159357611592612366565b5b9060005260206000200160009054906101000a900473ffffffffffffffffffffffffffffffffffffffff1673ffffffffffffffffffffffffffffffffffffffff1673ffffffffffffffffffffffffffffffffffffffff168152602001908152602001600020600501848154811061160d5761160c612366565b5b90600052602060002001548152602001908152602001600020604051806040016040529081600082015481526020016001820160009054906101000a900473ffffffffffffffffffffffffffffffffffffffff1673ffffffffffffffffffffffffffffffffffffffff1673ffffffffffffffffffffffffffffffffffffffff168152505090508573ffffffffffffffffffffffffffffffffffffffff16816020015173ffffffffffffffffffffffffffffffffffffffff16146116d05750611769565b61175a60036000600486815481106116eb576116ea612366565b5b9060005260206000200160009054906101000a900473ffffffffffffffffffffffffffffffffffffffff1673ffffffffffffffffffffffffffffffffffffffff1673ffffffffffffffffffffffffffffffffffffffff1681526020019081526020016000208260000151611bc8565b84611765919061257d565b9350505b8080611774906123c4565b91505061146c565b508080611788906123c4565b91505061145c565b6000600260008673ffffffffffffffffffffffffffffffffffffffff1673ffffffffffffffffffffffffffffffffffffffff16815260200190815260200160002054836117dd91906125d3565b90506000811215611823576040517f08c379a000000000000000000000000000000000000000000000000000000000815260040161181a906126b3565b60405180910390fd5b809350505050919050565b6000600360008473ffffffffffffffffffffffffffffffffffffffff1673ffffffffffffffffffffffffffffffffffffffff168152602001908152602001600020600401600083815260200190815260200160002060010160009054906101000a900473ffffffffffffffffffffffffffffffffffffffff1690506000611949600360008673ffffffffffffffffffffffffffffffffffffffff1673ffffffffffffffffffffffffffffffffffffffff168152602001908152602001600020600360008773ffffffffffffffffffffffffffffffffffffffff1673ffffffffffffffffffffffffffffffffffffffff168152602001908152602001600020600401600086815260200190815260200160002060000154611bc8565b905080600260008473ffffffffffffffffffffffffffffffffffffffff1673ffffffffffffffffffffffffffffffffffffffff168152602001908152602001600020600082825461199a91906125d3565b92505081905550600360008573ffffffffffffffffffffffffffffffffffffffff1673ffffffffffffffffffffffffffffffffffffffff16815260200190815260200160002060040160008481526020019081526020016000206000808201600090556001820160006101000a81549073ffffffffffffffffffffffffffffffffffffffff0219169055505060005b600360008673ffffffffffffffffffffffffffffffffffffffff1673ffffffffffffffffffffffffffffffffffffffff16815260200190815260200160002060050180549050811015611b525783600360008773ffffffffffffffffffffffffffffffffffffffff1673ffffffffffffffffffffffffffffffffffffffff1681526020019081526020016000206005018281548110611acb57611aca612366565b5b90600052602060002001541415611b3f57600360008673ffffffffffffffffffffffffffffffffffffffff1673ffffffffffffffffffffffffffffffffffffffff1681526020019081526020016000206005018181548110611b3057611b2f612366565b5b90600052602060002001600090555b8080611b4a906123c4565b915050611a29565b508373ffffffffffffffffffffffffffffffffffffffff166342842e0e3084866040518463ffffffff1660e01b8152600401611b909392919061240d565b600060405180830381600087803b158015611baa57600080fd5b505af1158015611bbe573d6000803e3d6000fd5b5050505050505050565b600080821415611c0d576040517f08c379a0000000000000000000000000000000000000000000000000000000008152600401611c049061271f565b60405180910390fd5b600083600301548342611c20919061273f565b611c2a91906127a2565b90506000805b82811015611caf576000866002015482611c4a91906127d3565b8760000154611c59919061257d565b90508660010154811115611c8d57866001015483611c77919061257d565b92508180611c84906123c4565b92505050611caf565b8083611c99919061257d565b9250508080611ca7906123c4565b915050611c30565b85600101548184611cc0919061273f565b611cca91906127d3565b82611cd5919061257d565b915081935050505092915050565b600080fd5b600073ffffffffffffffffffffffffffffffffffffffff82169050919050565b6000611d1382611ce8565b9050919050565b611d2381611d08565b8114611d2e57600080fd5b50565b600081359050611d4081611d1a565b92915050565b6000819050919050565b611d5981611d46565b8114611d6457600080fd5b50565b600081359050611d7681611d50565b92915050565b600080600080600060a08688031215611d9857611d97611ce3565b5b6000611da688828901611d31565b9550506020611db788828901611d67565b9450506040611dc888828901611d67565b9350506060611dd988828901611d67565b9250506080611dea88828901611d67565b9150509295509295909350565b60008060408385031215611e0e57611e0d611ce3565b5b6000611e1c85828601611d31565b9250506020611e2d85828601611d31565b9150509250929050565b611e4081611d46565b82525050565b6000602082019050611e5b6000830184611e37565b92915050565b600080600060608486031215611e7a57611e79611ce3565b5b6000611e8886828701611d31565b9350506020611e9986828701611d31565b9250506040611eaa86828701611d67565b9150509250925092565b600081519050919050565b600082825260208201905092915050565b6000819050602082019050919050565b611ee981611d46565b82525050565b6000611efb8383611ee0565b60208301905092915050565b6000602082019050919050565b6000611f1f82611eb4565b611f298185611ebf565b9350611f3483611ed0565b8060005b83811015611f65578151611f4c8882611eef565b9750611f5783611f07565b925050600181019050611f38565b5085935050505092915050565b60006020820190508181036000830152611f8c8184611f14565b905092915050565b611f9d81611d08565b82525050565b6000602082019050611fb86000830184611f94565b92915050565b600060208284031215611fd457611fd3611ce3565b5b6000611fe284828501611d31565b91505092915050565b6000806040838503121561200257612001611ce3565b5b600061201085828601611d31565b925050602061202185828601611d67565b9150509250929050565b60006080820190506120406000830187611e37565b61204d6020830186611e37565b61205a6040830185611e37565b6120676060830184611e37565b95945050505050565b6000819050919050565b600061209561209061208b84611ce8565b612070565b611ce8565b9050919050565b60006120a78261207a565b9050919050565b60006120b98261209c565b9050919050565b6120c9816120ae565b82525050565b60006020820190506120e460008301846120c0565b92915050565b600082825260208201905092915050565b7f4f776e61626c653a2063616c6c6572206973206e6f7420746865206f776e6572600082015250565b60006121316020836120ea565b915061213c826120fb565b602082019050919050565b6000602082019050818103600083015261216081612124565b9050919050565b7f416c726561647920657869737473000000000000000000000000000000000000600082015250565b600061219d600e836120ea565b91506121a882612167565b602082019050919050565b600060208201905081810360008301526121cc81612190565b9050919050565b7f4e6f74207374616b61626c650000000000000000000000000000000000000000600082015250565b6000612209600c836120ea565b9150612214826121d3565b602082019050919050565b60006020820190508181036000830152612238816121fc565b9050919050565b7f4e6f74206f776e65720000000000000000000000000000000000000000000000600082015250565b60006122756009836120ea565b91506122808261223f565b602082019050919050565b600060208201905081810360008301526122a481612268565b9050919050565b60006040820190506122c06000830185611f94565b6122cd6020830184611e37565b9392505050565b7f4f776e61626c653a206e6577206f776e657220697320746865207a65726f206160008201527f6464726573730000000000000000000000000000000000000000000000000000602082015250565b60006123306026836120ea565b915061233b826122d4565b604082019050919050565b6000602082019050818103600083015261235f81612323565b9050919050565b7f4e487b7100000000000000000000000000000000000000000000000000000000600052603260045260246000fd5b7f4e487b7100000000000000000000000000000000000000000000000000000000600052601160045260246000fd5b60006123cf82611d46565b91507fffffffffffffffffffffffffffffffffffffffffffffffffffffffffffffffff82141561240257612401612395565b5b600182019050919050565b60006060820190506124226000830186611f94565b61242f6020830185611f94565b61243c6040830184611e37565b949350505050565b7f5a65726f206469766964656e6400000000000000000000000000000000000000600082015250565b600061247a600d836120ea565b915061248582612444565b602082019050919050565b600060208201905081810360008301526124a98161246d565b9050919050565b6000819050919050565b60006124c5826124b0565b91506124d0836124b0565b9250827f80000000000000000000000000000000000000000000000000000000000000000182126000841215161561250b5761250a612395565b5b827f7fffffffffffffffffffffffffffffffffffffffffffffffffffffffffffffff01821360008412161561254357612542612395565b5b828203905092915050565b7f4e487b7100000000000000000000000000000000000000000000000000000000600052604160045260246000fd5b600061258882611d46565b915061259383611d46565b9250827fffffffffffffffffffffffffffffffffffffffffffffffffffffffffffffffff038211156125c8576125c7612395565b5b828201905092915050565b60006125de826124b0565b91506125e9836124b0565b9250817f7fffffffffffffffffffffffffffffffffffffffffffffffffffffffffffffff0383136000831215161561262457612623612395565b5b817f800000000000000000000000000000000000000000000000000000000000000003831260008312161561265c5761265b612395565b5b828201905092915050565b7f556e646572666c6f770000000000000000000000000000000000000000000000600082015250565b600061269d6009836120ea565b91506126a882612667565b602082019050919050565b600060208201905081810360008301526126cc81612690565b9050919050565b7f4e6f74207374616b656400000000000000000000000000000000000000000000600082015250565b6000612709600a836120ea565b9150612714826126d3565b602082019050919050565b60006020820190508181036000830152612738816126fc565b9050919050565b600061274a82611d46565b915061275583611d46565b92508282101561276857612767612395565b5b828203905092915050565b7f4e487b7100000000000000000000000000000000000000000000000000000000600052601260045260246000fd5b60006127ad82611d46565b91506127b883611d46565b9250826127c8576127c7612773565b5b828204905092915050565b60006127de82611d46565b91506127e983611d46565b9250817fffffffffffffffffffffffffffffffffffffffffffffffffffffffffffffffff048311821515161561282257612821612395565b5b82820290509291505056fea2646970667358221220bd5746e629c94bf184f847f9b3e01a22cb658ffb3f010e2a0a6b387979ede3ac64736f6c6343000809003360806040523480156200001157600080fd5b506040518060400160405280600e81526020017f436f6c6c656765204372656469740000000000000000000000000000000000008152506040518060400160405280600281526020017f4343000000000000000000000000000000000000000000000000000000000000815250816003908051906020019062000096929190620001a6565b508060049080519060200190620000af929190620001a6565b505050620000d2620000c6620000d860201b60201c565b620000e060201b60201c565b620002bb565b600033905090565b6000600560009054906101000a900473ffffffffffffffffffffffffffffffffffffffff16905081600560006101000a81548173ffffffffffffffffffffffffffffffffffffffff021916908373ffffffffffffffffffffffffffffffffffffffff1602179055508173ffffffffffffffffffffffffffffffffffffffff168173ffffffffffffffffffffffffffffffffffffffff167f8be0079c531659141344cd1fd0a4f28419497f9722a3daafe3b4186f6b6457e060405160405180910390a35050565b828054620001b49062000285565b90600052602060002090601f016020900481019282620001d8576000855562000224565b82601f10620001f357805160ff191683800117855562000224565b8280016001018555821562000224579182015b828111156200022357825182559160200191906001019062000206565b5b50905062000233919062000237565b5090565b5b808211156200025257600081600090555060010162000238565b5090565b7f4e487b7100000000000000000000000000000000000000000000000000000000600052602260045260246000fd5b600060028204905060018216806200029e57607f821691505b60208210811415620002b557620002b462000256565b5b50919050565b611a4480620002cb6000396000f3fe608060405234801561001057600080fd5b50600436106100f55760003560e01c806370a0823111610097578063a457c2d711610066578063a457c2d714610276578063a9059cbb146102a6578063dd62ed3e146102d6578063f2fde38b14610306576100f5565b806370a0823114610200578063715018a6146102305780638da5cb5b1461023a57806395d89b4114610258576100f5565b806323b872dd116100d357806323b872dd14610166578063313ce5671461019657806339509351146101b457806340c10f19146101e4576100f5565b806306fdde03146100fa578063095ea7b31461011857806318160ddd14610148575b600080fd5b610102610322565b60405161010f9190611144565b60405180910390f35b610132600480360381019061012d91906111ff565b6103b4565b60405161013f919061125a565b60405180910390f35b6101506103d2565b60405161015d9190611284565b60405180910390f35b610180600480360381019061017b919061129f565b6103dc565b60405161018d919061125a565b60405180910390f35b61019e6104d4565b6040516101ab919061130e565b60405180910390f35b6101ce60048036038101906101c991906111ff565b6104dd565b6040516101db919061125a565b60405180910390f35b6101fe60048036038101906101f991906111ff565b610589565b005b61021a60048036038101906102159190611329565b610613565b6040516102279190611284565b60405180910390f35b61023861065b565b005b6102426106e3565b60405161024f9190611365565b60405180910390f35b61026061070d565b60405161026d9190611144565b60405180910390f35b610290600480360381019061028b91906111ff565b61079f565b60405161029d919061125a565b60405180910390f35b6102c060048036038101906102bb91906111ff565b61088a565b6040516102cd919061125a565b60405180910390f35b6102f060048036038101906102eb9190611380565b6108a8565b6040516102fd9190611284565b60405180910390f35b610320600480360381019061031b9190611329565b61092f565b005b606060038054610331906113ef565b80601f016020809104026020016040519081016040528092919081815260200182805461035d906113ef565b80156103aa5780601f1061037f576101008083540402835291602001916103aa565b820191906000526020600020905b81548152906001019060200180831161038d57829003601f168201915b5050505050905090565b60006103c86103c1610a27565b8484610a2f565b6001905092915050565b6000600254905090565b60006103e9848484610bfa565b6000600160008673ffffffffffffffffffffffffffffffffffffffff1673ffffffffffffffffffffffffffffffffffffffff1681526020019081526020016000206000610434610a27565b73ffffffffffffffffffffffffffffffffffffffff1673ffffffffffffffffffffffffffffffffffffffff168152602001908152602001600020549050828110156104b4576040517f08c379a00000000000000000000000000000000000000000000000000000000081526004016104ab90611493565b60405180910390fd5b6104c8856104c0610a27565b858403610a2f565b60019150509392505050565b60006012905090565b600061057f6104ea610a27565b8484600160006104f8610a27565b73ffffffffffffffffffffffffffffffffffffffff1673ffffffffffffffffffffffffffffffffffffffff16815260200190815260200160002060008873ffffffffffffffffffffffffffffffffffffffff1673ffffffffffffffffffffffffffffffffffffffff1681526020019081526020016000205461057a91906114e2565b610a2f565b6001905092915050565b610591610a27565b73ffffffffffffffffffffffffffffffffffffffff166105af6106e3565b73ffffffffffffffffffffffffffffffffffffffff1614610605576040517f08c379a00000000000000000000000000000000000000000000000000000000081526004016105fc90611584565b60405180910390fd5b61060f8282610e7b565b5050565b60008060008373ffffffffffffffffffffffffffffffffffffffff1673ffffffffffffffffffffffffffffffffffffffff168152602001908152602001600020549050919050565b610663610a27565b73ffffffffffffffffffffffffffffffffffffffff166106816106e3565b73ffffffffffffffffffffffffffffffffffffffff16146106d7576040517f08c379a00000000000000000000000000000000000000000000000000000000081526004016106ce90611584565b60405180910390fd5b6106e16000610fdb565b565b6000600560009054906101000a900473ffffffffffffffffffffffffffffffffffffffff16905090565b60606004805461071c906113ef565b80601f0160208091040260200160405190810160405280929190818152602001828054610748906113ef565b80156107955780601f1061076a57610100808354040283529160200191610795565b820191906000526020600020905b81548152906001019060200180831161077857829003601f168201915b5050505050905090565b600080600160006107ae610a27565b73ffffffffffffffffffffffffffffffffffffffff1673ffffffffffffffffffffffffffffffffffffffff16815260200190815260200160002060008573ffffffffffffffffffffffffffffffffffffffff1673ffffffffffffffffffffffffffffffffffffffff1681526020019081526020016000205490508281101561086b576040517f08c379a000000000000000000000000000000000000000000000000000000000815260040161086290611616565b60405180910390fd5b61087f610876610a27565b85858403610a2f565b600191505092915050565b600061089e610897610a27565b8484610bfa565b6001905092915050565b6000600160008473ffffffffffffffffffffffffffffffffffffffff1673ffffffffffffffffffffffffffffffffffffffff16815260200190815260200160002060008373ffffffffffffffffffffffffffffffffffffffff1673ffffffffffffffffffffffffffffffffffffffff16815260200190815260200160002054905092915050565b610937610a27565b73ffffffffffffffffffffffffffffffffffffffff166109556106e3565b73ffffffffffffffffffffffffffffffffffffffff16146109ab576040517f08c379a00000000000000000000000000000000000000000000000000000000081526004016109a290611584565b60405180910390fd5b600073ffffffffffffffffffffffffffffffffffffffff168173ffffffffffffffffffffffffffffffffffffffff161415610a1b576040517f08c379a0000000000000000000000000000000000000000000000000000000008152600401610a12906116a8565b60405180910390fd5b610a2481610fdb565b50565b600033905090565b600073ffffffffffffffffffffffffffffffffffffffff168373ffffffffffffffffffffffffffffffffffffffff161415610a9f576040517f08c379a0000000000000000000000000000000000000000000000000000000008152600401610a969061173a565b60405180910390fd5b600073ffffffffffffffffffffffffffffffffffffffff168273ffffffffffffffffffffffffffffffffffffffff161415610b0f576040517f08c379a0000000000000000000000000000000000000000000000000000000008152600401610b06906117cc565b60405180910390fd5b80600160008573ffffffffffffffffffffffffffffffffffffffff1673ffffffffffffffffffffffffffffffffffffffff16815260200190815260200160002060008473ffffffffffffffffffffffffffffffffffffffff1673ffffffffffffffffffffffffffffffffffffffff168152602001908152602001600020819055508173ffffffffffffffffffffffffffffffffffffffff168373ffffffffffffffffffffffffffffffffffffffff167f8c5be1e5ebec7d5bd14f71427d1e84f3dd0314c0f7b2291e5b200ac8c7c3b92583604051610bed9190611284565b60405180910390a3505050565b600073ffffffffffffffffffffffffffffffffffffffff168373ffffffffffffffffffffffffffffffffffffffff161415610c6a576040517f08c379a0000000000000000000000000000000000000000000000000000000008152600401610c619061185e565b60405180910390fd5b600073ffffffffffffffffffffffffffffffffffffffff168273ffffffffffffffffffffffffffffffffffffffff161415610cda576040517f08c379a0000000000000000000000000000000000000000000000000000000008152600401610cd1906118f0565b60405180910390fd5b610ce58383836110a1565b60008060008573ffffffffffffffffffffffffffffffffffffffff1673ffffffffffffffffffffffffffffffffffffffff16815260200190815260200160002054905081811015610d6b576040517f08c379a0000000000000000000000000000000000000000000000000000000008152600401610d6290611982565b60405180910390fd5b8181036000808673ffffffffffffffffffffffffffffffffffffffff1673ffffffffffffffffffffffffffffffffffffffff16815260200190815260200160002081905550816000808573ffffffffffffffffffffffffffffffffffffffff1673ffffffffffffffffffffffffffffffffffffffff1681526020019081526020016000206000828254610dfe91906114e2565b925050819055508273ffffffffffffffffffffffffffffffffffffffff168473ffffffffffffffffffffffffffffffffffffffff167fddf252ad1be2c89b69c2b068fc378daa952ba7f163c4a11628f55a4df523b3ef84604051610e629190611284565b60405180910390a3610e758484846110a6565b50505050565b600073ffffffffffffffffffffffffffffffffffffffff168273ffffffffffffffffffffffffffffffffffffffff161415610eeb576040517f08c379a0000000000000000000000000000000000000000000000000000000008152600401610ee2906119ee565b60405180910390fd5b610ef7600083836110a1565b8060026000828254610f0991906114e2565b92505081905550806000808473ffffffffffffffffffffffffffffffffffffffff1673ffffffffffffffffffffffffffffffffffffffff1681526020019081526020016000206000828254610f5e91906114e2565b925050819055508173ffffffffffffffffffffffffffffffffffffffff16600073ffffffffffffffffffffffffffffffffffffffff167fddf252ad1be2c89b69c2b068fc378daa952ba7f163c4a11628f55a4df523b3ef83604051610fc39190611284565b60405180910390a3610fd7600083836110a6565b5050565b6000600560009054906101000a900473ffffffffffffffffffffffffffffffffffffffff16905081600560006101000a81548173ffffffffffffffffffffffffffffffffffffffff021916908373ffffffffffffffffffffffffffffffffffffffff1602179055508173ffffffffffffffffffffffffffffffffffffffff168173ffffffffffffffffffffffffffffffffffffffff167f8be0079c531659141344cd1fd0a4f28419497f9722a3daafe3b4186f6b6457e060405160405180910390a35050565b505050565b505050565b600081519050919050565b600082825260208201905092915050565b60005b838110156110e55780820151818401526020810190506110ca565b838111156110f4576000848401525b50505050565b6000601f19601f8301169050919050565b6000611116826110ab565b61112081856110b6565b93506111308185602086016110c7565b611139816110fa565b840191505092915050565b6000602082019050818103600083015261115e818461110b565b905092915050565b600080fd5b600073ffffffffffffffffffffffffffffffffffffffff82169050919050565b60006111968261116b565b9050919050565b6111a68161118b565b81146111b157600080fd5b50565b6000813590506111c38161119d565b92915050565b6000819050919050565b6111dc816111c9565b81146111e757600080fd5b50565b6000813590506111f9816111d3565b92915050565b6000806040838503121561121657611215611166565b5b6000611224858286016111b4565b9250506020611235858286016111ea565b9150509250929050565b60008115159050919050565b6112548161123f565b82525050565b600060208201905061126f600083018461124b565b92915050565b61127e816111c9565b82525050565b60006020820190506112996000830184611275565b92915050565b6000806000606084860312156112b8576112b7611166565b5b60006112c6868287016111b4565b93505060206112d7868287016111b4565b92505060406112e8868287016111ea565b9150509250925092565b600060ff82169050919050565b611308816112f2565b82525050565b600060208201905061132360008301846112ff565b92915050565b60006020828403121561133f5761133e611166565b5b600061134d848285016111b4565b91505092915050565b61135f8161118b565b82525050565b600060208201905061137a6000830184611356565b92915050565b6000806040838503121561139757611396611166565b5b60006113a5858286016111b4565b92505060206113b6858286016111b4565b9150509250929050565b7f4e487b7100000000000000000000000000000000000000000000000000000000600052602260045260246000fd5b6000600282049050600182168061140757607f821691505b6020821081141561141b5761141a6113c0565b5b50919050565b7f45524332303a207472616e7366657220616d6f756e742065786365656473206160008201527f6c6c6f77616e6365000000000000000000000000000000000000000000000000602082015250565b600061147d6028836110b6565b915061148882611421565b604082019050919050565b600060208201905081810360008301526114ac81611470565b9050919050565b7f4e487b7100000000000000000000000000000000000000000000000000000000600052601160045260246000fd5b60006114ed826111c9565b91506114f8836111c9565b9250827fffffffffffffffffffffffffffffffffffffffffffffffffffffffffffffffff0382111561152d5761152c6114b3565b5b828201905092915050565b7f4f776e61626c653a2063616c6c6572206973206e6f7420746865206f776e6572600082015250565b600061156e6020836110b6565b915061157982611538565b602082019050919050565b6000602082019050818103600083015261159d81611561565b9050919050565b7f45524332303a2064656372656173656420616c6c6f77616e63652062656c6f7760008201527f207a65726f000000000000000000000000000000000000000000000000000000602082015250565b60006116006025836110b6565b915061160b826115a4565b604082019050919050565b6000602082019050818103600083015261162f816115f3565b9050919050565b7f4f776e61626c653a206e6577206f776e657220697320746865207a65726f206160008201527f6464726573730000000000000000000000000000000000000000000000000000602082015250565b60006116926026836110b6565b915061169d82611636565b604082019050919050565b600060208201905081810360008301526116c181611685565b9050919050565b7f45524332303a20617070726f76652066726f6d20746865207a65726f2061646460008201527f7265737300000000000000000000000000000000000000000000000000000000602082015250565b60006117246024836110b6565b915061172f826116c8565b604082019050919050565b6000602082019050818103600083015261175381611717565b9050919050565b7f45524332303a20617070726f766520746f20746865207a65726f20616464726560008201527f7373000000000000000000000000000000000000000000000000000000000000602082015250565b60006117b66022836110b6565b91506117c18261175a565b604082019050919050565b600060208201905081810360008301526117e5816117a9565b9050919050565b7f45524332303a207472616e736665722066726f6d20746865207a65726f20616460008201527f6472657373000000000000000000000000000000000000000000000000000000602082015250565b60006118486025836110b6565b9150611853826117ec565b604082019050919050565b600060208201905081810360008301526118778161183b565b9050919050565b7f45524332303a207472616e7366657220746f20746865207a65726f206164647260008201527f6573730000000000000000000000000000000000000000000000000000000000602082015250565b60006118da6023836110b6565b91506118e58261187e565b604082019050919050565b60006020820190508181036000830152611909816118cd565b9050919050565b7f45524332303a207472616e7366657220616d6f756e742065786365656473206260008201527f616c616e63650000000000000000000000000000000000000000000000000000602082015250565b600061196c6026836110b6565b915061197782611910565b604082019050919050565b6000602082019050818103600083015261199b8161195f565b9050919050565b7f45524332303a206d696e7420746f20746865207a65726f206164647265737300600082015250565b60006119d8601f836110b6565b91506119e3826119a2565b602082019050919050565b60006020820190508181036000830152611a07816119cb565b905091905056fea2646970667358221220f1b6ccad27e771f8f352d9980786cd94db15315be0b08ee8c09449ae6b7764e264736f6c63430008090033",
  "immutableReferences": {},
  "source": "// SPDX-License-Identifier: MIT\r\n\r\npragma solidity ^0.8.0;\r\n\r\nimport \"@openzeppelin/contracts/interfaces/IERC721.sol\";\r\nimport \"./interfaces/ICollegeCredit.sol\";\r\nimport \"./CollegeCredit.sol\";\r\nimport \"@openzeppelin/contracts/access/Ownable.sol\";\r\nimport \"@openzeppelin/contracts/security/ReentrancyGuard.sol\";\r\nimport \"./Interfaces/IStakingInterface.sol\";\r\n\r\ncontract IMDStaking is IStakingInterface, Ownable, ReentrancyGuard {\r\n    struct StakedToken {\r\n        uint256 stakeTimestamp;\r\n        address owner;\r\n    }\r\n\r\n    struct StakableTokenAttributes {\r\n        uint256 minYield;\r\n        uint256 maxYield;\r\n        uint256 step;\r\n        uint256 yieldPeriod;\r\n        mapping(uint256 => StakedToken) stakedTokens;\r\n        uint256[] stakedTokenIds;\r\n    }\r\n\r\n    /**\r\n     * A mapping of modifiers to rewards for each staker's\r\n     * address.\r\n     */\r\n    mapping(address => int256) rewardModifier;\r\n\r\n    /**\r\n     * A mapping of token addresses to staking configurations.\r\n     */\r\n    mapping(address => StakableTokenAttributes) public stakableTokenAttributes;\r\n    /**\r\n     * An array of stakable ERC721 token addresses.\r\n     */\r\n    address[] stakableTokens;\r\n\r\n    /**\r\n     * The reward token (college credit) to be issued\r\n     * to stakers.\r\n     */\r\n    ICollegeCredit public rewardToken;\r\n\r\n    /**\r\n     * The constructor for the staking contract, builds the initial\r\n     * reward token and stakable token.\r\n     * @param _token the first stakable token address.\r\n     * @param _minYield the minimum yield for the stakable token.\r\n     * @param _maxYield the maximum yield for the stakable token.\r\n     * @param _step the amount yield increases per yield period.\r\n     * @param _yieldPeriod the length (in seconds) of a yield period (the amount of period after which a yield is calculated)\r\n     */\r\n    constructor(\r\n        address _token,\r\n        uint256 _minYield,\r\n        uint256 _maxYield,\r\n        uint256 _step,\r\n        uint256 _yieldPeriod\r\n    ) {\r\n        _addStakableToken(_token, _minYield, _maxYield, _step, _yieldPeriod);\r\n        rewardToken = new CollegeCredit();\r\n    }\r\n\r\n    /**\r\n     * Mints the reward token to an account.\r\n     * @dev owner only\r\n     * @param _recipient the recipient of the minted tokens.\r\n     * @param _amount the amount of tokens to mint.\r\n     */\r\n    function mintRewardToken(address _recipient, uint256 _amount)\r\n        external\r\n        onlyOwner\r\n    {\r\n        rewardToken.mint(_recipient, _amount);\r\n    }\r\n\r\n    /**\r\n     * Adds a new token that can be staked in the contract.\r\n     * @param _token the first stakable token address.\r\n     * @param _minYield the minimum yield for the stakable token.\r\n     * @param _maxYield the maximum yield for the stakable token.\r\n     * @param _step the amount yield increases per yield period.\r\n     * @param _yieldPeriod the length (in seconds) of a yield period (the amount of period after which a yield is calculated)\r\n     * @dev owner only, doesn't allow adding already staked tokens\r\n     */\r\n    function addStakableToken(\r\n        address _token,\r\n        uint256 _minYield,\r\n        uint256 _maxYield,\r\n        uint256 _step,\r\n        uint256 _yieldPeriod\r\n    ) external onlyOwner {\r\n        require(!_isStakable(_token), \"Already exists\");\r\n        _addStakableToken(_token, _minYield, _maxYield, _step, _yieldPeriod);\r\n    }\r\n\r\n    /**\r\n     * Stakes a given token id from a given contract.\r\n     * @param _token the address of the stakable token.\r\n     * @param _tokenId the id of the token to stake.\r\n     * @dev the contract must be approved to transfer that token first.\r\n     *      the address must be a stakable token.\r\n     */\r\n    function stake(address _token, uint256 _tokenId) external {\r\n        _stakeFor(msg.sender, _token, _tokenId);\r\n    }\r\n\r\n    /**\r\n     * Stakes a given token id from a given contract.\r\n     * @param _user the user from which to transfer the token.\r\n     * @param _token the address of the stakable token.\r\n     * @param _tokenId the id of the token to stake.\r\n     * @dev the contract must be approved to transfer that token first.\r\n     *      the address must be a stakable token.\r\n     */\r\n    function stakeFor(\r\n        address _user,\r\n        address _token,\r\n        uint256 _tokenId\r\n    ) external {\r\n        _stakeFor(_user, _token, _tokenId);\r\n    }\r\n\r\n    /**\r\n     * Unstakes a given token held by the calling user.\r\n     * @param _token the address of the token contract that the token belongs to.\r\n     * @param _tokenId the id of the token to unstake.\r\n     * @dev reverts if the token is not owned by the caller.\r\n     */\r\n    function unstake(address _token, uint256 _tokenId) external {\r\n        require(\r\n            stakableTokenAttributes[_token].stakedTokens[_tokenId].owner ==\r\n                msg.sender,\r\n            \"Not owner\"\r\n        );\r\n        _unstake(_token, _tokenId);\r\n    }\r\n\r\n    /**\r\n     * Claims the rewards for the caller.\r\n     */\r\n    function claimRewards() external {\r\n        _withdrawRewards(msg.sender);\r\n    }\r\n\r\n    /**\r\n     * Gets the College Credit dividend of the provided user.\r\n     * @param _user the user whose dividend we are checking.\r\n     */\r\n    function dividendOf(address _user) external view returns (uint256) {\r\n        return _dividendOf(_user);\r\n    }\r\n\r\n    /**\r\n     * Unstakes a given token held by the calling user AND withdraws all dividends.\r\n     * @param _token the address of the token contract that the token belongs to.\r\n     * @param _tokenId the id of the token to unstake.\r\n     * @dev reverts if the token is not owned by the caller.\r\n     */\r\n    function unstakeAndClaimRewards(\r\n        address _token,\r\n        uint256 _tokenId\r\n    ) external {\r\n        require(\r\n            stakableTokenAttributes[_token].stakedTokens[_tokenId].owner ==\r\n                msg.sender,\r\n            \"Not owner\"\r\n        );\r\n        _withdrawRewards(msg.sender);\r\n        _unstake(_token, _tokenId);\r\n    }\r\n\r\n    /**\r\n     * Gets the total amount of tokens staked for the given user in the given contract.\r\n     * @param _user the user whose stakes are being counted.\r\n     * @param _token the address of the contract whose staked tokens we are skimming.\r\n     * @dev reverts if called on an invalid token address.\r\n     */\r\n    function totalStakedFor(address _user, address _token)\r\n        external\r\n        view\r\n        returns (uint256)\r\n    {\r\n        require(_isStakable(_token), \"Not stakable\");\r\n        return _totalStaked(_user, _token);\r\n    }\r\n\r\n    /**\r\n     * Gets the total amount staked for a given token address.\r\n     * @param _token the address to get the amount staked from.\r\n     */\r\n    function totalStaked(address _token) external view returns (uint256) {\r\n        return stakableTokenAttributes[_token].stakedTokenIds.length;\r\n    }\r\n\r\n    /**\r\n     * Gets all of the token ids that a user has staked from a given contract.\r\n     * @param _user the user whose token ids are being analyzed.\r\n     * @param _token the address of the token contract being analyzed.\r\n     * @return an array of token ids staked by that user.\r\n     * @dev reverts if called on an invalid token address.\r\n     */\r\n    function stakedTokenIds(address _user, address _token)\r\n        external\r\n        view\r\n        returns (uint256[] memory)\r\n    {\r\n        require(_isStakable(_token), \"Not stakable\");\r\n        return _stakedTokenIds(_user, _token);\r\n    }\r\n\r\n    // --------------- INTERNAL FUNCTIONS -----------------\r\n\r\n    /**\r\n     * @return if the given token address is stakable.\r\n     * @dev does not check if is ERC721, that is up to the user.\r\n     */\r\n    function _isStakable(address _token) internal view returns (bool) {\r\n        return stakableTokenAttributes[_token].maxYield != 0;\r\n    }\r\n\r\n    /**\r\n     * Adds a given token to the list of stakable tokens.\r\n     * @param _token the first stakable token address.\r\n     * @param _minYield the minimum yield for the stakable token.\r\n     * @param _maxYield the maximum yield for the stakable token.\r\n     * @param _step the amount yield increases per yield period.\r\n     * @param _yieldPeriod the length (in seconds) of a yield period (the amount of period after which a yield is calculated)\r\n     */\r\n    function _addStakableToken(\r\n        address _token,\r\n        uint256 _minYield,\r\n        uint256 _maxYield,\r\n        uint256 _step,\r\n        uint256 _yieldPeriod\r\n    ) internal {\r\n        stakableTokenAttributes[_token].maxYield = _maxYield;\r\n        stakableTokenAttributes[_token].minYield = _minYield;\r\n        stakableTokenAttributes[_token].step = _step;\r\n        stakableTokenAttributes[_token].yieldPeriod = _yieldPeriod;\r\n\r\n        stakableTokens.push(_token);\r\n    }\r\n\r\n    /**\r\n     * Stakes a given token id from a given contract.\r\n     * @param _user the user from which to transfer the token.\r\n     * @param _token the address of the stakable token.\r\n     * @param _tokenId the id of the token to stake.\r\n     * @dev the contract must be approved to transfer that token first.\r\n     *      the address must be a stakable token.\r\n     */\r\n    function _stakeFor(\r\n        address _user,\r\n        address _token,\r\n        uint256 _tokenId\r\n    ) internal {\r\n        require(_isStakable(_token), \"Not stakable\");\r\n        IERC721(_token).transferFrom(_user, address(this), _tokenId);\r\n\r\n        stakableTokenAttributes[_token]\r\n            .stakedTokens[_tokenId]\r\n            .stakeTimestamp = block.timestamp;\r\n        stakableTokenAttributes[_token].stakedTokens[_tokenId].owner = _user;\r\n        stakableTokenAttributes[_token].stakedTokenIds.push(_tokenId);\r\n    }\r\n\r\n    /**\r\n     * Retrieves the dividend owed on a particular token with a given timestamp.\r\n     * @param _tokenAttributes the attributes of the token provided.\r\n     * @param _timestamp the timestamp at which the token was staked.\r\n     * @return the dividend owed for that specific token.\r\n     * @dev reverts if the timestamp is 0.\r\n     */\r\n    function _tokenDividend(\r\n        StakableTokenAttributes storage _tokenAttributes,\r\n        uint256 _timestamp\r\n    ) internal view returns (uint256) {\r\n        require(_timestamp != 0, \"Not staked\");\r\n\r\n        uint256 periods = (block.timestamp - _timestamp) /\r\n            _tokenAttributes.yieldPeriod;\r\n\r\n        uint256 dividend = 0;\r\n        uint256 i = 0;\r\n        for (i; i < periods; i++) {\r\n            uint256 uncappedYield = _tokenAttributes.minYield +\r\n                i *\r\n                _tokenAttributes.step;\r\n\r\n            if (uncappedYield > _tokenAttributes.maxYield) {\r\n                dividend += _tokenAttributes.maxYield;\r\n                i++;\r\n                break;\r\n            }\r\n            dividend += uncappedYield;\r\n        }\r\n\r\n        dividend += (periods - i) * _tokenAttributes.maxYield;\r\n\r\n        return dividend;\r\n    }\r\n\r\n    /**\r\n     * Gets the total amount of tokens staked for the given user in the given contract.\r\n     * @param _user the user whose stakes are being counted.\r\n     * @param _token the address of the contract whose staked tokens we are skimming.\r\n     * @dev does not check if the token address is stakable.\r\n     */\r\n    function _totalStaked(address _user, address _token)\r\n        internal\r\n        view\r\n        returns (uint256)\r\n    {\r\n        uint256 tokenCount = 0;\r\n\r\n        uint256 tokenIdIndex = 0;\r\n        for (\r\n            tokenIdIndex;\r\n            tokenIdIndex <\r\n            stakableTokenAttributes[_token].stakedTokenIds.length;\r\n            tokenIdIndex++\r\n        ) {\r\n            StakedToken memory stakedToken = stakableTokenAttributes[_token]\r\n                .stakedTokens[\r\n                    stakableTokenAttributes[_token].stakedTokenIds[tokenIdIndex]\r\n                ];\r\n\r\n            if (stakedToken.owner == _user) tokenCount++;\r\n        }\r\n\r\n        return tokenCount;\r\n    }\r\n\r\n    /**\r\n     * Gets all of the token ids that a user has staked from a given contract.\r\n     * @param _user the user whose token ids are being analyzed.\r\n     * @param _token the address of the token contract being analyzed.\r\n     * @return an array of token ids staked by that user.\r\n     * @dev does not check if the token address is stakable.\r\n     */\r\n    function _stakedTokenIds(address _user, address _token)\r\n        internal\r\n        view\r\n        returns (uint256[] memory)\r\n    {\r\n        uint256 numStaked = _totalStaked(_user, _token);\r\n        uint256[] memory tokenIds = new uint256[](numStaked);\r\n\r\n        uint256 numFound = 0;\r\n        uint256 tokenIdIndex = 0;\r\n        for (\r\n            tokenIdIndex;\r\n            tokenIdIndex <\r\n            stakableTokenAttributes[_token].stakedTokenIds.length;\r\n            tokenIdIndex++\r\n        ) {\r\n            if (\r\n                stakableTokenAttributes[_token]\r\n                    .stakedTokens[\r\n                        stakableTokenAttributes[_token].stakedTokenIds[\r\n                            tokenIdIndex\r\n                        ]\r\n                    ]\r\n                    .owner == _user\r\n            ) {\r\n                tokenIds[numFound] = stakableTokenAttributes[_token]\r\n                    .stakedTokenIds[tokenIdIndex];\r\n                numFound++;\r\n            }\r\n        }\r\n\r\n        return tokenIds;\r\n    }\r\n\r\n    /**\r\n     * Gets the College Credit dividend of the provided user.\r\n     * @param _user the user whose dividend we are checking.\r\n     */\r\n    function _dividendOf(address _user) internal view returns (uint256) {\r\n        uint256 dividend = 0;\r\n\r\n        uint256 tokenIndex = 0;\r\n        for (tokenIndex; tokenIndex < stakableTokens.length; tokenIndex++) {\r\n            uint256 tokenIdIndex = 0;\r\n            for (\r\n                tokenIdIndex;\r\n                tokenIdIndex <\r\n                stakableTokenAttributes[stakableTokens[tokenIndex]]\r\n                    .stakedTokenIds\r\n                    .length;\r\n                tokenIdIndex++\r\n            ) {\r\n                StakedToken memory stakedToken = stakableTokenAttributes[\r\n                    stakableTokens[tokenIndex]\r\n                ].stakedTokens[\r\n                        stakableTokenAttributes[stakableTokens[tokenIndex]]\r\n                            .stakedTokenIds[tokenIdIndex]\r\n                    ];\r\n\r\n                if (stakedToken.owner != _user) continue;\r\n                dividend += _tokenDividend(\r\n                    stakableTokenAttributes[stakableTokens[tokenIndex]],\r\n                    stakedToken.stakeTimestamp\r\n                );\r\n            }\r\n        }\r\n\r\n        int256 resultantDividend = int256(dividend) + rewardModifier[_user];\r\n        require(resultantDividend >= 0, \"Underflow\");\r\n\r\n        return uint256(resultantDividend);\r\n    }\r\n\r\n    /**\r\n     * Unstakes a given token id.\r\n     * @param _token the address of the token contract that the token belongs to.\r\n     * @param _tokenId the id of the token to unstake.\r\n     * @dev does not check permissions.\r\n     */\r\n    function _unstake(address _token, uint256 _tokenId) internal {\r\n        address owner = stakableTokenAttributes[_token]\r\n            .stakedTokens[_tokenId]\r\n            .owner;\r\n\r\n        // will fail to get dividend if not staked or bad token contract\r\n        uint256 dividend = _tokenDividend(\r\n            stakableTokenAttributes[_token],\r\n            stakableTokenAttributes[_token]\r\n                .stakedTokens[_tokenId]\r\n                .stakeTimestamp\r\n        );\r\n\r\n        rewardModifier[owner] += int256(dividend);\r\n        delete stakableTokenAttributes[_token].stakedTokens[_tokenId];\r\n\r\n        for (\r\n            uint256 i = 0;\r\n            i < stakableTokenAttributes[_token].stakedTokenIds.length;\r\n            i++\r\n        ) {\r\n            if (stakableTokenAttributes[_token].stakedTokenIds[i] == _tokenId) {\r\n                delete stakableTokenAttributes[_token].stakedTokenIds[i];\r\n            }\r\n        }\r\n\r\n        IERC721(_token).safeTransferFrom(address(this), owner, _tokenId);\r\n    }\r\n\r\n    /**\r\n     * Claims the dividend for the user.\r\n     * @param _user the user whose rewards are being withdrawn.\r\n     * @dev does not check is the user has permission to withdraw.\r\n     */\r\n    function _withdrawRewards(address _user) internal {\r\n        uint256 dividend = _dividendOf(_user);\r\n        require(dividend > 0, \"Zero dividend\");\r\n        rewardModifier[_user] -= int256(dividend);\r\n\r\n        rewardToken.mint(_user, dividend);\r\n    }\r\n}\r\n",
  "sourcePath": "C:\\Users\\Cory\\source\\repos\\CyberpunkApeExecutives\\contracts\\Staking\\contracts\\IMDStaking.sol",
  "compiler": {
    "name": "solc",
    "version": "0.8.9+commit.e5eed63a.Emscripten.clang"
  },
  "schemaVersion": "3.4.3",
  "updatedAt": "2021-11-29T02:16:29.855Z",
  "devdoc": {
    "kind": "dev",
    "methods": {
      "addStakableToken(address,uint256,uint256,uint256,uint256)": {
        "details": "owner only, doesn't allow adding already staked tokens",
        "params": {
          "_maxYield": "the maximum yield for the stakable token.",
          "_minYield": "the minimum yield for the stakable token.",
          "_step": "the amount yield increases per yield period.",
          "_token": "the first stakable token address.",
          "_yieldPeriod": "the length (in seconds) of a yield period (the amount of period after which a yield is calculated)"
        }
      },
      "constructor": {
        "params": {
          "_maxYield": "the maximum yield for the stakable token.",
          "_minYield": "the minimum yield for the stakable token.",
          "_step": "the amount yield increases per yield period.",
          "_token": "the first stakable token address.",
          "_yieldPeriod": "the length (in seconds) of a yield period (the amount of period after which a yield is calculated)"
        }
      },
      "dividendOf(address)": {
        "params": {
          "_user": "the user whose dividend we are checking."
        }
      },
      "mintRewardToken(address,uint256)": {
        "details": "owner only",
        "params": {
          "_amount": "the amount of tokens to mint.",
          "_recipient": "the recipient of the minted tokens."
        }
      },
      "owner()": {
        "details": "Returns the address of the current owner."
      },
      "renounceOwnership()": {
        "details": "Leaves the contract without owner. It will not be possible to call `onlyOwner` functions anymore. Can only be called by the current owner. NOTE: Renouncing ownership will leave the contract without an owner, thereby removing any functionality that is only available to the owner."
      },
      "stake(address,uint256)": {
        "details": "the contract must be approved to transfer that token first.      the address must be a stakable token.",
        "params": {
          "_token": "the address of the stakable token.",
          "_tokenId": "the id of the token to stake."
        }
      },
      "stakeFor(address,address,uint256)": {
        "details": "the contract must be approved to transfer that token first.      the address must be a stakable token.",
        "params": {
          "_token": "the address of the stakable token.",
          "_tokenId": "the id of the token to stake.",
          "_user": "the user from which to transfer the token."
        }
      },
      "stakedTokenIds(address,address)": {
        "details": "reverts if called on an invalid token address.",
        "params": {
          "_token": "the address of the token contract being analyzed.",
          "_user": "the user whose token ids are being analyzed."
        },
        "returns": {
          "_0": "an array of token ids staked by that user."
        }
      },
      "totalStaked(address)": {
        "params": {
          "_token": "the address to get the amount staked from."
        }
      },
      "totalStakedFor(address,address)": {
        "details": "reverts if called on an invalid token address.",
        "params": {
          "_token": "the address of the contract whose staked tokens we are skimming.",
          "_user": "the user whose stakes are being counted."
        }
      },
      "transferOwnership(address)": {
        "details": "Transfers ownership of the contract to a new account (`newOwner`). Can only be called by the current owner."
      },
      "unstake(address,uint256)": {
        "details": "reverts if the token is not owned by the caller.",
        "params": {
          "_token": "the address of the token contract that the token belongs to.",
          "_tokenId": "the id of the token to unstake."
        }
      },
      "unstakeAndClaimRewards(address,uint256)": {
        "details": "reverts if the token is not owned by the caller.",
        "params": {
          "_token": "the address of the token contract that the token belongs to.",
          "_tokenId": "the id of the token to unstake."
        }
      }
    },
    "version": 1
  },
  "userdoc": {
    "kind": "user",
    "methods": {
      "addStakableToken(address,uint256,uint256,uint256,uint256)": {
        "notice": "Adds a new token that can be staked in the contract."
      },
      "claimRewards()": {
        "notice": "Claims the rewards for the caller."
      },
      "constructor": {
        "notice": "The constructor for the staking contract, builds the initial reward token and stakable token."
      },
      "dividendOf(address)": {
        "notice": "Gets the College Credit dividend of the provided user."
      },
      "mintRewardToken(address,uint256)": {
        "notice": "Mints the reward token to an account."
      },
      "rewardToken()": {
        "notice": "The reward token (college credit) to be issued to stakers."
      },
      "stakableTokenAttributes(address)": {
        "notice": "A mapping of token addresses to staking configurations."
      },
      "stake(address,uint256)": {
        "notice": "Stakes a given token id from a given contract."
      },
      "stakeFor(address,address,uint256)": {
        "notice": "Stakes a given token id from a given contract."
      },
      "stakedTokenIds(address,address)": {
        "notice": "Gets all of the token ids that a user has staked from a given contract."
      },
      "totalStaked(address)": {
        "notice": "Gets the total amount staked for a given token address."
      },
      "totalStakedFor(address,address)": {
        "notice": "Gets the total amount of tokens staked for the given user in the given contract."
      },
      "unstake(address,uint256)": {
        "notice": "Unstakes a given token held by the calling user."
      },
      "unstakeAndClaimRewards(address,uint256)": {
        "notice": "Unstakes a given token held by the calling user AND withdraws all dividends."
      }
    },
    "version": 1
  }
}