{
  "contractName": "IMDStaking",
  "abi": [
    {
      "inputs": [
        {
          "internalType": "address",
          "name": "_token",
          "type": "address"
        },
        {
          "internalType": "uint16",
          "name": "_minYield",
          "type": "uint16"
        },
        {
          "internalType": "uint16",
          "name": "_maxYield",
          "type": "uint16"
        },
        {
          "internalType": "uint16",
          "name": "_step",
          "type": "uint16"
        },
        {
          "internalType": "uint256",
          "name": "_yieldPeriod",
          "type": "uint256"
        }
      ],
      "stateMutability": "nonpayable",
      "type": "constructor"
    },
    {
      "anonymous": false,
      "inputs": [
        {
          "indexed": true,
          "internalType": "address",
          "name": "previousOwner",
          "type": "address"
        },
        {
          "indexed": true,
          "internalType": "address",
          "name": "newOwner",
          "type": "address"
        }
      ],
      "name": "OwnershipTransferred",
      "type": "event"
    },
    {
      "anonymous": false,
      "inputs": [
        {
          "indexed": true,
          "internalType": "address",
          "name": "user",
          "type": "address"
        },
        {
          "indexed": false,
          "internalType": "uint256",
          "name": "amount",
          "type": "uint256"
        },
        {
          "indexed": false,
          "internalType": "uint256",
          "name": "total",
          "type": "uint256"
        },
        {
          "indexed": false,
          "internalType": "bytes",
          "name": "data",
          "type": "bytes"
        }
      ],
      "name": "Staked",
      "type": "event"
    },
    {
      "anonymous": false,
      "inputs": [
        {
          "indexed": true,
          "internalType": "address",
          "name": "user",
          "type": "address"
        },
        {
          "indexed": false,
          "internalType": "uint256",
          "name": "amount",
          "type": "uint256"
        },
        {
          "indexed": false,
          "internalType": "uint256",
          "name": "total",
          "type": "uint256"
        },
        {
          "indexed": false,
          "internalType": "bytes",
          "name": "data",
          "type": "bytes"
        }
      ],
      "name": "Unstaked",
      "type": "event"
    },
    {
      "inputs": [],
      "name": "owner",
      "outputs": [
        {
          "internalType": "address",
          "name": "",
          "type": "address"
        }
      ],
      "stateMutability": "view",
      "type": "function"
    },
    {
      "inputs": [],
      "name": "renounceOwnership",
      "outputs": [],
      "stateMutability": "nonpayable",
      "type": "function"
    },
    {
      "inputs": [],
      "name": "rewardToken",
      "outputs": [
        {
          "internalType": "contract ICollegeCredit",
          "name": "",
          "type": "address"
        }
      ],
      "stateMutability": "view",
      "type": "function"
    },
    {
      "inputs": [
        {
          "internalType": "address",
          "name": "",
          "type": "address"
        }
      ],
      "name": "stakableTokenAttributes",
      "outputs": [
        {
          "internalType": "uint16",
          "name": "minYield",
          "type": "uint16"
        },
        {
          "internalType": "uint16",
          "name": "maxYield",
          "type": "uint16"
        },
        {
          "internalType": "uint16",
          "name": "step",
          "type": "uint16"
        },
        {
          "internalType": "uint256",
          "name": "yieldPeriod",
          "type": "uint256"
        }
      ],
      "stateMutability": "view",
      "type": "function"
    },
    {
      "inputs": [
        {
          "internalType": "address",
          "name": "newOwner",
          "type": "address"
        }
      ],
      "name": "transferOwnership",
      "outputs": [],
      "stateMutability": "nonpayable",
      "type": "function"
    },
    {
      "inputs": [
        {
          "internalType": "address",
          "name": "_token",
          "type": "address"
        },
        {
          "internalType": "uint16",
          "name": "_minYield",
          "type": "uint16"
        },
        {
          "internalType": "uint16",
          "name": "_maxYield",
          "type": "uint16"
        },
        {
          "internalType": "uint16",
          "name": "_step",
          "type": "uint16"
        },
        {
          "internalType": "uint256",
          "name": "_yieldPeriod",
          "type": "uint256"
        }
      ],
      "name": "addStakableToken",
      "outputs": [],
      "stateMutability": "nonpayable",
      "type": "function"
    },
    {
      "inputs": [
        {
          "internalType": "address",
          "name": "_token",
          "type": "address"
        },
        {
          "internalType": "uint256",
          "name": "_tokenId",
          "type": "uint256"
        }
      ],
      "name": "stake",
      "outputs": [],
      "stateMutability": "nonpayable",
      "type": "function"
    },
    {
      "inputs": [
        {
          "internalType": "address",
          "name": "_user",
          "type": "address"
        },
        {
          "internalType": "address",
          "name": "_token",
          "type": "address"
        },
        {
          "internalType": "uint256",
          "name": "_tokenId",
          "type": "uint256"
        }
      ],
      "name": "stakeFor",
      "outputs": [],
      "stateMutability": "nonpayable",
      "type": "function"
    },
    {
      "inputs": [
        {
          "internalType": "address",
          "name": "_token",
          "type": "address"
        },
        {
          "internalType": "uint256",
          "name": "_tokenId",
          "type": "uint256"
        }
      ],
      "name": "unstake",
      "outputs": [],
      "stateMutability": "nonpayable",
      "type": "function"
    },
    {
      "inputs": [
        {
          "internalType": "address",
          "name": "_user",
          "type": "address"
        }
      ],
      "name": "claimRewards",
      "outputs": [],
      "stateMutability": "nonpayable",
      "type": "function"
    },
    {
      "inputs": [
        {
          "internalType": "address",
          "name": "_token",
          "type": "address"
        },
        {
          "internalType": "uint256",
          "name": "_tokenId",
          "type": "uint256"
        },
        {
          "internalType": "address",
          "name": "_user",
          "type": "address"
        }
      ],
      "name": "unstakeAndClaimRewards",
      "outputs": [],
      "stateMutability": "nonpayable",
      "type": "function"
    },
    {
      "inputs": [
        {
          "internalType": "address",
          "name": "_addr",
          "type": "address"
        },
        {
          "internalType": "address",
          "name": "_token",
          "type": "address"
        }
      ],
      "name": "totalStakedFor",
      "outputs": [
        {
          "internalType": "uint256",
          "name": "",
          "type": "uint256"
        }
      ],
      "stateMutability": "view",
      "type": "function"
    },
    {
      "inputs": [
        {
          "internalType": "address",
          "name": "_token",
          "type": "address"
        }
      ],
      "name": "totalStaked",
      "outputs": [
        {
          "internalType": "uint256",
          "name": "",
          "type": "uint256"
        }
      ],
      "stateMutability": "view",
      "type": "function"
    },
    {
      "inputs": [],
      "name": "token",
      "outputs": [
        {
          "internalType": "address",
          "name": "",
          "type": "address"
        }
      ],
      "stateMutability": "view",
      "type": "function"
    },
    {
      "inputs": [],
      "name": "supportsHistory",
      "outputs": [
        {
          "internalType": "bool",
          "name": "",
          "type": "bool"
        }
      ],
      "stateMutability": "pure",
      "type": "function"
    }
  ],
  "bytecode": "0x60806040523480156200001157600080fd5b5060405162003f6238038062003f62833981810160405281019062000037919062000470565b620000576200004b620000ea60201b60201c565b620000f260201b60201c565b60018081905550620000738585858585620001b660201b60201c565b60405162000081906200037e565b604051809103906000f0801580156200009e573d6000803e3d6000fd5b50600560006101000a81548173ffffffffffffffffffffffffffffffffffffffff021916908373ffffffffffffffffffffffffffffffffffffffff1602179055505050505050620004f8565b600033905090565b60008060009054906101000a900473ffffffffffffffffffffffffffffffffffffffff169050816000806101000a81548173ffffffffffffffffffffffffffffffffffffffff021916908373ffffffffffffffffffffffffffffffffffffffff1602179055508173ffffffffffffffffffffffffffffffffffffffff168173ffffffffffffffffffffffffffffffffffffffff167f8be0079c531659141344cd1fd0a4f28419497f9722a3daafe3b4186f6b6457e060405160405180910390a35050565b82600360008773ffffffffffffffffffffffffffffffffffffffff1673ffffffffffffffffffffffffffffffffffffffff16815260200190815260200160002060000160026101000a81548161ffff021916908361ffff16021790555083600360008773ffffffffffffffffffffffffffffffffffffffff1673ffffffffffffffffffffffffffffffffffffffff16815260200190815260200160002060000160006101000a81548161ffff021916908361ffff16021790555081600360008773ffffffffffffffffffffffffffffffffffffffff1673ffffffffffffffffffffffffffffffffffffffff16815260200190815260200160002060000160046101000a81548161ffff021916908361ffff16021790555080600360008773ffffffffffffffffffffffffffffffffffffffff1673ffffffffffffffffffffffffffffffffffffffff168152602001908152602001600020600101819055506004859080600181540180825580915050600190039060005260206000200160009091909190916101000a81548173ffffffffffffffffffffffffffffffffffffffff021916908373ffffffffffffffffffffffffffffffffffffffff1602179055505050505050565b611d0f806200225383390190565b600080fd5b600073ffffffffffffffffffffffffffffffffffffffff82169050919050565b6000620003be8262000391565b9050919050565b620003d081620003b1565b8114620003dc57600080fd5b50565b600081519050620003f081620003c5565b92915050565b600061ffff82169050919050565b6200040f81620003f6565b81146200041b57600080fd5b50565b6000815190506200042f8162000404565b92915050565b6000819050919050565b6200044a8162000435565b81146200045657600080fd5b50565b6000815190506200046a816200043f565b92915050565b600080600080600060a086880312156200048f576200048e6200038c565b5b60006200049f88828901620003df565b9550506020620004b2888289016200041e565b9450506040620004c5888289016200041e565b9350506060620004d8888289016200041e565b9250506080620004eb8882890162000459565b9150509295509295909350565b611d4b80620005086000396000f3fe608060405234801561001057600080fd5b50600436106100f55760003560e01c80639bfd8d6111610097578063f2fde38b11610066578063f2fde38b14610248578063f5a097cd14610264578063f7c618c114610297578063fc0c546a146102b5576100f5565b80639bfd8d61146101c4578063adc9772e146101f4578063c2a672e014610210578063ef5cfb8c1461022c576100f5565b80637033e4a6116100d35780637033e4a614610162578063715018a6146101805780637a9f0f101461018a5780638da5cb5b146101a6576100f5565b80632454cba4146100fa5780632cc205d9146101165780632dd5567a14610146575b600080fd5b610114600480360381019061010f91906115bd565b6102d3565b005b610130600480360381019061012b9190611638565b610363565b60405161013d9190611687565b60405180910390f35b610160600480360381019061015b91906116a2565b6104ef565b005b61016a6104ff565b6040516101779190611710565b60405180910390f35b610188610504565b005b6101a4600480360381019061019f919061172b565b61058c565b005b6101ae6105a4565b6040516101bb919061178d565b60405180910390f35b6101de60048036038101906101d991906117a8565b6105cd565b6040516101eb9190611687565b60405180910390f35b61020e600480360381019061020991906117d5565b61061c565b005b61022a600480360381019061022591906117d5565b61062b565b005b610246600480360381019061024191906117a8565b610639565b005b610262600480360381019061025d91906117a8565b610645565b005b61027e600480360381019061027991906117a8565b61073d565b60405161028e9493929190611824565b60405180910390f35b61029f610797565b6040516102ac91906118c8565b60405180910390f35b6102bd6107bd565b6040516102ca919061178d565b60405180910390f35b6102db6107e7565b73ffffffffffffffffffffffffffffffffffffffff166102f96105a4565b73ffffffffffffffffffffffffffffffffffffffff161461034f576040517f08c379a000000000000000000000000000000000000000000000000000000000815260040161034690611940565b60405180910390fd5b61035c85858585856107ef565b5050505050565b6000806000905060005b600360008573ffffffffffffffffffffffffffffffffffffffff1673ffffffffffffffffffffffffffffffffffffffff168152602001908152602001600020600301805490508110156104e4578473ffffffffffffffffffffffffffffffffffffffff16600360008673ffffffffffffffffffffffffffffffffffffffff1673ffffffffffffffffffffffffffffffffffffffff1681526020019081526020016000206002016000600360008873ffffffffffffffffffffffffffffffffffffffff1673ffffffffffffffffffffffffffffffffffffffff168152602001908152602001600020600301848154811061046957610468611960565b5b9060005260206000200154815260200190815260200160002060010160009054906101000a900473ffffffffffffffffffffffffffffffffffffffff1673ffffffffffffffffffffffffffffffffffffffff1614156104d15781806104cd906119be565b9250505b80806104dc906119be565b91505061036d565b819250505092915050565b6104fa8383836109b7565b505050565b600090565b61050c6107e7565b73ffffffffffffffffffffffffffffffffffffffff1661052a6105a4565b73ffffffffffffffffffffffffffffffffffffffff1614610580576040517f08c379a000000000000000000000000000000000000000000000000000000000815260040161057790611940565b60405180910390fd5b61058a6000610bcc565b565b61059581610c90565b61059f8383610d86565b505050565b60008060009054906101000a900473ffffffffffffffffffffffffffffffffffffffff16905090565b6000600360008373ffffffffffffffffffffffffffffffffffffffff1673ffffffffffffffffffffffffffffffffffffffff168152602001908152602001600020600301805490509050919050565b6106273383836109b7565b5050565b6106358282610d86565b5050565b61064281610c90565b50565b61064d6107e7565b73ffffffffffffffffffffffffffffffffffffffff1661066b6105a4565b73ffffffffffffffffffffffffffffffffffffffff16146106c1576040517f08c379a00000000000000000000000000000000000000000000000000000000081526004016106b890611940565b60405180910390fd5b600073ffffffffffffffffffffffffffffffffffffffff168173ffffffffffffffffffffffffffffffffffffffff161415610731576040517f08c379a000000000000000000000000000000000000000000000000000000000815260040161072890611a79565b60405180910390fd5b61073a81610bcc565b50565b60036020528060005260406000206000915090508060000160009054906101000a900461ffff16908060000160029054906101000a900461ffff16908060000160049054906101000a900461ffff16908060010154905084565b600560009054906101000a900473ffffffffffffffffffffffffffffffffffffffff1681565b6000600560009054906101000a900473ffffffffffffffffffffffffffffffffffffffff16905090565b600033905090565b82600360008773ffffffffffffffffffffffffffffffffffffffff1673ffffffffffffffffffffffffffffffffffffffff16815260200190815260200160002060000160026101000a81548161ffff021916908361ffff16021790555083600360008773ffffffffffffffffffffffffffffffffffffffff1673ffffffffffffffffffffffffffffffffffffffff16815260200190815260200160002060000160006101000a81548161ffff021916908361ffff16021790555081600360008773ffffffffffffffffffffffffffffffffffffffff1673ffffffffffffffffffffffffffffffffffffffff16815260200190815260200160002060000160046101000a81548161ffff021916908361ffff16021790555080600360008773ffffffffffffffffffffffffffffffffffffffff1673ffffffffffffffffffffffffffffffffffffffff168152602001908152602001600020600101819055506004859080600181540180825580915050600190039060005260206000200160009091909190916101000a81548173ffffffffffffffffffffffffffffffffffffffff021916908373ffffffffffffffffffffffffffffffffffffffff1602179055505050505050565b6109c082610ff3565b6109ff576040517f08c379a00000000000000000000000000000000000000000000000000000000081526004016109f690611ae5565b60405180910390fd5b8173ffffffffffffffffffffffffffffffffffffffff166323b872dd8430846040518463ffffffff1660e01b8152600401610a3c93929190611b05565b600060405180830381600087803b158015610a5657600080fd5b505af1158015610a6a573d6000803e3d6000fd5b5050505042600360008473ffffffffffffffffffffffffffffffffffffffff1673ffffffffffffffffffffffffffffffffffffffff16815260200190815260200160002060020160008381526020019081526020016000206000018190555082600360008473ffffffffffffffffffffffffffffffffffffffff1673ffffffffffffffffffffffffffffffffffffffff168152602001908152602001600020600201600083815260200190815260200160002060010160006101000a81548173ffffffffffffffffffffffffffffffffffffffff021916908373ffffffffffffffffffffffffffffffffffffffff160217905550600360008373ffffffffffffffffffffffffffffffffffffffff1673ffffffffffffffffffffffffffffffffffffffff168152602001908152602001600020600301819080600181540180825580915050600190039060005260206000200160009091909190915055505050565b60008060009054906101000a900473ffffffffffffffffffffffffffffffffffffffff169050816000806101000a81548173ffffffffffffffffffffffffffffffffffffffff021916908373ffffffffffffffffffffffffffffffffffffffff1602179055508173ffffffffffffffffffffffffffffffffffffffff168173ffffffffffffffffffffffffffffffffffffffff167f8be0079c531659141344cd1fd0a4f28419497f9722a3daafe3b4186f6b6457e060405160405180910390a35050565b6000610c9b82611054565b905080600260008473ffffffffffffffffffffffffffffffffffffffff1673ffffffffffffffffffffffffffffffffffffffff1681526020019081526020016000206000828254610cec9190611b3c565b92505081905550600560009054906101000a900473ffffffffffffffffffffffffffffffffffffffff1673ffffffffffffffffffffffffffffffffffffffff166340c10f1983836040518363ffffffff1660e01b8152600401610d50929190611b70565b600060405180830381600087803b158015610d6a57600080fd5b505af1158015610d7e573d6000803e3d6000fd5b505050505050565b6000600360008473ffffffffffffffffffffffffffffffffffffffff1673ffffffffffffffffffffffffffffffffffffffff168152602001908152602001600020600201600083815260200190815260200160002060010160009054906101000a900473ffffffffffffffffffffffffffffffffffffffff1690506000610ea1600360008673ffffffffffffffffffffffffffffffffffffffff1673ffffffffffffffffffffffffffffffffffffffff168152602001908152602001600020600360008773ffffffffffffffffffffffffffffffffffffffff1673ffffffffffffffffffffffffffffffffffffffff1681526020019081526020016000206002016000868152602001908152602001600020600001546113e6565b905080600260008473ffffffffffffffffffffffffffffffffffffffff1673ffffffffffffffffffffffffffffffffffffffff1681526020019081526020016000206000828254610ef29190611b99565b92505081905550600360008573ffffffffffffffffffffffffffffffffffffffff1673ffffffffffffffffffffffffffffffffffffffff16815260200190815260200160002060020160008481526020019081526020016000206000808201600090556001820160006101000a81549073ffffffffffffffffffffffffffffffffffffffff021916905550508373ffffffffffffffffffffffffffffffffffffffff166342842e0e3084866040518463ffffffff1660e01b8152600401610fbb93929190611b05565b600060405180830381600087803b158015610fd557600080fd5b505af1158015610fe9573d6000803e3d6000fd5b5050505050505050565b600080600360008473ffffffffffffffffffffffffffffffffffffffff1673ffffffffffffffffffffffffffffffffffffffff16815260200190815260200160002060000160029054906101000a900461ffff1661ffff1614159050919050565b6000806000905060005b6004805490508110156113925760005b600360006004848154811061108657611085611960565b5b9060005260206000200160009054906101000a900473ffffffffffffffffffffffffffffffffffffffff1673ffffffffffffffffffffffffffffffffffffffff1673ffffffffffffffffffffffffffffffffffffffff1681526020019081526020016000206003018054905081101561137e576000600360006004858154811061111357611112611960565b5b9060005260206000200160009054906101000a900473ffffffffffffffffffffffffffffffffffffffff1673ffffffffffffffffffffffffffffffffffffffff1673ffffffffffffffffffffffffffffffffffffffff1681526020019081526020016000206002016000600360006004878154811061119557611194611960565b5b9060005260206000200160009054906101000a900473ffffffffffffffffffffffffffffffffffffffff1673ffffffffffffffffffffffffffffffffffffffff1673ffffffffffffffffffffffffffffffffffffffff168152602001908152602001600020600301848154811061120f5761120e611960565b5b90600052602060002001548152602001908152602001600020604051806040016040529081600082015481526020016001820160009054906101000a900473ffffffffffffffffffffffffffffffffffffffff1673ffffffffffffffffffffffffffffffffffffffff1673ffffffffffffffffffffffffffffffffffffffff168152505090508573ffffffffffffffffffffffffffffffffffffffff16816020015173ffffffffffffffffffffffffffffffffffffffff16146112d2575061136b565b61135c60036000600486815481106112ed576112ec611960565b5b9060005260206000200160009054906101000a900473ffffffffffffffffffffffffffffffffffffffff1673ffffffffffffffffffffffffffffffffffffffff1673ffffffffffffffffffffffffffffffffffffffff16815260200190815260200160002082600001516113e6565b846113679190611b99565b9350505b8180611376906119be565b92505061106e565b50808061138a906119be565b91505061105e565b600260008573ffffffffffffffffffffffffffffffffffffffff1673ffffffffffffffffffffffffffffffffffffffff16815260200190815260200160002054826113dd9190611b99565b92505050919050565b60008082141561142b576040517f08c379a000000000000000000000000000000000000000000000000000000000815260040161142290611c3b565b60405180910390fd5b60008360010154834261143e9190611b3c565b6114489190611c8a565b9050600081141561145d5760009150506114e4565b60008460000160049054906101000a900461ffff1661ffff16826114819190611cbb565b8560000160009054906101000a900461ffff1661ffff166114a29190611b99565b90508460000160029054906101000a900461ffff1661ffff1681116114c757806114df565b8460000160029054906101000a900461ffff1661ffff165b925050505b92915050565b600080fd5b600073ffffffffffffffffffffffffffffffffffffffff82169050919050565b600061151a826114ef565b9050919050565b61152a8161150f565b811461153557600080fd5b50565b60008135905061154781611521565b92915050565b600061ffff82169050919050565b6115648161154d565b811461156f57600080fd5b50565b6000813590506115818161155b565b92915050565b6000819050919050565b61159a81611587565b81146115a557600080fd5b50565b6000813590506115b781611591565b92915050565b600080600080600060a086880312156115d9576115d86114ea565b5b60006115e788828901611538565b95505060206115f888828901611572565b945050604061160988828901611572565b935050606061161a88828901611572565b925050608061162b888289016115a8565b9150509295509295909350565b6000806040838503121561164f5761164e6114ea565b5b600061165d85828601611538565b925050602061166e85828601611538565b9150509250929050565b61168181611587565b82525050565b600060208201905061169c6000830184611678565b92915050565b6000806000606084860312156116bb576116ba6114ea565b5b60006116c986828701611538565b93505060206116da86828701611538565b92505060406116eb868287016115a8565b9150509250925092565b60008115159050919050565b61170a816116f5565b82525050565b60006020820190506117256000830184611701565b92915050565b600080600060608486031215611744576117436114ea565b5b600061175286828701611538565b9350506020611763868287016115a8565b925050604061177486828701611538565b9150509250925092565b6117878161150f565b82525050565b60006020820190506117a2600083018461177e565b92915050565b6000602082840312156117be576117bd6114ea565b5b60006117cc84828501611538565b91505092915050565b600080604083850312156117ec576117eb6114ea565b5b60006117fa85828601611538565b925050602061180b858286016115a8565b9150509250929050565b61181e8161154d565b82525050565b60006080820190506118396000830187611815565b6118466020830186611815565b6118536040830185611815565b6118606060830184611678565b95945050505050565b6000819050919050565b600061188e611889611884846114ef565b611869565b6114ef565b9050919050565b60006118a082611873565b9050919050565b60006118b282611895565b9050919050565b6118c2816118a7565b82525050565b60006020820190506118dd60008301846118b9565b92915050565b600082825260208201905092915050565b7f4f776e61626c653a2063616c6c6572206973206e6f7420746865206f776e6572600082015250565b600061192a6020836118e3565b9150611935826118f4565b602082019050919050565b600060208201905081810360008301526119598161191d565b9050919050565b7f4e487b7100000000000000000000000000000000000000000000000000000000600052603260045260246000fd5b7f4e487b7100000000000000000000000000000000000000000000000000000000600052601160045260246000fd5b60006119c982611587565b91507fffffffffffffffffffffffffffffffffffffffffffffffffffffffffffffffff8214156119fc576119fb61198f565b5b600182019050919050565b7f4f776e61626c653a206e6577206f776e657220697320746865207a65726f206160008201527f6464726573730000000000000000000000000000000000000000000000000000602082015250565b6000611a636026836118e3565b9150611a6e82611a07565b604082019050919050565b60006020820190508181036000830152611a9281611a56565b9050919050565b7f4e6f74207374616b61626c650000000000000000000000000000000000000000600082015250565b6000611acf600c836118e3565b9150611ada82611a99565b602082019050919050565b60006020820190508181036000830152611afe81611ac2565b9050919050565b6000606082019050611b1a600083018661177e565b611b27602083018561177e565b611b346040830184611678565b949350505050565b6000611b4782611587565b9150611b5283611587565b925082821015611b6557611b6461198f565b5b828203905092915050565b6000604082019050611b85600083018561177e565b611b926020830184611678565b9392505050565b6000611ba482611587565b9150611baf83611587565b9250827fffffffffffffffffffffffffffffffffffffffffffffffffffffffffffffffff03821115611be457611be361198f565b5b828201905092915050565b7f4e6f74207374616b656400000000000000000000000000000000000000000000600082015250565b6000611c25600a836118e3565b9150611c3082611bef565b602082019050919050565b60006020820190508181036000830152611c5481611c18565b9050919050565b7f4e487b7100000000000000000000000000000000000000000000000000000000600052601260045260246000fd5b6000611c9582611587565b9150611ca083611587565b925082611cb057611caf611c5b565b5b828204905092915050565b6000611cc682611587565b9150611cd183611587565b9250817fffffffffffffffffffffffffffffffffffffffffffffffffffffffffffffffff0483118215151615611d0a57611d0961198f565b5b82820290509291505056fea26469706673582212201be67eff3c876333d8e4f9762f4cbe5bab2a15dfc27c6b7d64c1800a07b1852964736f6c6343000809003360806040523480156200001157600080fd5b506040518060400160405280600e81526020017f436f6c6c656765204372656469740000000000000000000000000000000000008152506040518060400160405280600281526020017f4343000000000000000000000000000000000000000000000000000000000000815250816003908051906020019062000096929190620001a6565b508060049080519060200190620000af929190620001a6565b505050620000d2620000c6620000d860201b60201c565b620000e060201b60201c565b620002bb565b600033905090565b6000600560009054906101000a900473ffffffffffffffffffffffffffffffffffffffff16905081600560006101000a81548173ffffffffffffffffffffffffffffffffffffffff021916908373ffffffffffffffffffffffffffffffffffffffff1602179055508173ffffffffffffffffffffffffffffffffffffffff168173ffffffffffffffffffffffffffffffffffffffff167f8be0079c531659141344cd1fd0a4f28419497f9722a3daafe3b4186f6b6457e060405160405180910390a35050565b828054620001b49062000285565b90600052602060002090601f016020900481019282620001d8576000855562000224565b82601f10620001f357805160ff191683800117855562000224565b8280016001018555821562000224579182015b828111156200022357825182559160200191906001019062000206565b5b50905062000233919062000237565b5090565b5b808211156200025257600081600090555060010162000238565b5090565b7f4e487b7100000000000000000000000000000000000000000000000000000000600052602260045260246000fd5b600060028204905060018216806200029e57607f821691505b60208210811415620002b557620002b462000256565b5b50919050565b611a4480620002cb6000396000f3fe608060405234801561001057600080fd5b50600436106100f55760003560e01c806370a0823111610097578063a457c2d711610066578063a457c2d714610276578063a9059cbb146102a6578063dd62ed3e146102d6578063f2fde38b14610306576100f5565b806370a0823114610200578063715018a6146102305780638da5cb5b1461023a57806395d89b4114610258576100f5565b806323b872dd116100d357806323b872dd14610166578063313ce5671461019657806339509351146101b457806340c10f19146101e4576100f5565b806306fdde03146100fa578063095ea7b31461011857806318160ddd14610148575b600080fd5b610102610322565b60405161010f9190611144565b60405180910390f35b610132600480360381019061012d91906111ff565b6103b4565b60405161013f919061125a565b60405180910390f35b6101506103d2565b60405161015d9190611284565b60405180910390f35b610180600480360381019061017b919061129f565b6103dc565b60405161018d919061125a565b60405180910390f35b61019e6104d4565b6040516101ab919061130e565b60405180910390f35b6101ce60048036038101906101c991906111ff565b6104dd565b6040516101db919061125a565b60405180910390f35b6101fe60048036038101906101f991906111ff565b610589565b005b61021a60048036038101906102159190611329565b610613565b6040516102279190611284565b60405180910390f35b61023861065b565b005b6102426106e3565b60405161024f9190611365565b60405180910390f35b61026061070d565b60405161026d9190611144565b60405180910390f35b610290600480360381019061028b91906111ff565b61079f565b60405161029d919061125a565b60405180910390f35b6102c060048036038101906102bb91906111ff565b61088a565b6040516102cd919061125a565b60405180910390f35b6102f060048036038101906102eb9190611380565b6108a8565b6040516102fd9190611284565b60405180910390f35b610320600480360381019061031b9190611329565b61092f565b005b606060038054610331906113ef565b80601f016020809104026020016040519081016040528092919081815260200182805461035d906113ef565b80156103aa5780601f1061037f576101008083540402835291602001916103aa565b820191906000526020600020905b81548152906001019060200180831161038d57829003601f168201915b5050505050905090565b60006103c86103c1610a27565b8484610a2f565b6001905092915050565b6000600254905090565b60006103e9848484610bfa565b6000600160008673ffffffffffffffffffffffffffffffffffffffff1673ffffffffffffffffffffffffffffffffffffffff1681526020019081526020016000206000610434610a27565b73ffffffffffffffffffffffffffffffffffffffff1673ffffffffffffffffffffffffffffffffffffffff168152602001908152602001600020549050828110156104b4576040517f08c379a00000000000000000000000000000000000000000000000000000000081526004016104ab90611493565b60405180910390fd5b6104c8856104c0610a27565b858403610a2f565b60019150509392505050565b60006012905090565b600061057f6104ea610a27565b8484600160006104f8610a27565b73ffffffffffffffffffffffffffffffffffffffff1673ffffffffffffffffffffffffffffffffffffffff16815260200190815260200160002060008873ffffffffffffffffffffffffffffffffffffffff1673ffffffffffffffffffffffffffffffffffffffff1681526020019081526020016000205461057a91906114e2565b610a2f565b6001905092915050565b610591610a27565b73ffffffffffffffffffffffffffffffffffffffff166105af6106e3565b73ffffffffffffffffffffffffffffffffffffffff1614610605576040517f08c379a00000000000000000000000000000000000000000000000000000000081526004016105fc90611584565b60405180910390fd5b61060f8282610e7b565b5050565b60008060008373ffffffffffffffffffffffffffffffffffffffff1673ffffffffffffffffffffffffffffffffffffffff168152602001908152602001600020549050919050565b610663610a27565b73ffffffffffffffffffffffffffffffffffffffff166106816106e3565b73ffffffffffffffffffffffffffffffffffffffff16146106d7576040517f08c379a00000000000000000000000000000000000000000000000000000000081526004016106ce90611584565b60405180910390fd5b6106e16000610fdb565b565b6000600560009054906101000a900473ffffffffffffffffffffffffffffffffffffffff16905090565b60606004805461071c906113ef565b80601f0160208091040260200160405190810160405280929190818152602001828054610748906113ef565b80156107955780601f1061076a57610100808354040283529160200191610795565b820191906000526020600020905b81548152906001019060200180831161077857829003601f168201915b5050505050905090565b600080600160006107ae610a27565b73ffffffffffffffffffffffffffffffffffffffff1673ffffffffffffffffffffffffffffffffffffffff16815260200190815260200160002060008573ffffffffffffffffffffffffffffffffffffffff1673ffffffffffffffffffffffffffffffffffffffff1681526020019081526020016000205490508281101561086b576040517f08c379a000000000000000000000000000000000000000000000000000000000815260040161086290611616565b60405180910390fd5b61087f610876610a27565b85858403610a2f565b600191505092915050565b600061089e610897610a27565b8484610bfa565b6001905092915050565b6000600160008473ffffffffffffffffffffffffffffffffffffffff1673ffffffffffffffffffffffffffffffffffffffff16815260200190815260200160002060008373ffffffffffffffffffffffffffffffffffffffff1673ffffffffffffffffffffffffffffffffffffffff16815260200190815260200160002054905092915050565b610937610a27565b73ffffffffffffffffffffffffffffffffffffffff166109556106e3565b73ffffffffffffffffffffffffffffffffffffffff16146109ab576040517f08c379a00000000000000000000000000000000000000000000000000000000081526004016109a290611584565b60405180910390fd5b600073ffffffffffffffffffffffffffffffffffffffff168173ffffffffffffffffffffffffffffffffffffffff161415610a1b576040517f08c379a0000000000000000000000000000000000000000000000000000000008152600401610a12906116a8565b60405180910390fd5b610a2481610fdb565b50565b600033905090565b600073ffffffffffffffffffffffffffffffffffffffff168373ffffffffffffffffffffffffffffffffffffffff161415610a9f576040517f08c379a0000000000000000000000000000000000000000000000000000000008152600401610a969061173a565b60405180910390fd5b600073ffffffffffffffffffffffffffffffffffffffff168273ffffffffffffffffffffffffffffffffffffffff161415610b0f576040517f08c379a0000000000000000000000000000000000000000000000000000000008152600401610b06906117cc565b60405180910390fd5b80600160008573ffffffffffffffffffffffffffffffffffffffff1673ffffffffffffffffffffffffffffffffffffffff16815260200190815260200160002060008473ffffffffffffffffffffffffffffffffffffffff1673ffffffffffffffffffffffffffffffffffffffff168152602001908152602001600020819055508173ffffffffffffffffffffffffffffffffffffffff168373ffffffffffffffffffffffffffffffffffffffff167f8c5be1e5ebec7d5bd14f71427d1e84f3dd0314c0f7b2291e5b200ac8c7c3b92583604051610bed9190611284565b60405180910390a3505050565b600073ffffffffffffffffffffffffffffffffffffffff168373ffffffffffffffffffffffffffffffffffffffff161415610c6a576040517f08c379a0000000000000000000000000000000000000000000000000000000008152600401610c619061185e565b60405180910390fd5b600073ffffffffffffffffffffffffffffffffffffffff168273ffffffffffffffffffffffffffffffffffffffff161415610cda576040517f08c379a0000000000000000000000000000000000000000000000000000000008152600401610cd1906118f0565b60405180910390fd5b610ce58383836110a1565b60008060008573ffffffffffffffffffffffffffffffffffffffff1673ffffffffffffffffffffffffffffffffffffffff16815260200190815260200160002054905081811015610d6b576040517f08c379a0000000000000000000000000000000000000000000000000000000008152600401610d6290611982565b60405180910390fd5b8181036000808673ffffffffffffffffffffffffffffffffffffffff1673ffffffffffffffffffffffffffffffffffffffff16815260200190815260200160002081905550816000808573ffffffffffffffffffffffffffffffffffffffff1673ffffffffffffffffffffffffffffffffffffffff1681526020019081526020016000206000828254610dfe91906114e2565b925050819055508273ffffffffffffffffffffffffffffffffffffffff168473ffffffffffffffffffffffffffffffffffffffff167fddf252ad1be2c89b69c2b068fc378daa952ba7f163c4a11628f55a4df523b3ef84604051610e629190611284565b60405180910390a3610e758484846110a6565b50505050565b600073ffffffffffffffffffffffffffffffffffffffff168273ffffffffffffffffffffffffffffffffffffffff161415610eeb576040517f08c379a0000000000000000000000000000000000000000000000000000000008152600401610ee2906119ee565b60405180910390fd5b610ef7600083836110a1565b8060026000828254610f0991906114e2565b92505081905550806000808473ffffffffffffffffffffffffffffffffffffffff1673ffffffffffffffffffffffffffffffffffffffff1681526020019081526020016000206000828254610f5e91906114e2565b925050819055508173ffffffffffffffffffffffffffffffffffffffff16600073ffffffffffffffffffffffffffffffffffffffff167fddf252ad1be2c89b69c2b068fc378daa952ba7f163c4a11628f55a4df523b3ef83604051610fc39190611284565b60405180910390a3610fd7600083836110a6565b5050565b6000600560009054906101000a900473ffffffffffffffffffffffffffffffffffffffff16905081600560006101000a81548173ffffffffffffffffffffffffffffffffffffffff021916908373ffffffffffffffffffffffffffffffffffffffff1602179055508173ffffffffffffffffffffffffffffffffffffffff168173ffffffffffffffffffffffffffffffffffffffff167f8be0079c531659141344cd1fd0a4f28419497f9722a3daafe3b4186f6b6457e060405160405180910390a35050565b505050565b505050565b600081519050919050565b600082825260208201905092915050565b60005b838110156110e55780820151818401526020810190506110ca565b838111156110f4576000848401525b50505050565b6000601f19601f8301169050919050565b6000611116826110ab565b61112081856110b6565b93506111308185602086016110c7565b611139816110fa565b840191505092915050565b6000602082019050818103600083015261115e818461110b565b905092915050565b600080fd5b600073ffffffffffffffffffffffffffffffffffffffff82169050919050565b60006111968261116b565b9050919050565b6111a68161118b565b81146111b157600080fd5b50565b6000813590506111c38161119d565b92915050565b6000819050919050565b6111dc816111c9565b81146111e757600080fd5b50565b6000813590506111f9816111d3565b92915050565b6000806040838503121561121657611215611166565b5b6000611224858286016111b4565b9250506020611235858286016111ea565b9150509250929050565b60008115159050919050565b6112548161123f565b82525050565b600060208201905061126f600083018461124b565b92915050565b61127e816111c9565b82525050565b60006020820190506112996000830184611275565b92915050565b6000806000606084860312156112b8576112b7611166565b5b60006112c6868287016111b4565b93505060206112d7868287016111b4565b92505060406112e8868287016111ea565b9150509250925092565b600060ff82169050919050565b611308816112f2565b82525050565b600060208201905061132360008301846112ff565b92915050565b60006020828403121561133f5761133e611166565b5b600061134d848285016111b4565b91505092915050565b61135f8161118b565b82525050565b600060208201905061137a6000830184611356565b92915050565b6000806040838503121561139757611396611166565b5b60006113a5858286016111b4565b92505060206113b6858286016111b4565b9150509250929050565b7f4e487b7100000000000000000000000000000000000000000000000000000000600052602260045260246000fd5b6000600282049050600182168061140757607f821691505b6020821081141561141b5761141a6113c0565b5b50919050565b7f45524332303a207472616e7366657220616d6f756e742065786365656473206160008201527f6c6c6f77616e6365000000000000000000000000000000000000000000000000602082015250565b600061147d6028836110b6565b915061148882611421565b604082019050919050565b600060208201905081810360008301526114ac81611470565b9050919050565b7f4e487b7100000000000000000000000000000000000000000000000000000000600052601160045260246000fd5b60006114ed826111c9565b91506114f8836111c9565b9250827fffffffffffffffffffffffffffffffffffffffffffffffffffffffffffffffff0382111561152d5761152c6114b3565b5b828201905092915050565b7f4f776e61626c653a2063616c6c6572206973206e6f7420746865206f776e6572600082015250565b600061156e6020836110b6565b915061157982611538565b602082019050919050565b6000602082019050818103600083015261159d81611561565b9050919050565b7f45524332303a2064656372656173656420616c6c6f77616e63652062656c6f7760008201527f207a65726f000000000000000000000000000000000000000000000000000000602082015250565b60006116006025836110b6565b915061160b826115a4565b604082019050919050565b6000602082019050818103600083015261162f816115f3565b9050919050565b7f4f776e61626c653a206e6577206f776e657220697320746865207a65726f206160008201527f6464726573730000000000000000000000000000000000000000000000000000602082015250565b60006116926026836110b6565b915061169d82611636565b604082019050919050565b600060208201905081810360008301526116c181611685565b9050919050565b7f45524332303a20617070726f76652066726f6d20746865207a65726f2061646460008201527f7265737300000000000000000000000000000000000000000000000000000000602082015250565b60006117246024836110b6565b915061172f826116c8565b604082019050919050565b6000602082019050818103600083015261175381611717565b9050919050565b7f45524332303a20617070726f766520746f20746865207a65726f20616464726560008201527f7373000000000000000000000000000000000000000000000000000000000000602082015250565b60006117b66022836110b6565b91506117c18261175a565b604082019050919050565b600060208201905081810360008301526117e5816117a9565b9050919050565b7f45524332303a207472616e736665722066726f6d20746865207a65726f20616460008201527f6472657373000000000000000000000000000000000000000000000000000000602082015250565b60006118486025836110b6565b9150611853826117ec565b604082019050919050565b600060208201905081810360008301526118778161183b565b9050919050565b7f45524332303a207472616e7366657220746f20746865207a65726f206164647260008201527f6573730000000000000000000000000000000000000000000000000000000000602082015250565b60006118da6023836110b6565b91506118e58261187e565b604082019050919050565b60006020820190508181036000830152611909816118cd565b9050919050565b7f45524332303a207472616e7366657220616d6f756e742065786365656473206260008201527f616c616e63650000000000000000000000000000000000000000000000000000602082015250565b600061196c6026836110b6565b915061197782611910565b604082019050919050565b6000602082019050818103600083015261199b8161195f565b9050919050565b7f45524332303a206d696e7420746f20746865207a65726f206164647265737300600082015250565b60006119d8601f836110b6565b91506119e3826119a2565b602082019050919050565b60006020820190508181036000830152611a07816119cb565b905091905056fea2646970667358221220f1b6ccad27e771f8f352d9980786cd94db15315be0b08ee8c09449ae6b7764e264736f6c63430008090033",
  "immutableReferences": {},
  "source": "// SPDX-License-Identifier: MIT\r\n\r\npragma solidity ^0.8.0;\r\n\r\nimport \"@openzeppelin/contracts/interfaces/IERC721.sol\";\r\nimport \"./interfaces/ICollegeCredit.sol\";\r\nimport \"./CollegeCredit.sol\";\r\nimport \"@openzeppelin/contracts/access/Ownable.sol\";\r\nimport \"@openzeppelin/contracts/security/ReentrancyGuard.sol\";\r\nimport \"./Interfaces/IStakingInterface.sol\";\r\n\r\ncontract IMDStaking is IStakingInterface, Ownable, ReentrancyGuard {\r\n    struct StakedToken {\r\n        uint256 stakeTimestamp;\r\n        address owner;\r\n    }\r\n\r\n    struct StakableTokenAttributes {\r\n        uint16 minYield;\r\n        uint16 maxYield;\r\n        uint16 step;\r\n        uint256 yieldPeriod;\r\n        mapping(uint256 => StakedToken) stakedTokens;\r\n        uint256[] stakedTokenIds;\r\n    }\r\n\r\n    mapping(address => uint256) rewardModifier;\r\n\r\n    /**\r\n     * A mapping of token addresses to staking configurations\r\n     */\r\n    mapping(address => StakableTokenAttributes) public stakableTokenAttributes;\r\n    address[] stakableTokens;\r\n\r\n    ICollegeCredit public rewardToken;\r\n\r\n    constructor(\r\n        address _token,\r\n        uint16 _minYield,\r\n        uint16 _maxYield,\r\n        uint16 _step,\r\n        uint256 _yieldPeriod\r\n    ) {\r\n        _addStakableToken(_token, _minYield, _maxYield, _step, _yieldPeriod);\r\n        rewardToken = new CollegeCredit();\r\n    }\r\n\r\n    function addStakableToken(\r\n        address _token,\r\n        uint16 _minYield,\r\n        uint16 _maxYield,\r\n        uint16 _step,\r\n        uint256 _yieldPeriod\r\n    ) external onlyOwner {\r\n        _addStakableToken(_token, _minYield, _maxYield, _step, _yieldPeriod);\r\n    }\r\n\r\n    function stake(address _token, uint256 _tokenId) external {\r\n        _stakeFor(msg.sender, _token, _tokenId);\r\n    }\r\n\r\n    function stakeFor(\r\n        address _user,\r\n        address _token,\r\n        uint256 _tokenId\r\n    ) external {\r\n        _stakeFor(_user, _token, _tokenId);\r\n    }\r\n\r\n    function unstake(address _token, uint256 _tokenId) external {\r\n        _unstake(_token, _tokenId);\r\n    }\r\n\r\n    function claimRewards(address _user) external {\r\n        _withdrawRewards(_user);\r\n    }\r\n\r\n    function unstakeAndClaimRewards(address _token, uint256 _tokenId, address _user) external {\r\n        _withdrawRewards(_user);\r\n        _unstake(_token, _tokenId);\r\n    }\r\n\r\n    function totalStakedFor(address _addr, address _token)\r\n        external\r\n        view\r\n        returns (uint256)\r\n    {\r\n        uint256 amount = 0;\r\n\r\n        uint256 i = 0;\r\n        for (\r\n            i;\r\n            i < stakableTokenAttributes[_token].stakedTokenIds.length;\r\n            i++\r\n        ) {\r\n            if (\r\n                stakableTokenAttributes[_token]\r\n                    .stakedTokens[\r\n                        stakableTokenAttributes[_token].stakedTokenIds[i]\r\n                    ]\r\n                    .owner == _addr\r\n            ) {\r\n                amount++;\r\n            }\r\n        }\r\n\r\n        return amount;\r\n    }\r\n\r\n    function totalStaked(address _token) external view returns (uint256) {\r\n        return stakableTokenAttributes[_token].stakedTokenIds.length;\r\n    }\r\n\r\n    function token() external view returns (address) {\r\n        return address(rewardToken);\r\n    }\r\n\r\n    function supportsHistory() external pure returns (bool) {\r\n        return false;\r\n    }\r\n\r\n    // --------------- INTERNAL FUNCTIONS -----------------\r\n    function _isStakable(address _token) internal view returns (bool) {\r\n        return stakableTokenAttributes[_token].maxYield != 0;\r\n    }\r\n\r\n    function _addStakableToken(\r\n        address _token,\r\n        uint16 _minYield,\r\n        uint16 _maxYield,\r\n        uint16 _step,\r\n        uint256 _yieldPeriod\r\n    ) internal {\r\n        stakableTokenAttributes[_token].maxYield = _maxYield;\r\n        stakableTokenAttributes[_token].minYield = _minYield;\r\n        stakableTokenAttributes[_token].step = _step;\r\n        stakableTokenAttributes[_token].yieldPeriod = _yieldPeriod;\r\n\r\n        stakableTokens.push(_token);\r\n    }\r\n\r\n    function _stakeFor(\r\n        address _user,\r\n        address _token,\r\n        uint256 _tokenId\r\n    ) internal {\r\n        require(_isStakable(_token), \"Not stakable\");\r\n        IERC721(_token).transferFrom(_user, address(this), _tokenId);\r\n\r\n        stakableTokenAttributes[_token]\r\n            .stakedTokens[_tokenId]\r\n            .stakeTimestamp = block.timestamp;\r\n        stakableTokenAttributes[_token].stakedTokens[_tokenId].owner = _user;\r\n        stakableTokenAttributes[_token].stakedTokenIds.push(_tokenId);\r\n    }\r\n\r\n    function _tokenDividend(\r\n        StakableTokenAttributes storage _tokenAttributes,\r\n        uint256 timestamp\r\n    ) internal view returns (uint256) {\r\n        require(timestamp != 0, \"Not staked\");\r\n\r\n        uint256 periods = (block.timestamp - timestamp) /\r\n            _tokenAttributes.yieldPeriod;\r\n\r\n        if (periods == 0) return 0;\r\n\r\n        uint256 uncappedYield = _tokenAttributes.minYield +\r\n            periods *\r\n            _tokenAttributes.step;\r\n\r\n        return\r\n            uncappedYield > _tokenAttributes.maxYield\r\n                ? _tokenAttributes.maxYield\r\n                : uncappedYield;\r\n    }\r\n\r\n    function _dividendOf(address _user) internal view returns (uint256) {\r\n        uint256 dividend = 0;\r\n\r\n        uint256 tokenIndex = 0;\r\n        for (tokenIndex; tokenIndex < stakableTokens.length; tokenIndex++) {\r\n            uint256 tokenIdIndex = 0;\r\n            for (\r\n                tokenIdIndex;\r\n                tokenIdIndex <\r\n                stakableTokenAttributes[stakableTokens[tokenIndex]]\r\n                    .stakedTokenIds\r\n                    .length;\r\n                tokenIndex++\r\n            ) {\r\n                StakedToken memory stakedToken = stakableTokenAttributes[\r\n                    stakableTokens[tokenIndex]\r\n                ].stakedTokens[\r\n                        stakableTokenAttributes[stakableTokens[tokenIndex]]\r\n                            .stakedTokenIds[tokenIdIndex]\r\n                    ];\r\n\r\n                if (stakedToken.owner != _user) continue;\r\n                dividend += _tokenDividend(\r\n                    stakableTokenAttributes[stakableTokens[tokenIndex]],\r\n                    stakedToken.stakeTimestamp\r\n                );\r\n            }\r\n        }\r\n\r\n        return dividend + rewardModifier[_user];\r\n    }\r\n\r\n    function _unstake(address _token, uint256 _tokenId) internal {\r\n        address owner = stakableTokenAttributes[_token]\r\n            .stakedTokens[_tokenId]\r\n            .owner;\r\n\r\n        // will fail to get dividend if not staked or bad token contract\r\n        uint256 dividend = _tokenDividend(\r\n            stakableTokenAttributes[_token],\r\n            stakableTokenAttributes[_token]\r\n                .stakedTokens[_tokenId]\r\n                .stakeTimestamp\r\n        );\r\n\r\n        rewardModifier[owner] += dividend;\r\n        delete stakableTokenAttributes[_token].stakedTokens[_tokenId];\r\n\r\n        IERC721(_token).safeTransferFrom(address(this), owner, _tokenId);\r\n    }\r\n\r\n    function _withdrawRewards(address _user) internal {\r\n        uint256 dividend = _dividendOf(_user);\r\n        rewardModifier[_user] -= dividend;\r\n\r\n        rewardToken.mint(_user, dividend);\r\n    }\r\n}\r\n",
  "sourcePath": "C:\\Users\\Cory\\source\\repos\\CyberpunkApeExecutives\\contracts\\Staking\\contracts\\IMDStaking.sol",
  "compiler": {
    "name": "solc",
    "version": "0.8.9+commit.e5eed63a.Emscripten.clang"
  },
  "schemaVersion": "3.4.3",
  "updatedAt": "2021-11-28T06:32:23.213Z",
  "devdoc": {
    "kind": "dev",
    "methods": {
      "owner()": {
        "details": "Returns the address of the current owner."
      },
      "renounceOwnership()": {
        "details": "Leaves the contract without owner. It will not be possible to call `onlyOwner` functions anymore. Can only be called by the current owner. NOTE: Renouncing ownership will leave the contract without an owner, thereby removing any functionality that is only available to the owner."
      },
      "transferOwnership(address)": {
        "details": "Transfers ownership of the contract to a new account (`newOwner`). Can only be called by the current owner."
      }
    },
    "version": 1
  },
  "userdoc": {
    "kind": "user",
    "methods": {
      "stakableTokenAttributes(address)": {
        "notice": "A mapping of token addresses to staking configurations"
      }
    },
    "version": 1
  }
}